:200000000040002059CD000001C9011001C9011001C9011001C9011001C9011001C9011038
:1C00200001C9011001C9011001C9011001C9011001C9011001C901103FC9011089
:20003C002DE9F04FADF12C0D00F074FBAD48AC4D0FF2C82B4FF0000810380790A868B34A04
:20005C0041464FF0FF3300F04DFB0028F6D0404605900DF11A0105AA06A80DF0F9FC0028BB
:20007C0040F08380BDF818000127102878D128789DF81A10884273D1059C20884FF6FF7150
:20009C0081426DD02678913E58D01F3E68D1607816282CD020797E281DD07F280FD00090C5
:2000BC004046464601904246029640F294410392B2A304963A46ACA009F0BAFC38E020899A
:2000DC000090464601964246029240F28F410396B4A30492EEE7207A00904646019640F259
:2000FC008A41029603220396B5A30496E3E720794646009040F27141019602220296BFA3B9
:20011C00039699A0049609F093FC28780DF024FF03464FF08040874900906288102006F057
:20013C0031FB28B9384608F009FE47462C6117E0217904F1080000F0D9FA11E060780E28AF
:20015C000ED1404646460090444640F2544101963A460294C4A3039683A0049409F068FCEC
:20017C00059810B10FB10FF05FF8E86800F0C2FA00287FF463AFE86800F0C0FA0646307A56
:20019C0006F10904002800F0D780401E65D0401E48D0401E00F04E82401E1ED0401E40F0CF
:2001BC004C82F77A002F0CBFB8A0BBA00090474640F2CE214046019001220297B8A3039731
:2001DC0069A0049709F034FC404600909E4922884346102006F0D6FA2FE2B77A06F10904CA
:2001FC00002F0CBFBBA1C0A120784746009001220191C2A302975CA0039740F251310497DF
:20021C0009F016FC27780D3F09D07F1E40F0158201200146641C224604F05AFB0DE20121E5
:20023C004046F7E7208841F21011401A0FD0103809D0103840F0018220796188641D224682
:20025C0004F02AF8F9E120796188641DE3E720796188621D07F03EF8EFE127880FF2B82C33
:20027C00B2A2B8A1BCA3B7F589572CD0103F40F0E481B4F80570381C08D0401E04D0401E0D
:20029C0008BFCDF820C002E0089200E008912079012840F0D281CDF800B0D0A00190089886
:2002BC00444640F226410290012203942EA0049409F0BEFB1FB9CB4800F024FABDE1C948F3
:2002DC0000F024FAB9E1B4F8050068B1401E04D0401E08BFCDF824C007E0099205E0C04623
:2002FC00C0070020380800200991277987B17F1E40F0A381D9A740F2CA310CE04441544185
:20031C00205345525649434500C046C00F0000C0CCA74FF47071CDA000900197099C029494
:20033C0042460392474604970FA0012209F080FB83E1C04699B70010278841F210103F1AF1
:20035C0000F01881203F40F07881A178C54A601D0BF0FEFB2779002F78D07F1E40F06D8105
:20037C009EA04FF47E7174E070726F6A6563745F7A65726F5F6264732E6300C0526563651F
:20039C00766965642047415454204D6573736167652E204F70636F64653A20307825303233
:2003BC007800C0464D54552053697A65206368616E67653A20256420627974657300C0463C
:2003DC00466C6F7720636F6E74726F6C2076696F6C617465642E204F70636F6465206F6633
:2003FC00206F6666656E64696E6720415454206D73673A2030782530327800C04F75746741
:20041C006F696E67205246204649464F2066756C6C2E2052652D7363686564756C65207431
:20043C0072616E736D697373696F6E206F66206D73672077697468206F70636F64652030C8
:20045C00782530327800C046D1DA000093A040F2EE31CDF800B0834F019002974446039442
:20047C00434604938FA35FE748434920436F6D6D616E6420436F6D706C657465204576657C
:20049C006E7420726563656976656400446973706C6179696E6700C053656E64696E67005B
:2004BC00426F6E644D6772205265717565737465642070617373636F64652E2057652061A8
:2004DC0072652025732070617373636F64652025303664001B5B33336D72656C65617365C6
:2004FC00641B5B306D00C0461B5B33326D707265737365641B5B306D00C046C042757474AD
:20051C006F6E206D617070656420746F20494F49445F256420257300496E6469636174693E
:20053C006F6E7320656E61626C6564004E6F74696669636174696F6E7320656E61626C6583
:20055C006400C0464E6F74692F496E642064697361626C656400C04643434344204368619A
:20057C006E6765206D73673A2025732025733A20257300C0A178079A601D0BF0E9FA2379B1
:20059C00671D0FF23C1A0FF23C19002B2CD05B1E53D13DA0009051483EA3019340F28D31DF
:2005BC0001220290404603903EA304904C4809F03FFA6869627907210CF0DCFF3F7807B1FC
:2005DC00CA462EA000904446CDF804A0474602974346039440F29531049329E05374726522
:2005FC00616D00C0DC08002027A0009021A401943A4C40F27E3101222AA30294444603948E
:20061C003748CDF8108009F013FA68693A7806210CF0B0FF3F7807B1CA4613A00090CDF808
:20063C0004A0CDF808804746039740F28631049426A379E6707A05F023F830460DF004F973
:20065C0093E5C046427574746F6E3000427574746F6E205365727669636500C042555454E8
:20067C004F4E310038080020426F6172645F4C45443000C04C45443000C046C0426F6172D5
:20069C00645F4C45443100C04C45442053657276696365004C45443100C046C05374726981
:2006BC006E6700C056616C7565204368616E6765206D73673A2025732025733A2025730023
:2006DC006C6F77006869676800C046C053657474696E6720257320257300C04628080020A2
:2006FC0084030000DFF800F0F99B0110DFF800F089840110DFF800F04FBF0110DFF800F059
:20071C00F1BF0110DFF800F0B9BA0110DFF800F01FBE01102DE9F04F864C04F10801204671
:20073C00ADF1840D0BF0FAFF0FF2681A0020074600904FF4C5710197012202975AA3039796
:20075C005046049709F074F904F1400528463946A76100F019FB04F14C0004F18801E560AF
:20077C0009F038FC606178B900973846019040F29B110290032203905BA30490504609F04F
:20079C0057F900F005FB60696B490EF0B1FC70B100973846019040F2A111029003220390E0
:2007BC0059A30490504609F043F900F0F1FA05A839462422082300F0EFFA614E4FF47A798C
:2007DC0032250D20DFF8748131680B9005AB04F5A070B9FBF1F18AB26A43414600F0E0FAF0
:2007FC000E2031680B9005AB04F5B270B9FBF1F189B24D432A46414600F0D2FA306841F2D1
:20081C0088353A4605AB0126B9FBF0F081B20B9605FB01F04B490A9004F58E7000F0C0FA80
:20083C00ADF83C7040F205300DF17A028DF87A60314602F01FFC40F2063002210FAA02F051
:20085C0019FC621C4FF44270314602F013FC04F1580240F20730102102F00CFC04F1B100F3
:20087C00394620220AF06EFC04F1B10804F1580538462A5C401CC0B229180B78092B18BF96
:20089C00082B01D11F2A5FDB8018C0B22028F0DB5FE0C04670726F6A6563745F7A65726F3C
:2008BC005F6264732E6300C0496E697469616C697A696E6720746865207573657220746113
:2008DC00736B2C2068617264776172652C20424C4520737461636B20616E642073657276FC
:2008FC00696365732E00C0464572726F7220696E697469616C697A696E6720626F617264A7
:20091C002070696E7300C0464572726F72207265676973746572696E6720627574746F6E52
:20093C002063616C6C6261636B2066756E6374696F6E00C0C0070020F1AD0000EDB80000DE
:20095C001408010087F20000491C521E404609F0F3FACDF80080B846019750464FF4F2718D
:20097C00CDF808803246CDF80C80C8A3CDF8108009F05EF8C34D10200622A023294605F0A7
:20099C0001FF10200722A023294605F0FBFE10200822A023294605F0F5FE10200922A02330
:2009BC00294605F0EFFE102032461E23294605F0E9FE8DF87B600EAF8DF87C6030468DF81D
:2009DC007E004FF48162CDF8388004238DF87D80AD4D00971020294605F0D4FE0DF17B00C1
:2009FC004FF48062334600902946102005F0CAFE1FA840F20242334600902946102005F077
:200A1C00C1FE0DF17D000090294640F203423346102005F0B7FE0DF17E00294640F2064252
:200A3C0033460090102005F0ADFEC44910204FF0FF3205F0A7FEC24910204FF0FF3205F0DA
:200A5C00A1FE1027DFF8FCA2BF48C04A0097132351460190384605F095FE04F19C0042460A
:200A7C001523BB490090384605F08CFEB946BA48B84FCDF8009005235146019007F10C02DE
:200A9C00484605F07FFE0520324600904646CDF804808CA3CDF80880D921039685A0CDF83F
:200ABC00108008F0C5FFAD4E94F800B0307880000EF0F8FBAA4D0146E96041B34FF6FF704F
:200ADC000CF0A8FE307880000EF0ECFB01462961E9B14FF6FF700CF09DFEA249484605F126
:200AFC001402009007230191514605F04BFE4746072000904FF4807101970122029771A3C3
:200B1C00039779A0049708F093FF85F800B03078277880000EF0C6FB934E0FF2E01A01460B
:200B3C00F160D9B14FF6FF700CF074FE484600908E490191834906F14C02062305F022FEC6
:200B5C000620009040460190ED210290012203905CA30490504608F06BFF37707D4904F169
:200B7C002800474688600FF2A41800900122019743460297E82103974EA0049708F058FF17
:200B9C0004F13000A8603D46009040F211110195012202954346039553A0049508F048FF69
:200BBC0004F13800B060FE210090012201953E460296434603965046049608F039FF0DF1D8
:200BDC006600142239460AF0BDFA01210DF16602384606F07FFB01200DF16602014606F0F3
:200BFC0079FB384601210DF1660203F071FE01200DF16602014603F06BFE5D490DF13E00F1
:200C1C00282209F099F9384628210DF13E0203F043FB012014210DF1660203F03DFB554D24
:200C3C0069782878A1B904F11C0129620DF094F905F154070096024605F14400019005F1A6
:200C5C001C0302974C490393AB78484605F09AFD4A4904F12002484605F094FD20780DF005
:200C7C007BF947490246484605F08CFD20780DF073F944490246484605F084FD21B0BDE8B0
:200C9C00F08FC046BD840110493C00004E616D6520696E20616476657274446174612061C3
:200CBC00727261793A201B5B33336D25731B5B306D00C0466C65645F736572766963652E53
:200CDC006300C0465265676973746572656420736572766963652C20256420617474726957
:200CFC00627574657300C046627574746F6E5F736572766963652E6300C046C064617461D2
:200D1C005F736572766963652E6300C0526567697374657265642063616C6C6261636B7348
:200D3C0020746F206170706C69636174696F6E2E2053747275637420257000C025E400008F
:200D5C00B1E600008DDE0000800701009C100020D1AB000020180020CC040100694F0020A4
:200D7C00B01600207404010068150020A00401001D040100B80C0020BBCF0000A5E8000099
:200D9C005188011031810110DFF800F0A1B60110DFF800F019B10110DFF800F0C1BF011061
:200DBC00DFF800F069B2011010B50B7884074CBF43F0020303F0FD0304064CBF43F0800350
:200DDC0003F07F0304074CBF43F0080303F0F70384064CBF43F0200303F0DF0310F0AA0FC8
:200DFC000B7004D0107840F00C00107010BD18B9117801F0F301117010BD2DE9F8430D4646
:200E1C001646287802281F464FF0000862D1686801784078089C01EB002189B220001CBFC9
:200E3C00B1F5285F0B205AD14FF42850091A08D0491E1ED0491E2CD0491E22D0491E2ED0E7
:200E5C0048E0DDF82490E8680EF04CFA214680B2421A4A45ACBF4C46041BA4B26018162885
:200E7C0004DA3C802246E86801440EE04FF00D0834E0E8680088022139803070000A70702B
:200E9C002CE0062038800622E96830460DF0A4FE24E001203880E868017831701EE0E86829
:200EBC00B0B108213980018831700188090A71704188B1704188090AF17081883171818851
:200EDC00090A7171C188B171C088000AF07105E0398003E0A7F800804FF001084046BDE8D0
:200EFC00F2832DE9F0470F4682B039780024022970D1804678680A9E0178DFF8E0A0914657
:200F1C00427801EB022189B24FF42850091A1D4606D0491E29D0491E4ED0491E39D059E00C
:200F3C00F8680EF0DFF980B2B04204D3A819162803DB0D244FE007244DE0FB682A4649466D
:200F5C0098190DF049FEAD19F868ADB2C5F11602002140190EF0C4F9DAF8000000281CBF23
:200F7C000268002A37D0002123E08EBB022DE0D199F8000099F80110FA6800EB012010803C
:200F9C00DAF8000000281CBF0268002A23D001210FE0EEB9062DCCD1F868062249460DF03D
:200FBC001BFEDAF8000000281CBF0268002A12D00321404690470EE056B9012DB9D199F8EA
:200FDC000000002813BF0128F9680870802402E00B2400E001242046BDE8F6879C230020D8
:040FFC0030BF70474B
:20100000B41200001810000015AB0110FDB301106DC00110FDAE011099B5011000000000F7
:08102000000000002D0000009B
:20102800B01200003C100000B1C00110A9BF011067C0011069B80110000000000000000035
:041048003000000074
:20104C00B012000060100000BDC00110CDB30110D9BD01106DB3011000000000000000005B
:04106C00310000004F
:2010700000000000541B002004000000000000000000000020000000E8C9011030000000BB
:20109000281000005C1B00200400000000000000000000000C000000D8CA01101800000096
:2010B0004C100000641B002004000000000000000000000024000000F0CA0110180000001A
:2010D000000000006C1B00200400000000000000000000001000000018CA01102C00000026
:2010F000001000007C1B0020040000000000000000000000200000006CCA0110240000008A
:20111000FFFFFFFF841B00200400000000000000000000002800000090CA01102400000049
:20113000FFFFFFFF8C1B00200400000000000000000000001400000008CB011018000000C8
:20115000FFFFFFFF941B002004000000000000000000000058000000B4C901103400000096
:20117000FFFFFFFF9C1B00200400000000000000000000001000000020CB01101800000064
:20119000FFFFFFFFA41B00200400000000000000000000001C000000B4CA01102400000091
:2011B000FFFFFFFFAC1B00200400000000000000000000003800000044CA011028000000B9
:2011D000FFFFFFFFB41B00200400000000000000000000005400000078C901103C0000002E
:0811F00002000000DC07010011
:0411F80001000000F2
:0411FC0000000E00E1
:0412000000000F00DB
:0412040032000000B4
:0412080001000000E1
:04120C00981A00200C
:0412100000020000D8
:0412140000000000D6
:0412180001C90110F7
:04121C0000000000CE
:0412200000000000CA
:0412240008000000BE
:0412280000002200A0
:04122C001019002075
:0412300000000000BA
:0412340000000000B6
:0412380008000000AA
:04123C00581A00201C
:0412400000000000AA
:0412440000000000A6
:04124800080000009A
:04124C00000000009E
:04125000000000009A
:041254000000000096
:041258000000000092
:04125C00010000008D
:04126000A8190020A9
:041264000600000080
:041268000100000081
:04126C007C180020CA
:04127000000000007A
:041274000000000076
:041278000002000070
:04127C00000000006E
:02128000290043
:02128200010069
:02128400250043
:02128600300036
:02128800310033
:02128A002D0035
:02128C0001005F
:01128E00015E
:081290000300000098070100B3
:0812980000000000000000004E
:0412A0000000010049
:0412A4000000030043
:0412A80013C401105A
:0412AC007BED0000D6
:0412B000B812000070
:0412B400B81200006C
:0412B8000000000032
:0412BC000C1B0020E7
:0412C000BDEE00007F
:0412C4002000000006
:0412C800F00601002B
:0412CC009C0501007C
:0412D00029C101101F
:0412D400EBEA000041
:0412D800A7ED00007E
:0412DC00A1C7011095
:0412E000A3C701108F
:0412E4000000000006
:0412E800EB05010011
:0412EC0058030100A2
:0412F0007003010086
:0412F40040030100B2
:0212F8000200F2
:0212FA000900E9
:0212FC000100EF
:0212FE000000EE
:0113000001EB
:041304005DEE00009A
:04130800C1D7000049
:04130C0045E50000B3
:0413100039DA0000C6
:041314009FDA00005C
:0413180045CC0000C0
:04131C0025B40000F4
:04132000A9F0000030
:04132400BDC0000048
:0413280015C70110D4
:04132C0025C70110C0
:201330002DE9F84FDFF81885DFF8181588F80000002008600821DFF8100501700D2141804B
:201350004FF408718180DFF80405DFF8041501608A7EDFF800050270FF2ACB7E437008BF4D
:20137000FF2B0D7F85704E7FC6708F7F0771C97F417115D1FF2D08BFFF2E11D1FF2F08BF52
:20139000FF290DD1DFF8D0140A7802704A7842708A788270CA78C2700A7902714979417142
:2013B000DFF8B81402780A70FF2542784A7082788A70C278CA7002790A714079DFF8A0243C
:2013D00048710021DFF89C04057045708570C570057145711180DFF89004DFF89014466B04
:2013F000DFF88C247078087031781170B078DFF884140870B1680879DFF87C14421E0A70E2
:20141000F078DFF878140870F068DFF87414086008B90DF0D9FA3069DFF86844206008B96C
:201430000DF0D2FA2068DFF8607401688847216851F8042F38469047DFF85004DFF85014A8
:201450003862DFF8500478627069086008B90DF0BBFAB069DFF84014086008B90DF0B4FA11
:20147000DFF838B4DFF838649BF804000DF090FD306008B900F045B99BF80500DFF82474BF
:201490000DF086FD386008B9306837E19BF80600DFF814440DF07CFD206020B930680DF087
:2014B0007FFD38682AE19BF80700DFF800940DF06FFDC9F8000038B930680DF071FD386832
:2014D0000DF06EFD206819E1DFF8A4130A789BF80000DFF8DCA3921C504380B20DF058FD54
:2014F000CAF8080058B930680DF05AFD38680DF057FD20680DF054FDD9F80000FEE0DC487B
:201510000078002800F00281BBF80210DFF8A4B3484380B20DF03CFDCBF8040078B9306832
:201530000DF03EFD38680DF03BFD20680DF038FDD9F800000DF034FDDAF80800DEE0CC4829
:2015500000780DF025FDDC49086080B930680DF027FD38680DF024FDD9F800000DF020FDBC
:20157000DAF808000DF01CFDDBF80400C6E0C0480078182148430DF00BFDD04A1060B0B9B2
:2015900030680DF00DFD38680DF00AFD20680DF007FDD9F800000DF003FDDAF808000DF0CA
:2015B000FFFCDBF804000DF0FBFCC348A5E0B048007840010DF0ECFCC1490860D8B9306894
:2015D0000DF0EEFC38680DF0EBFC20680DF0E8FCD9F800000DF0E4FCDAF808000DF0E0FCC6
:2015F000DBF804000DF0DCFCB34800680DF0D8FCB249086882E09E48007800010DF0C8FC0E
:20161000B0490860F0B930680DF0CAFC38680DF0C7FC20680DF0C4FCD9F800000DF0C0FC26
:20163000DAF808000DF0BCFCDBF804000DF0B8FCA14800680DF0B4FCA04908680DF0B0FC83
:201650009F485AE08A48007800010DF0A1FC9E49086018BB30680DF0A3FC38680DF0A0FCE5
:2016700020680DF09DFCD9F800000DF099FCDAF808000DF095FCDBF804000DF091FC8E483A
:2016900000680DF08DFC8D4908680DF089FC8C4800680DF085FC8B4908682FE07448007843
:2016B000302148430DF074FC884A106070BB30680DF076FC38680DF073FC20680DF070FC60
:2016D000D9F800000DF06CFCDAF808000DF068FCDBF804000DF064FC774800680DF060FCD5
:2016F000764908680DF05CFC754800680DF058FC744908680DF054FC734800680DF050FCFA
:2017100000200DF061F94FF4804192E03168012008713068057331684D7330688573316807
:20173000CD7330680574002031684D743268D072A0223168487103213068C2800172072046
:20175000316848720020326890722821306841820121C176002031684877326882F85E0083
:20177000012031680877326882F85D00396808713868057339684D73386885733968CD73A3
:2017900038680574002039684D743A68D072396848713A6890724FF4207039680022C880DE
:2017B00008818A7401213A68D17421680D732268557321688D732268D57321680D740021A8
:2017D000226855742368D9720121226811710021236859712168C88008810020887221682F
:2017F000887405202268D0743948016888472A490A6805461068804727490A6852F8043F53
:201810000020984718481D4BC16818780A88314902430A80284630490A6890470C212F4889
:201830000EF004F80F480DF0FDFF0DF0F7FF4FF4005198F80000BDE8F44F07F021BC00BFBC
:201850006E4F0020044F0020604E0020084F0020B63F00502C4E0020E81200503C4E002010
:201870000C4F0020344E00203C0801006D4F00207B4F00206B4F0020724F00206C4F00209A
:20189000F04E0020F44E00207C4B0020A1EF0000F84E0020B1EF0000FC4E00204C1B00200A
:2018B000104F0020144F0020184F00201C4F002080230020684E0020004F0020804E00200E
:2018D000844E0020884E00208C4E0020904E00201C160020544F002020160020F84D002048
:2018F0002DE9F04FD44C04F118012046ADF1440D0AF01AFF00264FF6FF7066700121208279
:2019100004F1A4000CF00EF8022104F1C8000CF009F8042104F1EC000CF004F84FF0040AF4
:2019300004F1440810224046314684F802A009F00FFC04F1540910224846314609F008FC7F
:2019500004F11C073E6004F10A052E70E671267207206072CDF80080DFF810830222102034
:201970000346414604F014FF102003224146CDF80090034604F00CFF102052464146009721
:20199000134604F005FF4FF0080B4FF0030905F12A000C9005F179000D9005F11E000E90CF
:2019B00005F15A000F902435109517E06078A28FE18FB4F84050B4F8423006280ED1ADF8AE
:2019D0001A20ADF81C10ADF81E50BF48ADF820300DF086FC012006A909F036F9A069B94A5A
:2019F00031464FF0FF33FEF783FE071CF6D002960DF122000DF12E0102AA0CF02FF80028B4
:201A100040F0C881BDF822102078102940F0BE819DF82E10884240F0B981029D29884FF67A
:201A3000FF728A4200F0A7812B78A23B00F08A812E3B40F0AB81A978B046002900F046810A
:201A5000891E00F01581491E012940F2E580891E00F0A880491E7BD0491E5CD0083900F0EC
:201A70006181891E40F0648194F83A30A888052BADF80C0047D001208DF8160092480DF007
:201A90002FFC94F83A0001281ED004281CD003280DD002280BD00298C188ADF80E100189D9
:201AB000ADF810104189ADF81210818927E0A08FE58FADF80E00B4F84030ADF81050B4F88C
:201AD0004210ADF812301AE0A08FE9888842D8BF081CADF80E002989E08F8842D8BF081C45
:201AF000ADF810006989B4F840008842D8BF081CADF81200A989B4F84200884200DC0846F3
:201B1000ADF8140001E08DF81660AE49102003AA04F03EFE0CE1AC480DF0E2FB6B78002B53
:201B300040F00681E88860822889A0826889E08265480DF0FDF9002840F0FA80656A002DF8
:201B500000F0F6802B68608AA18AE28A9847EFE0AA88B449102004F01BFE0C98414606228E
:201B700009F0F6FA6682A682E682A879207356480DF0B6FB94480DF0B3FB4FF001084FF6E0
:201B9000FF702379208253B9A879082812BF84F801A00520607040460DF0F2F9C8E084F8B6
:201BB0000190C5E06B787BBB291D0C980A680260898881800623637068892082E889608214
:201BD000288AA082688AE082E878E07294F83A00012818BF02280BD1984910201F2204F009
:201BF000D7FD4FF47A7180B2414337480BF000FD688900909049CDF804A0EA7810202D1D07
:201C10002B4604F0C5FD96E06878312840F08780E67084F801A08EE06B78002B7FD1A87848
:201C3000E3896178032815D0E078257933B9012814BF2671E67008E0B80C0020054304D08C
:201C50007F4819460BF0D4FC61780729E1D10620607070E0062907D0E578002D08BF84F8AF
:201C7000019068D00220F3E70720F1E769E800006B78002B53D1EB78617893B902291DD06D
:201C900007291BD0062902D12079012816D1032914D06B480DF04CF980B901200DF070F9A9
:201CB0000CE00CF05FF90246A079624900900D9843460190102004F06BFD68706D78002D03
:201CD0002DD135E007000080800D00206B7833BB5C485749009002221020034604F058FD22
:201CF00059484A46524900901020034604F050FDED1C0E9829680160A9880123818020782F
:201D100063700CF02FF9024601230F9D6079494900901020019504F03BFDC0B258B184F8C0
:201D300001B008E0AA8841491020052304F030FDB8F1010F2AD1256A45B32D6835B3607835
:201D5000A84723E06879132820D12889012808D1607B022805D11C480DF0C2FA0BF0C8FE08
:201D700014E036491020052204F012FD81B216480BF03EFC0AE06888C00B07D3334852462E
:201D90002B4900901346102004F002FD029808B10DF050FA2579E078790830D355EA00035D
:201DB0002DD0204600788DB9E179257A8DF82410109A8DF8255013680DF126052B60928853
:201DD000AA8005E005160110A40D00208DF82490617A8DF82C10A17A8DF82D100CF0C2F87F
:201DF0001149024609AB102004F0D2FC38B1256A84F801B01DB12D680DB15846A847B80878
:201E100003D31349304608F01FFFF808FFF4E6AD607B401E3FF4CAAD401E7FF4DFAD0BF033
:201E300067FEDBE5E9C6000059440110C1170110458300000945011035850000F5840110BC
:201E50005C0D0020FC0C00200C0D0020D40C0020F20C00202DE9FF47C34C0F460646F80B5B
:201E700080F05881B80880F04981607ADFF804A3B90F80F0CB80E079390914D2B80BC0F040
:201E90006A8104F13C000DF01BFA061C08D0706830B17568F068B6F9241000222023A847E5
:201EB00027F4005757E1012800F0AB80E06870300DF0EEF968460BF097FC20B1009904F1BD
:201ED00098000DF075F800254FF00108E570A74884F805800DF0EEF8A5492A4604F16000A8
:201EF0000DF0E2F950460068006B80476061A2782169A369012AA0EB010018444FEA1030CD
:201F1000A06105D163781BB9E169B0EBC12F3AD9DFF8649284F80280A9F11500006865708C
:201F3000000A30D340F60900A08494F8310000F0F00040F0010084F8310094F8300000F0FA
:201F5000F00084F83000A5620DF0A8F94B4603F6FF7211686FF0020C21F00201116004F1D5
:201F70002401C3F8FBCF854AC3F8EB1F11688908FCD3C3F8FBCFD3F8FF1F41F00201C3F8DD
:201F9000FF1F0DF047FC7E4A10687E4920F00200256140F400701060032341F8043C41F24E
:201FB00030038B604046086050238B6008604FF4CA638B600860237841F80C0C15601BB947
:201FD000E06838300DF080F902200BF091FC112007F0B6F8307C10B90E2007F0B1F8207A6E
:201FF00018B1257205200BF083FC674965710878A57140B10D7004F1BC0004210DF06CF910
:2020100001E00020E07127F00807A4E020B104200BF06EFC00206072B168088840F602087F
:202030004FF0000980450AD0B0F5C15F07D00A8B4FF61F60104040F43470088306E00A8A87
:202050004FF61F60104040F4347008822069F0B1DAF85400016804208847C0B1DAF800000B
:202070002569006B8047F168401B738AF060020BF26098188842F06002D240184008F060A2
:2020900040F6C41181422CBFB0F5FA7FF16094F8310010F00F0F0CD1718C08F10700884289
:2020B00007D1B56930466FF480714A464FF00073A847364904F160004A460DF0F5F86078F9
:2020D00060B10220ADF8040001A80CF093F8BDF80C0084F801904011A4F860010120E07057
:2020F00084F804900AF0A0F97569494630464FF080630A46A84727F000572CE005F0A0FEDC
:2021100004F144000DF0DCF827F0020708B147F0020720E00DF0C2F8014604F140000DF05C
:20213000CFF8061C12D0356AA8080FD225EA0500306208460DF06EFB706850B12A46F06899
:20215000B6F9241075680023A84702E008460DF061FB27F4804727B104F1BC0039460DF02D
:20217000BBF80090BDE8FF87F81B0020F987000049E400008C0100101500044010100440A7
:20219000000004600C410440AD230020895F00002DE9F04F09AFADF13C0D08900A9238887A
:2021B00009911E46ADF81800101C08BF002000F08481002700F101094FF0FF3A4FF0010B67
:2021D000B8466CE1252940F063811078521C0A922D2818BFADF8068005D15846551CADF8CF
:2021F000060010780A9530281CBF4246434605D10A9908785A465B46491C0A912A28CDF80D
:202210000080554616D1306804930A99CDF808A0C01C4B1C20F00300001D306050F8044CD2
:202230000A93002C0878009418D5ADF806B06442009413E044460AE0610001EBC401091895
:20225000A1F130040A9908780094491C0A91302801DB3A28F0DBCDF808A004932E282BD13A
:202270000A9908782A2801F101010A9111D13068CDF80880C01C20F00300001D306050F89F
:20229000045C002D48BF454608782B46491C0A9111E0454643460AE0690001EBC5010918F3
:2022B000A1F130050A9908782B46491C0A91302801DB3A28F0DB02930AB1224604926C2870
:2022D00004D04C2818BFADF8048005D10A990878ADF804B0491C0A910BA9CDF80C800FAB95
:2022F00007916428059300F08B80692800F08880BDF818C0752872D078286ED06F286AD073
:20231000702850D063283DD073281ED009980A990128A1F101010A9115D96B490C68B5F17C
:20233000FF3F03D0A84288BF6D1C00D8099D029508A80AA932466B46A0473F180A990398A5
:2023500001F1010974E040462AE030680A99C01C20F00300001D306050F8040CBCF1000FA2
:2023700001F10109014608B955A0014607910CF059FD0390B5F1FF3F5BD0A842C4BF281CD0
:20239000039056E03068C01C20F00300001D306010F8040C5D468DF82C000A9903955846EB
:2023B00001F1010945E0082035680490E81C20F00300001D306050F8041C082210230FA853
:2023D00009F0B2F9401E0790402101700A99079801F1010929E0082302E0102300E00A23EE
:2023F0000A99306801F10109C01C20F00300001D306050F8041CAA42BCBF2A1C049210E05F
:202410000A99306801F10109C01C20F00300001D306050F8041CAA42BCBF2A1C04926FF0CF
:2024300009030FA809F080F90790059D281A0390009C241ABDF8065000945DB906E008A824
:20245000202109AA0BF0C1FE009C7F1C641E0094F5D503980546401E039075B9BDF80600E7
:20247000E8B10098401E009019D408A8202109AA0BF0ABFE00987F1CF4E70798411C079156
:20249000017809AA08A80BF0A0FE03987F1CE1E708A809AA0BF099FE7F1C09F101094A4695
:2024B0000A9812F8011C401C00290A907FF48AAE089808B14146017038460FB0BDE8F08FC7
:2024D000286E756C6C2900C020080100BB482DE9F84F0025BA4CB849056094F8E200002870
:2024F00000F06581012800F02F81B64E02283CD0032840F05C8151F8250CD4F8B810002984
:20251000A0F5C060C4F8D400B8BF49420028B8BF4042814226DA4FF08057D7F8A401456849
:20253000B4F8BC0030214FF47F42082300903046A847D7F8A4014568B4F8C00004214FF4B9
:20255000F802122300903046A847D7F8A401B4F8D070456820214FF440620A2330460097DA
:20257000A847012584F8D8501CE151F8258C0CF0B3FD2F4600B901273946934F3868002870
:20259000FCD0B146012609F10409D9F82CA03E6009B10CF0A7FDCAF30720C4F8BC000CF04D
:2025B0009BFDAA4600B9B2463B68002BFCD0D9F800B0BAF1000F3E6001D00CF093FDCBF344
:2025D0008440C4F8C0000CF087FDAA4600B9B2463B68002BFCD0D9F81C90BAF1000F3E601B
:2025F00001D00CF07FFDC9F38120C4F8D000B8F5C061C4F8B81000F09C8094F8D80068B9B6
:20261000C4F8D410D4F8C000C4F8C800D4F8BC70C4F8C470D4F8D030C4F8CC30D4F8D410DE
:20263000D4F8BC30002954BF02206FF0010004F1C802176801EB41014018411000EB917112
:2026500007EBA1001060D4F8C810C4F8C43000291CDD1E293CDDD4F8CC0030B93429B4BF40
:2026700015391E21C4F8C81025E02A29BABFD4F8C8000B381E20C4F8C800D4F8C4003F28C8
:20269000B4BF401C3F20C4F8C4001FE0D4F8CC00032812D011F10B0FC6BFD4F8C8000B3068
:2026B000301CC4F8C800D4F8C4000028C4BF401E051CC4F8C450032508E011F1150FC6BFF5
:2026D000D4F8C8001530301CC4F8C800C4F8CC504FF08057D7F8A401B4F8C43030214FF4AB
:2026F0007F424568374800930823A847D7F8A40104214FF400321123456832480096A84742
:20271000B4F8C860D7F8A40104214FF4F802122345682C480096A847D7F8A40120214FF42C
:2027300040620A23B4F8CC60456826480096A84701E084F8D85040F2FF50404502D8801C41
:2027500040452FD2082030E051F8251C1F4F4BF2F5204843060A3868C0F3814001280CD1AC
:202770001B480068006880470AF0DEFD0CF0C0FC3111C010484306EBE03694F8E50030B9C4
:202790001448006820F07F408019460801E084F8E5501148310C0660012741600F4D876015
:2027B000287808B90B2000E0052084F8E40003F05FFEBDE8F88FC0462D400C402C500C4015
:2027D0005414002000A00C4000800C40B43F0050EC010010102009403C600C40D906010028
:2027F0002DE9F04FB64D686885B0019020B905B0BDE8F04F0DF00AB80178DFF8C882B24E10
:20281000DFF8C892DFF8C8A201291CBF0229042946F2A81741F64C5B05D0402918BF802946
:2028300000F09A8043E10CF08DFC0028FAD00198007804F01DFF0090446814B900200CF09D
:20285000C3F89AF80100002860D001F035FE0CF0C1FA02900168009801914F6809F074F8A6
:20287000022827D000990A78012ADBD1994B19680A7A19F80230337018B90CF0C3FF58443B
:20289000A0602069C17E01F0EF01C1762069C17E41F08001C1762069C17E01F0F00141F0BC
:2028B0000201C1768C48B96841182069C16101210098A0E001980178802913D10822874803
:2028D00032700178012903D09AF80100012803DD38690121C17213E0D8F828103A69087820
:2028F000D0720DE07D49072030700A783869012A02D10123C37203E0D8F828104A78C272B1
:202910000298817901988AF80210CBE00098002888D00199009A0078914205D101281CBFCA
:2029300000200CF051F815E0012840F0C080694801680A7A19F8020030700CF063FF391894
:20295000A0680CF05BFF18B90CF05CFF5844A0600120A8700098A5E09AF8010000287DD0E7
:2029700001F0AAFD0CF036FA04462068029047689AF802000CF02EFA03900CF0E9FB10F045
:20299000070F3DD0A87804F073FE0190416801980091029908F0D8FF022831D001990A786A
:2029B000012A2AD14B4B19680A7A19F80230337028B90CF027FF83440098C0F808B00099F5
:2029D0000869C17E01F0EF01C17600980069C17E41F08001C17600980069C17E01F0F001D4
:2029F00041F00201C176009AB9683B4841181069C16101210198A97054E000200BF0E4FF24
:202A10000398A04228D002980178802913D10822324832700178012903D09AF80100012819
:202A300003DD38690121C17213E0D8F828103A690878D0720DE02949072030700A78386907
:202A5000012A02D10123C37203E0D8F828104A78C272A0798AF80200029823E00CF078FB85
:202A700010F0070F29D0A87804F002FE04462078D4F80480012820D116490A68107A19F86B
:202A9000001031700CF0BEFE3918D8F808000CF0B5FE20B90CF0B6FE5844C8F808000120D7
:202AB000A870204605B0BDE8F04F06F05FBC05B0BDE8F04F00200BF087BF05B0BDE8F08F0B
:202AD000802300203C0801006F4F0020289A0110684E0020104F0020F0D8FFFF734F002030
:202AF0002DE9F04F0C46E00789B00BD50CF030FA28B100218160A448006800B1804784F0DE
:202B100001003EE1A00710D5002006900021049000230290009005910393019101223C200C
:202B30000CF068FE84F002002BE11D256007974E974F40F18A800020079083469549887894
:202B5000FF2804BF00200BF03FFF386890F8A0000CF040F980463868C07A98F82691022814
:202B700018BF032808F5907A06D106F10D000CF03DFE08B906F1070B514648460CF032FE0F
:202B900088B33868807A002818BF012804D1314650460CF023FE04E05246494630460CF0AC
:202BB00019FEFF2834D005FB00F906EB090506225146E81D0CF016F816F8090040F00209AB
:202BD000E81D079006223868817E01F0010188F8261105F1010A386800F1140108F5907034
:202BF0000CF000F814E0514648460CF0EFFD78B15246494630460CF0EDFDFF2808D006F12E
:202C10000D01454348190CF0F1FD08B149F0020908F12C004B46017806914189090905918E
:202C3000B8F82220079904920122C088029140080390CDF804B0CDF800A0002098F80610DF
:202C50000CF0D8FD84F004009BE0200610D5002006900021049000230290009005910393B9
:202C7000019101223B200CF0C5FD84F0800088E0E0043BD5F11D06F10D000CF0A3FD3868D8
:202C90004179012923D1017A012918BF04291ED1C17A022918BF032919D1817E00F114025B
:202CB00030460CF097FDFF2811D04543354405F10D000CF09BFD50B9E91D05F10D000CF050
:202CD00081FD38680622E91D14300BF08BFF324932484A6800784FF480510AF0DFF810B10A
:202CF0008E2008F0BDF884F480504AE0A00505D50CF0F2F92A4901200860FEE7610504D571
:202D100007F081F884F480603BE0600405D5812008F0A6F884F4804033E0A00430D5214DE9
:202D3000286810B100200BF04FFE4FF0FF3028600CF044FD1C4D296851F8202F6846904780
:202D50001A48016A426A2D68009101921849029100F128014A6809781368C06903938DF831
:202D70001010ADF812006B462E68124A12491348B0471349086003F09BFE84F4005000E024
:202D9000002009B0BDE8F08F204F0020AC450020104F0020684E0020784E00206E4F00206E
:202DB000FC002043044F0020F04E00204819002051EF00002C4D00206845002088490020BB
:202DD000EC4E00202DE9FE4F0F46994C0168E16241688068E0609748A16080479648E16A9F
:202DF0000160A168DFF870B24160E168DFF8648281609249002FA246C16063D03D68E8788D
:202E10008DF8080028798DF8090002A80CF0D2FCA86808B18A490160E86808B18949016039
:202E3000894C2878207068786070A878BE68A07031787368E170B26863602E69A26079684B
:202E5000E6610868E06068692062A8696062287F84F828002A6AE262786886681EB900205D
:202E70000BF0B2FD00E066617868C06818B900200BF0AAFD00E0A0617868406818B90020FC
:202E90000BF0A2FD00E020612869E061F86881680E6806B96E4E6D494FF001094E60C66840
:202EB00081F801902EB900200BF08EFDF868454601E045462E6000685C46FE68A06170683D
:202ED000E06106E000200BF07FFD4FF001095C46454628686149466804F108035A465020B6
:202EF000B04710B1286880688047DAF8080080475C4F0026834669467E7059483E7004227E
:202F1000606130460AF00CFE0098B0F5801F0CD020B90BF003F904F0F3FD08E009F07AFFA0
:202F30000BF08AFF0420788001E00BF0F7F84E4FB0462868C7F808808069E66080477860DE
:202F50004A48468080F8009014200CF021F8FF211422A0620CF0CAF9E01CFF2102220CF065
:202F7000C5F914200CF014F8414908600868142231460CF0BBF93046FEF7D2F948460AF0CA
:202F90000FFA3C480188FF2906D1022101807822001D31460CF0AAF903200CF007FC042055
:202FB0000CF000FC05200CF0F9FB06200CF0F2FB072009F04DF8304E0820307006F124001F
:202FD0000CF0E4FB09F088FA06F1360705200A213A460BF041FC38B14046C0F10901401CC9
:202FF00007F8011B0A28F8DB3078102106F048F82F68224909200DF10A0201AB7D68087054
:2030100010204146A847A06AE2690A270A309DF80A1000F8011BDAF80C107F1EF7D1921E74
:203030005846E261884702F0E9FDBDE8FE8FC0461416002041490010F844002044F8000044
:2030500051E0000065EB0000481900202C1B00204BBF0000D01B0020081A0020B5E4000007
:20307000C5EB0000C41B002074230020C81B0020A423002034170020CC110020B72300208E
:20309000FEB50C4617460546A0F201319B4A99481A291CD8DFE811F0F600F2002A011B00BC
:2030B000CB00C6001101FE00BF00B8002A01B000A9001B001B00A000930085007B006D008E
:2030D0001B001B001B001B0050001B002500282D80F20C81022C40F0098185493B882846A9
:2030F00000E1012C40F00281C178012900F0FE8002793978017182B9002900F0F78040780D
:20311000012800F0A680042800F0A380062800F0A080052800F09D80FEBD3978002940F0E4
:20313000E5804178032900F0A080072900F09D80052940F0DB8098E0012C40F0D780397852
:20315000012940F0D380064606F1EC000BF0F0FE002840F0CB803446002004F13A0107F036
:2031700073FD002840F0C28004F1C8000CF0B8F8FEBD022C40F0BA8039880A29C0F2B6809D
:20319000B1F5486F00F3B2801046801C15E0022C40F0AC803988B1F5FA7F80F2A78010465D
:2031B0000BE0022C40F0A28039880629C0F29E80B1F5486F00F39A803E300180FEBD022C92
:2031D00040F0948039880629C0F29080B1F5486F00F38C803C30F0E7012C40F08780397835
:2031F000062980F2838046480CE0012C7ED1397804297BDA0A3005E0012C77D1397808297C
:2032100074DA09300170FEBD012C6FD1397804296CDA0830F6E7012C68D13978042965DCC0
:20323000C01DEFE7022C61D139880E30C5E7012C5CD10179012959D0C2783978C17062B962
:20325000002953D04078012803D0042818BF05284CD101200BF094FEFEBD3978002945D1B8
:203270004178022918BF052940D100780AF07AFE21490246102003F08BFAFEBD102C35D103
:20329000543002E0102C31D144303946102206F059FEFEBD064606F1830500211F222846B2
:2032B00007F056FF39462246284606F04BFE3078B4710AF057FE002311E0064606F1640542
:2032D00000211F22284607F043FF39462246284606F038FE307874710AF044FE01230094D3
:2032F000084901950246102003F052FAFEBDC046BD840110B80C002099450110F80C002016
:20331000F20C0020094501102DE9F04F8246DAF800600C465FEA0208ADF11C0D14BF002171
:203330004FF0FF3106F1480083460BF0B6FD002818BF0B2040F00D8100258848F460B8F17E
:20335000010F057007D0657002200AF061FC06200AF05EFC01E0012060702078012840F274
:20337000AB80801E012868D9801E012833D9801E012800F2DF800BF091FF06904FF08050EF
:2033900000F5EE77D0F8DC01A378466A009321782846062908BF0120019001200290A06856
:2033B000228AE1686368B047814606980CF032FAB9F1000F40F0C080B8F1000F02D00BF00B
:2033D000E1FB02E050460AF070FD002800F0A4803868806A2AE00BF061FF06904FF0805052
:2033F00000F5EE77D0F8DC01012306680093A168A27860682478AC46042C08BF9C4663469E
:20341000B047814606980CF005FAB9F1000F40F09380B8F1000F02D00BF0B4FB02E050469D
:203430000AF043FD002877D03868406880474A49C1F8B0510D6081467EE00BF02FFF069026
:203450004FF0805000F5EE76D0F8DC01E38A87690093E0680190208B0290A0780390207D01
:2034700004900121059122782846022A08BF081CE1786268A368B847814606980CF0CAF980
:20349000B9F1000F58D1B8F1000F02D00BF07AFB02E050460AF009FD00283DD03068006A91
:2034B00080475FEA000947D13068C569A168E28A2369E078A847BEE70BF0F0FE06904FF05A
:2034D000805000F5EE76D0F8DC01E38AC7680093E0680190208B0290A0780390207D294612
:2034F000049001200590257805B9014608466268A368E178B847814606980CF08BF9B9F1C6
:20351000000F19D1B8F1000F02D00BF03BFB02E050460AF0CAFC08B914201AE0306840697F
:2035300080475FEA000907D1306802692169E078904780E74FF0FF39B8F1010F05D0022040
:203550000AF0D6F906200AF0D3F958460BF0BCFE484607B0BDE8F08F50450240B62300201A
:20357000F0B507460020ADF11C0D0E46044664A500900322019464A30294DA2103942846D4
:20359000049406F05BFA64A3B81E09D0801E00F09E80401E7DD0401E5DD0401E3CD01BE03B
:2035B000012E0CD00094019428460294ED2103940322049406F042FAEE215AA393E000941C
:2035D000019428460294E82103940322049406F035FAE92158A386E0009401942846029428
:2035F00040F2051103940322049406F027FA0094204601904FF4837102900322039054A305
:203610000490284606F01AFA01208DF817009DF817000028FBD170E00094019428460294B4
:20363000FF2103940322049406F008FA0094204601904FF480710290032203904AA3049084
:20365000284606F0FBF901208DF816009DF816000028FBD151E00094019428460294F9212F
:2036700003940322049406F0E9F9009420460190FA2102900322039040A30490284606F043
:20369000DDF901208DF815009DF815000028FBD133E00094019428460294F32103940322DB
:2036B000049406F0CBF9009420460190F42102900322039036A30490284606F0BFF9012014
:2036D0008DF814009DF814000028FBD115E00094019428460294E02103940322049406F037
:2036F000ADF9E1212EA30094204601900290039003220490284606F0A1F907B0F0BDC04670
:203710006D61696E2E6300C03E3E3E535441434B20415353455254002A2A2A4552524F5279
:203730002A2A2A003E3E20494E5445524E414C204552524F522100C03E3E20494E54455259
:203750004E414C204657204552524F522100C0463E3E2044454641554C54205350494E4CA9
:203770004F434B2100C046C03E3E2057524F4E47204150492043414C4C2100C03E3E204950
:2037900043414C4C2054494D454F55542100C0463E3E204943414C4C2041424F52542100D5
:2037B0003E3E204F5554204F46204D454D4F5259210070472DE9FE4F05467F4800240068DE
:2037D0000094C0090ED37D48007858B97D497C4851F8112C104040F0817041F8110C202036
:2037F00009F03AFB012D40F0E280DFF80892D9F8DC00012840F0D8800220C9F8DC000AF043
:203810000FFF012009F028FB5FEA000805D00120C9F8DC000AF014FFCBE00BF059FDA34677
:2038300002906948694DC0F800B0A86A016801208847012804D1584608F0BCF801200090B3
:203850006348644FC0F800B0386811200BF062FC00B1012410200BF05DFC08B144F002041B
:203870000F200BF057FC08B144F004040B200BF051FC20B12868584E016B308888470A202F
:203890000BF048FC20B12868544E016B308888475348012606602868816944F0200088471E
:2038B000504806600BF030FC00F001010191400814D2286A81684C4888478246BAF1040FBD
:2038D000F7D0BAF1010F04D1286A42684648032190474649086820F003000860584600F0B4
:2038F000F5FE2B683868986B8047019801280CD0BAF1010F04D1286A42683B48314690478D
:203910003A49086840F0030008603148066028684169204688470B200BF0FCFB20B128683D
:203930002D4BC16A188888470A200BF0F3FB20B128682A4BC16A18888847294806600322E6
:20395000C9F8DC20274BC3F800B02868416B204688470128F9D13868042009F07DFA0446DB
:20397000194806603868144800688009FBD30098012802D1304608F01DF80BF0B3FB0820CD
:2039900009F06AFA07460298C9F8DC600BF0FAFE1748008807F0E8FD0AF052FE57EA040091
:2039B00018BF4FF0FF3804E06FF0040801E06FF001084046BDE8FE8F141009403C1500207C
:2039D000FFFFFCFC150009400C400940B8010010000222432C200940D6020100D20201007B
:2039F00028200860800104430040034024220840D4060100541400202DE9F04FDFF83482E9
:203A1000814609AFFF208A461C460025ADF1240D3E7908903F889AF800000692022807D190
:203A3000DAF80400008842F60211814200F08180504608F0F1FB58A3079010B3401E0ED00E
:203A500028460090019040F222210290032203904AA3049045A005F0F1FF0A2082E05FA032
:203A70000090CDF8049040F21D210294012203973EA0049605F0E2FF4146142001F1040B80
:203A900010E058A00090CDF8049040F20F2102940122039735A0049605F0D0FF414628208E
:203AB00001F1020BB842059122DD07EB0408404518DBB8F1000F03D1182E10D0122E0ED022
:203AD000DAF80C0006992246C01906F03BFAB8F1000F1BD0ABF800800798089016E040F2C8
:203AF000362101E040F22D21284640A30D2504E028464FF40A7146A30725009001900290A3
:203B100003900322049019A005F098FF0898FF280DD00598806850B1066846B1E419A0B226
:203B30000090079A069B41F230114846B047284618E000974846514608F010F941460831C7
:203B50000F68061C0DD167B1786850B1504608F063FB00947C68069B024641F23011484696
:203B7000A047F0B209B0BDE8F08FC046646174615F736572766963652E6300C041747472F3
:203B9000696275746520776173206E6F7420666F756E642E00C046C05772697465417474BC
:203BB000724342203A20257320636F6E6E48616E646C6528256429206C656E28256429209F
:203BD0006F666673657428256429206D6574686F64283078253032782900C0465374726537
:203BF000616D00C0537472696E6700C0496E76616C69642076616C7565206C656E6774684A
:203C1000207761732072656365697665642E00C0416E20696E76616C6964206F66667365EB
:203C30007420776173207265717565737465642E00C046C0681500207CB5894D1446024669
:203C50000026A2F58062182A1AD8DFE812F0FE00F800F100E900E200DC00D500D00019006C
:203C7000C500BE00B700AE00A3001900190080006F00680054004C00420039002C002400B5
:203C9000282880F28580022940F0828021880BF075FD0646E1E0012940F0DE80002C00F0F9
:203CB000DB801135A6E0102940F0D680002C00F0D38028465030102221460AF093FFCCE0E0
:203CD000012940F0C980002C00F0C68029468D1D90E0262940F0C080002C00F0BD8005F138
:203CF00060002622E8E7012940F0B680002C00F0B3806D1D7EE0602900D13CB9012940F0CD
:203D1000AB80002C00F0A8800D3573E005F18600214660220AF066FF012068739DE0012928
:203D300040F09A8020780BF025FD96E0012940F093802078022800F38F800C35287020785C
:203D5000022814BF301C01200BF010FD85E0072940F08280611C684606220AF05FFE2078D8
:203D70006946324605F018FE04460A2C10DA0BF0F9FC38B9204603F00FFD0AF0C7FA08F09E
:203D9000ABFB6AE02A46012002F12C05285564E0022662E001295FD1A87B21780028A973E9
:203DB0005BD12078012858D1E9E7012954D12478072C51DB102C4FDC0B3537E001294BD1BF
:203DD00024780A2C48DA093530E0012944D12478022C41DA083529E000293DD10BF0C2FC37
:203DF00010B90AF0B7FFC8E701240F351EE0012932D10A35247819E001292DD12478022C31
:203E10002ADAED1D12E0102926D12B4603F1400051E7012920D12478022C1DDA2D1D05E07A
:203E3000012919D12478042C16DCED1C2C7014E0012911D12478022C0EDAAD1CF6E7022978
:203E50000AD120881435288007E0012904D12478022CD8BF6D1CE9DD182630467CBDC04655
:203E7000CC1100202DE9F04F044678488E46016894461F46BEF1000FADF1440D4AD0BCF1E6
:203E9000000F47D09EF8002001209040014241D0BCF80000B0F5C15F2FD1DCF81400DCF8BC
:203EB00018606B4BDCF81C50DFF8A8A10E904FF003080DF134090F9618681095C0F3036B56
:203ED00059F8046FB6B10021331F05200A4653F8045FAA4506D0401E01F1040102F1010201
:203EF000F5D107E0052A05DA705820F4702040EA0B407050B8F10108E2D1C4F804E0C4F895
:203F100008C00BF0CBF9544D8346287820B158460BF080FC002095E003F080FA4F49086810
:203F300040F0020008600AA80AF0FAFF4FF0050905F1BC000AAA4A49CDF8309009F012FA62
:203F50000AA80AF0CCFF00264FF0FF0A05F1600019210AAB8DF83060424ACDF82CA009F0FC
:203F7000A5F90AA80AF0DCFF05F1F0000AAA3E49CDF8309009F0F6F90AA80AF0B0FF4FF0E4
:203F90000108CDF82CA005F17C001A210AAB374A8DF8308009F08AF93549324605F198005F
:203FB000134608F06FFD33480BF084F8324A3346042105F14C000AF031F94FF6FF70A5F871
:203FD0006001AE702E716E71AE71EE712E726E722E61C5F81C902B7885F80180581C287031
:203FF00058460BF017FC1FB903AF38460AF0DEFE386820607868E060387C84F81180207492
:20401000788A60821D4DA5616561F86800B1A061B86800B160613146782204F1200007F0B5
:2040300097F804F13800314609F0F4FF68460BF0F8F81349029404F1700032466B4608F040
:2040500021FD204611B0BDE8F08FC046D4210840541300500200F844F81B00200020094013
:204070003DEC000049E4000059980000E1AC000081EF0000F987000065C90000EFAD0000A2
:204090006FF20000F0B57348734A0078734C744B74490D2883B03CD8DFE800F0DB070707BC
:2040B00007D3D358D39292B0B0B7146041F204456D494C88AC421FBF4E8BAE424E8EAE4202
:2040D00003D11D806948106072E0022C684D1C804FF4A05635D94FF48067E41B1AD0241FD0
:2040F000012C1DD94FF47F77E41B1BD04FF44067E41B0FD0A41E012C0CD9241F0AD0641E2F
:20411000012C0DD940F2F937E41B012C19D9241F08D096E0022814BF1E80564D156047E091
:20413000554DFBE7554803681C7A012C05D141F20240488048834886F0E74E804E834E862A
:20415000ECE700200AF040FC83207EE04C488178FF2952D0182041434A48146040F2044511
:204170000068841C645A1C80641B012C464B70D94FF47F75641B0FD04FF44065641B032C1C
:2041900084BF641F012C0BD9A41E012C61D940F2FD35641B06D103E0801C41F201444452C8
:2041B000136005E000200AF00FFC85200BF0D6FA03B0BDE8F04035480078012104F060BF50
:2041D00040F204424888188090421CBF41F2084290423ED041F60402904211D12C4C2D4A05
:2041F00025682D4800680023CDE9002355F8086F2A4B0222B0472A490880F7BD48881880DE
:2042100000200AF0E1FB85201FE04888188002280DD940F20442801A1BD040F6FC72801A41
:2042300005D0083815D04FF47F72801AE8D1887B801CC0B2B528A8BF66208873002048802F
:20425000F7BD00200AF0C0FB8420BDE8FE400BF085BAF7BD6F4F0020204F002069F2000088
:20427000504F0020CC4C0020204A002059550110615A0110B1540110755B0110104F0020AC
:20429000684E0020804E0020313901106E4F0020F04E002002000080EC4E002069D9000076
:2042B000424F00202DE9F04F814CE5684CA3061C92460F460FF2F00BADF1140D1DD0761E54
:2042D00007D00024074640F233113BA3224620465DE04AA000900026019740F22F110296E5
:2042F000012203965846049605F0A8FB04F1040804F110090126142011E042A0009000262F
:2043100001974FF492710296012203965846049605F094FB04F1020804F124092820B8423C
:2043300030DB002F2ED0484651463A4605F00AFE002EA8F8007033D0A878002808BF33A16F
:2043500003D001280CBF36A13BA12888002700903E46012201913DA302974FF4A1710396CC
:204370005846049605F06AFB06200090514F207804F14C034946324601902846029705F0D5
:204390000DFA0DE00124002240F24B113AA3009701940290039258460492032205F04EFB7D
:2043B00005B0BDE8F08FC046646174615F736572766963652E6300C0536574506172616DB6
:2043D000657465723A20506172616D6574657220232564206E6F742076616C69642E00C0C7
:2043F000536574506172616D65746572203A202573206C656E3A20256400C04653747265E8
:20441000616D00C0537472696E6700C04E6F74692F696E642064697361626C656400C04665
:204430004E6F74696669636174696F6E20656E61626C656400C046C0496E646963617469AF
:204450006F6E20656E61626C656400C05472616E736D697474696E67206E6F74692F696EE0
:20447000642D20636F6E6E48616E646C652025642C20257300C046C04C656E677468206F3D
:2044900075747369646520626F756E64733A204C656E3A202564204D696E4C656E3A202595
:2044B00064204D61784C656E3A2025642E00C046681500208D6D00002DE9FE4FDFF8FC81BE
:2044D00098F8011011B900200AF07EFA0BF09AF90546002405F6C4150027794EDFF8E491C4
:2044F0000EE038460AF076FC417939B1316882790A552946641C0BF02DF9E4B27F1CFFB24B
:2045100099F800008742ECDB98F80100844205D000200AF059FA82200BF020F998F801008A
:20453000012840F0A980002701E07F1CFFB299F80000874280F29A8038460AF04BFC0546A5
:2045500068790028F1D03068A979027891421CBF00200AF039FAA87986E0306810F8090022
:204570000AF038FC00684268DAF808109068814204BF3D4609F1010900F08D808FE03068F8
:20459000047801210FE0D8F80420435C02F5AD7209FB03F509FB04FE555B32F80E209542F4
:2045B00038BF1C46491CFFB2B942ECDB4FF6FF700BF0CCF8834620460AF00CFC40F6C41507
:2045D00000684168CDF800A000204FEA5B076F4382460291CDF804B016E020460AF0FAFBC9
:2045F00001680A78802A04BFDBF810305F610978402907D1344A8079136803EB401107F591
:20461000A062CA610AF1010A0098824554DA306810F80A008442F5D0D8F8043009FB00F29B
:20463000991803F5AD73C9899A5A4B08934203D2009B891A8B42E5DA0AF0CCFB0068D0F8A3
:2046500004B0029A0198DBF80810936800EBD0704010A1F6C41105FB00300BF0CFF800287A
:20467000BBD0306810F80A00BDE8FE8F00200AF0ABF982200BF072F898F8011030680BF0CA
:2046900061F8306800780AF0A5FB00250168D1F804A04FF001096F1CA145FFF65EAFEDB2B1
:2046B000002D1CBFF8B20028A2464FF4C0797FF466AF3068047879E72046D5E7684E0020B8
:2046D000004F00207B4F0020844E00202DE9F84FDFF8F4B10746ABF13500DFF8E0910068D8
:2046F000800880F0D98071480068006880477A490831D1F8008000254FEA28725FEA98519A
:2047100002F101020AD2C0F13E0110F10A0F4FEAE101D8BF08218A42B8BF0A1C644BD3F8EF
:204730007C11C1F304611629A8BF20391B68C3F30443162BA8BF203B9A468918162905DAA2
:2047500011F10A0FB8BF6FF0090100E01521594B594E01F01F0242F4F8521A80326812F025
:20477000030F18BF0125D20828BF45F002050FB145F004054A4692F90730C31A052B04DAE2
:204790009379AB4208BF918866D0DFF834E10F28A0F10F0C25DB0CEB0013A3F1F00C4FEA58
:2047B0002C26072E88BF07263446062C88BF06245EF82470042303EB84037446E358DB1B60
:2047D00003F0FF04EF0824BFC3F307273C44AF0824BFC3F307473C446F0828BF04EB1364B3
:2047F00001E0002426465EF826E0EF080EF0FF0324BFCEF307273B44AF0824BFCEF30747EB
:204810003B446F0828BF03EB1E63A4B2ACEB0626AAEB01017443002904F1800403EB14230E
:20483000D8BF0121342408F0FF074C43A1B27943B1FBF3F14FF6FF738B4238BF191C8028D3
:2048500089B2918005DA10F1800FB8BF6FF07F0000E07F20D07195711A4800681F291060F0
:204870004FF0000008D340F2FF128A4206D24908401C8A42FBD301E01F219180134F0F3904
:20489000090940EAC10047EA0001CBF8FB1F0026CBF8FF6FBDE8F88F0D490E4F4A4608200E
:2048B0000F60921D1070BDE8F88FC046EC0100103C1100506E620840242208409423002001
:2048D0009C130050082009403500094000E7A48030100940FDFDA400AC3F00502DE9F04F18
:2048F0007D4CD4F810B0E56847A391460F460FF2DC08ADF1140DB8B1411E07D0002207463E
:2049100040F2491136A31446204652E045A000900026019740F24511029604F1020A039643
:204930005D460496A61D0BE040A000900197002602964FF49D71039604F1010A0496261DEF
:204950000122404605F07AF8022F2CDA5FB3504649463A4605F0F6FA3780A878002808BF9E
:2049700034A103D001280CBF37A13DA12888002700903E46012201913EA302974FF4AC715B
:2049900003964046049605F059F807200090534F207804F114035146324601902846029764
:2049B00004F0FCFE0FE00122002040F261113CA314460097019205460294032203904046A1
:2049D000049505F03BF805B0BDE8F08F627574746F6E5F736572766963652E6300C046C0EA
:2049F000536574506172616D657465723A20506172616D6574657220232564206E6F742082
:204A100076616C69642E00C0536574506172616D65746572203A202573206C656E3A2025CB
:204A30006400C046425554544F4E3100427574746F6E30004E6F74692F696E6420646973DF
:204A500061626C656400C0464E6F74696669636174696F6E20656E61626C656400C046C0B0
:204A7000496E6469636174696F6E20656E61626C656400C05472616E736D697474696E6775
:204A9000206E6F74692F696E642D20636F6E6E48616E646C652025642C20257300C046C028
:204AB0004C656E677468206F75747369646520626F756E64733A204C656E3A202564204DF3
:204AD000696E4C656E3A202564204D61784C656E3A2025642E00C046B01600202D6C0000F2
:204AF0002DE9FE4F0E468246307AC10693461C464FF000090CD558460AF020FE030000F0A9
:204B1000EA800A223146504698475FEA00094DD13078DDF838800D9D0C9F02281AD170681C
:204B30000178407801EB002189B24FF42052891A012910D9891E3AD0491E14D0FD397BD004
:204B5000491E00F08280491E6ED0491E74D0491E00F09780ADE0002D2AD1F06801783980EF
:204B70000278416889E0002D22D101203880F0680178217000217089401C80B20AF0DAFDC5
:204B9000398860B10278921C51183980418961704189090AA17002784168E01C6EE0091DCD
:204BB000398004220021601C0AF0A0FB95E0002D68D1F0680588042139802570290A61709D
:204BD00028460DF102010AF0B5FD5FEA000821D0D8F80C50BDF802204FF6FF766B46314683
:204BF0000AF0A4FD50B998F80030D8F804203C4802210AF097FD08B9ADF800602878022888
:204C10000AD169680222201D09F0ECFF3888801C388001E0ADF80050BDF80000A070BDF82F
:204C30000000000AE07058E0002D2BD1F068016850460AF04CF902E025BBF068008802214E
:204C500039802070000A607047E0F0680AF050FB80B229468842B8BF4FF007093DDB814251
:204C700008BF002206D008EB01028242B2BF4246451BAAB23A80F0680144204609F0B2FF8F
:204C90002BE015B14FF00B0927E0F0680721398001782170417861704188A1704188090A56
:204CB000E17001792171C1886171C088000AA07113E058460AF032FD5FEA00090BD00F987B
:204CD0000290CDF8048000953B46224631465046C847814601E04FF00E094846BDE8FE8F91
:204CF00052040100F8B57E4F04463868C16E0025002940F0F18010200AF04AF93968002895
:204D1000C86600F0E7808E6E1022214609F06AFF39680878002840F08E80CA6ED6F89800E2
:204D300012F80CCF00F001030CF0010C634518BF0023400843EA4000C6F89800C0F34003DE
:204D5000D2F800C0CCF3400C634506BF430803F00103002320F0020040EA4300C6F8980007
:204D7000C0F38003D2F800C0CCF3800C634506BF830803F00103002320F0040040EA830045
:204D9000C6F89800C0F3C003D2F800C0CCF3C00C634506BFC30803F00103002320F00800B8
:204DB00040EAC300C6F89800C0F30023D2F800C0CCF3002C634506BF030A03F001030023C1
:204DD00020F4807040EA0320C6F89800C0F34023D2F800C0CCF3402C634506BF430A03F0A4
:204DF0000103002320F4007040EA4320C6F89800C0F38023D2F800C0CCF3802C634506BF5D
:204E1000830A03F00103002320F4806040EA8320C6F89800C0F3C0231268C2F3C022934248
:204E300006BFC20A02F00102002220F4006040EAC220C6F898008A6E92F89500030718D5D6
:204E5000C86E4368C3F3C00098B1C87840F00800C870D6F8981023480140C6F898103868CA
:204E7000C06EC16821F48071C16049084900C16003E092F8330001282AD0607800281CBF4B
:204E90007178002908D13968CA78130708D5002804BF7078002803D03A68052111711CE029
:204EB0006068C0F3800040B996F8950010F0040002D10120087110E00AD00878002819BF10
:204ED00030782178317820780AF024FC054604E0182502E0132500E011252846F2BD00BFAE
:204EF000304F0020FEFEFFFF2DE9F0411C4615468C4208BF854282BF00230022E5E0002C32
:204F100008BF002D0AD100290EBF00286FF000006FF0000100F0E1F8BDE8F0815FF000089F
:204F30005FF0000E002C08BF8D429CBF2C1C0025070C47EA01470E0CB44208BFBD429EBFBB
:204F50005FEA044444EA15445FEA0545070A47EA01670E0AB44208BFBD429EBF5FEA04244A
:204F700044EA15645FEA0525470847EAC1774E08B44208BFBD4200F29380870847EA817780
:204F90008E08B44208BFBD427CD8C70847EA4177CE08B44208BFBD4266D8070947EA01771A
:204FB0000E09B44208BFBD4250D8470947EAC1674E09B44208BFBD423AD8870947EA81676F
:204FD0008E09B44208BFBD4224D8C70947EA4167CE09B44208BFBD420DD8E60146EA55667F
:204FF000EF01B14208BFB84201D3C01BB14158EB08085EEB0E0EA60146EA95664FEA8517FD
:20501000B14208BFB84201D3C01BB14158EB08084EEB0E0E660146EAD5666F01B14208BF87
:20503000B84201D3C01BB14158EB08084EEB0E0E260146EA15762F01B14208BFB84201D383
:20505000C01BB14158EB08085EEB0E0EE60046EA5576EF00B14208BFB84201D3C01BB14196
:2050700058EB08084EEB0E0EA60046EA9576AF00B14208BFB84201D3C01BB14158EB080840
:205090004EEB0E0E660046EAD5766F00B14208BFB84201D3C01BB14158EB08085EEB0E0E4E
:2050B000A14208BFA84201D3401BA14158EB08085EEB0E0EA34208BFAA423EBF2D0A45EA88
:2050D0000465240A89D3734642461E4617460B46024631463846BDE8F08170472DE9F04F1B
:2050F00009AF3D7981461C468A460846ADF1240D3F88069207F0E8F80026FF214BA3DFF8DB
:20511000C8810790089108B3401E0ED03046009001904FF4F6710290032203903CA3049011
:2051300037A004F08BFC0A2066E051A00090CDF8049040F2E71102940122039730A00495DD
:2051500004F07CFC404600F1040B0FE04AA00090CDF8049040F2D91102940122039728A054
:20517000049504F06BFC404600F1020B05901FBB07EB0408B8F1020F18DAB8F1000F03D102
:20519000182D10D0122D0ED0DAF80C0006992246C01904F0D7FEB8F1000F1BD0ABF8008070
:2051B0000798089016E04FF4007101E040F2F711304633A30D2604E030464FF4F97139A381
:2051D00007260090019002900390032204900CA004F034FC0898FF280DD00598806850B199
:2051F000056845B1E419A0B20090079A069B41F210114846A847304609B0BDE8F08FC046F1
:205210006C65645F736572766963652E6300C04641747472696275746520776173206E6F46
:205230007420666F756E642E00C046C05772697465417474724342203A20257320636F6E1D
:205250006E48616E646C6528256429206C656E28256429206F666673657428256429206D63
:205270006574686F64283078253032782900C0464C45443100C046C04C45443000C046C075
:20529000496E76616C69642076616C7565206C656E677468207761732072656365697665EA
:2052B000642E00C0416E20696E76616C6964206F666673657420776173207265717565730F
:2052D0007465642E00C046C0201800202DE9F0410446764DA178A869ADF1180D891F00F05C
:2052F000DE80C91E00F0C980491E5FD0491E48D0C91E3CD0481E40F0D580287A697AB8B937
:205310006878002831D0A0880AF000FA071C00F0C980A07A40080FD3787968B1E168890AD2
:205330000AD2B91D01AA04F037FB0A2804D10321A0880AF0E7F9B5E0287B022802D1A07A5E
:205350000009F4D3A088797904F1080201F058F9A869002800F0A6804368002B00F0A280DB
:2053700000210A46A08898479CE00521E0E7002800F098804368002B00F094806278022135
:20539000F0E709F0EDFD002800F08C80A86950B1076847B1206900906189227B637BE01C2C
:2053B0003C46A0477EE060890121C2E767784FF00008002F52D1A17949084FD3EF69002FD6
:2053D0004CD101A841460E2209F090FFA0880AF09DF9071C66D0606940B97879B91D0622F6
:2053F0008DF80A0001A809F0FDFB19E06669307C062206F111018DF80A0001A809F0F2FBB1
:2054100007F10C00B91D062209F0ECFBB81D062206F1110109F0E6FB307C40F002007871F3
:20543000A1799DF81120C1F3800010438DF81100080905D39DF8110040F008008DF8110002
:2054500001A8214600F010FA28B92878022103F017FE404627E0A8694FF0150810B343681E
:2054700003B3A088627801219847B8F1000F19D0A86943680321424674E7E078211D002247
:2054900004F08AFA0A280DDA410001EB800004F10C0225300421C0B202F04CFF02E0A08888
:2054B00007F01AF9012006B0BDE8F081CC1100202DE9F04F6C4CE2680746880FADF1140DEE
:2054D000C0F0CF805068406808B18047E2685168664E886808B9CD6875B13568002DFCD084
:2054F0000022326010B18047E0684168C86800B180475F4808F07EFE4FF00008C6F8008027
:205510005C4846F81C0C5C4809F0D4FD40F60A09A4F82490A378A4F82680BD6894F830002C
:20553000C34604F1240A00F0F00084F83000012BC4F828B094F83100A5F8028000F0F00027
:2055500040F0010084F8310001D17B7CABB1B8680088A9F10801814208D0B0F5C15F05D0B8
:20557000298B4FF60F400840288304E0298A4FF60F400840288287F81180404801688368D7
:205590000193C368406B00911022694620F0784040F0805003903A48029304F0D3FC49465B
:2055B00000E01D466B6813B118888142F9D1C5F804A0687B00F0F000687304F1380009F0AF
:2055D0007FFE80680088A9F10701814220D0491C81421DD03B8CEBB197F82C0097F82D305A
:2055F000C7F824B000F0F00087F82C0003F0F00040F0010087F82D0007F12002A2629AF80D
:205610000D00A7F8228000F0F0008AF80D0001E0C4F8108030680028FCD0C6F80080B968A5
:20563000237A0A8A4FF6FF301040088283B91548006801680120884701280FD0687B00F0A6
:20565000F00040F0010068730F4809F033FD05E007F02CFD0028FBD009F030FEB86846F841
:205670001C0C05B0BDE8F08FF81B00201C1004400100070601010E04651E00004C13005022
:2056900018000021E00100108DBE000010B5401EADF1280D47D0401E41D0714C801E2ED0B0
:2056B000401E1AD0401E0BD0401E05D0401E72D14FF44E713EA31FE040F222313EA31BE042
:2056D00040F2153006A902F0FBF806A807F0A4F8002440F21D313FA353E004F1D400FBF7FA
:2056F00017F804F1F800FBF713F804F58E70FBF70FF84FF44D7141A30020044641E004F14C
:20571000D400FBF705F804F1F800FBF701F804F58E70FAF7FDFF40F22B313EA3ECE740F286
:20573000133141A3E8E74FF4417008A902F0C8F89DF821308DF8193000248DF81C408DF8CD
:205750001B409DF822208DF81A209DF825108DF81F109DF820008DF818009DF824309DF8FA
:2057700023208DF81E303F498DF81D2006AB586848601A680A6008A807F04EF840F20E3156
:205790002CA3009001942046029003900122049002A004F053F90AB010BDC04670726F6A99
:2057B0006563745F7A65726F5F6264732E6300C04572726F7200C046436F6E6E6563746556
:2057D0006420616E64206164766572746973696E6700C046436F6E6E65637465642E20500B
:2057F00065657220616464726573733A201B5B33326D25731B5B306D00C046C0436F6E6EB6
:20581000656374696F6E2074696D6564206F757400C046C0446973636F6E6E6563746564B2
:20583000202F2049646C65004164766572746973696E6700474150206973207374617274C9
:2058500065642E204F757220616464726573733A201B5B33326D25731B5B306D00C046C0D2
:20587000C0070020071000202DE9FF478146714CDFF8BCA1E069884600284CD1B9F1000FD1
:2058900000F09480B8F1000F00F09080484608F05BFC05460A2D23DAD8F814702574002FC4
:2058B00037D0680010216A4600EB85002330C0B208F0D2FF90B950460778FF21102268462C
:2058D00009F0F1F850B93FB999F80600494600F0010009F013FF01E00120A074E0691AE05A
:2058F00004F1E6070A2600253846FF21062209F0DAF868B9761E07F10E0705F10105F3D14E
:20591000607C002804BF0A2020744FD094F836502574E06900E0257C0A2D47DA002835D1D8
:2059300068000E214A4600EB85002030C0B202F001FD207C07F034F86846FF21102209F056
:20595000D5FC207C10216A467030C0B202F0F2FC217C0E220801A0EB410000194946E63097
:2059700009F040F9D8F814206AB15046007840B9107C02F11101002300F0010009F0BAFE69
:2059900001E00120A074C4F81C804CE08268002A3ED10269002A2FD142690ABBC2683AB918
:2059B000A07B08B108F094F908F047FF01203BE06800102100EB85002430C0B202F0BAFC8D
:2059D000E769217CFA68480000EB8100103225300421C0B202F0AEFCE1690020C86022E056
:2059F0006800102100EB85002330C0B202F0A2FCE1690020486116E068001C2100EB85001B
:205A10002230C0B202F096FCE169002008610AE068001C2100EB85002130C0B202F08AFC21
:205A3000E1690020886000200090BDE8FF87C0465A4F0020CC11002066480178002900D13C
:205A500070472DE9F043491E032985B004D9891F012940F2BC80B4E05F4CDFF880912168A1
:205A7000DFF87C8108685F4E00F10805062205F1080102A809F0B6F80622A91C684609F01B
:205A9000B1F82878C1091D2700F00F02032AC0F3801537D16079C0F3800081421ED12169D9
:205AB000062202A808F02CFE00280AD06946284609F098FE002804D03146684609F08EFE8E
:205AD000FF2879D04743D8F80000807AF519002818BF02280AD0012818BF03286CD1F25D2A
:205AF000691C484609F002FE102865D06B46EA1D2946484609F0F6FD06226946E81D09F0A7
:205B100071F859E000F00F00052860D16079C0F38000814250D12169062202A808F0F0FD45
:205B3000002849D06946284609F05CFE002843D03146684609F052FEFF283DD04743D8F86D
:205B50000000807AF519002818BF01280AD0022818BF032830D1F25D691C484609F0C6FDE0
:205B7000102829D040F2024009F0B8FD6B46EA1D2946484609F0B6FD06226946E81D09F08C
:205B900031F8D8F80010F05D88760622D8F80000691C143009F026F81348144A41F2044198
:205BB000418041834186124801801249124808600121107803F064FA21680A6800201071FA
:205BD00005E0002008F000FF862009F0C7FD05B0BDE8F0836F4F0020F44B0020CC47002019
:205BF000104F0020AC450020204A00206E4F0020504F0020204F0020595501102DE9FE4F2E
:205C1000674D664C674F2868626A066904F1200339460120B04710B1286880688047DFF807
:205C30009881DFF8849108F05DFB5FEA000B03D004F030FC4FF0FF3B002637E000986169A0
:205C500010F8062CA0F10C07032A02D171B388472CE0A06A9DF805C00A213246401E10F8EA
:205C7000013F9C4506D0491E02F10102F7D14FF0FF0A01E05FFA82FA2868BAF1FF0F00F1C0
:205C9000080011D0387907F03FFDB979012904D0022904BF0099887001E0009908700099ED
:205CB000504608F04DFD01E0006880472868C3690DF105016A4601A898470028BED0D9F86D
:205CD000000030F8167027B9761CF6B20A2EF8DB23E00A2E21DAD8F808008047D9F800102B
:205CF0007700002231F807A0CA53D8F80C1088472E4850F826206670514630469047064649
:205D1000FF206070D8F808008047D9F800107A5A16437E52D8F80C10884708F0E3FA07462A
:205D3000BB451AD007B9224FE069B84238BF071CD8F80800804782462868016A206A884720
:205D5000626A286817491B4B521C6262C6683846B047D8F80C1050468847E7682968A06803
:205D700014318FB9D9F800000A270026835B33B10969A06888472968D9F8000014317F1E0F
:205D900006F10206F2D103E0096988472968143109684FF0FF30884745E7C046081A002015
:205DB000D01B002051D70000A42300204C0501008EC2F528281A0020141600202DE9F04FF9
:205DD000ADF1240D079001F029FB6148007808F0EBFA604D0024012808D90A380FD0801EA0
:205DF00004D0401E0ED0401E09D006E008F076FE022804BF01210C1C06D0696805E0052111
:205E10001F2401E0032107246960534A1068C0F38150012806D152F80C0C0127020E07FA02
:205E300002F0044309F074F8524AFF230818401E471C28607F1E02F8013BFBD1079A1268D3
:205E5000002702F0FF03FE2B20D0DDF81CC096463B4601260EF0FF02FF2A10D0904205D317
:205E7000914203D806FA02F2144201D002206CE017430EF0FF02DFF8FCE00EF802305CF843
:205E900004EF5B1C0EF0FF02FE2AE5D1092003F0C9FA07980121A86005F1280008F0BAF83B
:205EB00005F19806A8464FF0010A4FF0040B0025A9460AFA05F0044216D1074204BF05F07D
:205ED000FF0141F4C04104D02A480799405D51F82010224802F0CAFEE8B24FF0FF3108F05B
:205EF0001FFDC6F8009001E0C6F800B0D8F800006D1C361D8542DCD904A808F0F0FF184CBA
:205F1000184A2078102104AB059008F10C0007F0CDF9684609F004F8CDF80C906A466068C4
:205F30001149029008F1640007F01CFA0F4951F80D0C20F4F85040F4005041F80D0C0C4FB4
:205F5000C1F8FFAF4846C7F800A009B0BDE8F08FB523002040130020B43F0050007FC767A5
:205F7000CC0701004DE900007DD000000D30094008000940841300202DE9F84F694CE76BC8
:205F900008F0B8FD6A4D002F4ED081081BD207F110020CCA002102400B4008BF002A43D038
:205FB0003A693E6A10403043386207F1180696E80C002764194307F11806104386E80300C8
:205FD0004FF480412CE039693E6A07F1180341F0020108403043386293E8000300220026F5
:205FF00007F1180340EA080046EA090183E803003E69E2632B46A3F1100000F10803196826
:20601000B14307F11006196096E8000301684B4699430160394604F1440006F09FFD0221D0
:2060300004F1BC0009F058F9AB46002601254FF002094FF0110AA846F0B208F0FDFC071CD0
:2060500030D0B87C01282DD1ABF11400797C0368113105FA01F223EA02010160797C426881
:20607000113105FA01F111434160787C08FA00F0C0B208F0EFFCF868002108F039F881285A
:2060900008BF87F8129081280CD0787C94F862110AFA00F0084384F86201002104F1F0006C
:2060B00009F01AF9761C032EC6D3204809F008F90746E06B002832D167B3684606F090FAFB
:2060D00030B1009820B1082004F0C2FFBDE8F88F082008F0BFFC14493869A1F1080213686D
:2060F00007F110061843106096E80C0051F8102C181C104341F8100C00250D60B86841F8E1
:206110001C0C0F68002FFCD0084808F00BFDE063BDE8F88F04F1BC00494609F0DDF8BDE863
:20613000F88FC046F81B00201C100440301C00201C10044060480178042900D870472DE950
:20615000F84F891F2FD0491E012900F2AA805B4CA078FF2827D008F03DFE82460AF16C064F
:20617000706809F0B7FA0746387903281BD1B868017811F0030904D17068BDE8F24F09F046
:20619000A5BA457800F102080AF20F10B9F1030F00900DD045B1307830B900983D21417066
:2061B00001210098017084E0454801780129FAD09AF894000AF59A7B58B32D1F4346EAB290
:2061D0004946504609F07EFA50B900993D204870012000990870BDE8F24F3A4809F06EBAA7
:2061F00039480168884700904FF4C0709AF80620616842438818002180F83911DBF8001067
:206210009BF80600490805F011FD304900980A6890470020B9F1030FB8602ED02C48406918
:206230000078810708D5C0074CBF03200020EDB2401918F8000000E0812030722549BBF810
:206250003E000A78904211D3317A802918BF81290FBF7F21204A1078091A49B200914B4643
:20627000A078EAB2414609F025FA11E0A0784B46EAB2414609F01AFA0AE00F480178082906
:2062900003D04146504609F00DFA404606F0AEFB706809F01BFA39465046BDE8F44F09F0FD
:2062B000FDB9002008F090FBBDE8F24F862009F055BABDE8F18F00BF6F4F0020684E002049
:2062D000794F0020AC4500201C160020201600203C0801006B4F0020704F00202DE9F04FBA
:2062F0008346ADF1140D0393BBF1000F02920E9801910F9C049000F0AC80081C00F0A98051
:20631000101C00F0A680181C00F0A3800498002800F09F80002C00F0A180206A002800F032
:206330009880524D676A281D0068002F00F09180A16A09F0AFF940B2002808BF6FF00207F3
:2063500000F0838084F82C002078618800EB80000918143188B2216A88474349086030B9CF
:206370002846406809F092F94FF0FF376DE08A46628823786088DAF8001026789F1800EB52
:206390000109781800F1040806EB460002EB430786187F18C01876188018401800F1100557
:2063B000204606F093FB2078C01C8010C9F800002078C01C8010C8F8000020780837C01CA7
:2063D0008010386020780C36C01C801030602078C01C801028602278594609F1040003F0F9
:2063F000B1FD2278019908F1040003F0ABFD22780299381D03F0A6FD0095484641463A46C9
:20641000334609F03FF947B222780398331D194603F098FD22780498291D03F093FD2178C5
:206430006288DAF8000001EB81015218002104F08FFE616ADAF8000088470C48406809F0B5
:2064500025F9F8B2992808BF002784F82C70384606E01CB16FF0010084F82C006FF0010004
:2064700005B0BDE8F08FC046884F0020441B00202DE9F843614C5A4D5A4EDFF870815E4FF5
:2064900094F8E4100846401E0B2864D8DFE800F07B2C43062343062343067664042907D0F4
:2064B00001220A2945F8212C14BF0220032004E0202045F8210C0120024684F8E20000205F
:2064D00045F8390C0827C5F8FF7FC5F8F37F45F8392CBDE8F883052914BF09200620002758
:2064F00084F8E400376075E094F8E170383D0120002FC5F81B0004BF0620002102D00021C9
:20651000F160032084F8E400032045F8010C3160306880085ED294F8E410334801270329FA
:206530000ED00068456800216022052300914046A84794F8E400062814BF0A200720CFE70F
:2065500000684568002160220523022000904046A8470420C4E7FEE72548264F0026012542
:2065700006600E203D6002F0EBFD022007F0C0F984F8E45084F8E360BDE8F88300203860E7
:206590000C25786024E04FF08059D9F8A0010168202088472C3D0F2045F8010C41F61D5650
:2065B000C5F80360D9F8A401466800214FF4C0720723022540460095B047D9F8A401C668EA
:2065D00000214FF4C07207234046B0470120386084F8E45004F1780008F058FEBDE8F8832A
:2065F00039400C4038600C40A401001000A00C402C500C4004800C4034600C405414002041
:206610002DE9F04F88468246ADF1AC0D299209F07DF85C4CE67894F80BB0A57A94F80C906B
:20663000071C00F0AB8068460021A42208F05EFE2801279A55498DF8046005F0030300F4C3
:20665000807605F00405ADF800A0B9F1020F01EA020143EA01024C4B8DF8A0B046EA020179
:2066700000F4C06603EA010246EA020045EA00054FF00000279508BF01208DF8370008F003
:20669000FDFF412809DB207B00280CBF002008209DF8991008438DF89900607B002804BF5E
:2066B00000208DF8380017D001208DF8380004F1860120220DF1390008F094FA0DF1590056
:2066D00004F1A601202208F08DFA0DF1790004F1C601202208F086FAA07940B18DF82600AB
:2066F00004F1500110220DF1270008F07BFA66793EB104F16000B91D0622054608F000F824
:2067100068B92079002804BF00208DF8050015D08DF8050004F140010DF106000BE08DF801
:2067300005600DF1060005F11601102208F05AFA0DF11600A91D102208F054FAE07930B1C9
:20675000B8F1000F03D0279941F002012791002100B10121A7789DF89900002F41EA000156
:206770008DF899100CBF002004209DF89910084329998DF89900684608F07CFF2BB0BDE8C2
:20679000F08FC046CC110020FBF9FFFFFCFEFFFF0FB42DE9F04106AF8046ADF1280D08F02D
