:20000000004000204DCF000001C9011001C9011001C9011001C9011001C9011001C9011042
:1C00200001C9011001C9011001C9011001C9011001C9011001C901103FC9011089
:20003C002DE9F84FDFF81885DFF8181588F80000002008600821DFF8100501700D21418052
:20005C004FF408718180DFF80405DFF8041501608A7EDFF800050270FF2ACB7E437008BF54
:20007C00FF2B0D7F85704E7FC6708F7F0771C97F417115D1FF2D08BFFF2E11D1FF2F08BF59
:20009C00FF290DD1DFF8D0140A7802704A7842708A788270CA78C2700A7902714979417149
:2000BC00DFF8B81402780A70FF2542784A7082788A70C278CA7002790A714079DFF8A02443
:2000DC0048710021DFF89C04057045708570C570057145711180DFF89004DFF89014466B0B
:2000FC00DFF88C247078087031781170B078DFF884140870B1680879DFF87C14421E0A70E9
:20011C00F078DFF878140870F068DFF87414086008B90EF051FF3069DFF86844206008B9F5
:20013C000EF04AFF2068DFF8607401688847216851F8042F38469047DFF85004DFF8501431
:20015C003862DFF8500478627069086008B90EF033FFB069DFF84014086008B90EF02CFF1C
:20017C00DFF838B4DFF838649BF804000FF050FC306008B900F045B99BF80500DFF8247405
:20019C000FF046FC386008B9306837E19BF80600DFF814440FF03CFC206020B930680FF00A
:2001BC003FFC38682AE19BF80700DFF800940FF02FFCC9F8000038B930680FF031FC3868F8
:2001DC000FF02EFC206819E1DFF8A4130A789BF80000DFF8DCA3921C504380B20FF018FCD9
:2001FC00CAF8080058B930680FF01AFC38680FF017FC20680FF014FCD9F80000FEE0DC483F
:20021C000078002800F00281BBF80210DFF8A4B3484380B20FF0FCFBCBF8040078B9306879
:20023C000FF0FEFB38680FF0FBFB20680FF0F8FBD9F800000FF0F4FBDAF80800DEE0CC4830
:20025C0000780FF0E5FBDC49086080B930680FF0E7FB38680FF0E4FBD9F800000FF0E0FBC3
:20027C00DAF808000FF0DCFBDBF80400C6E0C0480078182148430FF0CBFBD04A1060B0B939
:20029C0030680FF0CDFB38680FF0CAFB20680FF0C7FBD9F800000FF0C3FBDAF808000FF0CF
:2002BC00BFFBDBF804000FF0BBFBC348A5E0B048007840010FF0ACFBC1490860D8B930685A
:2002DC000FF0AEFB38680FF0ABFB20680FF0A8FBD9F800000FF0A4FBDAF808000FF0A0FB08
:2002FC00DBF804000FF09CFBB34800680FF098FBB249086882E09E48007800010FF088FBD2
:20031C00B0490860F0B930680FF08AFB38680FF087FB20680FF084FBD9F800000FF080FB29
:20033C00DAF808000FF07CFBDBF804000FF078FBA14800680FF074FBA04908680FF070FB86
:20035C009F485AE08A48007800010FF061FB9E49086018BB30680FF063FB38680FF060FBA9
:20037C0020680FF05DFBD9F800000FF059FBDAF808000FF055FBDBF804000FF051FB8E483D
:20039C0000680FF04DFB8D4908680FF049FB8C4800680FF045FB8B4908682FE07448007807
:2003BC00302148430FF034FB884A106070BB30680FF036FB38680FF033FB20680FF030FB63
:2003DC00D9F800000FF02CFBDAF808000FF028FBDBF804000FF024FB774800680FF020FBD8
:2003FC00764908680FF01CFB754800680FF018FB744908680FF014FB734800680FF010FBFD
:20041C0000200EF0D9FD4FF4804192E03168012008713068057331684D7330688573316891
:20043C00CD7330680574002031684D743268D072A0223168487103213068C280017207204D
:20045C00316848720020326890722821306841820121C176002031684877326882F85E008A
:20047C00012031680877326882F85D00396808713868057339684D73386885733968CD73AA
:20049C0038680574002039684D743A68D072396848713A6890724FF4207039680022C880E5
:2004BC0008818A7401213A68D17421680D732268557321688D732268D57321680D740021AF
:2004DC00226855742368D9720121226811710021236859712168C880088100208872216836
:2004FC00887405202268D0743948016888472A490A6805461068804727490A6852F8043F5A
:20051C000020984718481D4BC16818780A88314902430A80284630490A6890470C212F4890
:20053C0000F05EF80F4800F05FF800F061F84FF4005198F80000BDE8F44F07F047BF00BFAA
:20055C006E4F0020044F0020604E0020084F0020B63F00502C4E0020E81200503C4E002017
:20057C000C4F0020344E0020101601006D4F00207B4F00206B4F0020724F00206C4F0020BF
:20059C00F04E0020F44E00207C4B00202DFA0000F84E00203DFA0000FC4E0020101C00201E
:2005BC00104F0020144F0020184F00201C4F00203C270020684E0020004F0020804E002055
:2005DC00844E0020884E00208C4E0020904E0020A0160020544F0020A4160020F84D002047
:2005FC00DFF800F0E5710110DFF800F01D6E0110DFF800F04D7101102DE9F04FD14C04F151
:20061C0018012046ADF13C0D0CF028F900264FF0010B35464FF6FF70D04F667032463346B5
:20063C0020823946009504F1A400CDF804B00BF0E1FE022100953246334604F1C800019104
:20065C0039460BF0D7FE042531463246334604F1EC000091394601950BF0CCFE04F1440910
:20067C00284610223146A07048460AF0A3FB04F1540A1022504631460AF09CFB04F11C08D5
:20069C00C8F8006004F10A073E70E671267207206072CDF80090DFF8149302221020034612
:2006BC0049460AF0D5F8102003224946CDF800A003460AF0CDF810202A464946CDF8008003
:2006DC0013460AF0C5F84FF0080A4FF0030907F12A000A9007F179000B9007F11E000C90D8
:2006FC0007F15A000D9024370E9701E00DF0CCF9A069B84A31464FF0FF3300F041FA071C0B
:20071C00F6D03046029009A902AA06A80DF056FD002840F0CA81BDF818002178102840F022
:20073C00C0819DF82400814240F0BB81029D28884FF6FF72824200F0A9812B78A23B00F021
:20075C0089812E3B40F0AD81A878B046002800F04381801E00F01181401E012840F2E18080
:20077C00801E00F0A580401E7AD0401E5BD0083800F05F81801E40F0628194F83A30A88892
:20079C00052BADF80C0046D0BA488DF816B00FF05AFB94F83A0001281ED004281CD0032885
:2007BC000DD002280BD00298C188ADF80E100189ADF810104189ADF81210818927E0A08F75
:2007DC00E58FADF80E00B4F84030ADF81050B4F84210ADF812301AE0A08FE9888842D8BFD5
:2007FC00081CADF80E002989E08F8842D8BF081CADF810006989B4F840008842D8BF081C48
:20081C00ADF81200A989B4F84200884200DC0846ADF8140001E08DF81660AF49102003AA87
:20083C000AF016F80BE1AD480FF00DFB6B78002B40F00581E88860822889A0826889E08270
:20085C008C480FF0B5F8002840F0F980656A002D00F0F5802B68608AA18AE28A9847EEE009
:20087C00AA88B549102009F0F3FF0A98414606220AF0A0FA6682A682E682A87920737D483B
:20089C000FF0E1FA95480FF0DEFAD8464FF6FF70237920824BB9A879082814BF042005202D
:2008BC00607058460FF0ACF8C9E084F80190C6E06B787BBB291D0A980A68026089888180C8
:2008DC000623637068892082E8896082288AA082688AE082E878E07294F83A00012818BF7A
:2008FC0002280BD1A54910201F2209F0B1FF4FF47A7180B241435F480DF06EF968890423C7
:20091C00009098490193EA7810202D1D2B4609F09FFF97E06878312840F08880E670042070
:20093C0029E06B78002B40F08180A878E1896278032815D0E078257931B9012814BF26716C
:20095C00E67007E0E80D0020054303D086480DF043F96278072AE2D106200CE01DFA000020
:20097C00062A07D0E578002D08BF84F8019069D0022000E00720607064E06B78002B55D14C
:20099C00EB786078A3B9022820D007281ED0062802D12179012919D1032817D072480FF0F3
:2009BC0007F898B958460FF02BF80FE035ED000050200DF0C5FF0246A079694900900B9883
:2009DC0043460190102009F043FF68706D78002D2CD134E0070000806B783BBB63485F49C8
:2009FC00009002221020034609F032FF60484A465A4900901020034609F02AFFED1C0C98D1
:200A1C0029680160AB8883805020217884F801B00DF096FF02465B460D9D60795049009035
:200A3C001020019509F014FFC0B258B184F801A008E0AA8848491020052309F009FFB8F183
:200A5C00010F2ED1256A002D2BD0296849B36078884726E06879132823D1288901280BD1B4
:200A7C00607B022808D11D480FF0EDF90DF00CF817E0C046B00E002040491020052209F07D
:200A9C00E7FE81B215480DF0A7F80AE06888C00B07D338480422314900901346102009F078
:200ABC00D7FE029808B10FF079F92579E078790831D355EA00032ED02046017885B9E07950
:200ADC00257A8DF81A000E9A8DF81B50136807AD2B609288AA8005E005160110D40E002013
:200AFC008DF81A90607A8DF82200A57A8DF8235050200DF025FF174902460DF11A0310208F
:200B1C0009F0A6FE38B1256A84F801A01DB1296809B150468847B80803D31749304609F0A4
:200B3C008BFDF808FFF4E4AD677B7F1E06D07F1E3FF4DCADDCE5C046B1C500005846009074
:200B5C00E18FB4F84020B4F84230A08F0CF080FFCEE5C04659440110C11701106DF1000087
:200B7C0009450110057A00008C0E00202C0E00203C0E0020040E0020220E0020F5840110F1
:200B9C00DFF800F0F99B01102DE9F047B44C201D04F11001ADF1380D0BF060FE0FF2C42814
:200BBC000020074600904FF4D471019701220297B1A303974046049708F0F0FB04F15806FB
:200BDC003D4630463946256200F0C2F9D64D4FF0040A41F2883266613B4604F5807000972A
:200BFC002946CDF804A00BF005FC4FF40050192200973B462946019004F1B8000BF0FAFB82
:200C1C0004F1640004F12C0108F09CFEE06178B900973846019040F2BF1102900322039047
:200C3C00A5A30490404608F0B9FB00F095F9E069BE490EF0C3FF70B100973846019040F203
:200C5C00C511029003220390A3A30490404608F0A5FB00F081F90125ADF8187040F205303C
:200C7C000DF12E028DF82E50294601F0A9FA40F20630022106AA01F0A3FA621D4FF44270E7
:200C9C00294601F09DFA04F14C0240F207300A2101F096FA04F19500394620220AF08AF822
:200CBC0004F14C0604F195093846325C401CC0B231180B78092B18BF082B01D11F2A04DB60
:200CDC008018C0B22028F0DB04E0491C521E484608F0E9FDCDF800903E460197404640F28D
:200CFC00E31102962A46039685A3049608F056FB8F4F10200622A023394609F0A9FD1020F1
:200D1C000722A023394609F0A3FD10200822A023394609F09DFD10200922A023394609F0EE
:200D3C0097FD10202A461E23394609F091FD05968DF82F508DF8305005A88DF832504FF481
:200D5C00816253468DF831607A4F00901020394609F07EFD0DF12F004FF480622B46009016
:200D7C003946102009F074FD0CA840F202422B4600903946102009F06BFD0DF1310040F2A2
:200D9C0003422B4600903946102009F061FD0DF132000090394640F206422B46102009F098
:200DBC0057FD654910204FF0FF3209F051FD634910204FF0FF3209F04BFD0DF0D5FE04F1DC
:200DDC008000324615235E490090102009F040FD20790AF0DDF8207908F08EFA207909F017
:200DFC00B7FD04F13C0008F0E1F804F1440007F021FF0DF11A003146142209F0DBFF3046C3
:200E1C0029460DF11A0206F0F9F9304629460DF11A0203F007FB304629460DF11A0205F05D
:200E3C00BFFF04F128000BF005FC464904F13402102009F00DFD217950200DF081FD4249C2
:200E5C000246102009F004FD217950200DF078FD3E490246102009F0FBFC0EB0BDE8F087BF
:200E7C000802002070726F6A6563745F7A65726F5F6264732E6300C0496E697469616C69FA
:200E9C007A696E67207468652075736572207461736B2C2068617264776172652C20424CF7
:200EBC004520737461636B20616E642073657276696365732E00C0464572726F7220696E8F
:200EDC00697469616C697A696E6720626F6172642070696E7300C0464572726F72207265B9
:200EFC00676973746572696E67204E46432063616C6C6261636B2066756E6374696F6E0040
:200F1C004E616D6520696E20616476657274446174612061727261793A201B5B33336D2516
:200F3C00731B5B306D00C046ADF9000035AF0000BD840110F53300005DEC000095EF000038
:200F5C00CDA50000A9F100005188011031810110DFF800F0A1B60110DFF800F019B10110EB
:200F7C002DE9F04107460EF08FFE16461C4A5478A6F10C05FF2804D0174B1B781B18506A23
:200F9C00C45CDFF85880FF2C04D140460068806880471DE008460DF09BFE01464346FF20F9
:200FBC00A8721D6837B92046EC6B00223346A04740B10AE0012F08D120462C6800223346CE
:200FDC00A04710B90020BDE8F08130460EF024F80120BDE8F081C046DD0F0100941C002085
:040FFC008C1A00202B
:20100000B41200001810000015AB0110FDB301106DC00110FDAE011099B5011000000000F7
:08102000000000002D0000009B
:20102800B01200003C100000B1C00110A9BF011067C0011069B80110000000000000000035
:041048003000000074
:20104C00B012000060100000BDC00110CDB30110D9BD01106DB3011000000000000000005B
:04106C00310000004F
:2010700000000000201C002004000000000000000000000020000000E8C9011030000000EE
:2010900028100000281C00200400000000000000000000000C000000D8CA011018000000C9
:2010B0004C100000301C002004000000000000000000000024000000F0CA0110180000004D
:2010D00000000000381C00200400000000000000000000001000000018CA01102C00000059
:2010F00000100000481C0020040000000000000000000000200000006CCA011024000000BD
:20111000FFFFFFFF501C00200400000000000000000000002800000090CA0110240000007C
:20113000FFFFFFFF581C00200400000000000000000000001400000008CB011018000000FB
:20115000FFFFFFFF601C002004000000000000000000000058000000B4C9011034000000C9
:20117000FFFFFFFF681C00200400000000000000000000001000000020CB01101800000097
:20119000FFFFFFFF701C00200400000000000000000000001C000000B4CA011024000000C4
:2011B000FFFFFFFF781C00200400000000000000000000003800000044CA011028000000EC
:2011D000FFFFFFFF801C00200400000000000000000000005400000078C901103C00000061
:0811F00002000000AC15010033
:0411F80001000000F2
:0411FC0000000E00E1
:0412000000000F00DB
:0412040032000000B4
:0412080001000000E1
:04120C00381B00206B
:0412100000020000D8
:0412140000000000D6
:0412180001C90110F7
:04121C0000000000CE
:0412200000000000CA
:0412240008000000BE
:0412280000002200A0
:04122C006019002025
:0412300000000000BA
:0412340000000000B6
:0412380008000000AA
:04123C00F81A00207C
:0412400000000000AA
:0412440000000000A6
:04124800080000009A
:04124C00000000009E
:04125000000000009A
:041254000000000096
:041258000000000092
:04125C00010000008D
:041260002C1A002024
:041264000600000080
:041268000100000081
:04126C00C81800207E
:04127000000000007A
:041274000000000076
:041278000002000070
:04127C00000000006E
:02128000290043
:02128200010069
:02128400250043
:02128600300036
:02128800310033
:02128A002D0035
:02128C0001005F
:01128E00015E
:081290000300000060150100DD
:0812980000000000000000004E
:0412A0000000010049
:0412A4000000030043
:0412A80013C401105A
:0412AC007DF70000CA
:0412B000B812000070
:0412B400B81200006C
:0412B8000000000032
:0412BC00D01B002023
:0412C0000BF9000026
:0412C4002000000006
:0412C8008814010085
:0412CC0058120100B3
:0412D00029C101101F
:0412D40093EE000095
:0412D800A3F400007B
:0412DC00A1C7011095
:0412E000A3C701108F
:0412E4000000000006
:0412E800A712010048
:0412EC00901001005D
:0412F000A810010041
:0412F400781001006D
:0212F8000200F2
:0212FA000900E9
:0212FC000100EF
:0212FE000000EE
:0113000001EB
:0413040099F8000054
:041308005DDE0000A6
:04130C00C5ED00002B
:04131000A5E1000053
:041314000BE20000E8
:04131800F1CD000013
:04131C00F1B100002B
:0413200053FB00007B
:041324008DBE00007A
:0413280015C70110D4
:04132C0025C70110C0
:201330002DE9F04FADF1340DFFF734FCB6486838AC4C0A90B4484FF0000AD04664380B9081
:201350003DE00A990EF0D4FC40B9218928460EF0D4FC42F21071B0FBF1F000E0C820E060C7
:201370000B9A0121504605F021FD28460EF0BBFCAE480EF06CFDE178606A01291BD161785B
:20139000012904D10EF0CDFC50466070606AA1784FF0FF32B2FBF1F10EF0BEFC2178A078C6
:2013B0004018C0B21428A07018BF012807D14842C0B2207003E00EF0B9FC01206070206993
:2013D000AD4A51464FF0FF33FFF7E0FB0028F6D0504608900DF1260108AA09A80CF0F4FE9B
:2013F0000FF2BC2B002840F02981BDF8246001200746102E79D120799DF82610884274D151
:20141000089D28884FF6FF7181426ED02E78913E59D01F3E69D1687816282CD028797E281B
:201430001DD07F280FD000905046564601905246029640F2F93103929EA304963A465846BC
:2014500007F0B2FF39E02889009056460196524602924FF47D710396A0A30492EEE7287A01
:2014700000905646019640F2EF31029603220396A1A30496E3E728795646009040F2D63143
:20149000019602220296ABA303965846049607F08BFF217950200DF059FA03464FF08040A7
:2014B000744900906A88102009F0D8F928B9384606F024FF5746A56117E0297905F1080031
:2014D0000EF080FF11E068780E280ED1504656460090554640F2B93101963A460295A8A327
:2014F00003965846049507F05FFF0898002800F0A580002F00F0A2800EF056FC9EE0606902
:201510000EF05CFF0646307A06F1090506F10901002869D0401E40D0401E21D0401E00F0FA
:201530008780801E40F08780F77A002F0CBF9DA09FA00090574640F2DE2150460190012230
:2015500002979DA303975846049707F02DFFCDF800A0C4492A881020534609F07FF96AE004
:20157000288841F210112A46401A10D0103808D0103860D1287969886D1D2A4605F016FC81
:2015900059E010795188521D02F052FF53E010795188521D05F038FE4DE02888B0F5895F55
:2015B00049D1B5F8050048B1401E04D0401E08BF0FF2382904E00FF2482901E00FF25829E4
:2015D0002F79002F37D131A0009033A70197CDF808904FF46471CDF80CA094A3CDF81080D7
:2015F0001EE0C04608020020288841F21011814221D1A978044A681D0AF0C8F92F79D7B90D
:20161000014D1EA0009001E0780200201DA701975246029540F26231CDF80C808AA304923F
:201630005846012207F0C0FE05E0C046C0020020087803F041FD30460CF08EFC60690EF0E3
:20165000B9FE00283FF45BAF87480EF000FC162001210AF081FE06A80EF040FB504606A998
:201670000BF09AFD051C7FF46CAE032001210AF073FEFEE799B700100F2000C0414C415216
:201690004D00C04642524541544845004E46432044455445435400C05041495200C046C08A
:2016B00070726F6A6563745F7A65726F5F6264732E6300C0526563657669656420474154F8
:2016D00054204D6573736167652E204F70636F64653A2030782530327800C0464D545520FC
:2016F00053697A65206368616E67653A20256420627974657300C046466C6F7720636F6E91
:2017100074726F6C2076696F6C617465642E204F70636F6465206F66206F6666656E6469E8
:201730006E6720415454206D73673A2030782530327800C04F7574676F696E67205246206F
:201750004649464F2066756C6C2E2052652D7363686564756C65207472616E736D697373FF
:20177000696F6E206F66206D73672077697468206F70636F64652030782530327800C04674
:2017900048434920436F6D6D616E6420436F6D706C657465204576656E74207265636569E3
:2017B00076656400446973706C6179696E6700C053656E64696E6700426F6E644D67722075
:2017D0005265717565737465642070617373636F64652E20576520617265202573207061CA
:2017F0007373636F6465202530366400496E6469636174696F6E7320656E61626C656400E9
:201810004E6F74696669636174696F6E7320656E61626C656400C0464E6F74692F496E6489
:201830002064697361626C656400C04643434344204368616E6765206D73673A202573204E
:2018500025733A20257300C056616C7565204368616E6765206D73673A2025732025733A80
:20187000202573003DE20000080300202DE9F04F09AFADF13C0D08900A92388809911E4670
:20189000ADF81800101C08BF002000F08481002700F101094FF0FF3A4FF0010BB8466CE143
:2018B000252940F063811078521C0A922D2818BFADF8068005D15846551CADF806001078B5
:2018D0000A9530281CBF4246434605D10A9908785A465B46491C0A912A28CDF800805546A9
:2018F00016D1306804930A99CDF808A0C01C4B1C20F00300001D306050F8044C0A93002C4E
:201910000878009418D5ADF806B06442009413E044460AE0610001EBC4010918A1F13004C1
:201930000A9908780094491C0A91302801DB3A28F0DBCDF808A004932E282BD10A99087806
:201950002A2801F101010A9111D13068CDF80880C01C20F00300001D306050F8045C002D5E
:2019700048BF454608782B46491C0A9111E0454643460AE0690001EBC5010918A1F13005E2
:201990000A9908782B46491C0A91302801DB3A28F0DB02930AB1224604926C2804D04C2818
:2019B00018BFADF8048005D10A990878ADF804B0491C0A910BA9CDF80C800FAB07916428E2
:2019D000059300F08B80692800F08880BDF818C0752872D078286ED06F286AD0702850D008
:2019F00063283DD073281ED009980A990128A1F101010A9115D96B490C68B5F1FF3F03D04D
:201A1000A84288BF6D1C00D8099D029508A80AA932466B46A0473F180A99039801F10109E3
:201A300074E040462AE030680A99C01C20F00300001D306050F8040CBCF1000F01F10109CB
:201A5000014608B955A0014607910DF009FF0390B5F1FF3F5BD0A842C4BF281C039056E079
:201A70003068C01C20F00300001D306010F8040C5D468DF82C000A990395584601F10109E1
:201A900045E0082035680490E81C20F00300001D306050F8041C082210230FA809F0F2FC91
:201AB000401E0790402101700A99079801F1010929E0082302E0102300E00A230A99306880
:201AD00001F10109C01C20F00300001D306050F8041CAA42BCBF2A1C049210E00A99306888
:201AF00001F10109C01C20F00300001D306050F8041CAA42BCBF2A1C04926FF009030FA871
:201B100009F0C0FC0790059D281A0390009C241ABDF8065000945DB906E008A8202109AAD9
:201B30000CF0D6FE009C7F1C641E0094F5D503980546401E039075B9BDF80600E8B10098BD
:201B5000401E009019D408A8202109AA0CF0C0FE00987F1CF4E70798411C0791017809AA6E
:201B700008A80CF0B5FE03987F1CE1E708A809AA0CF0AEFE7F1C09F101094A460A9812F812
:201B9000011C401C00290A907FF48AAE089808B14146017038460FB0BDE8F08F286E756C25
:201BB0006C2900C0F4150100BB482DE9F84F0025BA4CB849056094F8E200002800F0658159
:201BD000012800F02F81B64E02283CD0032840F05C8151F8250CD4F8B8100029A0F5C060CE
:201BF000C4F8D400B8BF49420028B8BF4042814226DA4FF08057D7F8A4014568B4F8BC00C0
:201C100030214FF47F42082300903046A847D7F8A4014568B4F8C00004214FF4F80212231B
:201C300000903046A847D7F8A401B4F8D070456820214FF440620A2330460097A84701251D
:201C500084F8D8501CE151F8258C0DF0ABFF2F4600B901273946934F38680028FCD0B146F0
:201C7000012609F10409D9F82CA03E6009B10DF09FFFCAF30720C4F8BC000DF093FFAA46BB
:201C900000B9B2463B68002BFCD0D9F800B0BAF1000F3E6001D00DF08BFFCBF38440C4F87A
:201CB000C0000DF07FFFAA4600B9B2463B68002BFCD0D9F81C90BAF1000F3E6001D00DF0FB
:201CD00077FFC9F38120C4F8D000B8F5C061C4F8B81000F09C8094F8D80068B9C4F8D41012
:201CF000D4F8C000C4F8C800D4F8BC70C4F8C470D4F8D030C4F8CC30D4F8D410D4F8BC30F0
:201D1000002954BF02206FF0010004F1C802176801EB41014018411000EB917107EBA10060
:201D30001060D4F8C810C4F8C43000291CDD1E293CDDD4F8CC0030B93429B4BF15391E216F
:201D5000C4F8C81025E02A29BABFD4F8C8000B381E20C4F8C800D4F8C4003F28B4BF401CAF
:201D70003F20C4F8C4001FE0D4F8CC00032812D011F10B0FC6BFD4F8C8000B30301CC4F858
:201D9000C800D4F8C4000028C4BF401E051CC4F8C450032508E011F1150FC6BFD4F8C80092
:201DB0001530301CC4F8C800C4F8CC504FF08057D7F8A401B4F8C43030214FF47F424568FA
:201DD000374800930823A847D7F8A40104214FF400321123456832480096A847B4F8C86005
:201DF000D7F8A40104214FF4F802122345682C480096A847D7F8A40120214FF440620A235B
:201E1000B4F8CC60456826480096A84701E084F8D85040F2FF50404502D8801C40452FD2B3
:201E3000082030E051F8251C1F4F4BF2F5204843060A3868C0F3814001280CD11B48006890
:201E5000006880470BF0DEFC0DF0B8FE3111C010484306EBE03694F8E50030B914480068F9
:201E700020F07F408019460801E084F8E5501148310C0660012741600F4D8760287808B9A1
:201E90000B2000E0052084F8E40003F03DFDBDE8F88FC0462D400C402C500C408415002009
:201EB00000A00C4000800C40B43F0050EC010010102009403C600C405D1401002DE9FF47EB
:201ED000B94C0F460646F80B80F04381B80880F03481607ADFF8DC82B90F80F0B680E0795A
:201EF000390914D2B80BC0F0558104F13C000DF09EFF061C08D0706830B17568F068B6F9FF
:201F1000241000222023A84727F4005742E1012800F09680E06870300DF073FF68460BF065
:201F3000B1FF20B1009904F198000DF08FFD00254FF00109E5709D4884F805900DF00EFE9F
:201F5000284607F080FE9A4904F160002A460DF064FF40460068006B80476061A278216901
:201F7000A369401A012A18444FEA1030A06105D163781BB9E169B0EBC12F39D9DFF83882ED
:201F900084F80290A8F1150000686570000A2FD340F60900A08494F8310000F0F00040F0FC
:201FB000010084F8310094F8300000F0F00084F83000A5620DF02BFF08F6FF7211686FF0A6
:201FD000020321F00201116004F12401C8F8FB3F7A4AC8F8EB1F11688908FCD3C8F8FB3FF2
:201FF000D8F8FF1F41F00201C8F8FF1F0EF0DEF925610BF025FC2378714805601BB9E06885
:2020100038300DF018FF02200CF028F8112006F0A9FC307C10B90E2006F0A4FC207A18B18E
:20203000257205200CF01AF8674965710878A57140B10D7004F1BC0004210DF004FF01E085
:202050000020E07127F00807A4E020B104200CF005F800206072B168088840F602094FF04C
:20207000000A81450AD0B0F5C15F07D00A8B4FF61F60104040F43470088306E00A8A4FF63F
:202090001F60104040F4347008822069F0B1D8F85400016804208847C0B1D8F80000256986
:2020B000006B8047F168401B738AF060020BF26098188842F06002D240184008F06040F6BA
:2020D000C41181422CBFB0F5FA7FF16094F8310010F00F0F0CD1718C09F10700884207D1A6
:2020F000B56930466FF4807152464FF00073A847344904F1600052460DF08FFE607860B1D2
:202110000220ADF8040001A80CF06AFDBDF80C0084F801A04011A4F860010120E07084F8BF
:2021300004A00AF011F87569514630464FF080630A46A84727F000572CE005F06FF904F1D0
:2021500044000DF074FE27F0020708B147F0020720E00DF05CFE014604F140000DF067FE6E
:20217000061C12D0356AA8080FD225EA0500306208460EF01BF9706850B12A46F068B6F9C5
:20219000241075680023A84702E008460EF00EF927F4804727B104F1BC0039460DF053FE9F
:2021B0000090BDE8FF87C046B81C0020B57D000081EC00008C010010150004401010044061
:2021D000000004602D540000692700202DE9FC4114468846A0F201350246B84EBA4BBD49BE
:2021F000B84800271A2D1CD8DFE815F0580153014C011B0021011A01FB00E400DB00D100C4
:20221000C700BC00B2001B001B00A700980088007E0070001B001B001B001B0053001B00B4
:202230002600282A06DAB8F1020F03D1A24923881046EFE002273BE1B8F1010F40F031810D
:20225000F078012800F01C81324620781179107181B9002800F02C815078012800F0FB80DA
:20227000042800F0F880062800F0F580052800F0F2801DE12078002840F01A81507803281C
:2022900000F0F480072800F0F180052840F01081ECE0B8F1010F40F004812078012840F021
:2022B000008106F1EC000DF089FB68B93446384604F13A0108F0C6F9071C40F0F98004F168
:2022D000C8000DF0C6FDF3E01627F1E0B8F1020F40F0E78022880A2AC0F2E380B2F5486FE3
:2022F00000F3DF80801C17E0B8F1020F40F0D9802288B2F5FA7F80F2D4800DE0B8F1020F6F
:2023100040F0CF802288062AC0F2CB80B2F5486F00F3C78001F13E000280C9E0B8F1020FAA
:2023300040F0BF802288062AC0F2BB80B2F5486F00F3B78001F13C00EEE7B8F1010F40F0E3
:20235000B0802078062880F2AC8003F10C0112E0B8F1010F40F0A5802078042880F2A18081
:202370000A3108E0B8F1010F40F09B802078082880F29780093108709AE0B8F1060F40F0BB
:202390009080216818460160A688868090E0B8F1010F40F086802078042880F282800836CC
:2023B00006E0B8F1010F7CD12078042879DCF61D3146E0E7B8F1200F73DA06F18305394694
:2023D0001F22284608F0FCFC21464246284607F070FA444650203178B4710CF0B7FA3B469A
:2023F00015E0B8F1200F5CDA06F1640539461F22284608F0E5FC21464246284607F059FABC
:2024100044465020317874710CF0A0FA012300942E4901950246102008F020FAC7B247E09F
:20243000B8F1020F3DD1228806F10E0074E7B8F1010F36D13079012822D032462078D178DD
:20245000D07061B9002833D05078012803D0042818BF05282CD101200DF0D8FA28E0207866
:2024700030BB5078022818BF052821D1117850200CF06CFA12490246102008F0EFF917E074
:20249000122715E0B8F1040F0BD12068104908600EE0B8F1100F04D1143005E0B8F1100FA1
:2024B00001D0182704E0001D2146102207F001FA3846BDE8FC81C046BD840110E80D002063
:2024D00099450110280E0020160E002009450110040E0020E80D00202DE9F04FB64D686895
:2024F00085B0019020B905B0BDE8F04F0DF05ABF0178DFF8C882B24EDFF8C892DFF8C8A272
:2025100001291CBF0229042946F2A81741F64C5B05D0402918BF802900F09A8043E10DF090
:2025300089FB0028FAD00198007804F085FA0090446814B900200CF045FD9AF8010000286F
:2025500060D001F075F90DF059F902900168009801914F6809F0A6F8022827D000990A78DE
:20257000012ADBD1994B19680A7A19F80230337018B90DF013FF5844A0602069C17E01F070
:20259000EF01C1762069C17E41F08001C1762069C17E01F0F00141F00201C1768C48B96849
:2025B00041182069C16101210098A0E001980178802913D10822874832700178012903D01D
:2025D0009AF80100012803DD38690121C17213E0D8F828103A690878D0720DE07D4907201F
:2025F00030700A783869012A02D10123C37203E0D8F828104A78C2720298817901988AF821
:202610000210CBE00098002888D00199009A0078914205D101281CBF00200CF0D3FC15E09C
:20263000012840F0C080694801680A7A19F8020030700DF0B3FE3918A0680DF0ABFE18B922
:202650000DF0ACFE5844A0600120A8700098A5E09AF8010000287DD001F0EAF80DF0CEF833
:2026700004462068029047689AF802000DF0C6F803900DF0E5FA10F0070F3DD0A87804F042
:20269000DBF90190416801980091029909F00AF8022831D001990A78012A2AD14B4B1968D8
:2026B0000A7A19F80230337028B90DF077FE83440098C0F808B000990869C17E01F0EF0154
:2026D000C17600980069C17E41F08001C17600980069C17E01F0F00141F00201C176009A63
:2026F000B9683B4841181069C16101210198A97054E000200CF066FC0398A04228D002989D
:202710000178802913D10822324832700178012903D09AF80100012803DD38690121C17255
:2027300013E0D8F828103A690878D0720DE02949072030700A783869012A02D10123C37289
:2027500003E0D8F828104A78C272A0798AF80200029823E00DF074FA10F0070F29D0A878B4
:2027700004F06AF904462078D4F80480012820D116490A68107A19F8001031700DF00EFE80
:202790003918D8F808000DF005FE20B90DF006FE5844C8F808000120A870204605B0BDE8C9
:2027B000F04F06F03DB905B0BDE8F04F00200CF009BC05B0BDE8F08F3C27002010160100E1
:2027D0006F4F0020289A0110684E0020104F0020F0D8FFFF734F00202DE9F04F0C46E007AD
:2027F00089B00BD50DF0FAF828B100218160A448006800B1804784F001003EE1A00710D5FA
:20281000002006900021049000230290009005910393019101223C200DF0B8FD84F0020093
:202830002BE11D256007974E974F40F18A8000200790834695498878FF2804BF00200CF069
:20285000C1FB386890F8A0000CF0D8FF80463868C07A98F82691022818BF032808F5907AF7
:2028700006D106F10D000DF08DFD08B906F1070B514648460DF082FD88B33868807A00287E
:2028900018BF012804D1314650460DF073FD04E05246494630460DF069FDFF2834D005FBCA
:2028B00000F906EB090506225146E81D0CF0A6FE16F8090040F00209E81D079006223868F6
:2028D000817E01F0010188F8261105F1010A386800F1140108F590700CF090FE14E0514686
:2028F00048460DF03FFD78B15246494630460DF03DFDFF2808D006F10D01454348190DF01A
:2029100041FD08B149F0020908F12C004B4601780691418909090591B8F82220079904920C
:202930000122C088029140080390CDF804B0CDF800A0002098F806100DF028FD84F0040070
:202950009BE0200610D5002006900021049000230290009005910393019101223B200DF0F8
:2029700015FD84F0800088E0E0043BD5F11D06F10D000DF0F3FC38684179012923D1017AF4
:20299000012918BF04291ED1C17A022918BF032919D1817E00F1140230460DF0E7FCFF2834
:2029B00011D04543354405F10D000DF0EBFC50B9E91D05F10D000DF0D1FC38680622E91D94
:2029D00014300CF01BFE324932484A6800784FF480510AF0BDF910B18E2008F079F884F45B
:2029F00080504AE0A00505D50DF0DCF82A4901200860FEE7610504D507F0EFFE84F4806021
:202A10003BE0600405D5812008F062F884F4804033E0A00430D5214D286810B100200CF08B
:202A3000D1FA4FF0FF3028600DF094FC1C4D296851F8202F684690471A48016A426A2D6813
:202A5000009101921849029100F128014A6809781368C06903938DF81010ADF812006B46BA
:202A70002E68124A12491348B0471349086003F09BF984F4005000E0002009B0BDE8F08FB7
:202A9000204F0020AC450020104F0020684E0020784E00206E4F0020FC002043044F00209C
:202AB000F04E0020CC190020DDF900002C4D00206845002088490020EC4E00202DE9F04FC7
:202AD0008246DAF800600C465FEA0208ADF11C0D14BF00214FF0FF3106F1480083460CF019
:202AF00003FF002818BF0B2040F00D8100258848F460B8F1010F057007D0657002200BF09C
:202B10000DFC06200BF00AFC01E0012060702078012840F2AB80801E012868D9801E0128B6
:202B300033D9801E012800F2DF800DF070F906904FF0805000F5EE77D0F8DC01A378466A8C
:202B5000009321782846062908BF0120019001200290A068228AE1686368B047814606984C
:202B70000DF024FCB9F1000F40F0C080B8F1000F02D00CF007FD02E050460BF004FD0028D9
:202B900000F0A4803868806A2AE00DF040F906904FF0805000F5EE77D0F8DC010123066811
:202BB0000093A168A27860682478AC46042C08BF9C466346B047814606980DF0F7FBB9F182
:202BD000000F40F09380B8F1000F02D00CF0DAFC02E050460BF0D7FC002877D0386840683A
:202BF00080474A49C1F8B0510D6081467EE00DF00EF906904FF0805000F5EE76D0F8DC0178
:202C1000E38A87690093E0680190208B0290A0780390207D04900121059122782846022AD6
:202C300008BF081CE1786268A368B847814606980DF0BCFBB9F1000F58D1B8F1000F02D0E7
:202C50000CF0A0FC02E050460BF09DFC00283DD03068006A80475FEA000947D13068C56992
:202C7000A168E28A2369E078A847BEE70DF0CFF806904FF0805000F5EE76D0F8DC01E38A83
:202C9000C7680093E0680190208B0290A0780390207D2946049001200590257805B90146A9
:202CB00008466268A368E178B847814606980DF07DFBB9F1000F19D1B8F1000F02D00CF086
:202CD00061FC02E050460BF05EFC08B914201AE03068406980475FEA000907D13068026996
:202CF0002169E078904780E74FF0FF39B8F1010F05D002200BF0B2F906200BF0AFF9584670
:202D10000DF099F8484607B0BDE8F08F5045024072270020F0B507460020ADF11C0D0E46EF
:202D3000044664A500900322019464A30294DE2103942846049406F037FB64A3B81E09D0CF
:202D5000801E00F09F80401E7ED0401E5ED0401E3CD01BE0012E0CD00094019428460294E1
:202D7000F12103940322049406F01EFBF2215AA394E00094019428460294EC210394032254
:202D9000049406F011FBED2158A387E0009401942846029440F2091103940322049406F056
:202DB00003FB0094204601904FF4857102900322039054A30490284606F0F6FA01208DF872
:202DD00017009DF817000028FBD171E0009401942846029440F2031103940322049406F01E
:202DF000E3FA0094204601904FF482710290032203904AA30490284606F0D6FA01208DF880
:202E100016009DF816000028FBD151E00094019428460294FD2103940322049406F0C4FA69
:202E3000009420460190FE2102900322039040A30490284606F0B8FA01208DF815009DF8B1
:202E500015000028FBD133E00094019428460294F72103940322049406F0A6FA009420461D
:202E70000190F82102900322039036A30490284606F09AFA01208DF814009DF8140000285E
:202E9000FBD115E00094019428460294E42103940322049406F088FAE5212EA30094204692
:202EB00001900290039003220490284606F07CFA07B0F0BD6D61696E2E6300C03E3E3E5352
:202ED0005441434B20415353455254002A2A2A4552524F522A2A2A003E3E20494E54455229
:202EF0004E414C204552524F522100C03E3E20494E5445524E414C204657204552524F52FC
:202F10002100C0463E3E2044454641554C54205350494E4C4F434B2100C046C03E3E20577C
:202F3000524F4E47204150492043414C4C2100C03E3E204943414C4C2054494D454F5554EC
:202F50002100C0463E3E204943414C4C2041424F525421003E3E204F5554204F46204D4585
:202F70004D4F5259210070472DE9FE4F05467F48002400680094C0090ED37D48007858B995
:202F90007D497C4851F8112C104040F0817041F8110C20200AF038F8012D40F0E280DFF849
:202FB0000892D9F8DC00012840F0D8800220C9F8DC000BF097FF01200AF026F85FEA00082F
:202FD00005D00120C9F8DC000BF09CFFCBE00CF036FFA34602906948694DC0F800B0A86A80
:202FF000016801208847012804D1584608F090FB012000906348644FC0F800B03868112001
:203010000CF0EEFD00B1012410200CF0E9FD08B144F002040F200CF0E3FD08B144F00404DE
:203030000B200CF0DDFD20B12868584E016B308888470A200CF0D4FD20B12868544E016B1F
:20305000308888475348012606602868816944F020008847504806600CF0BCFD00F001016F
:203070000191400814D2286A81684C4888478246BAF1040FF7D0BAF1010F04D1286A426889
:203090004648032190474649086820F003000860584600F0D7FC2B683868986B8047019826
:2030B00001280CD0BAF1010F04D1286A42683B48314690473A49086840F003000860314857
:2030D000066028684169204688470B200CF088FD20B128682D4BC16A188888470A200CF0C6
:2030F0007FFD20B128682A4BC16A18888847294806600322C9F8DC20274BC3F800B02868AE
:20311000416B204688470128F9D13868042009F07BFF044619480660386814480068800996
:20313000FBD30098012802D1304608F0F1FA0CF03FFD082009F068FF07460298C9F8DC6020
:203150000DF004F91748008808F0BCF80BF0DAFE57EA040018BF4FF0FF3804E06FF004081E
:2031700001E06FF001084046BDE8FE8F141009406C160020FFFFFCFC150009400C40094046
:20319000B8010010000222432C2009400C1001000810010028200860800104430040034029
:2031B00024220840581401008415002010B50B7884074CBF43F0020303F0FD0304064CBF2D
:2031D00043F0800303F07F0304074CBF43F0080303F0F70384064CBF43F0200303F0DF03B3
:2031F00010F0AA0F0B7004D0107840F00C00107010BD18B9117801F0F301117010BD2DE903
:20321000F8430D461646287802281F464FF0000862D1686801784078089C01EB002189B21E
:2032300020001CBFB1F5285F0B205AD14FF42850091A08D0491E1ED0491E2CD0491E22D039
:20325000491E2ED048E0DDF82490E8680CF00BFE214680B2421A4A45ACBF4C46041BA4B2FD
:203270006018162804DA3C802246E86801440EE04FF00D0834E0E868008802213980307047
:20329000000A70702CE0062038800622E96830460CF0B4F924E001203880E868017831706B
:2032B0001EE0E868B0B108213980018831700188090A71704188B1704188090AF170818896
:2032D00031718188090A7171C188B171C088000AF07105E0398003E0A7F800804FF0010838
:2032F0004046BDE8F2832DE9F0470F4682B039780024022970D1804678680A9E0178DFF86B
:20331000E0A09146427801EB022189B24FF42850091A1D4606D0491E29D0491E4ED0491EDF
:2033300039D059E0F8680CF09EFD80B2B04204D3A819162803DB0D244FE007244DE0FB6851
:203350002A46494698190CF059F9AD19F868ADB2C5F11602002140190CF081FDDAF8000046
:2033700000281CBF0268002A37D0002123E08EBB022DE0D199F8000099F80110FA6800EBD2
:2033900001201080DAF8000000281CBF0268002A23D001210FE0EEB9062DCCD1F868062200
:2033B00049460CF02BF9DAF8000000281CBF0268002A12D00321404690470EE056B9012D57
:2033D000B9D199F80000002813BF0128F9680870802402E00B2400E001242046BDE8F68784
:2033F000582700207CB5894D144602460026A2F58062182A1AD8DFE812F0FF00F900F200EF
:20341000EA00E300DD00D600D1001900C600BF00B800AF00A4001900190080006F00680019
:2034300054004C00420039002C002400282880F28680022940F0838021880CF083FF064678
:20345000E2E0012940F0DF80002C00F0DC801135A7E0102940F0D780002C00F0D4802846FE
:203470005030102221460CF0C9F8CDE0012940F0CA80002C00F0C78029468D1D91E02629D9
:2034900040F0C180002C00F0BE8005F160002622E8E7012940F0B780002C00F0B4806D1D79
:2034B0007FE0602900D13CB9012940F0AC80002C00F0A9800D3574E005F186002146602288
:2034D0000CF09CF8012068739EE0012940F09B8020780CF033FF97E0012940F0948020781A
:2034F000022800F390800C3528702078022814BF301C01200CF01EFF86E0072940F08380D2
:20351000611C684606220BF019FF20786946324605F0A6FE04460A2C11DA0CF007FF40B977
:20353000204603F01DFB50200BF081FF08F038FE6AE02A46012002F12C05285564E0022609
:2035500062E001295FD1A87B21780028A9735BD12078012858D1E9E7012954D12478072CBB
:2035700051DB102C4FDC0B3537E001294BD124780A2C48DA093530E0012944D12478022CC0
:2035900041DA083529E000293DD10CF0CFFE10B90CF0D6F8C7E701240F351EE0012932D1E5
:2035B0000A35247819E001292DD12478022C2ADAED1D12E0102926D12B4603F1400050E729
:2035D000012920D12478022C1DDA2D1D05E0012919D12478042C16DCED1C2C7014E001293B
:2035F00011D12478022C0EDAAD1CF6E702290AD120881435288007E0012904D12478022C32
:20361000D8BF6D1CE9DD182630467CBDFC120020F0B57348734A0078734C744B74490D2894
:2036300083B03CD8DFE800F0DB07070707D3D358D39292B0B0B7146041F204456D494C88FF
:20365000AC421FBF4E8BAE424E8EAE4203D11D806948106072E0022C684D1C804FF4A0565D
:2036700035D94FF48067E41B1AD0241F012C1DD94FF47F77E41B1BD04FF44067E41B0FD0C8
:20369000A41E012C0CD9241F0AD0641E012C0DD940F2F937E41B012C19D9241F08D096E083
:2036B000022814BF1E80564D156047E0554DFBE7554803681C7A012C05D141F202404880BE
:2036D00048834886F0E74E804E834E86ECE700200BF078FC83207EE04C488178FF2952D0BD
:2036F000182041434A48146040F204450068841C645A1C80641B012C464B70D94FF47F755E
:20371000641B0FD04FF44065641B032C84BF641F012C0BD9A41E012C61D940F2FD35641BC2
:2037300006D103E0801C41F201444452136005E000200BF047FC85200CF0F4FD03B0BDE875
:20375000F04035480078012104F046BE40F204424888188090421CBF41F2084290423ED030
:2037700041F60402904211D12C4C2D4A25682D4800680023CDE9002355F8086F2A4B022296
:20379000B0472A490880F7BD4888188000200BF019FC85201FE04888188002280DD940F28D
:2037B0000442801A1BD040F6FC72801A05D0083815D04FF47F72801AE8D1887B801CC0B25E
:2037D000B528A8BF6620887300204880F7BD00200BF0F8FB8420BDE8FE400CF0A3BDF7BDD3
:2037F0006F4F0020204F0020DDFD0000504F0020CC4C0020204A002059550110615A011066
:20381000B1540110755B0110104F0020684E0020804E0020313901106E4F0020F04E0020A8
:2038300002000080EC4E0020A1E00000424F00202DE9FE4FDFF8FC8198F8011011B9002028
:203850000BF0C0FB0CF0AAFD0546002405F6C4150027794EDFF8E4910EE038460BF0CEFF4E
:20387000417939B1316882790A552946641C0CF055FDE4B27F1CFFB299F800008742ECDB61
:2038900098F80100844205D000200BF09BFB82200CF048FD98F80100012840F0A98000271E
:2038B00001E07F1CFFB299F80000874280F29A8038460BF0A3FF054668790028F1D030681D
:2038D000A979027891421CBF00200BF07BFBA87986E0306810F809000BF090FF0068426831
:2038F000DAF808109068814204BF3D4609F1010900F08D808FE03068047801210FE0D8F868
:203910000420435C02F5AD7209FB03F509FB04FE555B32F80E20954238BF1C46491CFFB26E
:20393000B942ECDB4FF6FF700CF0F4FC834620460BF064FF40F6C41500684168CDF800A003
:2039500000204FEA5B076F4382460291CDF804B016E020460BF052FF01680A78802A04BF16
:20397000DBF810305F610978402907D1344A8079136803EB401107F5A062CA610AF1010A42
:203990000098824554DA306810F80A008442F5D0D8F8043009FB00F2991803F5AD73C98940
:2039B0009A5A4B08934203D2009B891A8B42E5DA0BF024FF0068D0F804B0029A0198DBF832
:2039D0000810936800EBD0704010A1F6C41105FB00300CF0DFFC0028BBD0306810F80A0079
:2039F000BDE8FE8F00200BF0EDFA82200CF09AFC98F8011030680CF089FC306800780BF08A
:203A1000FDFE00250168D1F804A04FF001096F1CA145FFF65EAFEDB2002D1CBFF8B200286B
:203A3000A2464FF4C0797FF466AF3068047879E72046D5E7684E0020004F00207B4F0020C5
:203A5000844E00202DE9F84FDFF8F0B10746ABF13500DFF8DC910068800880F0D8807048BD
:203A700000680068804779490831D1F8008000254FEA28725FEA985102F101020AD2C0F1AE
:203A90003E0110F10A0F4FEAE101D8BF08218A42B8BF0A1C634BD3F87C11C1F3046116291B
:203AB000A8BF20391B68C3F30443162BA8BF203B9A465118162905DA11F10A0FB8BF6FF05B
:203AD000090100E01521584B584E01F01F0242F4F8521A80326812F0030F18BF0125D208BC
:203AF00028BF45F002050FB145F004054A4692F90730C31A052B04DA9379AB4208BF91887F
:203B100065D0DFF830E10F28A0F10F0C25DB0CEB0013A3F1F00C4FEA2C26072E88BF0726C7
:203B30003446062C88BF06245EF82470042303EB84037446E358DB1B03F0FF04EF0824BF17
:203B5000C3F307273C44AF0824BFC3F307473C446F0828BF04EB136401E0002426465EF848
:203B700026E0EF080EF0FF0324BFCEF307273B44AF0824BFCEF307473B446F0828BF03EB73
:203B90001E63A4B2ACEB0626BAEB010104FB06F404F1800403EB1423D8BF0121342408F034
:203BB000FF074C437C43B4FBF3F14FF6FF738B4238BF191C802889B2918005DA10F1800FFB
:203BD000B8BF6FF07F0000E07F20D07195711A4800681F2910604FF0000008D340F2FF12DB
:203BF0008A4206D24908401C8A42FBD301E01F219180134F0F39090940EAC10047EA0001BF
:203C1000CBF8FB1F0026CBF8FF6FBDE8F88F0D490D4F4A4608200F60921D1070BDE8F88F00
:203C3000EC0100103C1100506E62084024220840502700209C1300500820094035000940AF
:203C500000E7A48030100940FDFDA400AC3F00502DE9FE4F0E468246307AC10693461C46BC
:203C70004FF000090CD558460CF04CFB030000F0EA800A223146504698475FEA00094DD145
:203C90003078DDF838800D9D0C9F02281AD170680178407801EB002189B24FF42052891ACC
:203CB000012910D9891E3AD0491E14D0FD397BD0491E00F08280491E6ED0491E74D0491E54
:203CD00000F09780ADE0002D2AD1F068017839800278416889E0002D22D101203880F068B1
:203CF0000178217000217089401C80B20CF006FB398860B10278921C51183980418961704E
:203D10004189090AA17002784168E01C6EE0091D398004220021601C0CF0A1F895E0002D5F
:203D300068D1F0680588042139802570290A617028460DF102010CF0E1FA5FEA000821D056
:203D5000D8F80C50BDF802204FF6FF766B4631460CF0D0FA50B998F80030D8F804203C4867
:203D700002210CF0C3FA08B9ADF80060287802280AD169680222201D0BF040FC3888801C27
:203D9000388001E0ADF80050BDF80000A070BDF80000000AE07058E0002D2BD1F06801688F
:203DB00050460BF0BBFD02E025BBF0680088022139802070000A607047E0F0680CF053F8FC
:203DD00080B229468842B8BF4FF007093DDB814208BF002206D008EB01028242B2BF424655
:203DF000451BAAB23A80F068014420460BF006FC2BE015B14FF00B0927E0F06807213980D9
:203E100001782170417861704188A1704188090AE17001792171C1886171C088000AA0716D
:203E300013E058460CF05EFA5FEA00090BD00F980290CDF8048000953B4622463146504653
:203E5000C847814601E04FF00E094846BDE8FE8F8E110100F8B57E4F04463868C16E00252D
:203E7000002940F0F18010200BF0D8FD39680028C86600F0E7808E6E102221460BF0BEFBD1
:203E900039680878002840F08E80CA6ED6F8980012F80CCF00F001030CF0010C634518BF8C
:203EB0000023400843EA4000C6F89800C0F34003D2F800C0CCF3400C634506BF430803F08E
:203ED0000103002320F0020040EA4300C6F89800C0F38003D2F800C0CCF3800C634506BF5E
:203EF000830803F00103002320F0040040EA8300C6F89800C0F3C003D2F800C0CCF3C00C6B
:203F1000634506BFC30803F00103002320F0080040EAC300C6F89800C0F30023D2F800C084
:203F3000CCF3002C634506BF030A03F00103002320F4807040EA0320C6F89800C0F3402335
:203F5000D2F800C0CCF3402C634506BF430A03F00103002320F4007040EA4320C6F8980061
:203F7000C0F38023D2F800C0CCF3802C634506BF830A03F00103002320F4806040EA832011
:203F9000C6F89800C0F3C0231268C2F3C022934206BFC20A02F00102002220F4006040EAF9
:203FB000C220C6F898008A6E92F89500030718D5C86E4368C3F3C00098B1C87840F0080093
:203FD000C870D6F8981023480140C6F898103868C06EC16821F48071C16049084900C16038
:203FF00003E092F8330001282AD0607800281CBF7178002908D13968CA78130708D5002826
:2040100004BF7078002803D03A68052111711CE06068C0F3800040B996F8950010F0040089
:2040300002D10120087110E00AD00878002819BF30782178317820780CF050F9054604E0C3
:20405000182502E0132500E011252846F2BD00BF304F0020FEFEFFFF2DE9F0411C4615466A
:204070008C4208BF854282BF00230022E5E0002C08BF002D0AD100290EBF00286FF0000011
:204090006FF0000100F0E1F8BDE8F0815FF000085FF0000E002C08BF8D429CBF2C1C002593
:2040B000070C47EA01470E0CB44208BFBD429EBF5FEA044444EA15445FEA0545070A47EA44
:2040D00001670E0AB44208BFBD429EBF5FEA042444EA15645FEA0525470847EAC1774E089E
:2040F000B44208BFBD4200F29380870847EA81778E08B44208BFBD427CD8C70847EA4177D9
:20411000CE08B44208BFBD4266D8070947EA01770E09B44208BFBD4250D8470947EAC16762
:204130004E09B44208BFBD423AD8870947EA81678E09B44208BFBD4224D8C70947EA4167A9
:20415000CE09B44208BFBD420DD8E60146EA5566EF01B14208BFB84201D3C01BB14158EB7D
:2041700008085EEB0E0EA60146EA95664FEA8517B14208BFB84201D3C01BB14158EB08086B
:204190004EEB0E0E660146EAD5666F01B14208BFB84201D3C01BB14158EB08084EEB0E0E7B
:2041B000260146EA15762F01B14208BFB84201D3C01BB14158EB08085EEB0E0EE60046EABA
:2041D0005576EF00B14208BFB84201D3C01BB14158EB08084EEB0E0EA60046EA9576AF0088
:2041F000B14208BFB84201D3C01BB14158EB08084EEB0E0E660046EAD5766F00B14208BFA8
:20421000B84201D3C01BB14158EB08085EEB0E0EA14208BFA84201D3401BA14158EB080843
:204230005EEB0E0EA34208BFAA423EBF2D0A45EA0465240A89D3734642461E4617460B46C8
:20425000024631463846BDE8F08170472DE9F0410446764DA178A869ADF1180D891F00F06B
:20427000DE80C91E00F0C980491E5FD0491E48D0C91E3CD0481E40F0D480287A697AB8B9C8
:204290006878002831D0A0880CF024F8071C00F0C880A07A40080FD3787968B1E168890A40
:2042B0000AD2B91D01AA04F0DBFF0A2804D10321A0880CF00BF8B4E0287B022802D1A07A23
:2042D0000009F4D3A088797904F1080201F0ACFCA869002800F0A5804368002B00F0A18017
:2042F00000210A46A08898479BE00521E0E7002800F097804368002B00F0938062780221C9
:20431000F0E70BF073FB002800F08B80A86950B1076847B1206900906189227B637BE01C37
:204330003C46A0477DE060890121C2E767784FF00008002F52D1A17949084FD3EF69002F67
:204350004CD101A841460E220BF089FDA0880BF0C1FF071C65D0606940B97879B91D062263
:204370008DF80A0001A80BF049F919E06669307C062206F111018DF80A0001A80BF03EF9A9
:2043900007F10C00B91D06220BF038F9B81D062206F111010BF032F9307C40F002007871EC
:2043B000A1799DF81120C1F3800010438DF81100080905D39DF8110040F008008DF8110093
:2043D00001A8214600F026F928B92878022104F003F8404626E0A8694FF0150808B34368BC
:2043F000FBB1A088627801219847B8F1000F18D0A86943680321424674E7E078211D0022E3
:2044100004F02EFF0A280CDA410001EB800004F10C0225300421C0B20AF0A0FE01E008F046
:20443000BFF8012006B0BDE8F081C046FC1200202DE9F047754C0F4604F108010D689146E7
:204450000FF2C808ADF1180D70B10090002001904FF4867102900322039030A304904046E5
:2044700004F0A2FF02204DE03DA00090002601974FF484710122029632A30396404604969C
:2044900004F092FF022F2EDA002F2CD0601C49463A4605F00EFA6780A87804F1010A00286C
:2044B00008BF31A103D001280CBF34A139A1288837460090012201913BA3029740460397D4
:2044D00040F21B11049704F06FFF04200090207801904F4804F10C035146324602902846EA
:2044F00004F0FAFA0DE00097012001904FF492710322029037A303964046049604F054FFB7
:204510001826304606B0BDE8F087C0466E66635F6465746563742E6300C046C0536574501D
:204530006172616D657465723A20506172616D6574657220232564206E6F742076616C6916
:20455000642E00C0536574506172616D65746572203A202573206C656E3A20256400C046D2
:204570005041495200C046C04E6F74692F696E642064697361626C656400C0464E6F74693D
:204590006669636174696F6E20656E61626C656400C046C0496E6469636174696F6E206586
:2045B0006E61626C656400C05472616E736D697474696E67206E6F74692F696E642D2063CD
:2045D0006F6E6E48616E646C652025642C20257300C046C04C656E677468206F757473692B
:2045F000646520626F756E64733A204C656E3A202564204D696E4C656E3A202564204D61C7
:20461000784C656E3A2025642E00C0467C180020196300002DE9FF478146704CDFF8C0A195
:20463000E069884600284CD1B9F1000F00F09480B8F1000F00F0908048460AF0DDF80546F1
:204650000A2D257422DAD8F81470002F37D0680010216A4600EB85002330C0B20AF062FB1F
:2046700090B96846FF2110220AF0C7FE60B95046007838B999F80600494600F001000BF0F8
:2046900021FE01E00120A074E0691AE004F1E6070A2600253846FF2106220AF0AEFE68B9CE
:2046B000761E07F10E0705F10105F3D1607C002804BF0A2020744FD094F836502574E069F1
:2046D00000E0257C0A2D47DA002835D168000E214A4600EB85002030C0B20AF03FFD207C98
:2046F00008F0CAFA6846FF2110220BF0B8FB207C10216A467030C0B20AF030FD217C0E22BD
:204710000801A0EB410000194946E6300AF076FFD8F814206AB15046007840B9107C02F1E2
:204730001101002300F001000BF0C8FD01E00120A074C4F81C804CE08268002A3ED102695B
:20475000002A2FD142690ABBC2683AB9A07B08B10AF068F80AF0F3FC01203BE068001021A6
:2047700000EB85002430C0B20AF0F8FCE769217CFA68480000EB8100103225300421C0B2D4
:204790000AF0ECFCE1690020C86022E06800102100EB85002330C0B20AF0E0FCE169002085
:2047B000486116E068001C2100EB85002230C0B20AF0D4FCE169002008610AE068001C2145
:2047D00000EB85002130C0B20AF0C8FCE1690020886000200090BDE8FF87C046FC12002077
:2047F0005A4F00202DE9F04F09AF98468A46ADF1240D3D7905903F880692084608F0A8FFBF
:20481000079070B10020009001904FF4D57102900322039038A3049035A004F0C5FD0A2098
:2048300063E04DA0009005984FF4CF7101900122CDF8088037A303972DA0049504F0B4FD08
:204850000698DFF868B10678574800244FF0FF09012E02D006B9047005E001215E460170E2
:20487000B01D0BF0F4FAF7B907EB0806022E14DA1EB9182D0ED0122D0CD0DAF80C00069912
:204890004246C01905F015F8DEB15846DDF81C90068016E04FF4DF7101E040F2B5112046A9
:2048B0002FA30D2404E020464FF4D87135A307240090019002900390032204900CA004F06D
:2048D00073FDB9F1FF0F0FD05846801C006858B106684EB108EB070080B20090079A069BAB
:2048F000059841F21011B047204609B0BDE8F08F616C61726D2E6300417474726962757490
:204910006520776173206E6F7420666F756E642E00C046C0577269746541747472434220CB
:204930003A20257320636F6E6E48616E646C6528256429206C656E28256429206F6666737A
:20495000657428256429206D6574686F64283078253032782900C0464252454154484500FA
:20497000496E76616C69642076616C7565206C656E67746820776173207265636569766513
:20499000642E00C0416E20696E76616C6964206F6666736574207761732072657175657338
:2049B0007465642E00C046C00B0200202218002066480178002900D170472DE9F043491EA7
:2049D000032985B004D9891F012940F2BC80B4E05F4CDFF880912168DFF87C8108685F4EA8
:2049F00000F10805062205F1080102A80AF006FE0622A91C68460AF001FE2878C1091D2798
:204A100000F00F02032AC0F3801537D16079C0F3800081421ED12169062202A80AF0F2FA08
:204A300000280AD0694628460BF0A8FC002804D0314668460BF09EFCFF2879D04743D8F828
:204A50000000807AF519002818BF02280AD0012818BF03286CD1F25D691C48460BF02AFC50
:204A7000102865D06B46EA1D294648460BF01EFC06226946E81D0AF0C1FD59E000F00F0023
:204A9000052860D16079C0F38000814250D12169062202A80AF0B6FA002849D06946284654
:204AB0000BF06CFC002843D0314668460BF062FCFF283DD04743D8F80000807AF51900280C
:204AD00018BF01280AD0022818BF032830D1F25D691C48460BF0EEFB102829D040F20240D4
:204AF0000BF0E0FB6B46EA1D294648460BF0DEFB06226946E81D0AF081FDD8F80010F05DC6
:204B100088760622D8F80000691C14300AF076FD1348144A41F20441418041834186124882
:204B300001801249124808600121107803F054FC21680A680020107105E000200AF042FA03
:204B500086200BF0EFFB05B0BDE8F0836F4F0020F44B0020CC470020104F0020AC450020ED
:204B7000204A00206E4F0020504F0020204F0020595501102DE9F04F684CE2680746880F7A
:204B9000ADF1140DC0F0C7805068406808B18047E2685168624E886808B9CD6875B1356813
:204BB000002DFCD00022326010B18047E0684168C86800B180475B480AF012F84FF0000829
:204BD000C6F80080584846F81C0C012005F03BF856480AF0C3FF40F60A09A4F82490A4F8A9
:204BF0002680A378BD6894F83000C34604F1240A00F0F00084F83000012BC4F828B094F8FF
:204C10003100A5F8028000F0F00040F0010084F8310001D17B7CABB1B8680088A9F1080106
:204C3000814208D0B0F5C15F05D0298B4FF60F400840288304E0298A4FF60F4008402882D7
:204C500087F81180B86869460AF01CF968460AF08DFE494600E01D466B6813B11888814257
:204C7000F9D1C5F804A0687B00F0F000687304F138000BF0DCF880680088A9F1070181428A
:204C900020D0491C81421DD03B8CEBB197F82C0097F82D30C7F824B000F0F00087F82C00D7
:204CB00003F0F00040F0010087F82D0007F12002A2629AF80D00A7F8228000F0F0008AF8C4
:204CD0000D0001E0C4F8108030680028FCD0C6F80080B968237A0A8A4FF6FF301040088220
:204CF00083B91348006801680120884701280FD0687B00F0F00040F0010068730D480AF026
:204D10002DFF05E008F068FB0028FBD00BF08DF8B86846F81C0C05B0BDE8F08FB81C002051
:204D30001C1004400100070601010E04CD1E0000E0010010FDBB00002DE9F04FADF1140D29
:204D500009F0B8FE039020B107F056FA4FF0FF300390694C04F10800006800B180475E48B0
:204D700000250778DFF874B1029736E00098E16810F8062CA0F10C07032A2CD0029E9DF8B7
:204D9000053056B1606A2946401E10F8012F934205D0761E01F10101F7D1FF2600E0CEB279
:204DB000DBF80000FF2E00F1080011D0387908F0C1FFB979012904D0022904BF00998870F1
:204DD00001E000990870009930460AF03BF904E00068804701E001B18847DBF80000C36920
:204DF0000DF105016A4601A898470028BED03C4E029F31683846A842CCBF401B012031F855
:204E100015301BB96D1C401EEDB2F8D1DFF8D480DFF8D490AF421FDDD8F800008047316897
:204E30006F00002231F807A0CA53D9F8001088472E4850F825202570514628469047054675
:204E5000FF202070D8F80000804731687A5A15437D52D9F80010884709F02CFE07460398AD
:204E7000B8421DD007B9224FA069B84238BF071C4046006880478046DBF80000016AE069EB
:204E90008847226ADBF800001A49521C2262C56804F11C033846A847484601684046884785
:204EB0006168DBF800202069243281B9029F30680025AF420DDD30F815302BB1DBF80000B8
:204ED000416A2069884730686D1CEDB2F1E71168884705B0BDE8F08FDD0F0100941C002049
:204EF00060270020A0160020A4160020081201008EC2F5287DDD00008C1A00202DE9F04F4E
:204F1000ADF1240D079001F0D7FB6148007809F045FD604D0024012808D90A380FD0801E62
:204F300004D0401E0ED0401E09D006E00AF0BEFA022804BF01210C1C06D0696805E0052199
:204F50001F2401E0032107246960534A1068C0F38150012806D152F80C0C0127020E07FAD1
:204F700002F004430AF012FD524AFF230818401E471C28607F1E02F8013BFBD1079A1268FE
:204F9000002702F0FF03FE2B20D0DDF81CC096463B4601260EF0FF02FF2A10D0904205D3E6
:204FB000914203D806FA02F2144201D002206CE017430EF0FF02DFF8FCE00EF802305CF812
:204FD00004EF5B1C0EF0FF02FE2AE5D1092003F091FE07980121A86005F1280009F088FB6C
:204FF00005F19806A8464FF0010A4FF0040B0025A9460AFA05F0044216D1074204BF05F04C
:20501000FF0141F4C04104D02A480799405D51F82010224803F004F9E8B24FF0FF310AF0F1
:205030001DF9C6F8009001E0C6F800B0D8F800006D1C361D8542DCD904A80AF077FC184C08
:20505000184A2078102104AB059008F10C0008F023FB68460AF0AAFCCDF80C906A4660688F
:205070001149029008F1640008F008FC0F4951F80D0C20F4F85040F4005041F80D0C0C4F94
:20509000C1F8FFAF4846C7F800A009B0BDE8F08F7127002070140020B43F0050007FC76783
:2050B0009C15010089F20000E9D200000D30094008000940B414002010B5401EADF1280D43
:2050D00037D0401E2FD06849801E25D0401E1CD0401E0DD0401E07D0401E60D1002040F27D
:2050F0003E3135A3044651E04FF44B7134A31DE040F2153006A901F043FA06A807F0F0FA28
:20511000002440F2273135A340E008460BF0C6F840F23A313BA309E008460BF0BFF840F23C
:2051300033313EA302E040F21D3141A3002420462CE04FF4417008A901F022FA9DF8214096
:205150009DF822308DF819409DF825208DF81A309DF820008DF81F2000249DF824308DF8C6
:20517000180008218DF81E3006AA8DF81C409DF823308DF81B4020468DF81D3002F0E0FFA9
:2051900008A807F0ADFA4FF446712CA30090019402940122039403A0049404F005F90AB08C
:2051B00010BDC04670726F6A6563745F7A65726F5F6264732E6300C04572726F7200C046FD
:2051D000436F6E6E656374656420616E64206164766572746973696E6700C046436F6E6E85
:2051F00065637465642E205065657220616464726573733A201B5B33326D25731B5B306D6D
:2052100000C046C0436F6E6E656374696F6E2074696D6564206F757400C046C044697363B4
:205230006F6E6E6563746564202F2049646C65004164766572746973696E670047415020A9
:20525000697320737461727465642E204F757220616464726573733A201B5B33326D257387
:205270001B5B306D00C046C0E40200202DE9F04706465D480D4601681F461446ADF1380DA3
:20529000B5B1ACB128784FF0010808FA00F001420ED01046002105F0F5FE7560B4600AF0FE
:2052B000B6FD524C8246207820B150460BF07EF8002095E001F000FA4D49086840F002009D
:2052D00008600AA80AF072FBDFF828914A4999F802000AAA0C9004F1BC0008F0CFFA0AA813
:2052F0000AF024FB002519210AAB8DF8305099F80000424A0B9004F1600008F0CDF90AA8EF
:205310000AF054FB0AAA99F803003D490C9004F1F00008F0B3FA0AA80AF008FB99F80100FF
:205330008DF830801A210AAB364A0B9004F17C0008F0B2F934492A4604F19800134607F03F
:20535000C3FB32480AF00AFC314A2B46042104F14C0009F037FB4FF6FF70A4F8600184F85B
:205370000180A57025716571A571E57125726572052325612278E361501C207050460BF028
:2053900015F81FB903AF38460AF024FA386830607868F060387C86F811803074788A708215
:2053B0001C4CB4617461F86800B1B061B86800B170612946782206F1200005F001FD06F1BD
:2053D0003800294609F094F968460AF0E4FC1249029606F170002A466B4607F075FB3046B0
:2053F0000EB0BDE8F087C046D4210840B81C002000200940BA15010055F6000081EC00009B
:205410002191000055AC00000DFA0000B57D0000A9C900009FBF0000E3FD00002DE9F84F83
:20543000674CE76B0AF04EF8664D002F4CD081081BD207F110020CCA002102400B4008BF4E
:20545000002A41D03A693E6A10403043386207F1180696E80C002764194307F11806104369
:2054700086E803004FF480412AE039693E6A07F1180341F0020108403043386293E8000339
:205490000022002607F1180340EA080046EA090183E803003E69E263281D00F10803196819
:2054B000B14307F11006196096E8000301684B4699430160394604F1440007F095FB022147
:2054D00004F1BC000AF0BFFC4FF0010800264FF0020A4FF0110BC146F0B209F03DFF071C41
:2054F0002ED0B87C01282BD1787C2B68113008FA00F123EA01002860787C6968113008FAEC
:2055100000F008436860787C09FA00F0C0B209F031FFF868002109F059F9812808BF87F83B
:2055300012A081280CD0787C94F862110BFA00F0084384F86201002104F1F0000AF083FC93
:20555000761C032EC8D320480AF071FC0746E06B002832D167B3684606F07CFF30B1009899
:2055700020B1082005F0ACFBBDE8F88F082009F001FF1435A5F1080138690A681043086083
:2055900055F8103C07F1100696E80300081C184345F8100C00222A60B86845F81C0C2F6833
:2055B000002FFCD0084809F0BDFFE063BDE8F88F04F1BC0051460AF046FCBDE8F88FC046B6
:2055D000B81C002008100440F01C002060480178042900D870472DE9F84F891F2FD0491EF7
:2055F000012900F2AA805B4CA078FF2827D00AF005F982460AF16C0670680AF04BFE0746E3
:20561000387903281BD1B868017811F0030904D17068BDE8F24F0AF039BE457800F10208D0
:205630000AF20F10B9F1030F00900DD045B1307830B900983D21417001210098017084E059
:20565000454801780129FAD09AF894000AF59A7B58B32D1F4346EAB2494650460AF012FE5B
:2056700050B900993D204870012000990870BDE8F24F3A480AF002BE3948016888470090C6
:205690004FF4C0709AF80620616842438818002180F83911DBF800109BF80600490806F03B
:2056B0006DF8304900980A6890470020B9F1030FB8602ED02C4840690078810708D5C00768
:2056D0004CBF03200020EDB2401918F8000000E0812030722549BBF83E000A78904211D3AA
:2056F000317A802918BF81290FBF7F21204A1078091A49B200914B46A078EAB241460AF0F0
:20571000B9FD11E0A0784B46EAB241460AF0AEFD0AE00F480178082903D0414650460AF08C
:20573000A1FD404606F0C0FE70680AF0AFFD39465046BDE8F44F0AF091BD002009F042FC67
:20575000BDE8F24F86200AF0EDBDBDE8F18F00BF6F4F0020684E0020794F0020AC45002078
:20577000A0160020A4160020101601006B4F0020704F00202DE9F04F8346ADF1140D039316
:20579000BBF1000F02920E9801910F9C049000F0AC80081C00F0A980101C00F0A680181C64
:2057B00000F0A3800498002800F09F80002C00F0A180206A002800F09880524D676A281D47
:2057D0000068002F00F09180A16A0AF043FD40B2002808BF6FF0020700F0838084F82C00F8
:2057F0002078618800EB80000918143188B2216A88474349086030B9284640680AF026FDA3
:205810004FF0FF376DE08A46628823786088DAF8001026789F1800EB0109781800F10408C0
:2058300006EB460002EB430786187F18C01876188018401800F11005204607F069F9207802
:20585000C01C8010C9F800002078C01C8010C8F8000020780837C01C8010386020780C3692
:20587000C01C801030602078C01C801028602278594609F1040004F01CF82278019908F124
:20589000040004F016F822780299381D04F011F80095484641463A4633460AF0D3FC47B206
:2058B00022780398331D194604F003F822780498291D03F0FEFF21786288DAF8000001EB58
:2058D00081015218002105F07BFA616ADAF8000088470C4840680AF0B9FCF8B2992808BFF8
:2058F000002784F82C70384606E01CB16FF0010084F82C006FF0010005B0BDE8F08FC046E1
:20591000884F0020E81B00202DE9F843614C5A4D5A4EDFF870815E4F94F8E4100846401E6F
:205930000B2864D8DFE800F07B2C43062343062343067664042907D001220A2945F8212CAB
:2059500014BF0220032004E0202045F8210C0120024684F8E200002045F8390C0827C5F83C
:20597000FF7FC5F8F37F45F8392CBDE8F883052914BF09200620002784F8E400376075E0E5
:2059900094F8E170383D0120002FC5F81B0004BF0620002102D00021F160032084F8E400AC
:2059B000032045F8010C3160306880085ED294F8E4103348012703290ED000684568002126
:2059D0006022052300914046A84794F8E400062814BF0A200720CFE70068456800216022D7
:2059F0000523022000904046A8470420C4E7FEE72548264F0026012506600E203D6002F043
:205A1000B1FF022008F02AFB84F8E45084F8E360BDE8F883002038600C25786024E04FF0F4
:205A30008059D9F8A0010168202088472C3D0F2045F8010C41F61D56C5F80360D9F8A40171
:205A5000466800214FF4C0720723022540460095B047D9F8A401C66800214FF4C07207232B
:205A70004046B0470120386084F8E45004F178000AF0C5F9BDE8F88339400C4038600C4042
:205A9000A401001000A00C402C500C4004800C4034600C40841500202DE9F04F614CA0681A
:205AB000ADF13C0D002800F0818004F1B80B4FF00D0A4FF00A094FF0010874E00AF0BEFB27
:205AD0002178CA0002EB41125A44B2E8E01004ABA3E8E010E0CAE0C364CA4F1C07F01F01C4
:205AF00083E8640004F10C05627821708A4208BF84F802800AF05AFCBDF83630A6212DA2C4
:205B1000284609F0A1FC284609F0AAFE049F4619B8B209F0A7FA3FA20CCA01F07DFD3FA259
:205B30000CCA01F079FD07F037F90090A91B3B0C22A23046A63109F087FC284609F090FED4
:205B5000BDF834104019032914BF20A228A206990091059B2F1A07F1A60109F075FC2846C8
:205B700009F07EFE4219A0682946521B0AF0E3F8099800900A9E01960B9F02970C9B03939C
:205B9000089B079AA621284609F05EFC284609F067FE421902F801AB02F8019BA06829464F
:205BB000521B0AF0C8F8A078002887D00FB0BDE8F08FC04623253036752000C05B20256427
:205BD0002E25303375205D2000C046C01B5B33323B316D494E464F3A201B5B33303B316D3B
:205BF0002825733A256429201B5B306D00C046C01B5B33313B316D4552524F523A201B5BE3
:205C100033303B316D2825733A256429201B5B306D00C046000000000000F03E0000000025
:205C300000408F402C0800202DE9F04190460E460446ADF1A80D0AF04DFB071C00F0AB8063
:205C500068460021A4220AF00AF9ADF80040554C279B534AE57AE0788DF8A0501A40A57A18
:205C70008DF80400290105F0030305F00400257B134301F480721A43484B01F4C061022D5B
:205C900003EA020341EA030140EA010027904FF0000008BF01208DF837000AF0CBFA4128E6
:205CB00009DB207B00280CBF002008209DF8991008438DF89900607B002804BF00208DF808
:205CD000380017D001208DF8380004F1860120220DF1390009F092FC0DF1590004F1A60148
:205CF000202209F08BFC0DF1790004F1C601202209F084FCA07940B18DF8260004F15001E9
:205D100010220DF1270009F079FC607938B104F16000B91D0622054609F074F968B920792E
:205D3000002804BF00208DF8050016D08DF8050004F140010DF106000CE0607905F1160142
:205D500010228DF805000DF1060009F057FC0DF11600A91D102209F051FCE07920B11EB1DC
:205D7000279941F002012791002100B10121A7789DF89900002F41EA00018DF899100CBFD2
:205D9000002004209DF8991008438DF89900414668460AF04BFA2AB0BDE8F081FBF9FFFFB2
:205DB000FCFEFFFFFC12002070B5414C414B2568186855F8183F00224FF0FF3198473E48C8
:205DD0003E4A416B3E4C88683E4D4179117000260AF028FA3C480AF021FA0AF01BFA3B48D2
:205DF000026800215171A02301680722CB804A720321026811720021036859770268D176CC
:205E1000036883F85C10012102681177036883F85D100021006880F85E100EE06068F6B2EC
:205E30004FF4C071714308444279012A04D1304609F0E4FC0AF0EAF9761C2978F0B2884258
:205E5000ECD30AF0DFF92248224A0178117007F051FD0AF0D3F92049204A0020087000213A
:205E7000117001201E4A10701E4A11701E4A10701B201E4A11701E4A11701E4A11804FF46E
:205E9000A4711D4A1080FB201C4A11801C4A1D49108040F648000880FB211B4A11801B4AFB
:205EB00010800AF0A7F91A490020087070BD00BFF04E0020EC4E002010160100714F002002
:205ED000684E00207B4F0020CC470020104F00206D4F00207A4F0020734F0020744F0020B6
:205EF000754F0020764F0020774F0020784F0020794F0020524F0020444F0020464F0020EB
:205F1000484F00204A4F00204C4F00204E4F00206F4F00202DE9FF4104466668A7680D46DB
:205F300009F075FF3178012903D10AF03FFA00208FE0012131700AF039FA2878707068782B
:205F5000B07068687060A868B060E868F06028693061287D3075687D7075A87DB075A86920
:205F7000B061287F3077687F7077A87FB0774FF00008C6F82080C6F8308045467562756349
:205F9000B562B56386F82C50102386F83C3086F82D5086F83D50786802F0ACFE204602F0D1
:205FB00003FF204603F020FD60B9386808F07AFF786802F0D7FC09F02AFF35700AF0F6F9DA
:205FD0002C4645E0684609F0B1FC0094387B224A0190B9686B4606F1800007F05DFB68463C
:205FF00009F0E4FC00941D4938696A46029006F19C0007F043FCB07830B906F1D0002946CB
:2060100008F076FB16483061707830B906F1EC00294608F06DFB1348F060684609F0BBFE8A
:2060300001958DF800501049029406F584700A226B4606F049FDB969FA6906F1400009F039
:206050004AFC0A4A06F16C000421234608F0BAFC20460090BDE8FF81F56F0000BDDB0000E0
:2060700091FD000089FD0000A9A30000CDFA0000F0B5514C20780D46E90BADF11C0DC90335
:2060900072D1A80860D2E069216A6A080ED2E80828BF85F0040580F08C80680904D304F098
:2060B0009BFC85F0100584E0002083E0868861B904F11600414A00904FF6FF71022301207F
:2060D0000AF094F80146216221B304A800900027019702230293FF220392E28A30460DF141
:2060F0001203FDF7B5FD58B99DF813009DF81220216A12EB002204D04989304606F078FA27
:20611000216AE28A08463B464FF6FF710AF0F2F801462162A069002918BF85F001051AD1D7
:2061300068B143685BB1E0698088012100229847A069E7694368B88803210022984709F0A9
:20615000C5F885F0010534E000200146FEF762FA18B185F00205012102E0022185F0020543
:20617000207802F039F924E005F054F9071C1ED038780126B03811D0401E02D01F3808D0FD
:2061900011E0387978B97888F9883A8906F030FA0AE03846FEF75AF8064604E0397907F12F
:2061B00008000AF00FF916B1384608F03BFF85F40045A8B207B0F0BDFC12002098110100FA
:2061D0002DE9F04F09AFBE883D8883469946924688460846ADF1140D07F0D8FA00284948BA
:2061F00004880ED000200090019040F25B1102900322039020A304901BA003F0D5F80A2000
:206210002EE033A00090CDF804B00295387A4FF4AB7101221FA30027039013A0049703F0FC
:20623000C3F8AC420EDB641BB442D4BFA2B2321CA9F80020D8F80C105046491903F039FB46
:2062500038460DE038460090019040F2611102900322039022A3049003A003F0A5F8072083
:2062700005B0BDE8F08FC046626174746572795F6C6576656C2E63004174747269627574DD
:206290006520776173206E6F7420666F756E642E00C046C052656164417474724342203A87
:2062B00020257320636F6E6E48616E646C653A202564206F66667365743A202564206D659D
:2062D00074686F643A2030782530327800C046C0424154544552595F4C4556454C00C04640
:2062F000416E20696E76616C6964206F666673657420776173207265717565737465642EA6
:2063100000C046C09A1900202DE9F04F09AFBE883D8883469946924688460846ADF1140D61
:2063300007F052FA03464748801C048873B10020009001904FF4C37102900322039020A321
:2063500004901BA003F030F80A202EE032A00090CDF804B00295387A40F2811101221FA3BE
:206370000027039012A0049703F01EF8AC420EDB641BB442D4BFA2B2321CA9F80020D8F8EB
:206390000C105046491903F094FA38460DE03846009001904FF4C67102900322039020A3C7
:2063B000049003A003F000F8072005B0BDE8F08F6E66635F6465746563742E6300C046C045
:2063D00041747472696275746520776173206E6F7420666F756E642E00C046C05265616471
:2063F000417474724342203A20257320636F6E6E48616E646C653A202564206F666673652B
:20641000743A202564206D6574686F643A2030782530327800C046C05041495200C046C0BB
:20643000416E20696E76616C6964206F666673657420776173207265717565737465642E64
:2064500000C046C07C1800202DE9F04F09AFBE883D8883469946924688460846ADF1140D3F
:2064700007F076F9034645482A38048873B100200090019040F265110290032203901EA3CA
:2064900004901BA002F090FF0A202EE030A00090CDF804B00295387A4FF4B07101221DA37B
:2064B0000027039012A0049702F07EFFAC420EDB641BB442D4BFA2B2321CA9F80020D8F844
:2064D0000C105046491903F0F4F938460DE038460090019040F26B110290032203901EA3F5
:2064F000049003A002F060FF072005B0BDE8F08F616C61726D2E6300417474726962757417
:206510006520776173206E6F7420666F756E642E00C046C052656164417474724342203A04
:2065300020257320636F6E6E48616E646C653A202564206F66667365743A202564206D651A
:2065500074686F643A2030782530327800C046C04252454154484500416E20696E76616CD1
:206570006964206F666673657420776173207265717565737465642E00C046C04C180020C2
:206590002DE9F04F0C464B4924398A7AADF12C0D84460592087B0A904A7A4878E246AAF5AF
:2065B000407ABAF11D0FCD7891F80B8091F804900492B1F842E009900A7AC88A0392CB890B
:2065D0000890CA79888A0292CF6907908A79488A01928E7806904A79088A00954FF0000529
:2065F00010D8DFE80AF05F59575553514F4D4A474543403E3C0F383634312F292624220FB6
:206610001F1D1C1ABCF1280FA8BF02254BDA28496246102004F022F921E0DDF82880C14684
:20663000CDF82490099805901BE00898079007980690DDF818E005E034310868206088881D
:20665000A08030E0704608E0B1F8400007E0C88F03E0888F01E091F83A00034612E02080BC
:2066700021E0059804900498039001E02E31E4E7039802900298009006E0019A83310DE025
:2066900064310BE01846EAE7009E0BE02831D4E7276008E0543100E044311022204603F0CA
:2066B00008F900E0267028460BB0BDE8F08FC046F58401100C0E00202DE9FF47484C94F8C0
:2066D000E700002876D13D4801273D4D006884F8E770EE7C84F8E6606B68C4F81031C0F333
:2066F000801084F8E800684609F055FB002604F10C0001966B468DF80060324902963246C0
:2067100006F0E2F9304904F130006B46324606F0DBF92E4904F154006B468146324606F061
:20673000D3F9A96838468847DFF8B08028482A7D08F104030078284D1868C0F3815A22B133
:20675000BAF1030F04D184F8E170BAF1030F17D0BAF1020F14D0BAF1010F0ED0022007F0D4
:20677000DDFD1C480068016804208847012804D028683221B1FBF0F10DE007F015F912E0B6
:20679000022007F0CBFDBAF1030F0CBF4FF47A7142F210712868B1FBF0F1484609F02DFBD1
