:20000000004000203DB7000001C9011001C9011001C9011001C9011001C9011001C901106A
:1C00200001C9011001C9011001C9011001C9011001C9011001C901103FC9011089
:20003C002DE9F04FB64C201D04F11001ADF1440D0AF0ACFF04F134050021284600F096FB38
:20005C006561DC4D41F28832012304F1700029460BF072FA64224FF4005304F19400294635
:20007C000BF06AFA4FF0804000210AF097FBD44E1F220623A0603146102005F027FC0125E8
:20009C000020ADF8160081468DF8335029468DF834900DF13302ADF81C905020ADF8180031
:2000BC004FF44870ADF81A004FF47A70ADF81E0040F2053002F008FD40F2063002210DF193
:2000DC00160202F001FD4FF442701B2104F1550202F0FAFC40F20730072104F1240202F0F9
:2000FC00F3FC4FF4447029460DAA02F0EDFC40F21130022106AA02F0E7FC40F2123002214B
:20011C000DF11A0202F0E0FC40F21330022107AA02F0DAFC4FF4457002210DF11E0202F09F
:20013C00D3FC04F140004A461523C6490090102005F0CCFB314610200622A02305F0C6FB04
:20015C00314610200722A02305F0C0FB314610200822A02305F0BAFB314610200922A0236D
:20017C0005F0B4FB8DF83790A8468DF835800DF135008DF83680C94D8DF838804FF4806265
:20019C00009043462946102005F0A0FB0DF1360040F20242009043462946102005F096FB13
:2001BC000DF1370040F20342009043462946102005F08CFB0EA840F206420090434629468B
:2001DC00102005F083FBBF4910204FF0FF3205F07DFBBD4910204FF0FF3205F077FBBB4E35
:2001FC00BB4F10201323BB4A00903146019705F06DFBB948007880000DF05CFEB74D0146D7
:20021C00A96069B14FF6FF700CF032F8CF49102005F11402009011230191314605F056FB5E
:20023C0002208DF8398003278DF83A0004268DF83B70C7498DF83C600DF1220348460A68AB
:20025C0009791A600DF139021971414607F04EFB40460DF13A02014607F048FB0220414612
:20027C000DF13B0207F042FB41460FAA384607F03DFB05210DF12202304607F037FB04F12A
:20029C0020006860C14D69782878A9B904F11C0129620CF08FFB05F15407CDF80090024658
:2002BC0005F14400019005F11C060297C0490396AB78102005F00AFBBE4904F12C0210205D
:2002DC0005F004FB20790CF075FBC3490246102005F0FCFA20790CF06DFBC049024610201C
:2002FC0005F0F4FABE49102005F0F0FAA0684946C0A30A460CF0BDFCDFF808B31DE0C04655
:20031C00080200206178012904D10DF044FD84F80190E068A1784FF0FF32B2FBF1F10DF017
:20033C0035FD2178A0784018C0B21428A07018BF012802D14842C0B220702069BA4A49462D
:20035C004FF0FF3300F016FA061CF6D0484604900DF1320104AA05A80CF0A8F8002840F086
:20037C00AC80BDF8141020794746102940F0A0809DF83210884240F09B80049D29884FF62A
:20039C00FF728A4260D02B78913B32D01F3B40F08F806978162915D02979A0687E290BD099
:2003BC007F2920D12989B9A300914A4605210CF060FC18E0B9DA0000297AB8A3F4E7C04671
:2003DC00BD8401100CF0F6FA03464046AE4900906A88102005F07AFA28B9404609F0B8FFCB
:2003FC004F46A56164E0297905F1080000F0C6F95EE068780E3802D0801E1DD058E0A8888A
:20041C0042F20301814253D1A9680D78002D4FD1491C0DF12A000A68496802600DF12A057F
:20043C0041602878CE490DF12A0200F0FD002870102005F04BFA3BE00820494604F07EFCEF
:20045C0036E0C046819400006888400830D3A56975B3607905F10803401C6071BF4900933C
:20047C006A882B79102005F031FA5FFA80FABAF1160F15D02079BAF1040F11D0A5690CF0B0
:20049C0099FA03464846804900906A88102005F01DFA504609F05CFF0AE0C046F53100004F
:2004BC0060790090A06805214A4680A30CF0E1FB049810B10FB10DF0C0FCF00FC0F0C28037
:2004DC00BAE0C04679CF0000DDD10000E9C8000090F40000B4090020694F0020580C0020FC
:2004FC006069054600F04EF9854208BF4F4602D087680BF0F1FE381C00F09E803888401E47
:20051C0000F09480401E4CD0801E23D0001F40F09080786805783DB1CDF800B0A068042164
:20053C004A4667A30CF0A5FB40F20E3008A905F0F3FEBDF820208849CDF800B010204B4666
:20055C0005F0C4F978680BF0C7FE72E09CF40000F5F400007A68BD78A1681078C5B1012D16
:20057C000CD0022D07D0032D19D1002808BF58A30FD05CA307E090B960A30AE0002808BF8F
:20059C0062A306D065A3009003E0C046D005002067A308464A4602210CF06BFB7A68104649
:2005BC00D1E7BB78A5683BB19B1E2DD041E0C0465BB90000B5D3000048460DF13D010BF0FD
:2005DC008DF89DF83D0016280CD09DF83D00102808BF84F803900BE0518801103181011016
:2005FC00C5AB0010604884F803800DF07DFCA56853A30FE0424C452050657269706865721E
:20061C00616C00C040E2010002200DF13D010BF065F84EA39DF83D0004214A4600902846E2
:20063C000CF027FB05E0C046012000C0B87804F0E1F838460BF050FE606900F0A7F8002870
:20065C003FF44EAF70080ED346480DF04DFC02200DF13E010BF042F828B9032041460DF104
:20067C003E0207F043F9B00BFFF467AE3E480DF03BFCE178E06801293FF444AE0DF090FBF6
:20069C0084F8018059E6C04699B700104D54552053697A653A20256400C046C04643205643
:2006BC00696F6C617465643A202564005273702073656E642072657472793A20256400C061
:2006DC0050617373636F64653A20256400C046C0426F6E642073617665207375636365732B
:2006FC007300C046426F6E642073617665206661696C65643A20256400C046C0426F6E6462
:20071C00696E6720737563636573730050616972696E6720737563636573730050616972F7
:20073C00696E67206661696C3A20256400C046C050616972696E6720737461727465640019
:20075C004368617220313A20256400C04368617220333A20256400C02DC50000DDFE0010BA
:20077C0095B40010780200209C020020DFF800F0A1B60110DFF800F0F99B0110DFF800F04A
:20079C0089840110DFF800F019BD0110DFF800F04FBF01102DE9F84FDFF81885DFF81815B6
:2007BC0088F80000002008600821DFF8100501700D2141804FF408718180DFF80405DFF82C
:2007DC00041501608A7EDFF800050270FF2ACB7E437008BFFF2B0D7F85704E7FC6708F7F85
:2007FC000771C97F417115D1FF2D08BFFF2E11D1FF2F08BFFF290DD1DFF8D0140A780270D9
:20081C004A7842708A788270CA78C2700A79027149794171DFF8B81402780A70FF25427801
:20083C004A7082788A70C278CA7002790A714079DFF8A02448710021DFF89C0405704570B5
:20085C008570C570057145711180DFF89004DFF89014466BDFF88C247078087031781170ED
:20087C00B078DFF884140870B1680879DFF87C14421E0A70F078DFF878140870F068DFF800
:20089C007414086008B90CF02FFE3069DFF86844206008B90CF028FE2068DFF86074016847
:2008BC008847216851F8042F38469047DFF85004DFF850143862DFF85004786270690860AD
:2008DC0008B90CF011FEB069DFF84014086008B90CF00AFEDFF838B4DFF838649BF80400F2
:2008FC000DF01CF9306008B900F045B99BF80500DFF824740DF012F9386008B9306837E173
:20091C009BF80600DFF814440DF008F9206020B930680DF00BF938682AE19BF80700DFF8E7
:20093C0000940DF0FBF8C9F8000038B930680DF0FDF838680DF0FAF8206819E1DFF8A4133C
:20095C000A789BF80000DFF8DCA3921C504380B20DF0E4F8CAF8080058B930680DF0E6F876
:20097C0038680DF0E3F820680DF0E0F8D9F80000FEE0DC480078002800F00281BBF80210DB
:20099C00DFF8A4B3484380B20DF0C8F8CBF8040078B930680DF0CAF838680DF0C7F8206860
:2009BC000DF0C4F8D9F800000DF0C0F8DAF80800DEE0CC4800780DF0B1F8DC49086080B94C
:2009DC0030680DF0B3F838680DF0B0F8D9F800000DF0ACF8DAF808000DF0A8F8DBF80400B6
:2009FC00C6E0C0480078182148430DF097F8D04A1060B0B930680DF099F838680DF096F821
:200A1C0020680DF093F8D9F800000DF08FF8DAF808000DF08BF8DBF804000DF087F8C3489D
:200A3C00A5E0B048007840010DF078F8C1490860D8B930680DF07AF838680DF077F8206859
:200A5C000DF074F8D9F800000DF070F8DAF808000DF06CF8DBF804000DF068F8B348006809
:200A7C000DF064F8B249086882E09E48007800010DF054F8B0490860F0B930680DF056F89F
:200A9C0038680DF053F820680DF050F8D9F800000DF04CF8DAF808000DF048F8DBF8040085
:200ABC000DF044F8A14800680DF040F8A04908680DF03CF89F485AE08A48007800010DF068
:200ADC002DF89E49086018BB30680DF02FF838680DF02CF820680DF029F8D9F800000DF0C2
:200AFC0025F8DAF808000DF021F8DBF804000DF01DF88E4800680DF019F88D4908680DF055
:200B1C0015F88C4800680DF011F88B4908682FE074480078302148430DF000F8884A1060D0
:200B3C0070BB30680DF002F838680CF0FFFF20680CF0FCFFD9F800000CF0F8FFDAF8080028
:200B5C000CF0F4FFDBF804000CF0F0FF774800680CF0ECFF764908680CF0E8FF7548006883
:200B7C000CF0E4FF744908680CF0E0FF734800680CF0DCFF00200CF0B7FC4FF4804192E033
:200B9C003168012008713068057331684D73306885733168CD7330680574002031684D74A9
:200BBC003268D072A0223168487103213068C2800172072031684872002032689072282139
:200BDC00306841820121C176002031684877326882F85E00012031680877326882F85D00B1
:200BFC00396808713868057339684D73386885733968CD7338680574002039684D743A6890
:200C1C00D072396848713A6890724FF4207039680022C88008818A7401213A68D174216881
:200C3C000D732268557321688D732268D57321680D740021226855742368D972012122686B
:200C5C0011710021236859712168C8800881002088722168887405202268D07439480168AA
:200C7C0088472A490A6805461068804727490A6852F8043F0020984718481D4BC16818782B
:200C9C000A88314902430A80284630490A6890470C212F4800F05EF80F4800F05FF800F0B5
:200CBC0061F84FF4005198F80000BDE8F44F06F07DBE00BF6E4F0020044F0020604E0020A5
:200CDC00084F0020B63F00502C4E0020E81200503C4E00200C4F0020344E00205CF5000040
:200CFC006D4F00207B4F00206B4F0020724F00206C4F0020F04E0020F44E00207C4B0020D5
:200D1C0039DB0000F84E002049DB0000FC4E002078140020104F0020144F0020184F00207A
:200D3C001C4F0020481F0020684E0020004F0020804E0020844E0020884E00208C4E002070
:200D5C00904E0020AC0F0020544F0020B00F0020F84D0020DFF800F0E5710110DFF800F0A2
:200D7C001D6E0110DFF800F04D7101102DE9F04F8246DAF800600C465FEA0208ADF11C0D6A
:200D9C0014BF00214FF0FF3106F1480083460CF042FE002818BF0B2040F00D8100258848B3
:200DBC00F460B8F1010F057007D0657002200BF057FC06200BF054FC01E00120607020789E
:200DDC00012840F2AB80801E012868D9801E012833D9801E012800F2DF800DF061F8069092
:200DFC004FF0805000F5EE77D0F8DC01A378466A009321782846062908BF0120019001209B
:200E1C000290A068228AE1686368B0478146069800F0D8F8B9F1000F40F0C080B8F1000F5F
:200E3C0002D00CF057FC02E050460BF066FD002800F0A4803868806A2AE00DF031F8069013
:200E5C004FF0805000F5EE77D0F8DC01012306680093A168A27860682478AC46042C08BFD3
:200E7C009C466346B0478146069800F0ABF8B9F1000F40F09380B8F1000F02D00CF02AFC34
:200E9C0002E050460BF039FD002877D03868406880474A49C1F8B0510D6081467EE00CF034
:200EBC00FFFF06904FF0805000F5EE76D0F8DC01E38A87690093E0680190208B0290A07857
:200EDC000390207D04900121059122782846022A08BF081CE1786268A368B84781460698C9
:200EFC0000F070F8B9F1000F58D1B8F1000F02D00CF0F0FB02E050460BF0FFFC00283DD088
:200F1C003068006A80475FEA000947D13068C569A168E28A2369E078A847BEE70CF0C0FF14
:200F3C0006904FF0805000F5EE76D0F8DC01E38AC7680093E0680190208B0290A078039002
:200F5C00207D2946049001200590257805B9014608466268A368E178B8478146069800F0AD
:200F7C0031F8B9F1000F19D1B8F1000F02D00CF0B1FB02E050460BF0C0FC08B914201AE039
:200F9C003068406980475FEA000907D1306802692169E078904780E74FF0FF39B8F1010FB0
:200FBC0005D002200BF0E6F906200BF0E3F958460CF08CFF484607B0BDE8F08F50450240E2
:200FDC008A1F0020DFF800F061C0011004480068C0F302400628A8BF4FF0FF307047C046CA
:040FFC0094120050FB
:20100000B41200001810000015AB0110FDB301106DC00110FDAE011099B5011000000000F7
:08102000000000002D0000009B
:20102800B01200003C100000B1C00110A9BF011067C0011069B80110000000000000000035
:041048003000000074
:20104C00B012000060100000BDC00110CDB30110D9BD01106DB3011000000000000000005B
:04106C00310000004F
:20107000000000008814002004000000000000000000000020000000E8C90110300000008E
:2010900028100000901400200400000000000000000000000C000000D8CA01101800000069
:2010B0004C1000009814002004000000000000000000000024000000F0CA011018000000ED
:2010D00000000000A01400200400000000000000000000001000000018CA01102C000000F9
:2010F00000100000B0140020040000000000000000000000200000006CCA0110240000005D
:20111000FFFFFFFFB81400200400000000000000000000002800000090CA0110240000001C
:20113000FFFFFFFFC01400200400000000000000000000001400000008CB0110180000009B
:20115000FFFFFFFFC814002004000000000000000000000058000000B4C901103400000069
:20117000FFFFFFFFD01400200400000000000000000000001000000020CB01101800000037
:20119000FFFFFFFFD81400200400000000000000000000001C000000B4CA01102400000064
:2011B000FFFFFFFFE01400200400000000000000000000003800000044CA0110280000008C
:2011D000FFFFFFFFE81400200400000000000000000000005400000078C901103C00000001
:0811F0000100000028F50000D9
:0411F80001000000F2
:0411FC0000000E00E1
:0412000000000F00DB
:0412040032000000B4
:0412080001000000E1
:04120C004813002063
:0412100000020000D8
:0412140000000000D6
:0412180001C90110F7
:04121C0000000000CE
:0412200000000000CA
:0412240008000000BE
:0412280000002200A0
:04122C00C0110020CD
:0412300000000000BA
:0412340000000000B6
:0412380008000000AA
:04123C000813002073
:0412400000000000AA
:0412440000000000A6
:04124800080000009A
:04124C00000000009E
:04125000000000009A
:041254000000000096
:041258000000000092
:04125C00010000008D
:041260005812002000
:041264000600000080
:041268000100000081
:04126C002C11002021
:04127000000000007A
:041274000000000076
:041278000002000070
:04127C00000000006E
:02128000290043
:02128200010069
:02128400250043
:02128600300036
:02128800310033
:02128A002D0035
:02128C0001005F
:01128E00015E
:0812900003000000B4F40000AB
:0812980000000000000000004E
:0412A0000000010049
:0412A4000000030043
:0412A80013C401105A
:0412AC0005D9000060
:0412B000B812000070
:0412B400B81200006C
:0412B8000000000032
:0412BC0038140020C2
:0412C00045DA00000B
:0412C4002000000006
:0412C80014F400001A
:0412CC001CF2000010
:0412D00029C101101F
:0412D40029DF00000E
:0412D8002BDF000008
:0412DC00A1C7011095
:0412E000A3C701108F
:0412E4000000000006
:0412E8003BF40000D3
:0412EC0098F0000076
:0412F000B0F000005A
:0412F40080F0000086
:0212F8000200F2
:0212FA000900E9
:0212FC000100EF
:0212FE000000EE
:0113000001EB
:04130400E5D9000027
:041308001DC2000002
:04130C0051D00000BC
:0413100095C4000080
:04131400FBC4000016
:04131800E5B5000037
:04131C00699D0000C7
:0413200041DC0000AC
:04132400E1A900003B
:0413280015C70110D4
:04132C0025C70110C0
:201330002DE9F04FD04C04F118012046ADF1440D09F032FED54D00264FF6FF7001236670AA
:2013500032462082294604F1A4000AF0FBF80223324604F1C80029460AF0F4F80423324620
:2013700004F1EC0029460AF0EDF84FF0040A04F1440810224046314684F802A008F08AFBD6
:2013900004F1540910224846314608F083FB04F11C073E6004F10A052E70E67126720720D0
:2013B0006072CDF80080DFF81883022210200346414604F091FA102003224146CDF80090C0
:2013D000034604F089FA1020524641460097134604F082FA4FF0080B4FF0030905F12A00D1
:2013F0000C9005F179000D9005F11E000E9005F15A000F902435109517E06078A28FE18F26
:20141000B4F84050B4F8423006280ED1ADF81A20ADF81C10ADF81E50C048ADF820300CF099
:201430006BFD012006A908F067F8A069BA4A31464FF0FF33FFF7A4F9071CF6D002960DF106
:2014500022000DF12E0102AA0BF036F8002840F0CB81BDF822102078102940F0C1819DF8F5
:201470002E10884240F0BC81029D29884FF6FF728A4200F0AA812B78A23B00F08D812E3B13
:2014900040F0AE81A978B046002900F04981891E00F01881491E012940F2E880891E00F0F1
:2014B000A880491E7BD0491E5CD0083900F06481891E40F0678194F83A30A888052BADF8DF
:2014D0000C0047D001208DF8160094480CF014FD94F83A0001281ED004281CD003280DD037
:2014F00002280BD00298C188ADF80E100189ADF810104189ADF81210818927E0A08FE58F9D
:20151000ADF80E00B4F84030ADF81050B4F84210ADF812301AE0A08FE9888842D8BF081CE3
:20153000ADF80E002989E08F8842D8BF081CADF810006989B4F840008842D8BF081CADF885
:201550001200A989B4F84200884200DC0846ADF8140001E08DF81660AF49102003AA04F0F7
:20157000BBF90FE1AD480CF0C7FC6B78002B40F00981E88860822889A0826889E082674814
:201590000CF0A2FA002840F0FD80656A002D00F0F9802B68608AA18AE28A9847F2E0AA8872
:2015B000B549102004F098F90C984146062208F071FA6682A682E682A879207357480CF0EB
:2015D0009BFC96480CF098FC4FF001084FF6FF702379208253B9A879082812BF84F801A071
:2015F0000520607040460CF097FACBE084F80190C8E06B787BBB291D0C980A68026089888B
:2016100081800623637068892082E8896082288AA082688AE082E878E07294F83A0001280E
:2016300018BF02280BD19A4910201F2204F054F94FF47A7180B2414338480AF007FD6889D5
:2016500000909249CDF804A0EA7810202D1D2B4604F042F999E06878312840F08A80E670E8
:2016700084F801A091E0C046D00500206B78002B7FD1A878E3896178032815D0E078257908
:2016900033B9012814BF2671E67008E029DB0000054304D07F4819460AF0D8FC6178072960
:2016B000DED10620607070E0062907D0E578002D08BF84F8019068D00220F3E70720F1E78E
:2016D00095D300006B78002B53D1EB78617893B902291DD007291BD0062902D120790128E1
:2016F00016D1032914D06B480CF0EEF980B901200CF012FA0CE00BF063F90246A07962499C
:2017100000900D9843460190102004F0E5F868706D78002D2DD135E0070000809806002027
:201730006B7833BB5C485749009002221020034604F0D2F859484A465249009010200346C4
:2017500004F0CAF8ED1C0E9829680160A98801238180207863700BF033F9024601230F9D22
:201770006079494900901020019504F0B5F8C0B258B184F801B008E0AA8841491020052353
:2017900004F0AAF8B8F1010F2AD1256A45B32D6835B36078A84723E06879132820D1288963
:2017B000012808D1607B022805D11C480CF0A4FB0AF0CCFE14E036491020052204F08CF837
:2017D00081B216480AF042FC0AE06888C00B07D3334852462B4900901346102004F07CF8A9
:2017F000029808B10CF02FFB2579E078790830D355EA00032DD0204600788DB9E179257A8A
:201810008DF82410109A8DF8255013680DF126052B609288AA8005E005160110BC060020F5
:201830008DF82490617A8DF82C10A17A8DF82D100BF0C6F81149024609AB102004F04CF86F
:2018500038B1256A84F801B01DB12D680DB15846A847B80803D31349304607F04DFEF8087B
:20187000FFF4E3AD607B401E3FF4C7AD401E7FF4DCAD0AF06BFED8E559AF000059440110C5
:20189000C1170110AD6B0000094501109D6D0000F584011074060020140600202406002026
:2018B000EC0500200A0600202DE9FF47C34C0F460646F80B80F05881B80880F04981607AAB
:2018D000DFF804A3B90F80F0CB80E079390914D2B80BC0F06A8104F13C000CF0F9FA061CD6
:2018F00008D0706830B17568F068B6F9241000222023A84727F4005757E1012800F0AB80ED
:20191000E06870300CF0CCFA68460AF09BFC20B1009904F198000CF017F900254FF001085E
:20193000E570A74884F805800CF096F9A5492A4604F160000CF0C0FA50460068006B80472E
:201950006061A2782169A369012AA0EB010018444FEA1030A06105D163781BB9E169B0EB0F
:20197000C12F3AD9DFF8649284F80280A9F1150000686570000A30D340F60900A08494F8A1
:20199000310000F0F00040F0010084F8310094F8300000F0F00084F83000A5620CF086FA7D
:2019B0004B4603F6FF7211686FF0020C21F00201116004F12401C3F8FBCF854AC3F8EB1F7E
:2019D00011688908FCD3C3F8FBCFD3F8FF1F41F00201C3F8FF1FFFF7FBFA7E4A10687E49B1
:2019F00020F00200256140F400701060032341F8043C41F230038B604046086050238B60EF
:201A100008604FF4CA638B600860237841F80C0C15601BB9E06838300CF05EFA02200AF036
:201A3000AFFC112006F086F8307C10B90E2006F081F8207A18B1257205200AF0A1FC6749CE
:201A500065710878A57140B10D7004F1BC0004210CF04AFA01E00020E07127F00807A4E08A
:201A700020B104200AF08CFC00206072B168088840F602084FF0000980450AD0B0F5C15F58
:201A900007D00A8B4FF61F60104040F43470088306E00A8A4FF61F60104040F43470088263
:201AB0002069F0B1DAF85400016804208847C0B1DAF800002569006B8047F168401B738AB6
:201AD000F060020BF26098188842F06002D240184008F06040F6C41181422CBFB0F5FA7FE2
:201AF000F16094F8310010F00F0F0CD1718C08F10700884207D1B56930466FF480714A46B6
:201B10004FF00073A847364904F160004A460CF0D3F9607860B10220ADF8040001A80BF090
:201B300001F9BDF80C0084F801904011A4F860010120E07084F8049009F0B0F875694946F0
:201B500030464FF080630A46A84727F000572CE004F0A8FE04F144000CF0BAF927F0020782
:201B700008B147F0020720E00CF0A0F9014604F140000CF0ADF9061C12D0356AA8080FD275
:201B900025EA050030620846FFF722FA706850B12A46F068B6F9241075680023A84702E0DA
:201BB0000846FFF715FA27F4804727B104F1BC0039460CF099F90090BDE8FF87201500203A
:201BD0004D7100009DCF00008C0100101500044010100440000004600C410440811F0020BC
:201BF000D15000002DE9F04F09AFADF13C0D08900A92388809911E46ADF81800101C08BF1E
:201C1000002000F08481002700F101094FF0FF3A4FF0010BB8466CE1252940F06381107885
:201C3000521C0A922D2818BFADF8068005D15846551CADF8060010780A9530281CBF4246C1
:201C5000434605D10A9908785A465B46491C0A912A28CDF80080554616D1306804930A99C6
:201C7000CDF808A0C01C4B1C20F00300001D306050F8044C0A93002C0878009418D5ADF8DD
:201C900006B06442009413E044460AE0610001EBC4010918A1F130040A9908780094491CC8
:201CB0000A91302801DB3A28F0DBCDF808A004932E282BD10A9908782A2801F101010A91BE
:201CD00011D13068CDF80880C01C20F00300001D306050F8045C002D48BF454608782B4639
:201CF000491C0A9111E0454643460AE0690001EBC5010918A1F130050A9908782B46491CE9
:201D10000A91302801DB3A28F0DB02930AB1224604926C2804D04C2818BFADF8048005D1B7
:201D30000A990878ADF804B0491C0A910BA9CDF80C800FAB07916428059300F08B80692810
:201D500000F08880BDF818C0752872D078286ED06F286AD0702850D063283DD073281ED087
:201D700009980A990128A1F101010A9115D96B490C68B5F1FF3F03D0A84288BF6D1C00D858
:201D9000099D029508A80AA932466B46A0473F180A99039801F1010974E040462AE0306876
:201DB0000A99C01C20F00300001D306050F8040CBCF1000F01F10109014608B955A0014680
:201DD00007910BF0F3FD0390B5F1FF3F5BD0A842C4BF281C039056E03068C01C20F00300CD
:201DF000001D306010F8040C5D468DF82C000A990395584601F1010945E008203568049067
:201E1000E81C20F00300001D306050F8041C082210230FA808F0F2F8401E079040210170C9
:201E30000A99079801F1010929E0082302E0102300E00A230A99306801F10109C01C20F0DB
:201E50000300001D306050F8041CAA42BCBF2A1C049210E00A99306801F10109C01C20F004
:201E70000300001D306050F8041CAA42BCBF2A1C04926FF009030FA808F0C0F80790059DEC
:201E9000281A0390009C241ABDF8065000945DB906E008A8202109AA0AF01BFF009C7F1CF9
:201EB000641E0094F5D503980546401E039075B9BDF80600E8B10098401E009019D408A8B6
:201ED000202109AA0AF005FF00987F1CF4E70798411C0791017809AA08A80AF0FAFE0398F5
:201EF0007F1CE1E708A809AA0AF0F3FE7F1C09F101094A460A9812F8011C401C00290A900A
:201F10007FF48AAE089808B14146017038460FB0BDE8F08F286E756C6C2900C034F500005F
:201F3000BB482DE9F84F0025BA4CB849056094F8E200002800F06581012800F02F81B64E67
:201F500002283CD0032840F05C8151F8250CD4F8B8100029A0F5C060C4F8D400B8BF494285
:201F70000028B8BF4042814226DA4FF08057D7F8A4014568B4F8BC0030214FF47F4208234E
:201F900000903046A847D7F8A4014568B4F8C00004214FF4F802122300903046A847D7F854
:201FB000A401B4F8D070456820214FF440620A2330460097A847012584F8D8501CE151F874
:201FD000258C0BF061FE2F4600B901273946934F38680028FCD0B146012609F10409D9F8A5
:201FF0002CA03E6009B10BF055FECAF30720C4F8BC000BF049FEAA4600B9B2463B68002B52
:20201000FCD0D9F800B0BAF1000F3E6001D00BF041FECBF38440C4F8C0000BF035FEAA46E4
:2020300000B9B2463B68002BFCD0D9F81C90BAF1000F3E6001D00BF02DFEC9F38120C4F860
:20205000D000B8F5C061C4F8B81000F09C8094F8D80068B9C4F8D410D4F8C000C4F8C8000D
:20207000D4F8BC70C4F8C470D4F8D030C4F8CC30D4F8D410D4F8BC30002954BF02206FF0BF
:20209000010004F1C802176801EB41014018411000EB917107EBA1001060D4F8C810C4F8CA
:2020B000C43000291CDD1E293CDDD4F8CC0030B93429B4BF15391E21C4F8C81025E02A29D0
:2020D000BABFD4F8C8000B381E20C4F8C800D4F8C4003F28B4BF401C3F20C4F8C4001FE03A
:2020F000D4F8CC00032812D011F10B0FC6BFD4F8C8000B30301CC4F8C800D4F8C400002833
:20211000C4BF401E051CC4F8C450032508E011F1150FC6BFD4F8C8001530301CC4F8C80079
:20213000C4F8CC504FF08057D7F8A401B4F8C43030214FF47F424568374800930823A8475F
:20215000D7F8A40104214FF400321123456832480096A847B4F8C860D7F8A40104214FF4D1
:20217000F802122345682C480096A847D7F8A40120214FF440620A23B4F8CC6045682648C0
:202190000096A84701E084F8D85040F2FF50404502D8801C40452FD2082030E051F8251C61
:2021B0001F4F4BF2F5204843060A3868C0F3814001280CD11B4800680068804709F0C4FDE6
:2021D0000BF06EFD3111C010484306EBE03694F8E50030B91448006820F07F408019460811
:2021F00001E084F8E5501148310C0660012741600F4D8760287808B90B2000E0052084F828
:20221000E40003F0D9F9BDE8F88FC0462D400C402C500C40900E002000A00C4000800C40DC
:20223000B43F0050EC010010102009403C600C40D5F300002DE9F04FB64D686885B0019037
:2022500020B905B0BDE8F04F0CF002B90178DFF8C882B24EDFF8C892DFF8C8A201291CBF34
:202270000229042946F2A81741F64C5B05D0402918BF802900F09A8043E10BF03BFD0028DA
:20229000FAD00198007803F025FF0090446814B900200BF02FF99AF80100002860D001F014
:2022B000D7FA0BF05BFB02900168009801914F6807F07EFF022827D000990A78012ADBD189
:2022D000994B19680A7A19F80230337018B90CF0BBF85844A0602069C17E01F0EF01C17623
:2022F0002069C17E41F08001C1762069C17E01F0F00141F00201C1768C48B9684118206931
:20231000C16101210098A0E001980178802913D10822874832700178012903D09AF801000E
:20233000012803DD38690121C17213E0D8F828103A690878D0720DE07D49072030700A7832
:202350003869012A02D10123C37203E0D8F828104A78C2720298817901988AF80210CBE028
:202370000098002888D00199009A0078914205D101281CBF00200BF0BDF815E0012840F0BE
:20239000C080694801680A7A19F8020030700CF05BF83918A0680CF053F818B90CF054F894
:2023B0005844A0600120A8700098A5E09AF8010000287DD001F04CFA0BF0D0FA0446206845
:2023D000029047689AF802000BF0C8FA03900BF097FC10F0070F3DD0A87803F07BFE0190FA
:2023F000416801980091029907F0E2FE022831D001990A78012A2AD14B4B19680A7A19F86F
:202410000230337028B90CF01FF883440098C0F808B000990869C17E01F0EF01C17600981B
:202430000069C17E41F08001C17600980069C17E01F0F00141F00201C176009AB9683B4830
:2024500041181069C16101210198A97054E000200BF050F80398A04228D0029801788029DC
:2024700013D10822324832700178012903D09AF80100012803DD38690121C17213E0D8F857
:2024900028103A690878D0720DE02949072030700A783869012A02D10123C37203E0D8F83C
:2024B00028104A78C272A0798AF80200029823E00BF026FC10F0070F29D0A87803F00AFE5D
:2024D00004462078D4F80480012820D116490A68107A19F8001031700BF0B6FF3918D8F8B2
:2024F00008000BF0ADFF20B90BF0AEFF5844C8F808000120A870204605B0BDE8F04F05F00B
:20251000D3BB05B0BDE8F04F00200AF0F3BF05B0BDE8F08F481F00205CF500006F4F002029
:20253000289A0110684E0020104F0020F0D8FFFF734F00202DE9F04F0C46E00789B00BD514
:202550000BF0D2FA28B100218160A448006800B1804784F001003EE1A00710D50020069027
:202570000021049000230290009005910393019101223C200BF060FF84F002002BE11D25F6
:202590006007974E974F40F18A8000200790834695498878FF2804BF00200AF0ABFF386812
:2025B00090F8A0000BF0DAF980463868C07A98F82691022818BF032808F5907A06D106F12D
:2025D0000D000BF035FF08B906F1070B514648460BF02AFF88B33868807A002818BF01289F
:2025F00004D1314650460BF01BFF04E05246494630460BF011FFFF2834D005FB00F906EB33
:20261000090506225146E81D0BF09AF816F8090040F00209E81D079006223868817E01F0A5
:20263000010188F8261105F1010A386800F1140108F590700BF084F814E0514648460BF0A2
:20265000E7FE78B15246494630460BF0E5FEFF2808D006F10D01454348190BF0E9FE08B159
:2026700049F0020908F12C004B4601780691418909090591B8F82220079904920122C0883B
:20269000029140080390CDF804B0CDF800A0002098F806100BF0D0FE84F004009BE0200636
:2026B00010D5002006900021049000230290009005910393019101223B200BF0BDFE84F00F
:2026D000800088E0E0043BD5F11D06F10D000BF09BFE38684179012923D1017A012918BF74
:2026F00004291ED1C17A022918BF032919D1817E00F1140230460BF08FFEFF2811D04543C7
:20271000354405F10D000BF093FE50B9E91D05F10D000BF079FE38680622E91D14300BF010
:202730000FF8324932484A6800784FF4805109F0A7F810B18E2007F073F884F480504AE074
:20275000A00505D50BF0A0FA2A4901200860FEE7610504D507F023F884F480603BE060044C
:2027700005D5812007F05CF884F4804033E0A00430D5214D286810B100200AF0BBFE4FF0BE
:20279000FF3028600BF03CFE1C4D296851F8202F684690471A48016A426A2D6800910192F4
:2027B0001849029100F128014A6809781368C06903938DF81010ADF812006B462E68124A8F
:2027D00012491348B0471349086003F04DF984F4005000E0002009B0BDE8F08F204F00200B
:2027F000AC450020104F0020684E0020784E00206E4F0020FC002043044F0020F04E002070
:20281000F8110020E9DA00002C4D00206845002088490020EC4E00202DE9FE4F0F46994C6E
:202830000168E16241688068E0609748A16080479648E16A0160A168DFF870B24160E168EE
:20285000DFF8648281609249002FA246C16063D03D68E8788DF8080028798DF8090002A819
:202870000BF0CAFDA86808B18A490160E86808B189490160894C2878207068786070A87878
:20289000BE68A07031787368E170B26863602E69A2607968E6610868E06068692062A8696B
:2028B0006062287F84F828002A6AE262786886681EB900200AF01EFE00E066617868C06899
:2028D00018B900200AF016FE00E0A0617868406818B900200AF00EFE00E020612869E06156
:2028F000F86881680E6806B96E4E6D494FF001094E60C66881F801902EB900200AF0FAFDB1
:20291000F868454601E045462E6000685C46FE68A0617068E06106E000200AF0EBFD4FF011
:2029300001095C464546286861494668621C04F114035020B04710B1286880688047DAF8A5
:20295000080080475C4F0026834669467E7059483E7004222061304609F010FE0098B0F5B1
:20297000801F0CD020B90AF033F903F0FBFD08E008F042FF0BF024F80420788001E00AF0B3
:2029900027F94E4FB0462868C7F808808069A660804778604A48468080F8009014200BF080
:2029B000C3F8FF211422A0620BF0ACFAE01CFF2102220BF0A7FA14200BF0B6F841490860A8
:2029D0000868142231460BF09DFA3046FDF7E8FE484609F013FA3C480188FF2906D1022125
:2029F00001807822001D31460BF08CFA03200BF0FFFC04200BF0F8FC05200BF0F1FC062038
:202A10000BF0EAFC072007F087FF304E0820307006F124000BF0DCFC08F098F906F1360730
:202A300005200A213A460AF0ADFC38B14046C0F10901401C07F8011B0A28F8DB3078102194
:202A500004F0BAFF2F68224909200DF10A0201AB7D68087010204146A847A06AE2690A274F
:202A70000A309DF80A1000F8011BDAF80C107F1EF7D1921E5846E261884702F085F8BDE882
:202A9000FE8FC046A40F002041490010F844002068E4000005CB0000C1D60000F8110020EE
:202AB00050140020C3CE00000C150020B8120020E5CF000021D70000001500203C1F00206A
:202AD000CC050020781F002040100020E40A00208B1F00202DE9FC41A0F2013714468846B1
:202AF000022F40F232819B4E9C493F1F0F2F04D9143F4CD0BF1E1CD011E0DFE817F0CF00A3
:202B1000C9000D01FA00C100B9002601AF00A700100010009D008F007F00740066002828E8
:202B300080F21381B8F1020F40F00F818849238807E1B8F1010F40F00881F078012800F0AE
:202B50000481324620781179107189B9002800F0FC805078012800F0B580042800F0B2808B
:202B7000062800F0AF80052800F0AC80BDE8FC812078002840F0E9805078032800F0AF8022
:202B9000072800F0AC80052840F0DF80A7E0B8F1010F40F0DA802078012840F0D68006F116
:202BB000EC000AF091FF002840F0CF803446002004F13A0106F0A0FC002840F0C68004F1F9
:202BD000C8000BF099F9BDE8FC81B8F1020F40F0BC8020880A28C0F2B880B0F5486F00F335
:202BF000B4808E1C17E0B8F1020F40F0AE802088B0F5FA7F80F2A9800E460CE0B8F1020F7D
:202C100040F0A38020880628C0F29F80B0F5486F00F39B803E363080BDE8FC81B8F1020F40
:202C300040F0938020880628C0F28F80B0F5486F00F38B803C36EEE7B8F1010F40F085801B
:202C50002078062880F28180454E0EE0B8F1010F7BD12078042878DA0A3606E0B8F1010FB0
:202C700073D12078082870DA09363070BDE8FC81B8F1010F69D12078042866DA0836F4E7DD
:202C9000B8F1010F61D1207804285EDCF61DECE7B8F1020F59D120880E36BCE7B8F1010F29
:202CB00053D13079012850D032462078D178D07069B9002849D05078012803D0042818BF2B
:202CD000052842D101200AF027FFBDE8FC81207800283AD15078022818BF052835D11078F2
:202CF00009F06EFE1C490246102002F0F5FDBDE8FC8106F1830500211F22284606F0CAFE6F
:202D100021464246284605F009FE44463078B47109F056FE002311E006F1640500211F22D0
:202D3000284606F0B7FE21464246284605F0F6FD44463078747109F043FE012300940949CA
:202D500001950246102002F0C7FDBDE8FC81C046BD840110D005002099450110100600200B
:202D70000A060020094501102DE9FE4F05467F48002400680094C0090ED37D48007858B927
:202D90007D497C4851F8112C104040F0817041F8110C202008F052FD012D40F0E280DFF82E
:202DB0000892D9F8DC00012840F0D8800220C9F8DC000AF0CBF9012008F040FD5FEA0008E7
:202DD00005D00120C9F8DC000AF0D0F9CBE00BF087F8A34602906948694DC0F800B0A86A0C
:202DF000016801208847012804D1584607F016FA012000906348644FC0F800B0386811207F
:202E10000AF05AFF00B1012410200AF055FF08B144F002040F200AF04FFF08B144F004049C
:202E30000B200AF049FF20B12868584E016B308888470A200AF040FF20B12868544E016B49
:202E5000308888475348012606602868816944F020008847504806600AF028FF00F0010105
:202E70000191400814D2286A81684C4888478246BAF1040FF7D0BAF1010F04D1286A42688B
:202E90004648032190474649086820F003000860584600F0E7FD2B683868986B8047019817
:202EB00001280CD0BAF1010F04D1286A42683B48314690473A49086840F003000860314859
:202ED000066028684169204688470B200AF0F4FE20B128682D4BC16A188888470A200AF05F
:202EF000EBFE20B128682A4BC16A18888847294806600322C9F8DC20274BC3F800B0286843
:202F1000416B204688470128F9D13868042008F095FC044619480660386814480068800982
:202F3000FBD30098012802D1304607F077F90AF0B1FE082008F082FC07460298C9F8DC6017
:202F50000BF042FA1748008806F0B0FF0AF00EF957EA040018BF4FF0FF3804E06FF00408BC
:202F700001E06FF001084046BDE8FE8F14100940780F0020FFFFFCFC150009400C40094043
:202F9000B8010010000222432C20094016F0000012F0000028200860800104430040034059
:202FB00024220840D0F30000900E002010B50B7884074CBF43F0020303F0FD0304064CBFD4
:202FD00043F0800303F07F0304074CBF43F0080303F0F70384064CBF43F0200303F0DF03B5
:202FF00010F0AA0F0B7004D0107840F00C00107010BD18B9117801F0F301117010BD2DE905
:20301000F8430D461646287802281F464FF0000862D1686801784078089C01EB002189B220
:2030300020001CBFB1F5285F0B205AD14FF42850091A08D0491E1ED0491E2CD0491E22D03B
:20305000491E2ED048E0DDF82490E8680AF05CFF214680B2421A4A45ACBF4C46041BA4B2AF
:203070006018162804DA3C802246E86801440EE04FF00D0834E0E868008802213980307049
:20309000000A70702CE0062038800622E96830460AF056FB24E001203880E86801783170CB
:2030B0001EE0E868B0B108213980018831700188090A71704188B1704188090AF170818898
:2030D00031718188090A7171C188B171C088000AF07105E0398003E0A7F800804FF001083A
:2030F0004046BDE8F2832DE9F0470F4682B039780024022970D1804678680A9E0178DFF86D
:20311000E0A09146427801EB022189B24FF42850091A1D4606D0491E29D0491E4ED0491EE1
:2031300039D059E0F8680AF0EFFE80B2B04204D3A819162803DB0D244FE007244DE0FB6803
:203150002A46494698190AF0FBFAAD19F868ADB2C5F11602002140190AF0D4FEDAF8000055
:2031700000281CBF0268002A37D0002123E08EBB022DE0D199F8000099F80110FA6800EBD4
:2031900001201080DAF8000000281CBF0268002A23D001210FE0EEB9062DCCD1F868062202
:2031B00049460AF0CDFADAF8000000281CBF0268002A12D00321404690470EE056B9012DB8
:2031D000B9D199F80000002813BF0128F9680870802402E00B2400E001242046BDE8F68786
:2031F000701F00207CB5894D144602460026A2F58062182A1AD8DFE812F0FE00F800F100E4
:20321000E900E200DC00D500D0001900C500BE00B700AE00A3001900190080006F00680025
:2032300054004C00420039002C002400282880F28580022940F0828021880BF0C1F8064646
:20325000E1E0012940F0DE80002C00F0DB801135A6E0102940F0D680002C00F0D380284606
:203270005030102221460AF06BFACCE0012940F0C980002C00F0C68029468D1D90E026293D
:2032900040F0C080002C00F0BD8005F160002622E8E7012940F0B680002C00F0B3806D1D7F
:2032B0007EE0602900D13CB9012940F0AB80002C00F0A8800D3573E005F18600214660228E
:2032D0000AF03EFA012068739DE0012940F09A8020780BF071F896E0012940F09380207848
:2032F000022800F38F800C3528702078022814BF301C01200BF05CF885E0072940F08280A1
:20331000611C684606220AF01FF920786946324604F0E0FF04460A2C10DA0BF045F838B913
:20333000204602F06BFF09F089FD07F00FFD6AE02A46012002F12C05285564E0022662E00F
:2033500001295FD1A87B21780028A9735BD12078012858D1E9E7012954D12478072C51DBD3
:20337000102C4FDC0B3537E001294BD124780A2C48DA093530E0012944D12478022C41DAD3
:20339000083529E000293DD10BF00EF810B90AF0A6FAC8E701240F351EE0012932D10A35BA
:2033B000247819E001292DD12478022C2ADAED1D12E0102926D12B4603F1400051E701293F
:2033D00020D12478022C1DDA2D1D05E0012919D12478042C16DCED1C2C7014E0012911D185
:2033F0002478022C0EDAAD1CF6E702290AD120881435288007E0012904D12478022CD8BF7F
:203410006D1CE9DD182630467CBDC046E40A00202DE9F04F044678488E46016894461F4671
:20343000BEF1000FADF1440D4AD0BCF1000F47D09EF8002001209040014241D0BCF8000033
:20345000B0F5C15F2FD1DCF81400DCF818606B4BDCF81C50DFF8A8A10E904FF003080DF167
:2034700034090F9618681095C0F3036B59F8046FB6B10021331F05200A4653F8045FAA4564
:2034900006D0401E01F1040102F10102F5D107E0052A05DA705820F4702040EA0B4070509F
:2034B000B8F10108E2D1C4F804E0C4F808C00AF0FDFC544D8346287820B15846FDF788FD8E
:2034D000002095E002F0DCFC4F49086840F0020008600AA80AF0F0FA4FF0050905F1BC0046
:2034F0000AAA4A49CDF8309008F06AFC0AA80AF0BAFA00264FF0FF0A05F1600019210AAB7F
:203510008DF83060424ACDF82CA008F0DFFB0AA80AF0D2FA05F1F0000AAA3E49CDF8309079
:2035300008F04EFC0AA80AF09EFA4FF00108CDF82CA005F17C001A210AAB374A8DF8308004
:2035500008F0C4FB3549324605F19800134607F069FF33480AF080FB324A3346042105F168
:203570004C0009F0F3FB4FF6FF70A5F86001AE702E716E71AE71EE712E726E722E61C5F870
:203590001C902B7885F80180581C28705846FDF71FFD1FB903AF38460AF0CCF9386820602D
:2035B0007868E060387C84F811802074788A60821D4DA5616561F86800B1A061B86800B189
:2035D00060613146782204F1200006F063FA04F13800314609F062FA68460AF025FC134983
:2035F000029404F1700032466B4607F01BFF204611B0BDE8F08FC046D42108405413005041
:203610000200F8442015002000200940B1D700009DCF0000958100001996000019DB0000F1
:203630004D7100006DB20000F3AA000081DE0000F0B57348734A0078734C744B74490D289C
:2036500083B03CD8DFE800F0DB07070707D3D358D39292B0B0B7146041F204456D494C88DF
:20367000AC421FBF4E8BAE424E8EAE4203D11D806948106072E0022C684D1C804FF4A0563D
:2036900035D94FF48067E41B1AD0241F012C1DD94FF47F77E41B1BD04FF44067E41B0FD0A8
:2036B000A41E012C0CD9241F0AD0641E012C0DD940F2F937E41B012C19D9241F08D096E063
:2036D000022814BF1E80564D156047E0554DFBE7554803681C7A012C05D141F2024048809E
:2036F00048834886F0E74E804E834E86ECE7002009F000FF83207EE04C488178FF2952D014
:20371000182041434A48146040F204450068841C645A1C80641B012C464B70D94FF47F753D
:20373000641B0FD04FF44065641B032C84BF641F012C0BD9A41E012C61D940F2FD35641BA2
:2037500006D103E0801C41F201444452136005E0002009F0CFFE85200AF022FE03B0BDE8A0
:20377000F04035480078012104F026B940F204424888188090421CBF41F2084290423ED035
:2037900041F60402904211D12C4C2D4A25682D4800680023CDE9002355F8086F2A4B022276
:2037B000B0472A490880F7BD48881880002009F0A1FE85201FE04888188002280DD940F2E5
:2037D0000442801A1BD040F6FC72801A05D0083815D04FF47F72801AE8D1887B801CC0B23E
:2037F000B528A8BF6620887300204880F7BD002009F080FE8420BDE8FE400AF0D1BDF7BDFE
:203810006F4F0020204F00207BDE0000504F0020CC4C0020204A002059550110615A0110C6
:20383000B1540110755B0110104F0020684E0020804E0020313901106E4F0020F04E002088
:2038500002000080EC4E0020C5C30000424F00202DE9FE4FDFF8FC8198F8011011B9002001
:2038700009F048FE0AF0F0FD0546002405F6C4150027794EDFF8E4910EE038460AF06EF8C9
:20389000417939B1316882790A552946641C0AF083FDE4B27F1CFFB299F800008742ECDB15
:2038B00098F80100844205D0002009F023FE82200AF076FD98F80100012840F0A980002749
:2038D00001E07F1CFFB299F80000874280F29A8038460AF043F8054668790028F1D0306865
:2038F000A979027891421CBF002009F003FEA87986E0306810F809000AF030F800684268F0
:20391000DAF808109068814204BF3D4609F1010900F08D808FE03068047801210FE0D8F847
:203930000420435C02F5AD7209FB03F509FB04FE555B32F80E20954238BF1C46491CFFB24E
:20395000B942ECDB4FF6FF700AF022FD834620460AF004F840F6C41500684168CDF800A01E
:2039700000204FEA5B076F4382460291CDF804B016E0204609F0F2FF01680A78802A04BF58
:20399000DBF810305F610978402907D1344A8079136803EB401107F5A062CA610AF1010A22
:2039B0000098824554DA306810F80A008442F5D0D8F8043009FB00F2991803F5AD73C98920
:2039D0009A5A4B08934203D2009B891A8B42E5DA09F0C4FF0068D0F804B0029A0198DBF874
:2039F0000810936800EBD0704010A1F6C41105FB00300AF025FD0028BBD0306810F80A0014
:203A1000BDE8FE8F002009F075FD82200AF0C8FC98F8011030680AF0B7FC3068007809F08A
:203A30009DFF00250168D1F804A04FF001096F1CA145FFF65EAFEDB2002D1CBFF8B20028AA
:203A5000A2464FF4C0797FF466AF3068047879E72046D5E7684E0020004F00207B4F0020A5
:203A7000844E00202DE9F84FDFF8F4B10746ABF13500DFF8E0910068800880F0D980714893
:203A90000068006880477A490831D1F8008000254FEA28725FEA985102F101020AD2C0F18D
:203AB0003E0110F10A0F4FEAE101D8BF08218A42B8BF0A1C644BD3F87C11C1F304611629FA
:203AD000A8BF20391B68C3F30443162BA8BF203B9A468918162905DA11F10A0FB8BF6FF003
:203AF000090100E01521594B594E01F01F0242F4F8521A80326812F0030F18BF0125D2089A
:203B100028BF45F002050FB145F004054A4692F90730C31A052B04DA9379AB4208BF91885E
:203B300066D0DFF834E10F28A0F10F0C25DB0CEB0013A3F1F00C4FEA2C26072E88BF0726A2
:203B50003446062C88BF06245EF82470042303EB84037446E358DB1B03F0FF04EF0824BFF7
:203B7000C3F307273C44AF0824BFC3F307473C446F0828BF04EB136401E0002426465EF828
:203B900026E0EF080EF0FF0324BFCEF307273B44AF0824BFCEF307473B446F0828BF03EB53
:203BB0001E63A4B2ACEB0626AAEB01017443002904F1800403EB1423D8BF0121342408F03D
:203BD000FF074C43A1B27943B1FBF3F14FF6FF738B4238BF191C802889B2918005DA10F11D
:203BF000800FB8BF6FF07F0000E07F20D07195711A4800681F2910604FF0000008D340F23D
:203C1000FF128A4206D24908401C8A42FBD301E01F219180134F0F39090940EAC10047EA8E
:203C30000001CBF8FB1F0026CBF8FF6FBDE8F88F0D490E4F4A4608200F60921D1070BDE865
:203C5000F88FC046EC0100103C1100506E62084024220840681F00209C1300500820094070
:203C70003500094000E7A48030100940FDFDA400AC3F00502DE9FE4F0E468246307AC10659
:203C900093461C464FF000090CD558460AF078FB030000F0EA800A223146504698475FEAE7
:203CB00000094DD13078DDF838800D9D0C9F02281AD170680178407801EB002189B24FF49A
:203CD0002052891A012910D9891E3AD0491E14D0FD397BD0491E00F08280491E6ED0491ECA
:203CF00074D0491E00F09780ADE0002D2AD1F068017839800278416889E0002D22D10120F6
:203D10003880F0680178217000217089401C80B20AF032FB398860B10278921C511839808E
:203D3000418961704189090AA17002784168E01C6EE0091D398004220021601C0AF0E2F807
:203D500095E0002D68D1F0680588042139802570290A617028460DF102010AF00DFB5FEA62
:203D7000000821D0D8F80C50BDF802204FF6FF766B4631460AF0FCFA50B998F80030D8F8CC
:203D900004203C4802210AF0EFFA08B9ADF80060287802280AD169680222201D09F0D0FC03
:203DB0003888801C388001E0ADF80050BDF80000A070BDF80000000AE07058E0002D2BD1D4
:203DD000F0680168504609F046FE02E025BBF0680088022139802070000A607047E0F068D8
:203DF0000AF092F880B229468842B8BF4FF007093DDB814208BF002206D008EB01028242AA
:203E1000B2BF4246451BAAB23A80F0680144204609F096FC2BE015B14FF00B0927E0F06812
:203E30000721398001782170417861704188A1704188090AE17001792171C1886171C08887
:203E5000000AA07113E058460AF08AFA5FEA00090BD00F980290CDF8048000953B462246FB
:203E700031465046C847814601E04FF00E094846BDE8FE8F54F10000F8B57E4F04463868AF
:203E9000C16E0025002940F0F180102009F04CFE39680028C86600F0E7808E6E102221469E
:203EB00009F04EFC39680878002840F08E80CA6ED6F8980012F80CCF00F001030CF0010CA8
:203ED000634518BF0023400843EA4000C6F89800C0F34003D2F800C0CCF3400C634506BF2D
:203EF000430803F00103002320F0020040EA4300C6F89800C0F38003D2F800C0CCF3800C6D
:203F1000634506BF830803F00103002320F0040040EA8300C6F89800C0F3C003D2F800C068
:203F3000CCF3C00C634506BFC30803F00103002320F0080040EAC300C6F89800C0F3002363
:203F5000D2F800C0CCF3002C634506BF030A03F00103002320F4807040EA0320C6F89800A1
:203F7000C0F34023D2F800C0CCF3402C634506BF430A03F00103002320F4007040EA432081
:203F9000C6F89800C0F38023D2F800C0CCF3802C634506BF830A03F00103002320F4806068
:203FB00040EA8320C6F89800C0F3C0231268C2F3C022934206BFC20A02F00102002220F496
:203FD000006040EAC220C6F898008A6E92F89500030718D5C86E4368C3F3C00098B1C87821
:203FF00040F00800C870D6F8981023480140C6F898103868C06EC16821F48071C16049084A
:204010004900C16003E092F8330001282AD0607800281CBF7178002908D13968CA781307A0
:2040300008D5002804BF7078002803D03A68052111711CE06068C0F3800040B996F8950068
:2040500010F0040002D10120087110E00AD00878002819BF30782178317820780AF07CF9A4
:20407000054604E0182502E0132500E011252846F2BD00BF304F0020FEFEFFFF2DE9F041D8
:204090001C4615468C4208BF854282BF00230022E5E0002C08BF002D0AD100290EBF002893
:2040B0006FF000006FF0000100F0E1F8BDE8F0815FF000085FF0000E002C08BF8D429CBF81
:2040D0002C1C0025070C47EA01470E0CB44208BFBD429EBF5FEA044444EA15445FEA0545F9
:2040F000070A47EA01670E0AB44208BFBD429EBF5FEA042444EA15645FEA0525470847EACA
:20411000C1774E08B44208BFBD4200F29380870847EA81778E08B44208BFBD427CD8C70813
:2041300047EA4177CE08B44208BFBD4266D8070947EA01770E09B44208BFBD4250D84709B2
:2041500047EAC1674E09B44208BFBD423AD8870947EA81678E09B44208BFBD4224D8C70909
:2041700047EA4167CE09B44208BFBD420DD8E60146EA5566EF01B14208BFB84201D3C01BB9
:20419000B14158EB08085EEB0E0EA60146EA95664FEA8517B14208BFB84201D3C01BB14169
:2041B00058EB08084EEB0E0E660146EAD5666F01B14208BFB84201D3C01BB14158EB08085D
:2041D0004EEB0E0E260146EA15762F01B14208BFB84201D3C01BB14158EB08085EEB0E0E5B
:2041F000E60046EA5576EF00B14208BFB84201D3C01BB14158EB08084EEB0E0EA60046EA0C
:204210009576AF00B14208BFB84201D3C01BB14158EB08084EEB0E0E660046EAD5766F0087
:20423000B14208BFB84201D3C01BB14158EB08085EEB0E0EA14208BFA84201D3401BA141BC
:2042500058EB08085EEB0E0EA34208BFAA423EBF2D0A45EA0465240A89D3734642461E4603
:2042700017460B46024631463846BDE8F08170472DE9F0410446764DA178A869ADF1180D35
:20429000891F00F0DE80C91E00F0C980491E5FD0491E48D0C91E3CD0481E40F0D580287A63
:2042B000697AB8B96878002831D0A0880AF050F8071C00F0C980A07A40080FD3787968B17D
:2042D000E168890A0AD2B91D01AA04F003F80A2804D10321A0880AF037F8B5E0287B0228C8
:2042F00002D1A07A0009F4D3A088797904F1080201F02AFAA869002800F0A6804368002B9E
:2043100000F0A28000210A46A08898479CE00521E0E7002800F098804368002B00F0948090
:2043300062780221F0E709F0E7FB002800F08C80A86950B1076847B1206900906189227B81
:20435000637BE01C3C46A0477EE060890121C2E767784FF00008002F52D1A17949084FD3F3
:20437000EF69002F4CD101A841460E2209F0CAFDA08809F0EDFF071C66D0606940B9787950
:20439000B91D06228DF80A0001A809F0D9F919E06669307C062206F111018DF80A0001A82F
:2043B00009F0CEF907F10C00B91D062209F0C8F9B81D062206F1110109F0C2F9307C40F0DB
:2043D00002007871A1799DF81120C1F3800010438DF81100080905D39DF8110040F008001E
:2043F0008DF8110001A8214600F022F928B92878022103F0E1FA404627E0A8694FF0150890
:2044100010B3436803B3A088627801219847B8F1000F19D0A86943680321424674E7E078A9
:20443000211D002203F056FF0A280DDA410001EB800004F10C0225300421C0B202F0AEFB74
:2044500002E0A08806F080FD012006B0BDE8F081E40A00202DE9F04F6C4CE2680746880F99
:20447000ADF1140DC0F0CF805068406808B18047E2685168664E886808B9CD6875B135682E
:20449000002DFCD00022326010B18047E0684168C86800B180475F4808F044FC4FF0000818
:2044B000C6F800805C4846F81C0C5C4809F0D4FB40F60A09A4F82490A378A4F82680BD681D
:2044D00094F83000C34604F1240A00F0F00084F83000012BC4F828B094F83100A5F80280BC
:2044F00000F0F00040F0010084F8310001D17B7CABB1B8680088A9F10801814208D0B0F53E
:20451000C15F05D0298B4FF60F400840288304E0298A4FF60F400840288287F811804048A6
:20453000016883680193C368406B00911022694620F0784040F0805003903A48029304F0D5
:20455000EDF9494600E01D466B6813B118888142F9D1C5F804A0687B00F0F000687304F1DB
:20457000380009F0B5FC80680088A9F10701814220D0491C81421DD03B8CEBB197F82C0051
:2045900097F82D30C7F824B000F0F00087F82C0003F0F00040F0010087F82D0007F1200227
:2045B000A2629AF80D00A7F8228000F0F0008AF80D0001E0C4F8108030680028FCD0C6F821
:2045D0000080B968237A0A8A4FF6FF301040088283B91548006801680120884701280FD049
:2045F000687B00F0F00040F0010068730F4809F033FB05E007F08AFA0028FBD009F066FCB0
:20461000B86846F81C0C05B0BDE8F08F201500201C1004400100070601010E04B918000073
:204630004C13005018000021E0010010F9A600002DE9F04F714CDFF8C0A1E56988468146C5
:20465000ADF1140D002D4AD1B9F1000F00F09280B8F1000F00F08E8008F0D0FA06460A2E8C
:2046700023DAD8F814702674002F39D0700010216A4600EB86002330C0B208F083FE90B9BE
:2046900050460778FF211022684608F0BBFF50B93FB999F80600494600F0010009F050FEE4
:2046B00001E00120A074E56919E004F1E60B0A2700265846FF21062208F0A4FF68B97F1E11
:2046D0000BF10E0B06F10106F3D1607C002804BF0A2020744ED094F83660267400E0267C12
:2046F0000A2E47DA002D35D170000E214A4600EB86002030C0B202F051FA207C06F020FECF
:204710006846FF21102209F0FDFB207C10216A467030C0B202F042FA217C0E220801A0EB7A
:20473000410000194946E63009F00AF8D8F814206AB15046007840B9107C02F11101002395
:2047500000F0010009F0F8FD01E00120A074C4F81C804CE0AA68002A3ED12A69002A2FD1C8
:204770006A690ABBEA683AB9A07B08B107F0DEFF08F0F9FD01203BE07000102100EB860068
:204790002430C0B202F00AFAE769217CFA68480000EB8100103225300421C0B202F0FEF933
:2047B000E1690020C86022E07000102100EB86002330C0B202F0F2F9E1690020486116E098
:2047D00070001C2100EB86002230C0B202F0E6F9E169002008610AE070001C2100EB86003B
:2047F0002130C0B202F0DAF9E16900208860002005B0BDE8F08FC0465A4F0020E40A0020F9
:2048100070B56C4C0146A068491EADF1280D5FD0491E59D0891E44D0491E3DD0491E04D0F9
:20483000491E36D0491E32D02EE004F1700009F061FB6149102001F04FF86049C5B201ABEC
:2048500010206A1E01F048F848B90095A068022100223CA308F013FA0DF106000CE006ADF5
:2048700040F21530294601F05DFDA0680221002238A308F004FA2846A46806F005FC032144
:2048900003460022204659E00221002219E034A300E035A3002250E0142005F05FFD38A37F
:2048B00007E004F1700009F027FB142005F056FD36A3A0680221002208F0E1F9A0680321E1
:2048D000052209F0C3F93BE0022134A30446D8E74FF4417008A901F025FD9DF821608DF87B
:2048F000056000258DF808509DF822308DF807509DF824108DF806309DF820008DF80A10A6
:204910009DF825208DF804009DF823608DF80B2001AB2B498DF809601A680A6058684860FA
:20493000A66808A806F0B0FB034601212A46304608F0A5F9A0681CA32A46022108F09FF937
:204950000AB070BD4E756D20436F6E6E733A20256400C046436F6E6E656374656400C0468D
:204970004572726F7200C046436F6E6E6563746564204164766572746973696E6700C046DE
:2049900054696D6564204F757400C046446973636F6E6E656374656400C046C0416476659D
:2049B00072746973696E6700496E697469616C697A65640008020020F17F0110097F01102D
:2049D0001F09002066480178002900D170472DE9F043491E032985B004D9891F012940F2B5
:2049F000BC80B4E05F4CDFF880912168DFF87C8108685F4E00F10805062205F1080102A8FB
:204A100008F09EFE0622A91C684608F099FE2878C1091D2700F00F02032AC0F3801537D19C
:204A30006079C0F3800081421ED12169062202A808F0FCFB00280AD06946284609F0F4FC55
:204A5000002804D03146684609F0EAFCFF2879D04743D8F80000807AF519002818BF02284B
:204A70000AD0012818BF03286CD1F25D691C484609F05EFC102865D06B46EA1D294648460D
:204A900009F052FC06226946E81D08F059FE59E000F00F00052860D16079C0F3800081422F
:204AB00050D12169062202A808F0C0FB002849D06946284609F0B8FC002843D0314668464B
:204AD00009F0AEFCFF283DD04743D8F80000807AF519002818BF01280AD0022818BF03285F
:204AF00030D1F25D691C484609F022FC102829D040F2024009F014FC6B46EA1D29464846C9
:204B100009F012FC06226946E81D08F019FED8F80010F05D88760622D8F80000691C1430A7
:204B300008F00EFE1348144A41F20441418041834186124801801249124808600121107842
:204B500002F03AFF21680A680020107105E0002008F0D0FC862009F023FC05B0BDE8F0832A
:204B70006F4F0020F44B0020CC470020104F0020AC450020204A00206E4F0020504F0020FF
:204B9000204F0020595501102DE9FE4F674D664C674F2868626A066904F1200339460120B5
:204BB000B04710B1286880688047DFF89881DFF8849108F02FF95FEA000B03D004F0C0F81F
:204BD0004FF0FF3B002637E00098216910F8062CA0F10C07032A02D171B388472CE0A06A06
:204BF0009DF805C00A213246401E10F8013F9C4506D0491E02F10102F7D14FF0FF0A01E0FD
:204C10005FFA82FA2868BAF1FF0F00F1080011D0387907F0A7FAB979012904D0022904BF25
:204C30000099887001E0009908700099504608F01DFB01E0006880472868C3690DF10501D2
:204C50006A4601A898470028BED0D9F8000030F8167027B9761CF6B20A2EF8DB23E00A2E77
:204C700021DAD8F808008047D9F800107700002231F807A0CA53D8F80C1088472E4850F8AA
:204C9000262026705146304690470646FF202070D8F808008047D9F800107A5A16437E52CC
:204CB000D8F80C10884708F0B5F80746BB451AD007B9224FE069B84238BF071CD8F80800E7
:204CD000804782462868016A206A8847626A286817491B4B521C6262C6683846B047D8F81A
:204CF0000C1050468847A7682968606914318FB9D9F800000A270026835B33B10969606908
:204D100088472968D9F8000014317F1E06F10206F2D103E0096988472968143109684FF004
:204D3000FF30884745E7C046B81200200C150020ADC10000781F0020CCF100008EC2F528B9
:204D5000D8120020A40F00207CB56D4D0446A8680E4628B94FF00040002105F025FDA8602D
:204D700000213CA30A4607F08AFF20463DA3801E08D0801E61D0401E4CD0401E37D0401E8B
:204D900022D00EE0A868012E05D000210A4607F076FF37A357E000210A4607F070FF39A36E
:204DB00051E0A86800210A4607F069FFA868022100223AA307F063FF01208DF803009DF809
:204DD00003000028FBD17CBDA86800210A4607F056FFA8680221002236A307F050FF012031
:204DF0008DF802009DF802000028FBD17CBDA86800210A4607F043FFA8680221002232A374
:204E100007F03DFF01208DF801009DF801000028FBD17CBDA86800210A4607F030FFA8682E
:204E3000022100222DA307F02AFF01208DF800009DF800000028FBD17CBDA86800210A4644
:204E500007F01DFF29A3A8680221002207F017FF7CBDC0463E3E3E535441434B204153538B
:204E7000455254002A2A2A4552524F522A2A2A003E3E20494E5445524E414C204552524F60
:204E9000522100C03E3E20494E5445524E414C204657204552524F522100C0463E3E204468
:204EB000454641554C54205350494E4C4F434B2100C046C03E3E2057524F4E472041504994
:204ED0002043414C4C2100C03E3E204943414C4C2054494D454F55542100C0463E3E204951
:204EF00043414C4C2041424F525421003E3E204F5554204F46204D454D4F52592100C04664
:204F1000080200202DE9F04FADF1240D079000F0B7FF6148007807F0DFFF604D0024012806
:204F300008D90A380FD0801E04D0401E0ED0401E09D006E0FCF750F8022804BF01210C1C22
:204F500006D0696805E005211F2401E0032107246960534A1068C0F38150012806D152F870
:204F70000C0C0127020E07FA02F0044308F094FD524AFF230818401E471C28607F1E02F850
:204F9000013BFBD1079A1268002702F0FF03FE2B20D0DDF81CC096463B4601260EF0FF0276
:204FB000FF2A10D0904205D3914203D806FA02F2144201D002206CE017430EF0FF02DFF8C7
:204FD000FCE00EF802305CF804EF5B1C0EF0FF02FE2AE5D1092002F0C3FE07980121A8606D
:204FF00005F1280007F05AFD05F19806A8464FF0010A4FF0040B0025A9460AFA05F00442C8
:2050100016D1074204BF05F0FF0141F4C04104D02A480799405D51F82010224802F05EFAB2
:20503000E8B24FF0FF3108F003FAC6F8009001E0C6F800B0D8F800006D1C361D8542DCD99D
:2050500004A808F010FD184C184A2078102104AB059008F10C0006F039FE684608F02CFDBB
:20507000CDF80C906A4660681149029008F1640006F0A6FE0F4951F80D0C20F4F85040F41A
:20509000005041F80D0C0C4FC1F8FFAF4846C7F800A009B0BDE8F08F891F00207C0D002061
:2050B000B43F0050007FC767C8F400005DD400001DBA00000D30094008000940C00D002068
:2050D0002DE9F84F694CE76B08F0AAFA6A4D002F4ED081081BD207F110020CCA0021024003
:2050F0000B4008BF002A43D03A693E6A10403043386207F1180696E80C002764194307F12A
:205110001806104386E803004FF480412CE039693E6A07F1180341F00201084030433862A7
:2051300093E800030022002607F1180340EA080046EA090183E803003E69E2632B46A3F1BB
:20515000100000F108031968B14307F11006196096E8000301684B4699430160394604F10B
:20517000440006F0CBF9022104F1BC0008F0BCFEAB46002601254FF002094FF0110AA846CC
:20519000F0B208F0E9FA071C30D0B87C01282DD1ABF11400797C0368113105FA01F223EAB3
:2051B00002010160797C4268113105FA01F111434160787C08FA00F0C0B208F0D3F9F86838
:2051D000002107F0EFFC812808BF87F8129081280CD0787C94F862110AFA00F0084384F8F8
:2051F0006201002104F1F00008F07EFE761C032EC6D3204808F06CFE0746E06B002832D1D9
:2052100067B3684605F024FE30B1009820B1082004F0FEFBBDE8F88F082008F0A3F91449FB
:205230003869A1F10802136807F110061843106096E80C0051F8102C181C104341F8100CE2
:2052500000250D60B86841F81C0C0F68002FFCD0084808F009FAE063BDE8F88F04F1BC004E
:20527000494608F041FEBDE8F88FC046201500201C100440581500201C1004406048017843
:20529000042900D870472DE9F84F891F2FD0491E012900F2AA805B4CA078FF2827D008F0BC
:2052B0005DFB82460AF16C06706809F035F80746387903281BD1B868017811F0030904D1C3
:2052D0007068BDE8F24F09F023B8457800F102080AF20F10B9F1030F00900DD045B1307892
:2052F00030B900983D21417001210098017084E0454801780129FAD09AF894000AF59A7B4B
:2053100058B32D1F4346EAB24946504608F0FCFF50B900993D204870012000990870BDE85B
:20533000F24F3A4808F0ECBF39480168884700904FF4C0709AF80620616842438818002174
:2053500080F83911DBF800109BF80600490805F0A1F8304900980A6890470020B9F1030FEA
:20537000B8602ED02C4840690078810708D5C0074CBF03200020EDB2401918F8000000E010
:20539000812030722549BBF83E000A78904211D3317A802918BF81290FBF7F21204A1078EE
:2053B000091A49B200914B46A078EAB2414608F0A3FF11E0A0784B46EAB2414608F098FF7C
:2053D0000AE00F480178082903D04146504608F08BFF404605F0DAFF706808F099FF394625
:2053F0005046BDE8F44F08F07BBF002008F082F8BDE8F24F862008F0D3BFBDE8F18F00BF61
:205410006F4F0020684E0020794F0020AC450020AC0F0020B00F00205CF500006B4F0020EA
:20543000704F00202DE9F04F8346ADF1140D0393BBF1000F02920E9801910F9C049000F054
:20545000AC80081C00F0A980101C00F0A680181C00F0A3800498002800F09F80002C00F05B
:20547000A180206A002800F09880524D676A281D0068002F00F09180A16A08F02DFF40B2D3
:20549000002808BF6FF0020700F0838084F82C002078618800EB80000918143188B2216AF3
:2054B00088474349086030B92846406808F010FF4FF0FF376DE08A46628823786088DAF842
:2054D000001026789F1800EB0109781800F1040806EB460002EB430786187F18C0187618CC
:2054F0008018401800F11005204605F0BFFF2078C01C8010C9F800002078C01C8010C8F804
:20551000000020780837C01C8010386020780C36C01C801030602078C01C801028602278A4
:20553000594609F1040003F0F9F92278019908F1040003F0F3F922780299381D03F0EEF965
:205550000095484641463A46334608F0BDFE47B222780398331D194603F0E0F92278049806
:20557000291D03F0DBF921786288DAF8000001EB81015218002104F08DFA616ADAF80000A8
:2055900088470C48406808F0A3FEF8B2992808BF002784F82C70384606E01CB16FF0010095
:2055B00084F82C006FF0010005B0BDE8F08FC046884F0020581400202DE9F843614C5A4DCC
:2055D0005A4EDFF870815E4F94F8E4100846401E0B2864D8DFE800F07B2C430623430623CD
:2055F00043067664042907D001220A2945F8212C14BF0220032004E0202045F8210C0120CD
:20561000024684F8E200002045F8390C0827C5F8FF7FC5F8F37F45F8392CBDE8F8830529A9
:2056300014BF09200620002784F8E400376075E094F8E170383D0120002FC5F81B0004BF88
:205650000620002102D00021F160032084F8E400032045F8010C3160306880085ED294F852
:20567000E4103348012703290ED00068456800216022052300914046A84794F8E4000628F5
:2056900014BF0A200720CFE700684568002160220523022000904046A8470420C4E7FEE765
:2056B0002548264F0026012506600E203D6002F041FA022006F064FE84F8E45084F8E36065
:2056D000BDE8F883002038600C25786024E04FF08059D9F8A0010168202088472C3D0F203B
:2056F00045F8010C41F61D56C5F80360D9F8A401466800214FF4C072072302254046009560
:20571000B047D9F8A401C66800214FF4C07207234046B0470120386084F8E45004F17800CB
:2057300008F0BCFBBDE8F88339400C4038600C40A401001000A00C402C500C4004800C40A8
:2057500034600C40900E00202DE9F04F88468246ADF1AC0D299208F0FBFD5C4CE67894F81C
:205770000BB0A57A94F80C90071C00F0AB8068460021A42208F0C6FB2801279A55498DF87E
:20579000046005F0030300F4807605F00405ADF800A0B9F1020F01EA020143EA01024C4BFD
:2057B0008DF8A0B046EA020100F4C06603EA010246EA020045EA00054FF00000279508BF9F
:2057D00001208DF8370008F07BFD412809DB207B00280CBF002008209DF8991008438DF83B
:2057F0009900607B002804BF00208DF8380017D001208DF8380004F1860120220DF13900A3
:2058100007F09EFF0DF1590004F1A601202207F097FF0DF1790004F1C601202207F090FF27
:20583000A07940B18DF8260004F1500110220DF1270007F085FF66793EB104F16000B91D92
:205850000622054607F0F2FC68B92079002804BF00208DF8050015D08DF8050004F14001EC
:205870000DF106000BE08DF805600DF1060005F11601102207F064FF0DF11600A91D102296
:2058900007F05EFFE07930B1B8F1000F03D0279941F002012791002100B10121A7789DF88B
:2058B0009900002F41EA00018DF899100CBF002004209DF89910084329998DF89900684690
:2058D00008F0FAFC2BB0BDE8F08FC046E40A0020FBF9FFFFFCFEFFFF0FB42DE9F04106AF0E
:2058F0008046ADF1280D08F03BFA3E1D26F00306361D30F0010001D107F099FFCDF81A6044
:205910001420ADF816000025CDF80E50FF248DF818407B68CDF81E3008F0CAFC064608F048
:205930001FFA30F0010015D007F038FE4D492A468446062031F80C7F4FB14B681B689E424B
:2059500004D0401E02F10102F4D100E0D4B2604607F078FF404606F0DFFC0146FF2905D035
:20597000204603220DF11A0304F0C8FD08F0A0FC06F064FEA8460446CDF8008008F0F0F96E
:2059900030F0010063D00098A04260D041F2883001A906F023FE009D002852D108F084FCED
:2059B0000199012746186068019B41464FF00052FAF7E6FE00282BD00DF122000DF1230101
:2059D00002AA04F0C1FEB0B99DF8220003A906F01DFE38B9029A08F0A5F900281CBF029DB6
:2059F000474615D10299684607F000F860684FF0005108F055FC0198B0F1FF3FD3D0002808
:205A1000D1D008F051FC301A02D00199814216D207F0E4FC009E07F0C1FD083401463EB193
:205A3000324652F80C0C40B9206842F80C0C2660084607F007FF384603E00246F1E70190C6
:205A5000B1E720B92DB1284608F0FDF901E007F0EEFEDDF81A0000680AB0BDE8F04104B02C
:205A70007047C046EC0F002070B5414C414B2568186855F8183F00224FF0FF3198473E4859
:205A90003E4A416B3E4C88683E4D41791170002608F002FC3C4808F0FBFB08F0F5FB3B4889
:205AB000026800215171A02301680722CB804A720321026811720021036859770268D1760F
:205AD000036883F85C10012102681177036883F85D100021006880F85E100EE06068F6B230
:205AF0004FF4C071714308444279012A04D1304607F034FF08F0C4FB761C2978F0B2884271
:205B1000ECD308F0B9FB2248224A0178117006F093F908F0ADFB2049204A0020087000218C
:205B3000117001201E4A10701E4A11701E4A10701B201E4A11701E4A11701E4A11804FF4B1
:205B5000A4711D4A1080FB201C4A11801C4A1D49108040F648000880FB211B4A11801B4A3E
:205B7000108008F081FB1A490020087070BD00BFF04E0020EC4E00205CF50000714F002041
:205B9000684E00207B4F0020CC470020104F00206D4F00207A4F0020734F0020744F0020F9
:205BB000754F0020764F0020774F0020784F0020794F0020524F0020444F0020464F00202E
:205BD000484F00204A4F00204C4F00204E4F00206F4F00202DE9FF4104466668A7680D461F
:205BF00008F064F93178012903D1FBF7F1F900208FE001213170FBF7EBF928787070687835
:205C1000B07068687060A868B060E868F06028693061287D3075687D7075A87DB075A86963
:205C3000B061287F3077687F7077A87FB0774FF00008C6F82080C6F830804546756275638C
:205C5000B562B56386F82C50102386F83C3086F82D5086F83D50786802F082F8204602F044
:205C70008BF9204602F0F4FE60B9386807F04EFA786801F05FFF08F019F93570FBF7A8F9DD
:205C90002C4645E0684607F0EEFE0094387B224A0190B9686B4606F1800006F017F868468C
:205CB00007F00AFF00941D4938696A46029006F19C0006F085F8B07830B906F1D0002946AA
:205CD00006F0ECFE16483061707830B906F1EC00294606F0E3FE1348F060684608F0A4F8FE
:205CF00001958DF800501049029406F584700A226B4605F097FBB969FA6906F1400007F034
:205D100087FE0A4A06F16C000421234607F01EF820460090BDE8FF819166000025C00000A5
:205D300029DE000021DE0000E5920000C9DB0000F0B5514C20780D46E90BADF11C0DC9037E
:205D500072D1A80860D2E069216A6A080ED2E80828BF85F0040580F08C80680904D303F0DC
:205D7000D3FE85F0100584E0002083E0868861B904F11600414A00904FF6FF710223012088
:205D900008F06EFA0146216221B304A800900027019702230293FF220392E28A30460DF1AA
:205DB0001203FDF767FF58B99DF813009DF81220216A12EB002204D04989304605F0A4FD88
:205DD000216AE28A08463B464FF6FF7108F0D0FA01462162A069002918BF85F001051AD13D
:205DF00068B143685BB1E0698088012100229847A069E7694368B88803210022984707F0EF
:205E10006BFB85F0010534E000200146FEF710FC18B185F00205012102E0022185F002052D
:205E3000207801F0C9FD24E002F040FF071C1ED038780126B03811D0401E02D01F3808D0BE
:205E500011E0387978B97888F9883A8905F05CFD0AE03846FEF70CFA064604E0397907F190
:205E70000800FAF791FC16B1384607F0EFF985F40045A8B207B0F0BDE40A00205CF1000091
:205E90002DE9FF47484C94F8E700002876D13D4801273D4D006884F8E770EE7C84F8E66082
:205EB0006B68C4F81031C0F3801084F8E800684607F0BAFF002604F10C0001966B468DF809
:205ED000006032490296324605F0ACFA304904F130006B46324605F0A5FA2E4904F1540011
:205EF0006B468146324605F09DFAA96838468847DFF8B08028482A7D08F104030078284DAD
:205F10001868C0F3815A22B1BAF1030F04D184F8E170BAF1030F17D0BAF1020F14D0BAF142
:205F3000010F0ED0022006F0A1FB1C480068016804208847012804D028683221B1FBF0F11A
:205F50000DE005F0D3FF12E0022006F08FFBBAF1030F0CBF4FF47A7142F210712868B1FB42
:205F7000F0F1484607F098FF484607F097FF40460068C00802D2304606F078FB00200090E0
:205F9000BDE8FF8714100940C0F300008BC200002D8400009D9F0000891F0020E0010010B3
:205FB000741F0020B03F0050900E00202DE9F84F5FEA00091C46924600917DD0081C7BD0EB
:205FD000BAF1000F78D0002C7BD0206A002873D03F4D616A281D006800296DD0A16A08F0D6
:205FF0007BF940B2002808BF6FF002055FD084F82C002078618800EB400009180C3188B2BB
:20601000216A88473149AB46086030B9DBF8040008F05EF94FF0FF3549E0884666886588EF
:206030002178D8F800008F192D183F1806EB41063618204605F01AFA2078C01C8010286022
:2060500020783F1DC01C8010386020780836C01C8010306022784946281D02F05FFC28463D
:206070003A463346014608F0F7F845B2227800983B1D194602F052FC22785046311D02F059
:206090004DFC21786288D8F8000001EB41015218002103F0FFFC616AD8F800008847DBF870
:2060B000040008F015F9E8B2992808BF002584F82C502846BDE8F88F1CB16FF0010084F844
:2060D0002C006FF00100BDE8F88FC046884F0020581400202DE9F0410746FF2F1ED107F0C7
:2060F0000FFE10F0070F16D0042005F0CBFF08B104200AE0012005F0C5FF08B1012004E045
:20611000022005F0BFFF20B10220BDE8F04105F0D5BF07F0EFF90020BDE8F08105F0CEFF71
:206130008046012FD8F80450334E04D0022F29D0042F3DD0EFE7022005F0A4FF80B1022093
:2061500005F0BCFF074601207C6805F09BFF28B1A0683118A86808F073F988B13846DBE787
:20617000042005F08FFF28B1042005F0A7FF0746012026E0012005F085FF08B94FF00008BA
:206190004046C9E7042005F07DFF28B1042005F095FF0746022014E0012005F073FF28B1DA
:2061B000012005F08BFF074602200AE00220E2E7012005F067FF88B1012005F07FFF074655
:2061D00004207C6805F05EFF0028C7D0A0683118A86808F035F90028C0D1D1E7022005F087
:2061F00051FF30B1022005F069FF074604207C68E8E70420BFE700BF589EFFFF2DE9F047F1
:20621000464E0546307CADF1500DA84209D13078012106F003F93078022106F0FFF807F0B9
:206230005BF96C0004EB85040E210FAA04F1200004F120075FFA80F9F8B207F0A3F80028C7
:2062500067D10FA8FF21062207F0DCF9002860D104A81C2207F056FE6846FF21102207F0A6
:2062700051FE0DF12C0A04F123001021C0B25246804607F087F890B929480778FF21102271
:20629000504607F0BFF950B93FB99DF842000FA900F0010008F054F801E00120B0740FA807
:2062B000FF210E2207F02EFE48460E210FAA00F075FC04AF06461C2104F121003A46C0B240
:2062D00000F06CFC1C2106433A4604F12200C0B200F064FC102106433A46404600F05EFCAD
:2062F000102106433A4604F12400C0B200F056FC2534042106433A46E0B200F04FFC70350E
:2063100010216A4640EA0604E8B200F047FC204300E0002014B0BDE8F087C046E40A002034
:206330005A4F00202DE9F04F0C4645498A7AADF12C0D84460592087B0990CD7800954A7A59
:20635000C88ACB89CE7A91F804A091F801800492B1F842E008900A7A888A03928D78079048
:20637000CA79488A0292CF6906908A79088A01924A79E146A9F54079B9F11D0F10D8DFE8A8
:2063900009F05B5553514F4D4B494643413F3C3A380F3432302D2B2522201E0F1B1A1918C2
:2063B000BCF1280F49DA274962461020FFF794FA1FE0099EB246D046CDF814801BE0089852
:2063D000079007980690DDF818E005E03431086820608888A08030E0704608E0B1F8400013
:2063F00007E0C88F03E0888F01E091F83A00034612E0208021E0059804900498039001E094
:206410002E31E4E7039802900298009006E0019A83310DE064310BE01846EAE7009D0BE092
:206430002831D4E7276008E0543100E044311022204602F073FA00E025700BB0BDE8F08FA4
:20645000D0050020F58401102DE9FC4705466E68D5F80880B76B002F18BF4FF0FF307BD1FC
:2064700031630024F477171C74631BD006F1400907F01CFD82466946484605F046FC002840
:206490001ED45046FAF7A4FD9DF80000316B0870306B736B7F1E00F10100306303F1010099
:2064B0007063E5D17078726B316B0128A1EB0201316303D1F36828469847726B14464AE0B9
:2064D000B7635046FAF784FD07F0F0FC244D0746287820B9022006F0C9F801202870384660
:2064F000FAF776FD1D49086840F400700860D8F80010886B40F4FA608863707808BB716876
:2065100006F1EC07384607F08CFAB8B1B4633846214607F086FA88B107F0C8FC07462878C9
:2065300018B1022005F02CFF2C703846FAF750FD1027716B306BF777401A3063706BBDE85F
:20655000FC8796F82D0030B1706B20B1B46306F19C0007F0CBFC2046BDE8FC8730100040EA
:20657000821F00202DE9FE4305F0E0FDDFF80C81814608F1020000880027011F8CB26FF08F
:206590000301401880B204285ADBFF254FF6FF7620466946042205F0F1FFBDF800309E4239
:2065B00037D0002B35D0D80BC2032FD19D422DD0381FDDB280B2042815DBB0F5805F12DA6C
:2065D00000F18852126801A90A60BDF804108D4207D0BDF80610401A001F80B20428ECDA7B
:2065F00001E0012300E00023BDF802001BBB211A001D8BB282B207F18851184605F0BEFF4C
:20661000BDF80200C119091D8FB214E0BDF8020011E0BDF8020003466FF30E0363B9011D29
:206630008C4208DA002006F065FF484606F046FF0020BDE8FE83241A241FA4B2042CA7DA89
:2066500005F0DAF83FB10C484FF088513A4607F099FB07F0B5F9484606F030FF4246507854
:2066700000281CBF0020011C03D1C7F58054391DA0B25180BDE8FE8304E0010000150020AD
:206690002DE9F8438146D9F808703868066CD9F8045046646A6CAB6CA86B16F4F06F0146F8
:2066B000A2EB03082ED1F00919D2700961D389B195F83C40641EA14298BF0C1C4846214686
:2066D00006F04FF9A86B001BA86352D105F19C0007F00CFC4846414606F0C4FB49E0002963
:2066F000F8D0484606F03DF995F82D10A86311B900283ED101E00020A86305F19C0007F09D
:20671000F5FB36E0F20A19D24FF00008444602E0A86B401EA86340B34846012106F021F99A
:206730003868446814F00F04C0F80480F0D0286B401E2863686B401E686316E03868446830
:206750000022202904F00F044260CCBF20270F1C4846394606F005F9C7F12007B845C8BFB4
:20677000B8464846414606F07DFBEC77484603F029FEB0090BD3A96A49B10F46484606F000
:2067900007F9A86218B94846391D04F0CDFCBDE8F8832DE9FE430E46814630887188814267
