:200000000040002029BA000001C9011001C9011001C9011001C9011001C9011001C901107B
:1C00200001C9011001C9011001C9011001C9011001C9011001C901103FC9011089
:20003C002DE9F04FD84C201D04F11401ADF14C0D0BF022F904F138050021284600F0D4FB57
:20005C00A561D24D41F28832012304F1740029460BF0E8FB64224FF4005304F19800294680
:20007C000BF0E0FB4FF0804000210AF00DFDC84F1F220623A0603946102005F059FC502080
:20009C00ADF8200001268DF83B600025ADF81E5031468DF83C500DF13B02ADF824504FF4E1
:2000BC004870ADF822004FF47A70ADF8260040F2053002F009FD40F2063002210DF11E02A5
:2000DC0002F002FD4FF442701B2104F1590202F0FBFC40F20730072104F1280202F0F4FC17
:2000FC004FF4447031460FAA02F0EEFC40F21130022108AA02F0E8FC40F2123002210DF12E
:20011C00220202F0E1FC40F21330022109AA02F0DBFC4FF4457002210DF1260202F0D4FCB9
:20013C0004F144002A461523CB490090102005F0FFFB394610200622A02305F0F9FB3946FD
:20015C0010200722A02305F0F3FB394610200822A02305F0EDFB394610200922A02305F079
:20017C00E7FB8DF83F50B1468DF83D900DF13D008DF83E90CA4E8DF840904FF48062009074
:20019C004B463146102005F0D3FB0DF13E0040F2024200904B463146102005F0C9FB0DF117
:2001BC003F0040F2034200904B463146102005F0BFFB10A840F2064200904B4631461020FC
:2001DC0005F0B6FBCC4910204FF0FF3205F0B0FBCA4910204FF0FF3205F0AAFBC84F102074
:2001FC001323C94AC74E00903946019605F0A0FBC648007880000EF0E8F8C54E0146B16000
:20021C0069B14FF6FF700CF027FACB49102006F11402009011230191394605F089FB03270E
:20023C008DF8419002208DF8437004238DF84200C2498DF844300DF12A0728460A6809796F
:20025C003A600DF141023971494607F0E5FB48460DF14202014607F0DFFB022049460DF100
:20027C00430207F0D9FB0320494611AA07F0D4FB042005210DF12A0207F0CEFB04F12400D2
:20029C007060CA4E71783078A1B904F1200131620CF09CFD06F154070095024606F14400C7
:2002BC00019006F11C030297C1490393B378102005F03EFBC84904F13002102005F038FB29
:2002DC0020790CF083FDC5490246102005F030FB20790CF07BFDC4490246102005F028FB9D
:2002FC00C249102005F024FBA0682946C5A30A460CF0E1FEDFF8F8B2A8464FE0C5490DF0E0
:20031C00B9FF50B9E18828460DF0B9FFC74F64214843B0FBF7F0206101E0C4F81080C44A00
:20033C004846022107F078FB20690090A06806214246C3A30CF0BFFE28460DF096FFB00BDC
:20035C002CD3C3480EF05BF8E178E068012921D16178012904D10DF0A6FF84F80180E068AA
:20037C00A1784FF0FF32B2FBF1F10DF097FF2178A0784018C0B21428A07018BF01280DD111
:20039C004842C0B2207009E008020020A1DF0000BD8401100DF08CFF84F801906069C14A67
:2003BC0041464FF0FF3300F023FA061CF6D0404606900DF13A0106AA07A80CF06BFA0028F7
:2003DC0040F0B580BDF81C1020794F46102940F0A9809DF83A10884240F0A480069D2988AA
:2003FC004FF6FF728A425DD02B78913B2DD01F3B40F098806978162910D02979A0687E29D3
:20041C0009D07F291BD12989C0A30091424605210CF051FE13E0297AC0A3F6E70CF0D6FC10
:20043C0003464846B84900906A88102005F080FA28B948460AF002F94746E56172E029797C
:20045C0005F1080000F0D8F96CE06B780E3B05D09B1E20D066E0C046ED960000A88842F298
:20047C00030181425ED1A9680D78002D5AD1491C0DF132000A68496802600DF1320541608C
:20049C002878A0490DF1320200F0FD002870102005F04EFA46E00820414604F081FC41E02C
:2004BC004D340000688840083CD3E569002D39D0607905F10803401C6071C84900936A8837
:2004DC002B79102005F034FA5FFA80FABAF1160F20D02079BAF1040F1CD0E5690CF076FC77
:2004FC0003464046884900906A88102005F020FA50460AF0A3F815E0BDD3000045D60000B4
:20051C0001CD000098FA0000B4090020694F0020580C002060790090A0680521424683A3E1
:20053C000CF0C9FD069810B10FB10DF011FFF00FC0F0C680BEE0C046A4FA000005FB00007A
:20055C00A069054600F05CF9854208BF474602D087680CF0B5F8381C00F0AC803888401ED3
:20057C0000F0A280401E65D0801E23D0001F40F09E80786805783DB1CDF800B0A0680421CF
:20059C0042466FA30CF097FD40F20E300AA905F0F5FEBDF828209049CDF800B01020434606
:2005BC0005F0C6F978680CF08BF880E0D005002047BC00007A68BD78A1681078002D2BD0E4
:2005DC00012D17D0022D0BD0032D2CD1002808BF5FA322D063A312E01DD8000051880110F9
:2005FC0008BB66A319E0C04631810110C5AB001040E20100002808BF64A30ED067A3009040
:20061C000BE0C046424C45205065726970686572616C00C00E02002065A3084642460221DD
:20063C000CF049FD7A681046BDE7C046A05A320018020020BB78A56863B19B1E22D036E0FF
:20065C004144432056616C75653A20256400C046A002002040460DF145010BF0B5F99DF8E6
:20067C004500162806D09DF84500102808BF84F8038005E05B4884F803900DF0C0FEA568CE
:20069C004FA305E002200DF145010BF09DF94FA39DF8450004214246009028460CF00BFDF5
:2006BC0005E0C046012000C0B87804F0D5F838460CF006F8A06900F0A7F800283FF440AF07
:2006DC007008FFF43CAE46480DF099FE02200DF146010BF079F928B9032049460DF14602DA
:2006FC0007F09AF904A80DF0BBFD404604A90BF0FDFA051C7FF402AE032049460AF0EEFCF4
:20071C00FEE7C04695B4001099B700104D54552053697A653A20256400C046C046432056C0
:20073C00696F6C617465643A202564005273702073656E642072657472793A20256400C0E0
:20075C0050617373636F64653A20256400C046C0426F6E64207361766520737563636573AA
:20077C007300C046426F6E642073617665206661696C65643A20256400C046C0426F6E64E1
:20079C00696E6720737563636573730050616972696E672073756363657373005061697277
:2007BC00696E67206661696C3A20256400C046C050616972696E6720737461727465640099
:2007DC004368617220313A20256400C04368617220333A20256400C015C90000DDFE00104E
:2007FC007C020020A0020020DFF800F0A1B60110DFF800F0F99B0110DFF800F089840110FD
:20081C00DFF800F019BD0110DFF800F04FBF01102DE9F84FDFF81885DFF8181588F80000D3
:20083C00002008600821DFF8100501700D2141804FF408718180DFF80405DFF804150160B1
:20085C008A7EDFF800050270FF2ACB7E437008BFFF2B0D7F85704E7FC6708F7F0771C97FBE
:20087C00417115D1FF2D08BFFF2E11D1FF2F08BFFF290DD1DFF8D0140A7802704A784270A4
:20089C008A788270CA78C2700A79027149794171DFF8B81402780A70FF2542784A70827841
:2008BC008A70C278CA7002790A714079DFF8A02448710021DFF89C04057045708570C570BF
:2008DC00057145711180DFF89004DFF89014466BDFF88C247078087031781170B078DFF898
:2008FC0084140870B1680879DFF87C14421E0A70F078DFF878140870F068DFF8741408608F
:20091C0008B90DF033F83069DFF86844206008B90DF02CF82068DFF8607401688847216860
:20093C0051F8042F38469047DFF85004DFF850143862DFF8500478627069086008B90DF0C6
:20095C0015F8B069DFF84014086008B90DF00EF8DFF838B4DFF838649BF804000DF052FBE7
:20097C00306008B900F045B99BF80500DFF824740DF048FB386008B9306837E19BF8060033
:20099C00DFF814440DF03EFB206020B930680DF041FB38682AE19BF80700DFF800940DF0FF
:2009BC0031FBC9F8000038B930680DF033FB38680DF030FB206819E1DFF8A4130A789BF88D
:2009DC000000DFF8DCA3921C504380B20DF01AFBCAF8080058B930680DF01CFB38680DF0FC
:2009FC0019FB20680DF016FBD9F80000FEE0DC480078002800F00281BBF80210DFF8A4B358
:200A1C00484380B20DF0FEFACBF8040078B930680DF000FB38680DF0FDFA20680DF0FAFA73
:200A3C00D9F800000DF0F6FADAF80800DEE0CC4800780DF0E7FADC49086080B930680DF07F
:200A5C00E9FA38680DF0E6FAD9F800000DF0E2FADAF808000DF0DEFADBF80400C6E0C0483C
:200A7C000078182148430DF0CDFAD04A1060B0B930680DF0CFFA38680DF0CCFA20680DF021
:200A9C00C9FAD9F800000DF0C5FADAF808000DF0C1FADBF804000DF0BDFAC348A5E0B04845
:200ABC00007840010DF0AEFAC1490860D8B930680DF0B0FA38680DF0ADFA20680DF0AAFA0D
:200ADC00D9F800000DF0A6FADAF808000DF0A2FADBF804000DF09EFAB34800680DF09AFAB9
:200AFC00B249086882E09E48007800010DF08AFAB0490860F0B930680DF08CFA38680DF06B
:200B1C0089FA20680DF086FAD9F800000DF082FADAF808000DF07EFADBF804000DF07AFA50
:200B3C00A14800680DF076FAA04908680DF072FA9F485AE08A48007800010DF063FA9E496C
:200B5C00086018BB30680DF065FA38680DF062FA20680DF05FFAD9F800000DF05BFADAF87E
:200B7C0008000DF057FADBF804000DF053FA8E4800680DF04FFA8D4908680DF04BFA8C4802
:200B9C0000680DF047FA8B4908682FE074480078302148430DF036FA884A106070BB3068FE
:200BBC000DF038FA38680DF035FA20680DF032FAD9F800000DF02EFADAF808000DF02AFA7C
:200BDC00DBF804000DF026FA774800680DF022FA764908680DF01EFA754800680DF01AFA4B
:200BFC00744908680DF016FA734800680DF012FA00200CF0BBFE4FF4804192E0316801206E
:200C1C0008713068057331684D73306885733168CD7330680574002031684D743268D07206
:200C3C00A0223168487103213068C280017207203168487200203268907228213068418239
:200C5C000121C176002031684877326882F85E00012031680877326882F85D003968087171
:200C7C003868057339684D73386885733968CD7338680574002039684D743A68D072396846
:200C9C0048713A6890724FF4207039680022C88008818A7401213A68D17421680D732268DA
:200CBC00557321688D732268D57321680D740021226855742368D972012122681171002152
:200CDC00236859712168C8800881002088722168887405202268D0743948016888472A498B
:200CFC000A6805461068804727490A6852F8043F0020984718481D4BC16818780A883149E1
:200D1C0002430A80284630490A6890470C212F4800F05EF80F4800F05FF800F061F84FF4A4
:200D3C00005198F80000BDE8F44F06F0D5BE00BF6E4F0020044F0020604E0020084F0020F1
:200D5C00B63F00502C4E0020E81200503C4E00200C4F0020344E00206CFB00006D4F002044
:200D7C007B4F00206B4F0020724F00206C4F0020F04E0020F44E00207C4B002021E000002F
:200D9C00F84E002031E00000FC4E002098140020104F0020144F0020184F00201C4F002076
:200DBC004C200020684E0020004F0020804E0020844E0020884E00208C4E0020904E002078
:200DDC00AC0F0020544F0020B00F0020F84D0020DFF800F0E5710110DFF800F01D6E011084
:200DFC00DFF800F04D7101102DE9F0411C4615468C4208BF854282BF00230022E5E0002C6A
:200E1C0008BF002D0AD100290EBF00286FF000006FF0000100F0E1F8BDE8F0815FF00008D4
:200E3C005FF0000E002C08BF8D429CBF2C1C0025070C47EA01470E0CB44208BFBD429EBFF0
:200E5C005FEA044444EA15445FEA0545070A47EA01670E0AB44208BFBD429EBF5FEA04247F
:200E7C0044EA15645FEA0525470847EAC1774E08B44208BFBD4200F29380870847EA8177B5
:200E9C008E08B44208BFBD427CD8C70847EA4177CE08B44208BFBD4266D8070947EA01774F
:200EBC000E09B44208BFBD4250D8470947EAC1674E09B44208BFBD423AD8870947EA8167A4
:200EDC008E09B44208BFBD4224D8C70947EA4167CE09B44208BFBD420DD8E60146EA5566B4
:200EFC00EF01B14208BFB84201D3C01BB14158EB08085EEB0E0EA60146EA95664FEA851732
:200F1C00B14208BFB84201D3C01BB14158EB08084EEB0E0E660146EAD5666F01B14208BFBC
:200F3C00B84201D3C01BB14158EB08084EEB0E0E260146EA15762F01B14208BFB84201D3B8
:200F5C00C01BB14158EB08085EEB0E0EE60046EA5576EF00B14208BFB84201D3C01BB141CB
:200F7C0058EB08084EEB0E0EA60046EA9576AF00B14208BFB84201D3C01BB14158EB080875
:200F9C004EEB0E0E660046EAD5766F00B14208BFB84201D3C01BB14158EB08085EEB0E0E83
:200FBC00A14208BFA84201D3401BA14158EB08085EEB0E0EA34208BFAA423EBF2D0A45EABD
:200FDC000465240A89D3734642461E4617460B46024631463846BDE8F081704740680021DC
:040FFC0001747047C5
:20100000B41200001810000015AB0110FDB301106DC00110FDAE011099B5011000000000F7
:08102000000000002D0000009B
:20102800B01200003C100000B1C00110A9BF011067C0011069B80110000000000000000035
:041048003000000074
:20104C00B012000060100000BDC00110CDB30110D9BD01106DB3011000000000000000005B
:04106C00310000004F
:2010700000000000A814002004000000000000000000000020000000E8C90110300000006E
:2010900028100000B01400200400000000000000000000000C000000D8CA01101800000049
:2010B0004C100000B814002004000000000000000000000024000000F0CA011018000000CD
:2010D00000000000C01400200400000000000000000000001000000018CA01102C000000D9
:2010F00000100000D0140020040000000000000000000000200000006CCA0110240000003D
:20111000FFFFFFFFD81400200400000000000000000000002800000090CA011024000000FC
:20113000FFFFFFFFE01400200400000000000000000000001400000008CB0110180000007B
:20115000FFFFFFFFE814002004000000000000000000000058000000B4C901103400000049
:20117000FFFFFFFFF01400200400000000000000000000001000000020CB01101800000017
:20119000FFFFFFFFF81400200400000000000000000000001C000000B4CA01102400000044
:2011B000FFFFFFFF001500200400000000000000000000003800000044CA0110280000006B
:2011D000FFFFFFFF081500200400000000000000000000005400000078C901103C000000E0
:0811F0000100000038FB0000C3
:0411F80001000000F2
:0411FC0000000E00E1
:0412000000000F00DB
:0412040032000000B4
:0412080001000000E1
:04120C006813002043
:0412100000020000D8
:0412140000000000D6
:0412180001C90110F7
:04121C0000000000CE
:0412200000000000CA
:0412240008000000BE
:0412280000002200A0
:04122C00C0110020CD
:0412300000000000BA
:0412340000000000B6
:0412380008000000AA
:04123C002813002053
:0412400000000000AA
:0412440000000000A6
:04124800080000009A
:04124C00000000009E
:04125000000000009A
:041254000000000096
:041258000000000092
:04125C00010000008D
:041260005812002000
:041264000600000080
:041268000100000081
:04126C002C11002021
:04127000000000007A
:041274000000000076
:041278000002000070
:04127C00000000006E
:02128000290043
:02128200010069
:02128400250043
:02128600300036
:02128800310033
:02128A002D0035
:02128C0001005F
:01128E00015E
:0812900003000000BCFA00009D
:0812980000000000000000004E
:0412A0000000010049
:0412A4000000030043
:0412A80013C401105A
:0412AC00B9DD0000A8
:0412B000B812000070
:0412B400B81200006C
:0412B8000000000032
:0412BC0058140020A2
:0412C0000DDF00003E
:0412C4002000000006
:0412C8001CFA00000C
:0412CC000CF800001A
:0412D00029C101101F
:0412D40037E10000FE
:0412D8003FE40000EF
:0412DC00A1C7011095
:0412E000A3C701108F
:0412E4000000000006
:0412E8005BF80000AF
:0412EC0088F6000080
:0412F000A0F6000064
:0412F40070F6000090
:0212F8000200F2
:0212FA000900E9
:0212FC000100EF
:0212FE000000EE
:0113000001EB
:04130400ADDE00005A
:0413080005C6000016
:04130C0095D4000074
:041310007DC8000094
:04131400E3C800002A
:04131800D1B8000048
:04131C0055A00000D8
:0413200029E10000BF
:04132400CDAC00004C
:0413280015C70110D4
:04132C0025C70110C0
:201330002DE9F04FD04C04F118012046ADF1440D09F0A8FFD54D00264FF6FF700123667033
:2013500032462082294604F1A4000AF071FA0223324604F1C80029460AF06AFA0423324630
:2013700004F1EC0029460AF063FA4FF0040A04F1440810224046314684F802A008F000FDE6
:2013900004F1540910224846314608F0F9FC04F11C073E6004F10A052E70E6712672072059
:2013B0006072CDF80080DFF81883022210200346414604F0C3FA102003224146CDF800908E
:2013D000034604F0BBFA1020524641460097134604F0B4FA4FF0080B4FF0030905F12A006D
:2013F0000C9005F179000D9005F11E000E9005F15A000F902435109517E06078A28FE18F26
:20141000B4F84050B4F8423006280ED1ADF81A20ADF81C10ADF81E50C048ADF820300CF099
:20143000F6FF012006A908F09DF9A069BA4A31464FF0FF33FFF7E2F9071CF6D002960DF104
:2014500022000DF12E0102AA0BF02AFA002840F0CB81BDF822102078102940F0C1819DF8FF
:201470002E10884240F0BC81029D29884FF6FF728A4200F0AA812B78A23B00F08D812E3B13
:2014900040F0AE81A978B046002900F04981891E00F01881491E012940F2E880891E00F0F1
:2014B000A880491E7BD0491E5CD0083900F06481891E40F0678194F83A30A888052BADF8DF
:2014D0000C0047D001208DF8160094480CF09FFF94F83A0001281ED004281CD003280DD0AA
:2014F00002280BD00298C188ADF80E100189ADF810104189ADF81210818927E0A08FE58F9D
:20151000ADF80E00B4F84030ADF81050B4F84210ADF812301AE0A08FE9888842D8BF081CE3
:20153000ADF80E002989E08F8842D8BF081CADF810006989B4F840008842D8BF081CADF885
:201550001200A989B4F84200884200DC0846ADF8140001E08DF81660AF49102003AA04F0F7
:20157000EDF90FE1AD480CF052FF6B78002B40F00981E88860822889A0826889E082674854
:201590000CF016FD002840F0FD80656A002D00F0F9802B68608AA18AE28A9847F2E0AA88FB
:2015B000B549102004F0CAF90C984146062208F0E7FB6682A682E682A879207357480CF042
:2015D00026FF96480CF023FF4FF001084FF6FF702379208253B9A879082812BF84F801A055
:2015F0000520607040460CF00BFDCBE084F80190C8E06B787BBB291D0C980A680260898814
:2016100081800623637068892082E8896082288AA082688AE082E878E07294F83A0001280E
:2016300018BF02280BD19A4910201F2204F086F94FF47A7180B2414338480AF0FBFE6889AE
:2016500000909249CDF804A0EA7810202D1D2B4604F074F999E06878312840F08A80E670B6
:2016700084F801A091E0C046D00500206B78002B7FD1A878E3896178032815D0E078257908
:2016900033B9012814BF2671E67008E011E00000054304D07F4819460AF0CCFE617807297D
:2016B000DED10620607070E0062907D0E578002D08BF84F8019068D00220F3E70720F1E78E
:2016D000FDD700006B78002B53D1EB78617893B902291DD007291BD0062902D12079012875
:2016F00016D1032914D06B480CF062FC80B901200CF086FC0CE00BF06FFB0246A0796249A1
:2017100000900D9843460190102004F017F968706D78002D2DD135E00700008098060020F4
:201730006B7833BB5C485749009002221020034604F004F959484A46524900901020034691
:2017500004F0FCF8ED1C0E9829680160A98801238180207863700BF03FFB024601230F9DE2
:201770006079494900901020019504F0E7F8C0B258B184F801B008E0AA8841491020052321
:2017900004F0DCF8B8F1010F2AD1256A45B32D6835B36078A84723E06879132820D1288931
:2017B000012808D1607B022805D11C480CF02FFE0BF0C0F814E036491020052204F0BEF888
:2017D00081B216480AF036FE0AE06888C00B07D3334852462B4900901346102004F0AEF881
:2017F000029808B10CF0BAFD2579E078790830D355EA00032DD0204600788DB9E179257AFD
:201810008DF82410109A8DF8255013680DF126052B609288AA8005E005160110BC060020F5
:201830008DF82490617A8DF82C10A17A8DF82D100BF0D2FA1149024609AB102004F07EF82F
:2018500038B1256A84F801B01DB12D680DB15846A847B80803D31349304607F083FFF80844
:20187000FFF4E3AD607B401E3FF4C7AD401E7FF4DCAD0BF05FF8D8E545B2000059440110E7
:20189000C1170110116C000009450110016E0000F58401107406002014060020240600205C
:2018B000EC0500200A0600202DE9FF47C34C0F460646F80B80F05881B80880F04981607AAB
:2018D000DFF804A3B90F80F0CB80E079390914D2B80BC0F06A8104F13C000CF084FD061C48
:2018F00008D0706830B17568F068B6F9241000222023A84727F4005757E1012800F0AB80ED
:20191000E06870300CF057FD68460AF08FFE20B1009904F198000CF08BFB00254FF0010864
:20193000E570A74884F805800CF00AFCA5492A4604F160000CF04BFD50460068006B804729
:201950006061A2782169A369012AA0EB010018444FEA1030A06105D163781BB9E169B0EB0F
:20197000C12F3AD9DFF8649284F80280A9F1150000686570000A30D340F60900A08494F8A1
:20199000310000F0F00040F0010084F8310094F8300000F0F00084F83000A5620CF011FDEF
:2019B0004B4603F6FF7211686FF0020C21F00201116004F12401C3F8FBCF854AC3F8EB1F7E
:2019D00011688908FCD3C3F8FBCFD3F8FF1F41F00201C3F8FF1F0CF0C9FF7E4A10687E49D8
:2019F00020F00200256140F400701060032341F8043C41F230038B604046086050238B60EF
:201A100008604FF4CA638B600860237841F80C0C15601BB9E06838300CF0E9FC02200AF0A9
:201A3000A3FE112006F01CF9307C10B90E2006F017F9207A18B1257205200AF095FE6749B4
:201A500065710878A57140B10D7004F1BC0004210CF0D5FC01E00020E07127F00807A4E0FD
:201A700020B104200AF080FE00206072B168088840F602084FF0000980450AD0B0F5C15F62
:201A900007D00A8B4FF61F60104040F43470088306E00A8A4FF61F60104040F43470088263
:201AB0002069F0B1DAF85400016804208847C0B1DAF800002569006B8047F168401B738AB6
:201AD000F060020BF26098188842F06002D240184008F06040F6C41181422CBFB0F5FA7FE2
:201AF000F16094F8310010F00F0F0CD1718C08F10700884207D1B56930466FF480714A46B6
:201B10004FF00073A847364904F160004A460CF05EFC607860B10220ADF8040001A80BF002
:201B300023FBBDF80C0084F801904011A4F860010120E07084F8049009F026FA7569494654
:201B500030464FF080630A46A84727F000572CE004F0DAFE04F144000CF045FC27F00207C2
:201B700008B147F0020720E00CF02BFC014604F140000CF038FC061C12D0356AA8080FD259
:201B900025EA0500306208460CF0F0FE706850B12A46F068B6F9241075680023A84702E002
:201BB00008460CF0E3FE27F4804727B104F1BC0039460CF024FC0090BDE8FF8748150020AC
:201BD000B1710000E1D300008C0100101500044010100440000004600C410440852000200B
:201BF000355100002DE9F04F09AFADF13C0D08900A92388809911E46ADF81800101C08BFB9
:201C1000002000F08481002700F101094FF0FF3A4FF0010BB8466CE1252940F06381107885
:201C3000521C0A922D2818BFADF8068005D15846551CADF8060010780A9530281CBF4246C1
:201C5000434605D10A9908785A465B46491C0A912A28CDF80080554616D1306804930A99C6
:201C7000CDF808A0C01C4B1C20F00300001D306050F8044C0A93002C0878009418D5ADF8DD
:201C900006B06442009413E044460AE0610001EBC4010918A1F130040A9908780094491CC8
:201CB0000A91302801DB3A28F0DBCDF808A004932E282BD10A9908782A2801F101010A91BE
:201CD00011D13068CDF80880C01C20F00300001D306050F8045C002D48BF454608782B4639
:201CF000491C0A9111E0454643460AE0690001EBC5010918A1F130050A9908782B46491CE9
:201D10000A91302801DB3A28F0DB02930AB1224604926C2804D04C2818BFADF8048005D1B7
:201D30000A990878ADF804B0491C0A910BA9CDF80C800FAB07916428059300F08B80692810
:201D500000F08880BDF818C0752872D078286ED06F286AD0702850D063283DD073281ED087
:201D700009980A990128A1F101010A9115D96B490C68B5F1FF3F03D0A84288BF6D1C00D858
:201D9000099D029508A80AA932466B46A0473F180A99039801F1010974E040462AE0306876
:201DB0000A99C01C20F00300001D306050F8040CBCF1000F01F10109014608B955A0014680
:201DD00007910CF057F80390B5F1FF3F5BD0A842C4BF281C039056E03068C01C20F003006D
:201DF000001D306010F8040C5D468DF82C000A990395584601F1010945E008203568049067
:201E1000E81C20F00300001D306050F8041C082210230FA808F068FA401E07904021017051
:201E30000A99079801F1010929E0082302E0102300E00A230A99306801F10109C01C20F0DB
:201E50000300001D306050F8041CAA42BCBF2A1C049210E00A99306801F10109C01C20F004
:201E70000300001D306050F8041CAA42BCBF2A1C04926FF009030FA808F036FA0790059D74
:201E9000281A0390009C241ABDF8065000945DB906E008A8202109AA0BF03DF9009C7F1CDC
:201EB000641E0094F5D503980546401E039075B9BDF80600E8B10098401E009019D408A8B6
:201ED000202109AA0BF027F900987F1CF4E70798411C0791017809AA08A80BF01CF90398BA
:201EF0007F1CE1E708A809AA0BF015F97F1C09F101094A460A9812F8011C401C00290A90EC
:201F10007FF48AAE089808B14146017038460FB0BDE8F08F286E756C6C2900C044FB000049
:201F3000BB482DE9F84F0025BA4CB849056094F8E200002800F06581012800F02F81B64E67
:201F500002283CD0032840F05C8151F8250CD4F8B8100029A0F5C060C4F8D400B8BF494285
:201F70000028B8BF4042814226DA4FF08057D7F8A4014568B4F8BC0030214FF47F4208234E
:201F900000903046A847D7F8A4014568B4F8C00004214FF4F802122300903046A847D7F854
:201FB000A401B4F8D070456820214FF440620A2330460097A847012584F8D8501CE151F874
:201FD000258C0CF0D5F82F4600B901273946934F38680028FCD0B146012609F10409D9F836
:201FF0002CA03E6009B10CF0C9F8CAF30720C4F8BC000CF0BDF8AA4600B9B2463B68002B74
:20201000FCD0D9F800B0BAF1000F3E6001D00CF0B5F8CBF38440C4F8C0000CF0A9F8AA4606
:2020300000B9B2463B68002BFCD0D9F81C90BAF1000F3E6001D00CF0A1F8C9F38120C4F8F1
:20205000D000B8F5C061C4F8B81000F09C8094F8D80068B9C4F8D410D4F8C000C4F8C8000D
:20207000D4F8BC70C4F8C470D4F8D030C4F8CC30D4F8D410D4F8BC30002954BF02206FF0BF
:20209000010004F1C802176801EB41014018411000EB917107EBA1001060D4F8C810C4F8CA
:2020B000C43000291CDD1E293CDDD4F8CC0030B93429B4BF15391E21C4F8C81025E02A29D0
:2020D000BABFD4F8C8000B381E20C4F8C800D4F8C4003F28B4BF401C3F20C4F8C4001FE03A
:2020F000D4F8CC00032812D011F10B0FC6BFD4F8C8000B30301CC4F8C800D4F8C400002833
:20211000C4BF401E051CC4F8C450032508E011F1150FC6BFD4F8C8001530301CC4F8C80079
:20213000C4F8CC504FF08057D7F8A401B4F8C43030214FF47F424568374800930823A8475F
:20215000D7F8A40104214FF400321123456832480096A847B4F8C860D7F8A40104214FF4D1
:20217000F802122345682C480096A847D7F8A40120214FF440620A23B4F8CC6045682648C0
:202190000096A84701E084F8D85040F2FF50404502D8801C40452FD2082030E051F8251C61
:2021B0001F4F4BF2F5204843060A3868C0F3814001280CD11B4800680068804709F0B8FFF0
:2021D0000BF0E2FF3111C010484306EBE03694F8E50030B91448006820F07F40801946089B
:2021F00001E084F8E5501148310C0660012741600F4D8760287808B90B2000E0052084F828
:20221000E40003F00BFABDE8F88FC0462D400C402C500C40900E002000A00C4000800C40A9
:20223000B43F0050EC010010102009403C600C40DDF900002DE9F04FB64D686885B0019029
:2022500020B905B0BDE8F04F0CF08CBB0178DFF8C882B24EDFF8C892DFF8C8A201291CBFA8
:202270000229042946F2A81741F64C5B05D0402918BF802900F09A8043E10BF0AFFF002864
:20229000FAD00198007803F057FF0090446814B900200BF071FB9AF80100002860D001F09E
:2022B00003FC0BF0BFFD02900168009801914F6808F0F4F8022827D000990A78012ADBD185
:2022D000994B19680A7A19F80230337018B90CF045FB5844A0602069C17E01F0EF01C17696
:2022F0002069C17E41F08001C1762069C17E01F0F00141F00201C1768C48B9684118206931
:20231000C16101210098A0E001980178802913D10822874832700178012903D09AF801000E
:20233000012803DD38690121C17213E0D8F828103A690878D0720DE07D49072030700A7832
:202350003869012A02D10123C37203E0D8F828104A78C2720298817901988AF80210CBE028
:202370000098002888D00199009A0078914205D101281CBF00200BF0FFFA15E0012840F07A
:20239000C080694801680A7A19F8020030700CF0E5FA3918A0680CF0DDFA18B90CF0DEFAF0
:2023B0005844A0600120A8700098A5E09AF8010000287DD001F078FB0BF034FD04462068B1
:2023D000029047689AF802000BF02CFD03900BF00BFF10F0070F3DD0A87803F0ADFE0190EA
:2023F000416801980091029908F058F8022831D001990A78012A2AD14B4B19680A7A19F8FE
:202410000230337028B90CF0A9FA83440098C0F808B000990869C17E01F0EF01C17600988F
:202430000069C17E41F08001C17600980069C17E01F0F00141F00201C176009AB9683B4830
:2024500041181069C16101210198A97054E000200BF092FA0398A04228D002980178802998
:2024700013D10822324832700178012903D09AF80100012803DD38690121C17213E0D8F857
:2024900028103A690878D0720DE02949072030700A783869012A02D10123C37203E0D8F83C
:2024B00028104A78C272A0798AF80200029823E00BF09AFE10F0070F29D0A87803F03CFEB5
:2024D00004462078D4F80480012820D116490A68107A19F8001031700CF040FA3918D8F82C
:2024F00008000CF037FA20B90CF038FA5844C8F808000120A870204605B0BDE8F04F05F0FF
:20251000C5BC05B0BDE8F04F00200BF035BA05B0BDE8F08F4C2000206CFB00006F4F0020DD
:20253000289A0110684E0020104F0020F0D8FFFF734F00202DE9F04F0C46E00789B00BD514
:202550000BF046FD28B100218160A448006800B1804784F001003EE1A00710D500200690B0
:202570000021049000230290009005910393019101223C200CF0EAF984F002002BE11D2571
:202590006007974E974F40F18A8000200790834695498878FF2804BF00200BF0EDF93868D5
:2025B00090F8A0000BF03EFC80463868C07A98F82691022818BF032808F5907A06D106F1C6
:2025D0000D000CF0BFF908B906F1070B514648460CF0B4F988B33868807A002818BF012895
:2025F00004D1314650460CF0A5F904E05246494630460CF09BF9FF2834D005FB00F906EB29
:20261000090506225146E81D0BF0F4FA16F8090040F00209E81D079006223868817E01F049
:20263000010188F8261105F1010A386800F1140108F590700BF0DEFA14E0514648460CF045
:2026500071F978B15246494630460CF06FF9FF2808D006F10D01454348190CF073F908B1C8
:2026700049F0020908F12C004B4601780691418909090591B8F82220079904920122C0883B
:20269000029140080390CDF804B0CDF800A0002098F806100CF05AF984F004009BE02006B0
:2026B00010D5002006900021049000230290009005910393019101223B200CF047F984F089
:2026D000800088E0E0043BD5F11D06F10D000CF025F938684179012923D1017A012918BFEE
:2026F00004291ED1C17A022918BF032919D1817E00F1140230460CF019F9FF2811D0454341
:20271000354405F10D000CF01DF950B9E91D05F10D000CF003F938680622E91D14300BF004
:2027300069FA324932484A6800784FF4805109F01DFA10B18E2007F0E9F984F480504AE029
:20275000A00505D50BF014FD2A4901200860FEE7610504D507F059F984F480603BE060049E
:2027700005D5812007F0D2F984F4804033E0A00430D5214D286810B100200BF0FDF84FF00A
:20279000FF3028600CF0C6F81C4D296851F8202F684690471A48016A426A2D68009101926F
:2027B0001849029100F128014A6809781368C06903938DF81010ADF812006B462E68124A8F
:2027D00012491348B0471349086003F07FF984F4005000E0002009B0BDE8F08F204F0020D9
:2027F000AC450020104F0020684E0020784E00206E4F0020FC002043044F0020F04E002070
:20281000F8110020D1DF00002C4D00206845002088490020EC4E00202DE9FE4F0F46994C81
:202830000168E16241688068E0609748A16080479648E16A0160A168DFF870B24160E168EE
:20285000DFF8648281609249002FA246C16063D03D68E8788DF8080028798DF8090002A819
:202870000CF054F8A86808B18A490160E86808B189490160894C2878207068786070A878F2
:20289000BE68A07031787368E170B26863602E69A2607968E6610868E06068692062A8696B
:2028B0006062287F84F828002A6AE262786886681EB900200BF060F800E066617868C0685C
:2028D00018B900200BF058F800E0A0617868406818B900200BF050F800E020612869E061DC
:2028F000F86881680E6806B96E4E6D494FF001094E60C66881F801902EB900200BF03CF873
:20291000F868454601E045462E6000685C46FE68A0617068E06106E000200BF02DF84FF0D3
:2029300001095C464546286861494668621C04F114035020B04710B1286880688047DAF8A5
:20295000080080475C4F0026834669467E7059483E700422206130460AF004F80098B0F5C2
:20297000801F0CD020B90AF055FB03F02DFE08E009F0B8F80BF088FA0420788001E00AF086
:2029900049FB4E4FB0462868C7F808808069A660804778604A48468080F8009014200BF05C
:2029B00037FBFF211422A0620BF037FDE01CFF2102220BF032FD14200BF02AFB414908609E
:2029D0000868142231460BF028FD3046FDF726FF484609F007FC3C480188FF2906D1022162
:2029F00001807822001D31460BF017FD03200BF089FF04200BF082FF05200BF07BFF062003
:202A10000BF074FF072008F0FDF8304E0820307006F124000BF066FF08F00EFB06F136072E
:202A300005200A213A460AF0E1FE38B14046C0F10901401C07F8011B0A28F8DB307810215E
:202A500005F050F82F68224909200DF10A0201AB7D68087010204146A847A06AE2690A27BF
:202A70000A309DF80A1000F8011BDAF80C107F1EF7D1921E5846E261884702F0B7F8BDE850
:202A9000FE8FC046A40F002041490010F844002084E9000049CF000075DB0000F8110020CC
:202AB0007014002007D3000030150020B812002029D40000D5DB00002415002040200020B3
:202AD000201500207C20002040100020E40A00208F2000202DE9FC41A0F201371446884643
:202AF000022F40F232819B4E9C493F1F0F2F04D9143F4CD0BF1E1CD011E0DFE817F0CF00A3
:202B1000C9000D01FA00C100B9002601AF00A700100010009D008F007F00740066002828E8
:202B300080F21381B8F1020F40F00F818849238807E1B8F1010F40F00881F078012800F0AE
:202B50000481324620781179107189B9002800F0FC805078012800F0B580042800F0B2808B
:202B7000062800F0AF80052800F0AC80BDE8FC812078002840F0E9805078032800F0AF8022
:202B9000072800F0AC80052840F0DF80A7E0B8F1010F40F0DA802078012840F0D68006F116
:202BB000EC000BF005FA002840F0CF803446002004F13A0106F0D6FD002840F0C68004F152
:202BD000C8000BF024FCBDE8FC81B8F1020F40F0BC8020880A28C0F2B880B0F5486F00F3A7
:202BF000B4808E1C17E0B8F1020F40F0AE802088B0F5FA7F80F2A9800E460CE0B8F1020F7D
:202C100040F0A38020880628C0F29F80B0F5486F00F39B803E363080BDE8FC81B8F1020F40
:202C300040F0938020880628C0F28F80B0F5486F00F38B803C36EEE7B8F1010F40F085801B
:202C50002078062880F28180454E0EE0B8F1010F7BD12078042878DA0A3606E0B8F1010FB0
:202C700073D12078082870DA09363070BDE8FC81B8F1010F69D12078042866DA0836F4E7DD
:202C9000B8F1010F61D1207804285EDCF61DECE7B8F1020F59D120880E36BCE7B8F1010F29
:202CB00053D13079012850D032462078D178D07069B9002849D05078012803D0042818BF2B
:202CD000052842D101200BF09BF9BDE8FC81207800283AD15078022818BF052835D1107883
:202CF0000AF07AF81C490246102002F027FEBDE8FC8106F1830500211F22284607F040F8C4
:202D100021464246284605F0FBFE44463078B4710AF062F8002311E006F1640500211F22D7
:202D3000284607F02DF821464246284605F0E8FE4446307874710AF04FF80123009409495F
:202D500001950246102002F0F9FDBDE8FC81C046BD840110D00500209945011010060020D9
:202D70000A060020094501102DE9F04F8246DAF800600C465FEA0208ADF11C0D14BF002105
:202D90004FF0FF3106F1480083460BF0AEF8002818BF0B2040F00D8100258848F460B8F131
:202DB000010F057007D06570022009F06BFE062009F068FE01E0012060702078012840F204
:202DD000AB80801E012868D9801E012833D9801E012800F2DF800BF0F4FA06904FF0805037
:202DF00000F5EE77D0F8DC01A378466A009321782846062908BF0120019001200290A068FC
:202E1000228AE1686368B047814606980BF0AEFDB9F1000F40F0C080B8F1000F02D00AF033
:202E3000B9FE02E0504609F07AFF002800F0A4803868806A2AE00BF0C4FA06904FF08050B3
:202E500000F5EE77D0F8DC01012306680093A168A27860682478AC46042C08BF9C46634643
:202E7000B047814606980BF081FDB9F1000F40F09380B8F1000F02D00AF08CFE02E05046EB
:202E900009F04DFF002877D03868406880474A49C1F8B0510D6081467EE00BF092FA069063
:202EB0004FF0805000F5EE76D0F8DC01E38A87690093E0680190208B0290A0780390207DA7
:202ED00004900121059122782846022A08BF081CE1786268A368B847814606980BF046FDA7
:202EF000B9F1000F58D1B8F1000F02D00AF052FE02E0504609F013FF00283DD03068006A52
:202F100080475FEA000947D13068C569A168E28A2369E078A847BEE70BF053FA06904FF0A0
:202F3000805000F5EE76D0F8DC01E38AC7680093E0680190208B0290A0780390207D2946B7
:202F5000049001200590257805B9014608466268A368E178B847814606980BF007FDB9F1EC
:202F7000000F19D1B8F1000F02D00AF013FE02E0504609F0D4FE08B914201AE03068406940
:202F900080475FEA000907D1306802692169E078904780E74FF0FF39B8F1010F05D00220E6
:202FB00009F0E2FB062009F0DFFB58460BF01FFA484607B0BDE8F08F504502408E20002072
:202FD0002DE9FE4F05467F48002400680094C0090ED37D48007858B97D497C4851F8112C44
:202FF000104040F0817041F8110C202008F09CFD012D40F0E280DFF80892D9F8DC00012822
:2030100040F0D8800220C9F8DC000AF0D3FA012008F08AFD5FEA000805D00120C9F8DC000E
:203030000AF0D8FACBE00BF0E6F9A34602906948694DC0F800B0A86A016801208847012851
:2030500004D1584607F060FA012000906348644FC0F800B0386811200BF0A2F800B10124E9
:2030700010200BF09DF808B144F002040F200BF097F808B144F004040B200BF091F820B15F
:203090002868584E016B308888470A200BF088F820B12868544E016B30888847534801269A
:2030B00006602868816944F020008847504806600BF070F800F001010191400814D2286A58
:2030D00081684C4888478246BAF1040FF7D0BAF1010F04D1286A4268464803219047464963
:2030F000086820F003000860584600F0E7FD2B683868986B8047019801280CD0BAF1010F0D
:2031100004D1286A42683B48314690473A49086840F00300086031480660286841692046B0
:2031300088470B200BF03CF820B128682D4BC16A188888470A200BF033F820B128682A4BBD
:20315000C16A18888847294806600322C9F8DC20274BC3F800B02868416B20468847012895
:20317000F9D13868042008F0DFFC0446194806603868144800688009FBD30098012802D17E
:20319000304607F0C1F90AF0F9FF082008F0CCFC07460298C9F8DC600BF0A0FB17480088BD
:2031B00006F0FAFF0AF016FA57EA040018BF4FF0FF3804E06FF0040801E06FF00108404656
:2031D000BDE8FE8F14100940780F0020FFFFFCFC150009400C400940B80100100002224380
:2031F0002C20094004F6000000F6000028200860800104430040034024220840D8F90000E0
:20321000900E002010B50B7884074CBF43F0020303F0FD0304064CBF43F0800303F07F0397
:2032300004074CBF43F0080303F0F70384064CBF43F0200303F0DF0310F0AA0F0B7004D075
:20325000107840F00C00107010BD18B9117801F0F301117010BD2DE9F8430D461646287820
:2032700002281F464FF0000862D1686801784078089C01EB002189B220001CBFB1F5285F20
:203290000B205AD14FF42850091A08D0491E1ED0491E2CD0491E22D0491E2ED048E0DDF89F
:2032B0002490E8680BF0BBF8214680B2421A4A45ACBF4C46041BA4B26018162804DA3C8006
:2032D0002246E86801440EE04FF00D0834E0E8680088022139803070000A70702CE006201B
:2032F00038800622E96830460AF084FC24E001203880E868017831701EE0E868B0B108217E
:203310003980018831700188090A71704188B1704188090AF170818831718188090A71716D
:20333000C188B171C088000AF07105E0398003E0A7F800804FF001084046BDE8F2832DE9C1
:20335000F0470F4682B039780024022970D1804678680A9E0178DFF8E0A09146427801EBC3
:20337000022189B24FF42850091A1D4606D0491E29D0491E4ED0491E39D059E0F8680BF0DF
:203390004EF880B2B04204D3A819162803DB0D244FE007244DE0FB682A46494698190AF03A
:2033B00029FCAD19F868ADB2C5F11602002140190BF033F8DAF8000000281CBF0268002A7C
:2033D00037D0002123E08EBB022DE0D199F8000099F80110FA6800EB01201080DAF8000086
:2033F00000281CBF0268002A23D001210FE0EEB9062DCCD1F868062249460AF0FBFBDAF8D2
:20341000000000281CBF0268002A12D00321404690470EE056B9012DB9D199F80000002834
:2034300013BF0128F9680870802402E00B2400E001242046BDE8F687742000207CB5894DAB
:20345000144602460026A2F58062182A1AD8DFE812F0FE00F800F100E900E200DC00D500BB
:20347000D0001900C500BE00B700AE00A3001900190080006F00680054004C004200390024
:203490002C002400282880F28580022940F0828021880BF01FFA0646E1E0012940F0DE8026
:2034B000002C00F0DB801135A6E0102940F0D680002C00F0D38028465030102221460AF00A
:2034D00099FBCCE0012940F0C980002C00F0C68029468D1D90E0262940F0C080002C00F033
:2034F000BD8005F160002622E8E7012940F0B680002C00F0B3806D1D7EE0602900D13CB9FC
:20351000012940F0AB80002C00F0A8800D3573E005F18600214660220AF06CFB012068737B
:203530009DE0012940F09A8020780BF0CFF996E0012940F093802078022800F38F800C3547
:2035500028702078022814BF301C01200BF0BAF985E0072940F08280611C684606220AF0FF
:2035700035FA20786946324604F0A6FF04460A2C10DA0BF0A3F938B9204602F071FE09F002
:203590007FFE07F059FD6AE02A46012002F12C05285564E0022662E001295FD1A87B217811
:2035B0000028A9735BD12078012858D1E9E7012954D12478072C51DB102C4FDC0B3537E0C9
:2035D00001294BD124780A2C48DA093530E0012944D12478022C41DA083529E000293DD1B2
:2035F0000BF06CF910B90AF0D4FBC8E701240F351EE0012932D10A35247819E001292DD18A
:203610002478022C2ADAED1D12E0102926D12B4603F1400051E7012920D12478022C1DDAE7
:203630002D1D05E0012919D12478042C16DCED1C2C7014E0012911D12478022C0EDAAD1C59
:20365000F6E702290AD120881435288007E0012904D12478022CD8BF6D1CE9DD1826304694
:203670007CBDC046E40A00202DE9F04F044678488E46016894461F46BEF1000FADF1440D65
:203690004AD0BCF1000F47D09EF8002001209040014241D0BCF80000B0F5C15F2FD1DCF8E5
:2036B0001400DCF818606B4BDCF81C50DFF8A8A10E904FF003080DF134090F961868109597
:2036D000C0F3036B59F8046FB6B10021331F05200A4653F8045FAA4506D0401E01F10401DE
:2036F00002F10102F5D107E0052A05DA705820F4702040EA0B407050B8F10108E2D1C4F847
:2037100004E0C4F808C00AF05CFE544D8346287820B158460BF02AF9002095E002F0E2FBE2
:203730004F49086840F0020008600AA80AF038FC4FF0050905F1BC000AAA4A49CDF830902C
:2037500008F032FD0AA80AF0F2FB00264FF0FF0A05F1600019210AAB8DF83060424ACDF880
:203770002CA008F089FC0AA80AF01AFC05F1F0000AAA3E49CDF8309008F016FD0AA80AF0D1
:20379000D6FB4FF00108CDF82CA005F17C001A210AAB374A8DF8308008F06EFC35493246FF
:2037B00005F19800134607F0B3FF33480AF0C8FC324A3346042105F14C0009F0E9FC4FF6B1
:2037D000FF70A5F86001AE702E716E71AE71EE712E726E722E61C5F81C902B7885F8018039
:2037F000581C287058460BF0C1F81FB903AF38460AF004FB386820607868E060387C84F8EA
:2038100011802074788A60821D4DA5616561F86800B1A061B86800B160613146782204F1AF
:20383000200006F0ADFA04F13800314609F058FB68460AF084FD1349029404F170003246D3
:203850006B4607F065FF204611B0BDE8F08FC046D4210840541300500200F844481500204C
:203870000020094065DC0000E1D30000798300008598000001E00000B171000059B50000B0
:20389000DFAD000097E30000F0B57348734A0078734C744B74490D2883B03CD8DFE800F00F
:2038B000DB07070707D3D358D39292B0B0B7146041F204456D494C88AC421FBF4E8BAE42E6
:2038D0004E8EAE4203D11D806948106072E0022C684D1C804FF4A05635D94FF48067E41B39
:2038F0001AD0241F012C1DD94FF47F77E41B1BD04FF44067E41B0FD0A41E012C0CD9241F66
:203910000AD0641E012C0DD940F2F937E41B012C19D9241F08D096E0022814BF1E80564DD9
:20393000156047E0554DFBE7554803681C7A012C05D141F20240488048834886F0E74E803B
:203950004E834E86ECE700200AF016F883207EE04C488178FF2952D0182041434A4814601D
:2039700040F204450068841C645A1C80641B012C464B70D94FF47F75641B0FD04FF4406557
:20399000641B032C84BF641F012C0BD9A41E012C61D940F2FD35641B06D103E0801C41F2FD
:2039B00001444452136005E0002009F0E5FF85200AF080FF03B0BDE8F0403548007801210A
:2039D00004F090B840F204424888188090421CBF41F2084290423ED041F60402904211D1C0
:2039F0002C4C2D4A25682D4800680023CDE9002355F8086F2A4B0222B0472A490880F7BD5F
:203A100048881880002009F0B7FF85201FE04888188002280DD940F20442801A1BD040F610
:203A3000FC72801A05D0083815D04FF47F72801AE8D1887B801CC0B2B528A8BF6620887317
:203A500000204880F7BD002009F096FF8420BDE8FE400AF02FBFF7BD6F4F0020204F00207C
:203A700091E30000504F0020CC4C0020204A002059550110615A0110B1540110755B0110BF
:203A9000104F0020684E0020804E0020313901106E4F0020F04E002002000080EC4E002041
:203AB000ADC70000424F00202DE9FE4FDFF8FC8198F8011011B9002009F05EFF0AF04EFFF2
:203AD0000546002405F6C4150027794EDFF8E4910EE038460AF0A6F9417939B1316882791C
:203AF0000A552946641C0AF0E1FEE4B27F1CFFB299F800008742ECDB98F80100844205D060
:203B1000002009F039FF82200AF0D4FE98F80100012840F0A980002701E07F1CFFB299F8DE
:203B30000000874280F29A8038460AF07BF9054668790028F1D03068A979027891421CBF3D
:203B5000002009F019FFA87986E0306810F809000AF068F900684268DAF8081090688142E2
:203B700004BF3D4609F1010900F08D808FE03068047801210FE0D8F80420435C02F5AD72B1
:203B900009FB03F509FB04FE555B32F80E20954238BF1C46491CFFB2B942ECDB4FF6FF704F
:203BB0000AF080FE834620460AF03CF940F6C41500684168CDF800A000204FEA5B076F432D
:203BD00082460291CDF804B016E020460AF02AF901680A78802A04BFDBF810305F610978DC
:203BF000402907D1344A8079136803EB401107F5A062CA610AF1010A0098824554DA3068EF
:203C100010F80A008442F5D0D8F8043009FB00F2991803F5AD73C9899A5A4B08934203D2F1
:203C3000009B891A8B42E5DA0AF0FCF80068D0F804B0029A0198DBF80810936800EBD07092
:203C50004010A1F6C41105FB00300AF083FE0028BBD0306810F80A00BDE8FE8F002009F045
:203C70008BFE82200AF026FE98F8011030680AF015FE306800780AF0D5F800250168D1F877
:203C900004A04FF001096F1CA145FFF65EAFEDB2002D1CBFF8B20028A2464FF4C0797FF464
:203CB00066AF3068047879E72046D5E7684E0020004F00207B4F0020844E00202DE9F84FCB
:203CD000DFF8F4B10746ABF13500DFF8E0910068800880F0D98071480068006880477A4926
:203CF0000831D1F8008000254FEA28725FEA985102F101020AD2C0F13E0110F10A0F4FEAF3
:203D1000E101D8BF08218A42B8BF0A1C644BD3F87C11C1F304611629A8BF20391B68C3F330
:203D30000443162BA8BF203B9A468918162905DA11F10A0FB8BF6FF0090100E01521594BD5
:203D5000594E01F01F0242F4F8521A80326812F0030F18BF0125D20828BF45F002050FB118
:203D700045F004054A4692F90730C31A052B04DA9379AB4208BF918866D0DFF834E10F2886
:203D9000A0F10F0C25DB0CEB0013A3F1F00C4FEA2C26072E88BF07263446062C88BF06247C
:203DB0005EF82470042303EB84037446E358DB1B03F0FF04EF0824BFC3F307273C44AF0897
:203DD00024BFC3F307473C446F0828BF04EB136401E0002426465EF826E0EF080EF0FF03E4
:203DF00024BFCEF307273B44AF0824BFCEF307473B446F0828BF03EB1E63A4B2ACEB062654
:203E1000AAEB01017443002904F1800403EB1423D8BF0121342408F0FF074C43A1B27943D0
:203E3000B1FBF3F14FF6FF738B4238BF191C802889B2918005DA10F1800FB8BF6FF07F007A
:203E500000E07F20D07195711A4800681F2910604FF0000008D340F2FF128A4206D24908B8
:203E7000401C8A42FBD301E01F219180134F0F39090940EAC10047EA0001CBF8FB1F00262E
:203E9000CBF8FF6FBDE8F88F0D490E4F4A4608200F60921D1070BDE8F88FC046EC0100107D
:203EB0003C1100506E620840242208406C2000209C130050082009403500094000E7A4800A
:203ED00030100940FDFDA400AC3F00502DE9FE4F0E468246307AC10693461C464FF00009FD
:203EF0000CD558460AF0D6FC030000F0EA800A223146504698475FEA00094DD13078DDF805
:203F100038800D9D0C9F02281AD170680178407801EB002189B24FF42052891A012910D9B3
:203F3000891E3AD0491E14D0FD397BD0491E00F08280491E6ED0491E74D0491E00F09780DD
:203F5000ADE0002D2AD1F068017839800278416889E0002D22D101203880F068017821702B
:203F700000217089401C80B20AF090FC398860B10278921C51183980418961704189090A6F
:203F9000A17002784168E01C6EE0091D398004220021601C0AF041FA95E0002D68D1F06889
:203FB0000588042139802570290A617028460DF102010AF06BFC5FEA000821D0D8F80C50AF
:203FD000BDF802204FF6FF766B4631460AF05AFC50B998F80030D8F804203C4802210AF06A
:203FF0004DFC08B9ADF80060287802280AD169680222201D09F0FEFD3888801C388001E0E2
:20401000ADF80050BDF80000A070BDF80000000AE07058E0002D2BD1F0680168504609F016
:204030007EFF02E025BBF0680088022139802070000A607047E0F0680AF0F1F980B2294607
:204050008842B8BF4FF007093DDB814208BF002206D008EB01028242B2BF4246451BAAB2B7
:204070003A80F0680144204609F0C4FD2BE015B14FF00B0927E0F06807213980017821704B
:20409000417861704188A1704188090AE17001792171C1886171C088000AA07113E0584664
:2040B0000AF0E8FB5FEA00090BD00F980290CDF8048000953B46224631465046C847814603
:2040D00001E04FF00E094846BDE8FE8F44F70000F8B57E4F04463868C16E0025002940F08D
:2040F000F180102009F094FF39680028C86600F0E7808E6E1022214609F07CFD396808780D
:20411000002840F08E80CA6ED6F8980012F80CCF00F001030CF0010C634518BF00234008BF
:2041300043EA4000C6F89800C0F34003D2F800C0CCF3400C634506BF430803F0010300234F
:2041500020F0020040EA4300C6F89800C0F38003D2F800C0CCF3800C634506BF830803F084
:204170000103002320F0040040EA8300C6F89800C0F3C003D2F800C0CCF3C00C634506BFF9
:20419000C30803F00103002320F0080040EAC300C6F89800C0F30023D2F800C0CCF3002C84
:2041B000634506BF030A03F00103002320F4807040EA0320C6F89800C0F34023D2F800C014
:2041D000CCF3402C634506BF430A03F00103002320F4007040EA4320C6F89800C0F3802313
:2041F000D2F800C0CCF3802C634506BF830A03F00103002320F4806040EA8320C6F898008F
:20421000C0F3C0231268C2F3C022934206BFC20A02F00102002220F4006040EAC220C6F82C
:2042300098008A6E92F89500030718D5C86E4368C3F3C00098B1C87840F00800C870D6F8AA
:20425000981023480140C6F898103868C06EC16821F48071C16049084900C16003E092F84E
:20427000330001282AD0607800281CBF7178002908D13968CA78130708D5002804BF707865
:20429000002803D03A68052111711CE06068C0F3800040B996F8950010F0040002D10120BE
:2042B000087110E00AD00878002819BF30782178317820780AF0DAFA054604E0182502E08D
:2042D000132500E011252846F2BD00BF304F0020FEFEFFFF2DE9F0410446764DA178A8698D
:2042F000ADF1180D891F00F0DE80C91E00F0C980491E5FD0491E48D0C91E3CD0481E40F037
:20431000D580287A697AB8B96878002831D0A0880AF0A8FA071C00F0C980A07A40080FD3D5
:20433000787968B1E168890A0AD2B91D01AA04F0C3F80A2804D10321A0880AF08FFAB5E010
:20435000287B022802D1A07A0009F4D3A088797904F1080201F02AFAA869002800F0A68046
:204370004368002B00F0A28000210A46A08898479CE00521E0E7002800F098804368002B5E
:2043900000F0948062780221F0E709F029FE002800F08C80A86950B1076847B1206900905F
:2043B0006189227B637BE01C3C46A0477EE060890121C2E767784FF00008002F52D1A1797F
:2043D00049084FD3EF69002F4CD101A841460E220AF023F8A0880AF045FA071C66D06069BE
:2043F00040B97879B91D06228DF80A0001A809F001FC19E06669307C062206F111018DF86D
:204410000A0001A809F0F6FB07F10C00B91D062209F0F0FBB81D062206F1110109F0EAFB25
:20443000307C40F002007871A1799DF81120C1F3800010438DF81100080905D39DF8110019
:2044500040F008008DF8110001A8214600F022F928B92878022103F045FB404627E0A869EE
:204470004FF0150810B3436803B3A088627801219847B8F1000F19D0A869436803214246A0
:2044900074E7E078211D002204F016F80A280DDA410001EB800004F10C0225300421C0B242
:2044B00002F0AEFB02E0A08806F0C4FE012006B0BDE8F081E40A00202DE9F04F6C4CE2683D
:2044D0000746880FADF1140DC0F0CF805068406808B18047E2685168664E886808B9CD68AD
:2044F00075B13568002DFCD00022326010B18047E0684168C86800B180475F4808F034FE4A
:204510004FF00008C6F800805C4846F81C0C5C4809F016FE40F60A09A4F82490A378A4F8FB
:204530002680BD6894F83000C34604F1240A00F0F00084F83000012BC4F828B094F83100AF
:20455000A5F8028000F0F00040F0010084F8310001D17B7CABB1B8680088A9F1080181423B
:2045700008D0B0F5C15F05D0298B4FF60F400840288304E0298A4FF60F400840288287F8E2
:2045900011804048016883680193C368406B00911022694620F0784040F0805003903A48E5
:2045B000029304F0ADFA494600E01D466B6813B118888142F9D1C5F804A0687B00F0F00001
:2045D000687304F1380009F00EFF80680088A9F10701814220D0491C81421DD03B8CEBB180
:2045F00097F82C0097F82D30C7F824B000F0F00087F82C0003F0F00040F0010087F82D0026
:2046100007F12002A2629AF80D00A7F8228000F0F0008AF80D0001E0C4F810803068002830
:20463000FCD0C6F80080B968237A0A8A4FF6FF301040088283B91548006801680120884766
:2046500001280FD0687B00F0F00040F0010068730F4809F075FD05E007F02EFC0028FBD0B8
:2046700009F0BFFEB86846F81C0C05B0BDE8F08F481500201C1004400100070601010E0406
:20469000B91800004C13005018000021E0010010E5A900002DE9F04F714CDFF8C0A1E5693A
:2046B00088468146ADF1140D002D4AD1B9F1000F00F09280B8F1000F00F08E8008F0C0FC29
:2046D00006460A2E23DAD8F814702674002F39D0700010216A4600EB86002330C0B209F0A3
:2046F00085F890B950460778FF211022684609F0CBF950B93FB999F80600494600F00100FA
:204710000AF0A8F801E00120A074E56919E004F1E60B0A2700265846FF21062209F0B4F9C9
:2047300068B97F1E0BF10E0B06F10106F3D1607C002804BF0A2020744ED094F83660267475
:2047500000E0267C0A2E47DA002D35D170000E214A4600EB86002030C0B202F051FA207C00
:2047700006F064FF6846FF21102209F056FE207C10216A467030C0B202F042FA217C0E22F9
:204790000801A0EB410000194946E63009F032FAD8F814206AB15046007840B9107C02F1AC
:2047B0001101002300F001000AF050F801E00120A074C4F81C804CE0AA68002A3ED12A6909
:2047D000002A2FD16A690ABBEA683AB9A07B08B108F0B8F908F0FBFF01203BE07000102176
:2047F00000EB86002430C0B202F00AFAE769217CFA68480000EB8100103225300421C0B24B
:2048100002F0FEF9E1690020C86022E07000102100EB86002330C0B202F0F2F9E1690020ED
:20483000486116E070001C2100EB86002230C0B202F0E6F9E169002008610AE070001C21AC
:2048500000EB86002130C0B202F0DAF9E16900208860002005B0BDE8F08FC0465A4F002035
:20487000E40A002070B56C4C0146A068491EADF1280D5FD0491E59D0891E44D0491E3DD0C6
:20489000491E04D0491E36D0491E32D02EE004F1740009F0BAFD6149102001F04FF8604915
:2048B000C5B201AB10206A1E01F048F848B90095A068022100223CA308F003FC0DF106001F
:2048D0000CE006AD40F21530294601F05DFDA0680221002238A308F0F4FB2846A46806F079
:2048F00049FD032103460022204659E00221002219E034A300E035A3002250E0142005F0EC
:20491000A3FE38A307E004F1740009F080FD142005F09AFE36A3A0680221002208F0D1FB9A
:20493000A0680321052209F005FC3BE0022134A30446D8E74FF4417008A901F025FD9DF8AF
:2049500021608DF8056000258DF808509DF822308DF807509DF824108DF806309DF82000DE
:204970008DF80A109DF825208DF804009DF823608DF80B2001AB2B498DF809601A680A6063
:2049900058684860A66808A806F0F4FC034601212A46304608F095FBA0681CA32A460221C8
:2049B00008F08FFB0AB070BD4E756D20436F6E6E733A20256400C046436F6E6E6563746515
:2049D0006400C0464572726F7200C046436F6E6E6563746564204164766572746973696E81
:2049F0006700C04654696D6564204F757400C046446973636F6E6E656374656400C046C050
:204A10004164766572746973696E6700496E697469616C697A65640008020020F17F0110E5
:204A3000097F01101F09002066480178002900D170472DE9F043491E032985B004D9891F17
:204A5000012940F2BC80B4E05F4CDFF880912168DFF87C8108685F4E00F10805062205F1F1
:204A7000080102A809F0C6F80622A91C684609F0C1F82878C1091D2700F00F02032AC0F3E0
:204A9000801537D16079C0F3800081421ED12169062202A808F0FEFD00280AD0694628463D
:204AB00009F04CFF002804D03146684609F042FFFF2879D04743D8F80000807AF51900284D
:204AD00018BF02280AD0012818BF03286CD1F25D691C484609F0B6FE102865D06B46EA1D4F
:204AF0002946484609F0AAFE06226946E81D09F081F859E000F00F00052860D16079C0F398
:204B10008000814250D12169062202A808F0C2FD002849D06946284609F010FF002843D06D
:204B30003146684609F006FFFF283DD04743D8F80000807AF519002818BF01280AD0022880
:204B500018BF032830D1F25D691C484609F07AFE102829D040F2024009F06CFE6B46EA1DAF
:204B70002946484609F06AFE06226946E81D09F041F8D8F80010F05D88760622D8F8000096
:204B9000691C143009F036F81348144A41F2044141804183418612480180124912480860A0
:204BB0000121107802F09EFF21680A680020107105E0002008F0E0FE862009F07BFE05B068
:204BD000BDE8F0836F4F0020F44B0020CC470020104F0020AC450020204A00206E4F002046
:204BF000504F0020204F0020595501102DE9FE4F674D664C674F2868626A066904F1200336
:204C100039460120B04710B1286880688047DFF89881DFF8849108F01FFB5FEA000B03D0D8
:204C300004F080F94FF0FF3B002637E00098216910F8062CA0F10C07032A02D171B388474E
:204C50002CE0A06A9DF805C00A213246401E10F8013F9C4506D0491E02F10102F7D14FF070
:204C7000FF0A01E05FFA82FA2868BAF1FF0F00F1080011D0387907F069FCB979012904D005
:204C9000022904BF0099887001E0009908700099504608F01FFD01E0006880472868C36984
:204CB0000DF105016A4601A898470028BED0D9F8000030F8167027B9761CF6B20A2EF8DB4E
:204CD00023E00A2E21DAD8F808008047D9F800107700002231F807A0CA53D8F80C108847CD
:204CF0002E4850F8262026705146304690470646FF202070D8F808008047D9F800107A5AD7
:204D100016437E52D8F80C10884708F0A5FA0746BB451AD007B9224FE069B84238BF071C43
:204D3000D8F80800804782462868016A206A8847626A286817491B4B521C6262C6683846A8
:204D5000B047D8F80C1050468847A7682968606914318FB9D9F800000A270026835B33B11B
:204D70000969606988472968D9F8000014317F1E06F10206F2D103E0096988472968143119
:204D900009684FF0FF30884745E7C046B81200203015002095C500007C200020BCF700000B
:204DB0008EC2F528D8120020A40F00207CB56D4D0446A8680E4628B94FF00040002105F08A
:204DD00069FEA86000213CA30A4608F07AF920463DA3801E08D0801E61D0401E4CD0401E36
:204DF00037D0401E22D00EE0A868012E05D000210A4608F066F937A357E000210A4608F008
:204E100060F939A351E0A86800210A4608F059F9A868022100223AA308F053F901208DF835
:204E300003009DF803000028FBD17CBDA86800210A4608F046F9A8680221002236A308F0BC
:204E500040F901208DF802009DF802000028FBD17CBDA86800210A4608F033F9A8680221C5
:204E7000002232A308F02DF901208DF801009DF801000028FBD17CBDA86800210A4608F02A
:204E900020F9A868022100222DA308F01AF901208DF800009DF800000028FBD17CBDA86841
:204EB00000210A4608F00DF929A3A8680221002208F007F97CBDC0463E3E3E535441434BEB
:204ED00020415353455254002A2A2A4552524F522A2A2A003E3E20494E5445524E414C2031
:204EF0004552524F522100C03E3E20494E5445524E414C204657204552524F522100C046B0
:204F10003E3E2044454641554C54205350494E4C4F434B2100C046C03E3E2057524F4E474D
:204F3000204150492043414C4C2100C03E3E204943414C4C2054494D454F55542100C046DB
:204F50003E3E204943414C4C2041424F525421003E3E204F5554204F46204D454D4F525945
:204F70002100C046080200202DE9F04FADF1240D079000F0B7FF6148007808F0CFF9604DE1
:204F90000024012808D90A380FD0801E04D0401E0ED0401E09D006E008F090FD022804BF75
:204FB00001210C1C06D0696805E005211F2401E0032107246960534A1068C0F381500128E7
:204FD00006D152F80C0C0127020E07FA02F0044308F0D6FF524AFF230818401E471C286022
:204FF0007F1E02F8013BFBD1079A1268002702F0FF03FE2B20D0DDF81CC096463B4601267E
:205010000EF0FF02FF2A10D0904205D3914203D806FA02F2144201D002206CE017430EF03F
:20503000FF02DFF8FCE00EF802305CF804EF5B1C0EF0FF02FE2AE5D1092002F083FF07989D
:205050000121A86005F1280007F04AFF05F19806A8464FF0010A4FF0040B0025A9460AFA86
:2050700005F0044216D1074204BF05F0FF0141F4C04104D02A480799405D51F82010224861
:2050900002F05EFAE8B24FF0FF3108F013FCC6F8009001E0C6F800B0D8F800006D1C361D5D
:2050B0008542DCD904A808F042FF184C184A2078102104AB059008F10C0006F0DDFF684627
:2050D00008F06EFFCDF80C906A4660681149029008F1640007F068F80F4951F80D0C20F414
:2050F000F85040F4005041F80D0C0C4FC1F8FFAF4846C7F800A009B0BDE8F08F8D20002029
:205110007C0D0020B43F0050007FC767D8FA0000E1D80000C9BD00000D30094008000940FE
:20513000C00D00202DE9F84F694CE76B08F0D2FC6A4D002F4ED081081BD207F110020CCAEE
:20515000002102400B4008BF002A43D03A693E6A10403043386207F1180696E80C002764BA
:20517000194307F11806104386E803004FF480412CE039693E6A07F1180341F00201084000
:205190003043386293E800030022002607F1180340EA080046EA090183E803003E69E26353
:2051B0002B46A3F1100000F108031968B14307F11006196096E8000301684B46994301601A
:2051D000394604F1440006F00FFB022104F1BC0009F015F9AB46002601254FF002094FF066
:2051F000110AA846F0B208F011FD071C30D0B87C01282DD1ABF11400797C0368113105FA1F
:2052100001F223EA02010160797C4268113105FA01F111434160787C08FA00F0C0B208F003
:20523000E3FBF868002107F0DFFE812808BF87F8129081280CD0787C94F862110AFA00F02E
:20525000084384F86201002104F1F00009F0D7F8761C032EC6D3204809F0C5F80746E06B34
:20527000002832D167B3684605F068FF30B1009820B1082004F042FDBDE8F88F082008F0DE
:20529000B3FB14493869A1F10802136807F110061843106096E80C0051F8102C181C1043CC
:2052B00041F8100C00250D60B86841F81C0C0F68002FFCD0084808F031FCE063BDE8F88F20
:2052D00004F1BC00494609F09AF8BDE8F88FC046481500201C100440801500201C100440AF
:2052F00060480178042900D870472DE9F84F891F2FD0491E012900F2AA805B4CA078FF282A
:2053100027D008F08FFD82460AF16C06706809F08DFA0746387903281BD1B868017811F0C6
:20533000030904D17068BDE8F24F09F07BBA457800F102080AF20F10B9F1030F00900DD094
:2053500045B1307830B900983D21417001210098017084E0454801780129FAD09AF8940060
:205370000AF59A7B58B32D1F4346EAB24946504609F054FA50B900993D20487001200099B0
:205390000870BDE8F24F3A4809F044BA39480168884700904FF4C0709AF806206168424364
:2053B0008818002180F83911DBF800109BF80600490805F0E5F9304900980A689047002040
:2053D000B9F1030FB8602ED02C4840690078810708D5C0074CBF03200020EDB2401918F8D4
:2053F000000000E0812030722549BBF83E000A78904211D3317A802918BF81290FBF7F21A0
:20541000204A1078091A49B200914B46A078EAB2414609F0FBF911E0A0784B46EAB2414665
:2054300009F0F0F90AE00F480178082903D04146504609F0E3F9404606F01EF9706809F066
:20545000F1F939465046BDE8F44F09F0D3B9002008F092FABDE8F24F862009F02BBABDE81D
:20547000F18F00BF6F4F0020684E0020794F0020AC450020AC0F0020B00F00206CFB00000F
:205490006B4F0020704F00202DE9F04F8346ADF1140D0393BBF1000F02920E9801910F9C9E
:2054B000049000F0AC80081C00F0A980101C00F0A680181C00F0A3800498002800F09F8093
:2054D000002C00F0A180206A002800F09880524D676A281D0068002F00F09180A16A09F074
:2054F00085F940B2002808BF6FF0020700F0838084F82C002078618800EB800009181431E8
:2055100088B2216A88474349086030B92846406809F068F94FF0FF376DE08A466288237883
:205530006088DAF8001026789F1800EB0109781800F1040806EB460002EB430786187F1817
:20555000C01876188018401800F11005204606F003F92078C01C8010C9F800002078C01C4E
:205570008010C8F8000020780837C01C8010386020780C36C01C801030602078C01C801016
:2055900028602278594609F1040003F0B9FA2278019908F1040003F0B3FA22780299381D3B
:2055B00003F0AEFA0095484641463A46334609F015F947B222780398331D194603F0A0FA2C
:2055D00022780498291D03F09BFA21786288DAF8000001EB81015218002104F0D1FB616ADE
:2055F000DAF8000088470C48406809F0FBF8F8B2992808BF002784F82C70384606E01CB170
:205610006FF0010084F82C006FF0010005B0BDE8F08FC046884F0020781400202DE9F8433F
:20563000614C5A4D5A4EDFF870815E4F94F8E4100846401E0B2864D8DFE800F07B2C4306A7
:205650002343062343067664042907D001220A2945F8212C14BF0220032004E0202045F82B
:20567000210C0120024684F8E200002045F8390C0827C5F8FF7FC5F8F37F45F8392CBDE8A4
:20569000F883052914BF09200620002784F8E400376075E094F8E170383D0120002FC5F85D
:2056B0001B0004BF0620002102D00021F160032084F8E400032045F8010C316030688008D0
:2056D0005ED294F8E4103348012703290ED00068456800216022052300914046A84794F8EB
:2056F000E400062814BF0A200720CFE700684568002160220523022000904046A847042083
:20571000C4E7FEE72548264F0026012506600E203D6002F0A5FA022007F026F884F8E45012
:2057300084F8E360BDE8F883002038600C25786024E04FF08059D9F8A001016820208847B3
:205750002C3D0F2045F8010C41F61D56C5F80360D9F8A401466800214FF4C0720723022582
:2057700040460095B047D9F8A401C66800214FF4C07207234046B0470120386084F8E450BD
:2057900004F1780008F015FEBDE8F88339400C4038600C40A401001000A00C402C500C404F
:2057B00004800C4034600C40900E00202DE9F04F88468246ADF1AC0D299209F053F85C4C82
:2057D000E67894F80BB0A57A94F80C90071C00F0AB8068460021A42208F01FFE2801279AFB
:2057F00055498DF8046005F0030300F4807605F00405ADF800A0B9F1020F01EA020143EA14
:2058100001024C4B8DF8A0B046EA020100F4C06603EA010246EA020045EA00054FF0000027
:20583000279508BF01208DF8370008F0D3FF412809DB207B00280CBF002008209DF89910CD
:2058500008438DF89900607B002804BF00208DF8380017D001208DF8380004F186012022A9
:205870000DF1390008F0C6F90DF1590004F1A601202208F0BFF90DF1790004F1C6012022D0
:2058900008F0B8F9A07940B18DF8260004F1500110220DF1270008F0ADF966793EB104F19C
:2058B0006000B91D0622054607F0F4FE68B92079002804BF00208DF8050015D08DF8050088
:2058D00004F140010DF106000BE08DF805600DF1060005F11601102208F08CF90DF11600D5
:2058F000A91D102208F086F9E07930B1B8F1000F03D0279941F002012791002100B10121C4
:20591000A7789DF89900002F41EA00018DF899100CBF002004209DF89910084329998DF8C2
:205930009900684608F052FF2BB0BDE8F08FC046E40A0020FBF9FFFFFCFEFFFF0FB42DE9F1
:20595000F04106AF8046ADF1280D08F07DFC3E1D26F00306361D30F0010001D108F0C1F9D5
:20597000CDF81A601420ADF816000025CDF80E50FF248DF818407B68CDF81E3008F022FF92
:20599000064608F061FC30F0010015D008F048F84D492A468446062031F80C7F4FB14B68BB
:2059B0001B689E4204D0401E02F10102F4D100E0D4B2604608F0A0F9404606F0A1FE014688
:2059D000FF2905D0204603220DF11A0304F00CFF08F0F8FE07F026F8A8460446CDF8008095
:2059F00008F032FC30F0010063D00098A04260D041F2883001A906F0E5FF009D002852D11C
:205A100008F0DCFE0199012746186068019B41464FF00052FAF7F2FE00282BD00DF12200E4
:205A30000DF1230102AA05F005F8B0B99DF8220003A906F0DFFF38B9029A08F0E7FB002867
:205A50001CBF029D474615D10299684607F0DAF960684FF0005108F0ADFE0198B0F1FF3FC3
:205A7000D3D00028D1D008F0A9FE301A02D00199814216D207F0E6FE009E07F0D1FF08342E
:205A900001463EB1324652F80C0C40B9206842F80C0C2660084608F02FF9384603E0024676
:205AB000F1E70190B1E720B92DB1284608F056FC01E008F016F9DDF81A0000680AB0BDE8C8
:205AD000F04104B07047C046EC0F002070B5414C414B2568186855F8183F00224FF0FF3179
:205AF00098473E483E4A416B3E4C88683E4D41791170002608F05AFE3C4808F053FE08F082
:205B10004DFE3B48026800215171A02301680722CB804A7203210268117200210368597791
:205B30000268D176036883F85C10012102681177036883F85D100021006880F85E100EE08E
:205B50006068F6B24FF4C071714308444279012A04D1304608F066F908F01CFE761C297884
:205B7000F0B28842ECD308F011FE2248224A0178117006F055FB08F005FE2049204A0020DF
:205B900008700021117001201E4A10701E4A11701E4A10701B201E4A11701E4A11701E4A8C
:205BB00011804FF4A4711D4A1080FB201C4A11801C4A1D49108040F648000880FB211B4A00
:205BD00011801B4A108008F0D9FD1A490020087070BD00BFF04E0020EC4E00206CFB00005B
:205BF000714F0020684E00207B4F0020CC470020104F00206D4F00207A4F0020734F00209C
:205C1000744F0020754F0020764F0020774F0020784F0020794F0020524F0020444F00209F
:205C3000464F0020484F00204A4F00204C4F00204E4F00206F4F00202DE9FF41044666686B
:205C5000A7680D4608F0BDFB3178012903D108F08DFE00208FE00121317008F087FE287889
:205C700070706878B07068687060A868B060E868F06028693061287D3075687D7075A87D79
:205C9000B075A869B061287F3077687F7077A87FB0774FF00008C6F82080C6F830804546A5
:205CB00075627563B562B56386F82C50102386F83C3086F82D5086F83D50786802F042F9CC
:205CD000204602F04BFA204602F0B4FF60B9386807F050FC786801F0C3FF08F072FB357073
:205CF00008F044FE2C4645E0684608F020F90094387B224A0190B9686B4606F1800006F081
:205D1000BBF9684608F04CF900941D4938696A46029006F19C0006F047FAB07830B906F125
:205D3000D000294607F0DCF816483061707830B906F1EC00294607F0D3F81348F06068461C
:205D500008F0FDFA01958DF800501049029406F584700A226B4605F0DBFCB969FA6906F1D6
:205D7000400008F0B9F80A4A06F16C000421234607F00EFA20460090BDE8FF81F566000070
:205D90000DC4000039E3000031E30000C9940000B1E00000F0B5514C20780D46E90BADF145
:205DB0001C0DC90372D1A80860D2E069216A6A080ED2E80828BF85F0040580F08C80680951
:205DD00004D304F017F885F0100584E0002083E0868861B904F11600414A00904FF6FF7165
:205DF0000223012008F0C6FC0146216221B304A800900027019702230293FF220392E28A1E
:205E100030460DF11203FEF761F858B99DF813009DF81220216A12EB002204D04989304655
:205E300005F0E8FE216AE28A08463B464FF6FF7108F028FD01462162A069002918BF85F097
:205E500001051AD168B143685BB1E0698088012100229847A069E7694368B8880321002273
:205E7000984707F07BFD85F0010534E000200146FEF710FC18B185F00205012102E0022161
:205E900085F00205207801F02DFE24E003F000F8071C1ED038780126B03811D0401E02D0F2
:205EB0001F3808D011E0387978B97888F9883A8905F0A0FE0AE03846FEF70CFA064604E066
:205ED000397907F10800FAF79DFC16B1384607F0F1FB85F40045A8B207B0F0BDE40A0020C4
:205EF0004CF700002DE9FF47484C94F8E700002876D13D4801273D4D006884F8E770EE7CA1
:205F100084F8E6606B68C4F81031C0F3801084F8E800684608F013FA002604F10C000196C7
:205F30006B468DF8006032490296324605F0F0FB304904F130006B46324605F0E9FB2E4939
:205F500004F154006B468146324605F0E1FBA96838468847DFF8B08028482A7D08F10403AB
:205F70000078284D1868C0F3815A22B1BAF1030F04D184F8E170BAF1030F17D0BAF1020F84
:205F900014D0BAF1010F0ED0022006F07BFD1C480068016804208847012804D028683221DC
:205FB000B1FBF0F10DE006F095F912E0022006F069FDBAF1030F0CBF4FF47A7142F21071F8
:205FD0002868B1FBF0F1484608F0F1F9484608F0F0F940460068C00802D2304606F052FD70
:205FF00000200090BDE8FF8714100940C8F9000073C600001186000089A200008D200020C0
:20601000E001001078200020B03F0050900E00202DE9F84F5FEA00091C46924600917DD003
:20603000081C7BD0BAF1000F78D0002C7BD0206A002873D03F4D616A281D006800296DD009
:20605000A16A08F0D3FB40B2002808BF6FF002055FD084F82C002078618800EB4000091874
:206070000C3188B2216A88473149AB46086030B9DBF8040008F0B6FB4FF0FF3549E0884699
:20609000668865882178D8F800008F192D183F1806EB41063618204605F05EFB2078C01CBA
:2060B0008010286020783F1DC01C8010386020780836C01C8010306022784946281D02F08E
:2060D0001FFD28463A463346014608F04FFB45B2227800983B1D194602F012FD2278504693
:2060F000311D02F00DFD21786288D8F8000001EB41015218002103F043FE616AD8F800006B
:206110008847DBF8040008F06DFBE8B2992808BF002584F82C502846BDE8F88F1CB16FF064
:20613000010084F82C006FF00100BDE8F88FC046884F0020781400202DE9F0410746FF2FAF
:206150001ED108F051F810F0070F16D0042006F08DF908B104200AE0012006F087F908B14C
:20617000012004E0022006F081F920B10220BDE8F04106F097B907F0FFFB0020BDE8F08142
:2061900006F090F98046012FD8F80450334E04D0022F29D0042F3DD0EFE7022006F066F94A
:2061B00080B1022006F07EF9074601207C6806F05DF928B1A0683118A86808F0CBFB88B140
:2061D0003846DBE7042006F051F928B1042006F069F90746012026E0012006F047F908B92A
:2061F0004FF000084046C9E7042006F03FF928B1042006F057F90746022014E0012006F003
:2062100035F928B1012006F04DF9074602200AE00220E2E7012006F029F988B1012006F03D
:2062300041F9074604207C6806F020F90028C7D0A0683118A86808F08DFB0028C0D1D1E79F
:20625000022006F013F930B1022006F02BF9074604207C68E8E70420BFE700BF589EFFFF4C
:206270002DE9F047464E0546307CADF1500DA84209D13078012106F0C5FA3078022106F037
:20629000C1FA07F06BFB6C0004EB85040E210FAA04F1200004F120075FFA80F9F8B207F066
:2062B000A5FA002867D10FA8FF21062207F0ECFB002860D104A81C2208F0AFF86846FF2142
:2062D000102208F0AAF80DF12C0A04F123001021C0B25246804607F089FA90B929480778E2
:2062F000FF211022504607F0CFFB50B93FB99DF842000FA900F0010008F0ACFA01E00120C4
:20631000B0740FA8FF210E2208F087F848460E210FAA00F075FC04AF06461C2104F12100A2
:206330003A46C0B200F06CFC1C2106433A4604F12200C0B200F064FC102106433A464046A4
:2063500000F05EFC102106433A4604F12400C0B200F056FC2534042106433A46E0B200F053
:206370004FFC703510216A4640EA0604E8B200F047FC204300E0002014B0BDE8F087C046F2
:20639000E40A00205A4F00202DE9F04F0C4645498A7AADF12C0D84460592087B0990CD7844
:2063B00000954A7AC88ACB89CE7A91F804A091F801800492B1F842E008900A7A888A03922B
:2063D0008D780790CA79488A0292CF6906908A79088A01924A79E146A9F54079B9F11D0F5B
:2063F00010D8DFE809F05B5553514F4D4B494643413F3C3A380F3432302D2B2522201E0F19
:206410001B1A1918BCF1280F49DA274962461020FFF794FA1FE0099EB246D046CDF8148026
:206430001BE00898079007980690DDF818E005E03431086820608888A08030E0704608E000
:20645000B1F8400007E0C88F03E0888F01E091F83A00034612E0208021E0059804900498BE
:20647000039001E02E31E4E7039802900298009006E0019A83310DE064310BE01846EAE746
:20649000009D0BE02831D4E7276008E0543100E044311022204602F033FB00E025700BB01F
:2064B000BDE8F08FD0050020F58401102DE9FC4705466E68D5F80880B76B002F18BF4FF0F3
:2064D000FF307BD131630024F477171C74631BD006F1400907F075FF82466946484605F074
:2064F000EAFD00281ED4504608F040FA9DF80000316B0870306B736B7F1E00F1010030637F
:2065100003F101007063E5D17078726B316B0128A1EB0201316303D1F36828469847726BE7
:2065300014464AE0B763504608F020FA07F049FF244D0746287820B9022006F0A3FA0120B9
:206550002870384608F012FA1D49086840F400700860D8F80010886B40F4FA6088637078FB
:2065700008BB716806F1EC07384607F0BEFCB8B1B4633846214607F0B8FC88B107F021FFF6
:206590000746287818B1022006F0EEF82C70384608F0ECF91027716B306BF777401A306337
:2065B000706BBDE8FC8796F82D0030B1706B20B1B46306F19C0007F024FF2046BDE8FC872E
:2065D00030100040862000202DE9FE4305F0A2FFDFF80C81814608F1020000880027011F83
:2065F0008CB26FF00301401880B204285ADBFF254FF6FF7620466946042206F0B3F9BDF88F
:2066100000309E4237D0002B35D0D80BC2032FD19D422DD0381FDDB280B2042815DBB0F5C6
:20663000805F12DA00F18852126801A90A60BDF804108D4207D0BDF80610401A001F80B241
:206650000428ECDA01E0012300E00023BDF802001BBB211A001D8BB282B207F188511846AB
:2066700006F080F9BDF80200C119091D8FB214E0BDF8020011E0BDF8020003466FF30E0394
:2066900063B9011D8C4208DA002007F075F9484607F056F90020BDE8FE83241A241FA4B28A
:2066B000042CA7DA05F01EFA3FB10C484FF088513A4607F0EFFD07F0E7FB484607F040F9B6
:2066D0004246507800281CBF0020011C03D1C7F58054391DA0B25180BDE8FE8304E0010032
:2066F000241500202DE9F8438146D9F808703868066CD9F8045046646A6CAB6CA86B16F4E5
:20671000F06F0146A2EB03082ED1F00919D2700961D389B195F83C40641EA14298BF0C1C74
:206730004846214606F029FBA86B001BA86352D105F19C0007F065FE4846414606F0B4FD36
:2067500049E00029F8D0484606F017FB95F82D10A86311B900283ED101E00020A86305F1A1
:206770009C0007F04EFE36E0F20A19D24FF00008444602E0A86B401EA86340B3484601215B
:2067900006F0FBFA3868446814F00F04C0F80480F0D0286B401E2863686B401E686316E031
