:2000000000400020E1B6000001C9011001C9011001C9011001C9011001C9011001C90110C7
:1C00200001C9011001C9011001C9011001C9011001C9011001C901103FC9011089
:20003C002DE9F04FD94C04F10C012046ADF1440D0AF0A4FF04F130050021284600F054FB3E
:20005C00D94941F28832012304F16C0025610BF045FA4FF0804000210AF06EFBD34E1F224B
:20007C00062360603146102005F0FEFB01250020ADF8160082468DF8335029468DF834A04D
:20009C000DF13302ADF81CA05020ADF818004FF44870ADF81A004FF47A70ADF81E0040F2A7
:2000BC00053002F0B3FB40F2063002210DF1160202F0ACFB4FF442701B2104F1510202F0AA
:2000DC00A5FB40F20730072104F1200202F09EFB4FF4447029460DAA02F098FB40F211301C
:2000FC00022106AA02F092FB40F2123002210DF11A0202F08BFB40F21330022107AA02F02E
:20011C0085FB4FF4457002210DF11E0202F07EFB04F13C0052461523CB490090102005F0D5
:20013C00A3FB314610200622A02305F09DFB314610200722A02305F097FB314610200822FB
:20015C00A02305F091FB314610200922A02305F08BFB8DF837A0AB468DF835B00DF1350045
:20017C008DF836B0C24D8DF838B04FF4806200905B462946102005F077FB0DF1360040F2BA
:20019C00024200905B462946102005F06DFB0DF1370040F2034200905B462946102005F061
:2001BC0063FB0EA840F2064200905B462946102005F05AFBCA4910204FF0FF3205F054FB84
:2001DC00C84910204FF0FF3205F04EFBC64EC74F10201323C64A00903146019705F044FBA1
:2001FC00C448007880000DF037FEC34D0146A96069B14FF6FF700CF00DF8CA49102005F145
:20021C001402009011230191314605F02DFB02208DF839B003278DF83A0004268DF83B70EF
:20023C00C5498DF83C600DF1220350460A6809791A600DF139021971594607F025FB584635
:20025C000DF13A02014607F01FFB022059460DF13B0207F019FB59460FAA384607F014FB0D
:20027C0005210DF12202304607F00EFB04F11C006860C14D69782878A9B904F11801296241
:20029C000CF06AFB05F15407CDF800A0024605F14400019005F11C060297C1490396AB78A1
:2002BC00102005F0E1FABF4904F12802102005F0DBFA20780CF050FBBB490246102005F0B1
:2002DC00D3FA20780CF048FBB8490246102005F0CBFAC749102005F0C7FA60685146C8A36B
:2002FC000A460CF098FCDFF81483E068C24A51464FF0FF3300F0FCF9061CF6D0CDF810A0F6
:20031C0005A80DF1320104AA0CF0A2F8002840F0AA80BDF8141020785F46102940F09E8080
:20033C009DF83210884240F09980049D29884FF6FF728A425ED02B78913B2FD01F3B40F0BD
:20035C008D806978162910D0297960687E2909D07F291DD12989AEA30091524605210CF0A6
:20037C005AFC15E0297AAEA3F6E70CF0F5FACDF800B0A0496A880346102005F075FA38B93C
:20039C00384609F0B3FF5746656167E008020020297905F1080000F0AFF95FE06B780E3BA1
:2003BC0006D09B1E21D059E065DA0000BD840110A88842F20301814250D1A9680D78002DC8
:2003DC004CD1491C0DF12A000A68496802600DF12A0541602878C3490DF12A0200F0FD0041
:2003FC002870102005F040FA38E00820514604F073FC33E06888400830D3656975B3607894
:20041C0005F10803401C6070B54900936A882B79102005F029FA5FFA80F9B9F1160F15D09E
:20043C002078B9F1040F11D065690CF095FACDF800A070496A880346102005F015FA4846F6
:20045C0009F054FF0AE0C0461D9400006078009060680521524676A30CF0DDFB049810B15B
:20047C000FB10DF0BCFCF00FC0F0AE80A6E0C046913100002069054600F042F9854208BF33
:20049C00574602D087680BF0F9FE381C00F096803888401E00F08C80401E58D0801E2DD05B
:2004BC00001F40F08880786805783DB1CDF8008060680421524663A30CF0ADFB40F20E309A
:2004DC0008A905F0F7FEBDF820208449CDF800801020534605F0C8F978680BF0CFFE6AE0ED
:2004FC001DCF000081D100008DC8000008F4000054090020694F0020F80B00207A68BD78C2
:20051C0061681078D5B1012D0ED0022D07D0032D1BD1002808BF4FA311D053A309E0A0B9C0
:20053C0057A30CE014F40000002808BF58A306D05BA3009003E0C0466DF400005DA30846CB
:20055C00524602210CF067FB7A681046C5E7BB7865689BB19B1E2ED102200DF13D010BF025
:20057C008FF89DF83D000421524656A3009028460CF051FB1FE0C0467005002050460DF1DC
:20059C003D010BF07DF89DF83D000421524650A3009028460CF03FFBA0680DF0D3FB0AE01E
:2005BC00FFB8000059D300005188011031810110B87804F0EDF838460BF060FE206900F036
:2005DC00A3F800283FF456AF7008FFF48EAE0DF04FFB02200DF13E010BF052F800287FF4D7
:2005FC0084AE032059460DF13E0207F04DF97CE6C5AB001099B70010010000C040E201004A
:20061C00424C45205065726970686572616C00C04D54552053697A653A20256400C046C0A5
:20063C0046432056696F6C617465643A202564005273702073656E642072657472793A202B
:20065C00256400C050617373636F64653A20256400C046C0426F6E64207361766520737500
:20067C00636365737300C046426F6E642073617665206661696C65643A20256400C046C0C7
:20069C00426F6E64696E6720737563636573730050616972696E6720737563636573730081
:2006BC0050616972696E67206661696C3A20256400C046C050616972696E6720737461724B
:2006DC00746564004368617220333A20256400C04368617220313A20256400C0D1C4000046
:2006FC00DDFE001095B40010DFF800F0A1B60110DFF800F0F99B0110DFF800F0898401101A
:20071C00DFF800F019BD0110DFF800F04FBF01102DE9F84FDFF81885DFF8181588F80000D4
:20073C00002008600821DFF8100501700D2141804FF408718180DFF80405DFF804150160B2
:20075C008A7EDFF800050270FF2ACB7E437008BFFF2B0D7F85704E7FC6708F7F0771C97FBF
:20077C00417115D1FF2D08BFFF2E11D1FF2F08BFFF290DD1DFF8D0140A7802704A784270A5
:20079C008A788270CA78C2700A79027149794171DFF8B81402780A70FF2542784A70827842
:2007BC008A70C278CA7002790A714079DFF8A02448710021DFF89C04057045708570C570C0
:2007DC00057145711180DFF89004DFF89014466BDFF88C247078087031781170B078DFF899
:2007FC0084140870B1680879DFF87C14421E0A70F078DFF878140870F068DFF87414086090
:20081C0008B90CF043FE3069DFF86844206008B90CF03CFE2068DFF8607401688847216837
:20083C0051F8042F38469047DFF85004DFF850143862DFF8500478627069086008B90CF0C8
:20085C0025FEB069DFF84014086008B90CF01EFEDFF838B4DFF838649BF804000DF034F9DD
:20087C00306008B900F045B99BF80500DFF824740DF02AF9386008B9306837E19BF8060054
:20089C00DFF814440DF020F9206020B930680DF023F938682AE19BF80700DFF800940DF040
:2008BC0013F9C9F8000038B930680DF015F938680DF012F9206819E1DFF8A4130A789BF8EE
:2008DC000000DFF8DCA3921C504380B20DF0FCF8CAF8080058B930680DF0FEF838680DF03F
:2008FC00FBF820680DF0F8F8D9F80000FEE0DC480078002800F00281BBF80210DFF8A4B39B
:20091C00484380B20DF0E0F8CBF8040078B930680DF0E2F838680DF0DFF820680DF0DCF8F5
:20093C00D9F800000DF0D8F8DAF80800DEE0CC4800780DF0C9F8DC49086080B930680DF0C0
:20095C00CBF838680DF0C8F8D9F800000DF0C4F8DAF808000DF0C0F8DBF80400C6E0C048BD
:20097C000078182148430DF0AFF8D04A1060B0B930680DF0B1F838680DF0AEF820680DF082
:20099C00ABF8D9F800000DF0A7F8DAF808000DF0A3F8DBF804000DF09FF8C348A5E0B048C6
:2009BC00007840010DF090F8C1490860D8B930680DF092F838680DF08FF820680DF08CF88E
:2009DC00D9F800000DF088F8DAF808000DF084F8DBF804000DF080F8B34800680DF07CF83A
:2009FC00B249086882E09E48007800010DF06CF8B0490860F0B930680DF06EF838680DF0AC
:200A1C006BF820680DF068F8D9F800000DF064F8DAF808000DF060F8DBF804000DF05CF8F1
:200A3C00A14800680DF058F8A04908680DF054F89F485AE08A48007800010DF045F89E49CD
:200A5C00086018BB30680DF047F838680DF044F820680DF041F8D9F800000DF03DF8DAF8FF
:200A7C0008000DF039F8DBF804000DF035F88E4800680DF031F88D4908680DF02DF88C4883
:200A9C0000680DF029F88B4908682FE074480078302148430DF018F8884A106070BB30683F
:200ABC000DF01AF838680DF017F820680DF014F8D9F800000DF010F8DAF808000DF00CF81D
:200ADC00DBF804000DF008F8774800680DF004F8764908680DF000F8754800680CF0FCFFC6
:200AFC00744908680CF0F8FF734800680CF0F4FF00200CF0CBFC4FF4804192E03168012095
:200B1C0008713068057331684D73306885733168CD7330680574002031684D743268D07207
:200B3C00A0223168487103213068C28001720720316848720020326890722821306841823A
:200B5C000121C176002031684877326882F85E00012031680877326882F85D003968087172
:200B7C003868057339684D73386885733968CD7338680574002039684D743A68D072396847
:200B9C0048713A6890724FF4207039680022C88008818A7401213A68D17421680D732268DB
:200BBC00557321688D732268D57321680D740021226855742368D972012122681171002153
:200BDC00236859712168C8800881002088722168887405202268D0743948016888472A498C
:200BFC000A6805461068804727490A6852F8043F0020984718481D4BC16818780A883149E2
:200C1C0002430A80284630490A6890470C212F4800F05EF80F4800F05FF800F061F84FF4A5
:200C3C00005198F80000BDE8F44F06F08DBE00BF6E4F0020044F0020604E0020084F00203A
:200C5C00B63F00502C4E0020E81200503C4E00200C4F0020344E0020D4F400006D4F0020E4
:200C7C007B4F00206B4F0020724F00206C4F0020F04E0020F44E00207C4B0020E5DA000072
:200C9C00F84E0020F5DA0000FC4E002018140020104F0020144F0020184F00201C4F002039
:200CBC00E81E0020684E0020004F0020804E0020844E0020884E00208C4E0020904E0020DF
:200CDC004C0F0020544F0020500F0020F84D0020DFF800F0E5710110DFF800F01D6E011045
:200CFC00DFF800F04D7101102DE9FE4F0F46994C0168E16241688068E0609748A160804781
:200D1C009648E16A0160A168DFF870B24160E168DFF8648281609249002FA246C16063D05D
:200D3C003D68E8788DF8080028798DF8090002A800F038F9A86808B18A490160E86808B105
:200D5C0089490160894C2878207068786070A878BE68A07031787368E170B26863602E69F0
:200D7C00A2607968E6610868E06068692062A8696062287F84F828002A6AE2627868866866
:200D9C001EB900200CF082FB00E066617868C06818B900200CF07AFB00E0A061786840684D
:200DBC0018B900200CF072FB00E020612869E061F86881680E6806B96E4E6D494FF0010951
:200DDC004E60C66881F801902EB900200CF05EFBF868454601E045462E6000685C46FE6860
:200DFC00A0617068E06106E000200CF04FFB4FF001095C464546286861494668621C04F1A0
:200E1C0014035020B04710B1286880688047DAF8080080475C4F0026834669467E705948BF
:200E3C003E700422206130460BF074FB0098B0F5801F0CD020B90BF097FE05F05BFB08E00D
:200E5C000AF0A6FC0CF094FD0420788001E00BF08BFE4E4FB0462868C7F808808069A66073
:200E7C00804778604A48468080F8009014200CF02BFEFF211422A0620DF00EF8E01CFF2187
:200E9C0002220DF009F814200CF01EFE414908600868142231460CF0FFFF3046FFF738FC1F
:200EBC0048460AF077FF3C480188FF2906D1022101807822001D31460CF0EEFF032000F03E
:200EDC0075F8042000F076F8052000F077F8062000F078F8072009F0E7FC304E08203070B4
:200EFC0006F1240000F072F809F0F8FE06F1360705200A213A460CF011FA38B14046C0F147
:200F1C000901401C07F8011B0A28F8DB3078102106F01AFD2F68224909200DF10A0201AB68
:200F3C007D68087010204146A847A06AE2690A270A309DF80A1000F8011BDAF80C107F1E84
:200F5C00F7D1921E5846E261884703F0E5FDBDE8FE8FC046440F002041490010F8440020D7
:200F7C00E0E30000A9CA00007DD6000098110020F013002067CE0000AC1400205812002041
:200F9C0089CF0000DDD60000A0140020DC1E00206C050020181F0020E00F0020840A002097
:200FBC002B1F0020DFF800F0B9920110DFF800F0C9790110DFF800F059880110DFF800F0EE
:200FDC00D9750110DFF800F07D810110DFF800F0518B011010B50CF065FF002400B10124ED
:040FFC00204610BDBE
:20100000B41200001810000015AB0110FDB301106DC00110FDAE011099B5011000000000F7
:08102000000000002D0000009B
:20102800B01200003C100000B1C00110A9BF011067C0011069B80110000000000000000035
:041048003000000074
:20104C00B012000060100000BDC00110CDB30110D9BD01106DB3011000000000000000005B
:04106C00310000004F
:20107000000000002814002004000000000000000000000020000000E8C9011030000000EE
:2010900028100000301400200400000000000000000000000C000000D8CA011018000000C9
:2010B0004C1000003814002004000000000000000000000024000000F0CA0110180000004D
:2010D00000000000401400200400000000000000000000001000000018CA01102C00000059
:2010F0000010000050140020040000000000000000000000200000006CCA011024000000BD
:20111000FFFFFFFF581400200400000000000000000000002800000090CA0110240000007C
:20113000FFFFFFFF601400200400000000000000000000001400000008CB011018000000FB
:20115000FFFFFFFF6814002004000000000000000000000058000000B4C9011034000000C9
:20117000FFFFFFFF701400200400000000000000000000001000000020CB01101800000097
:20119000FFFFFFFF781400200400000000000000000000001C000000B4CA011024000000C4
:2011B000FFFFFFFF801400200400000000000000000000003800000044CA011028000000EC
:2011D000FFFFFFFF881400200400000000000000000000005400000078C901103C00000061
:0811F00001000000A0F4000062
:0411F80001000000F2
:0411FC0000000E00E1
:0412000000000F00DB
:0412040032000000B4
:0412080001000000E1
:04120C00E8120020C4
:0412100000020000D8
:0412140000000000D6
:0412180001C90110F7
:04121C0000000000CE
:0412200000000000CA
:0412240008000000BE
:0412280000002200A0
:04122C00601100202D
:0412300000000000BA
:0412340000000000B6
:0412380008000000AA
:04123C00A8120020D4
:0412400000000000AA
:0412440000000000A6
:04124800080000009A
:04124C00000000009E
:04125000000000009A
:041254000000000096
:041258000000000092
:04125C00010000008D
:04126000F811002061
:041264000600000080
:041268000100000081
:04126C00CC10002082
:04127000000000007A
:041274000000000076
:041278000002000070
:04127C00000000006E
:02128000290043
:02128200010069
:02128400250043
:02128600300036
:02128800310033
:02128A002D0035
:02128C0001005F
:01128E00015E
:08129000030000002CF4000033
:0812980000000000000000004E
:0412A0000000010049
:0412A4000000030043
:0412A80013C401105A
:0412AC00C1D80000A5
:0412B000B812000070
:0412B400B81200006C
:0412B8000000000032
:0412BC00D813002023
:0412C00001DA00004F
:0412C4002000000006
:0412C8008CF30000A3
:0412CC0094F1000099
:0412D00029C101101F
:0412D400C9DE00006F
:0412D800CBDE000069
:0412DC00A1C7011095
:0412E000A3C701108F
:0412E4000000000006
:0412E800B3F300005C
:0412EC0010F00000FE
:0412F00028F00000E2
:0412F400F8EF00000F
:0212F8000200F2
:0212FA000900E9
:0212FC000100EF
:0212FE000000EE
:0113000001EB
:04130400A1D900006B
:04130800C1C100005F
:04130C00F5CF000019
:0413100039C40000DC
:041314009FC4000072
:0413180089B5000093
:04131C00059D00002B
:04132000EDDB000001
:041324007DA900009F
:0413280015C70110D4
:04132C0025C70110C0
:201330002DE9F04FD04C04F118012046ADF1440D09F02AFED54D00264FF6FF7001236670B2
:2013500032462082294604F1A4000AF0CDF80223324604F1C80029460AF0C6F8042332467C
:2013700004F1EC0029460AF0BFF84FF0040A04F1440810224046314684F802A008F058FB36
:2013900004F1540910224846314608F051FB04F11C073E6004F10A052E70E6712672072002
:2013B0006072CDF80080DFF81883022210200346414604F05FFA102003224146CDF80090F2
:2013D000034604F057FA1020524641460097134604F050FA4FF0080B4FF0030905F12A0035
:2013F0000C9005F179000D9005F11E000E9005F15A000F902435109517E06078A28FE18F26
:20141000B4F84050B4F8423006280ED1ADF81A20ADF81C10ADF81E50C048ADF820300CF099
:201430003BFD012006A908F035F8A069BA4A31464FF0FF33FFF762F9071CF6D002960DF1AA
:2014500022000DF12E0102AA0BF008F8002840F0CB81BDF822102078102940F0C1819DF823
:201470002E10884240F0BC81029D29884FF6FF728A4200F0AA812B78A23B00F08D812E3B13
:2014900040F0AE81A978B046002900F04981891E00F01881491E012940F2E880891E00F0F1
:2014B000A880491E7BD0491E5CD0083900F06481891E40F0678194F83A30A888052BADF8DF
:2014D0000C0047D001208DF8160094480CF0E4FC94F83A0001281ED004281CD003280DD068
:2014F00002280BD00298C188ADF80E100189ADF810104189ADF81210818927E0A08FE58F9D
:20151000ADF80E00B4F84030ADF81050B4F84210ADF812301AE0A08FE9888842D8BF081CE3
:20153000ADF80E002989E08F8842D8BF081CADF810006989B4F840008842D8BF081CADF885
:201550001200A989B4F84200884200DC0846ADF8140001E08DF81660AF49102003AA04F0F7
:2015700089F90FE1AD480CF097FC6B78002B40F00981E88860822889A0826889E082674876
:201590000CF078FA002840F0FD80656A002D00F0F9802B68608AA18AE28A9847F2E0AA889C
:2015B000B549102004F066F90C984146062208F03FFA6682A682E682A879207357480CF04F
:2015D0006BFC96480CF068FC4FF001084FF6FF702379208253B9A879082812BF84F801A0D1
:2015F0000520607040460CF06DFACBE084F80190C8E06B787BBB291D0C980A6802608988B5
:2016100081800623637068892082E8896082288AA082688AE082E878E07294F83A0001280E
:2016300018BF02280BD19A4910201F2204F022F94FF47A7180B2414338480AF0D9FC688936
:2016500000909249CDF804A0EA7810202D1D2B4604F010F999E06878312840F08A80E6701A
:2016700084F801A091E0C046700500206B78002B7FD1A878E3896178032815D0E078257968
:2016900033B9012814BF2671E67008E0D5DA0000054304D07F4819460AF0AAFC61780729E3
:2016B000DED10620607070E0062907D0E578002D08BF84F8019068D00220F3E70720F1E78E
:2016D00039D300006B78002B53D1EB78617893B902291DD007291BD0062902D1207901283D
:2016F00016D1032914D06B480CF0C4F980B901200CF0E8F90CE00BF035F90246A07962491F
:2017100000900D9843460190102004F0B3F868706D78002D2DD135E00700008038060020B9
:201730006B7833BB5C485749009002221020034604F0A0F859484A465249009010200346F6
:2017500004F098F8ED1C0E9829680160A98801238180207863700BF005F9024601230F9D82
:201770006079494900901020019504F083F8C0B258B184F801B008E0AA8841491020052385
:2017900004F078F8B8F1010F2AD1256A45B32D6835B36078A84723E06879132820D1288995
:2017B000012808D1607B022805D11C480CF074FB0AF09EFE14E036491020052204F05AF8C7
:2017D00081B216480AF014FC0AE06888C00B07D3334852462B4900901346102004F04AF809
:2017F000029808B10CF001FB2579E078790830D355EA00032DD0204600788DB9E179257AB8
:201810008DF82410109A8DF8255013680DF126052B609288AA8005E0051601105C06002055
:201830008DF82490617A8DF82C10A17A8DF82D100BF098F81149024609AB102004F01AF8CF
:2018500038B1256A84F801B01DB12D680DB15846A847B80803D31349304607F01BFEF808AD
:20187000FFF4E3AD607B401E3FF4C7AD401E7FF4DCAD0AF03DFED8E549AF00005944011003
:20189000C1170110496B000009450110396D0000F584011014060020B4050020C405002010
:2018B0008C050020AA0500202DE9FF47C34C0F460646F80B80F05881B80880F04981607A6C
:2018D000DFF804A3B90F80F0CB80E079390914D2B80BC0F06A8104F13C000CF0CBFA061C04
:2018F00008D0706830B17568F068B6F9241000222023A84727F4005757E1012800F0AB80ED
:20191000E06870300CF09EFA68460AF06DFC20B1009904F198000CF0EDF800254FF00108E5
:20193000E570A74884F805800CF06CF9A5492A4604F160000CF092FA50460068006B804786
:201950006061A2782169A369012AA0EB010018444FEA1030A06105D163781BB9E169B0EB0F
:20197000C12F3AD9DFF8649284F80280A9F1150000686570000A30D340F60900A08494F8A1
:20199000310000F0F00040F0010084F8310094F8300000F0F00084F83000A5620CF058FAAB
:2019B0004B4603F6FF7211686FF0020C21F00201116004F12401C3F8FBCF854AC3F8EB1F7E
:2019D00011688908FCD3C3F8FBCFD3F8FF1F41F00201C3F8FF1F0CF0F7FC7E4A10687E49AD
:2019F00020F00200256140F400701060032341F8043C41F230038B604046086050238B60EF
:201A100008604FF4CA638B600860237841F80C0C15601BB9E06838300CF030FA02200AF064
:201A300081FC112006F054F8307C10B90E2006F04FF8207A18B1257205200AF073FC67498E
:201A500065710878A57140B10D7004F1BC0004210CF01CFA01E00020E07127F00807A4E0B8
:201A700020B104200AF05EFC00206072B168088840F602084FF0000980450AD0B0F5C15F86
:201A900007D00A8B4FF61F60104040F43470088306E00A8A4FF61F60104040F43470088263
:201AB0002069F0B1DAF85400016804208847C0B1DAF800002569006B8047F168401B738AB6
:201AD000F060020BF26098188842F06002D240184008F06040F6C41181422CBFB0F5FA7FE2
:201AF000F16094F8310010F00F0F0CD1718C08F10700884207D1B56930466FF480714A46B6
:201B10004FF00073A847364904F160004A460CF0A5F9607860B10220ADF8040001A80BF0BE
:201B3000D3F8BDF80C0084F801904011A4F860010120E07084F8049009F07EF87569494651
:201B500030464FF080630A46A84727F000572CE004F076FE04F144000CF08CF927F00207E2
:201B700008B147F0020720E00CF072F9014604F140000CF07FF9061C12D0356AA8080FD2D1
:201B900025EA0500306208460CF01EFC706850B12A46F068B6F9241075680023A84702E0D6
:201BB00008460CF011FC27F4804727B104F1BC0039460CF06BF90090BDE8FF87C0140020C5
:201BD000E970000041CF00008C0100101500044010100440000004600C410440211F0020DD
:201BF0006D5000002DE9F04F09AFADF13C0D08900A92388809911E46ADF81800101C08BF82
:201C1000002000F08481002700F101094FF0FF3A4FF0010BB8466CE1252940F06381107885
:201C3000521C0A922D2818BFADF8068005D15846551CADF8060010780A9530281CBF4246C1
:201C5000434605D10A9908785A465B46491C0A912A28CDF80080554616D1306804930A99C6
:201C7000CDF808A0C01C4B1C20F00300001D306050F8044C0A93002C0878009418D5ADF8DD
:201C900006B06442009413E044460AE0610001EBC4010918A1F130040A9908780094491CC8
:201CB0000A91302801DB3A28F0DBCDF808A004932E282BD10A9908782A2801F101010A91BE
:201CD00011D13068CDF80880C01C20F00300001D306050F8045C002D48BF454608782B4639
:201CF000491C0A9111E0454643460AE0690001EBC5010918A1F130050A9908782B46491CE9
:201D10000A91302801DB3A28F0DB02930AB1224604926C2804D04C2818BFADF8048005D1B7
:201D30000A990878ADF804B0491C0A910BA9CDF80C800FAB07916428059300F08B80692810
:201D500000F08880BDF818C0752872D078286ED06F286AD0702850D063283DD073281ED087
:201D700009980A990128A1F101010A9115D96B490C68B5F1FF3F03D0A84288BF6D1C00D858
:201D9000099D029508A80AA932466B46A0473F180A99039801F1010974E040462AE0306876
:201DB0000A99C01C20F00300001D306050F8040CBCF1000F01F10109014608B955A0014680
:201DD00007910BF0D1FD0390B5F1FF3F5BD0A842C4BF281C039056E03068C01C20F00300EF
:201DF000001D306010F8040C5D468DF82C000A990395584601F1010945E008203568049067
:201E1000E81C20F00300001D306050F8041C082210230FA808F0C0F8401E079040210170FB
:201E30000A99079801F1010929E0082302E0102300E00A230A99306801F10109C01C20F0DB
:201E50000300001D306050F8041CAA42BCBF2A1C049210E00A99306801F10109C01C20F004
:201E70000300001D306050F8041CAA42BCBF2A1C04926FF009030FA808F08EF80790059D1E
:201E9000281A0390009C241ABDF8065000945DB906E008A8202109AA0AF0EDFE009C7F1C28
:201EB000641E0094F5D503980546401E039075B9BDF80600E8B10098401E009019D408A8B6
:201ED000202109AA0AF0D7FE00987F1CF4E70798411C0791017809AA08A80AF0CCFE039852
:201EF0007F1CE1E708A809AA0AF0C5FE7F1C09F101094A460A9812F8011C401C00290A9038
:201F10007FF48AAE089808B14146017038460FB0BDE8F08F286E756C6C2900C0ACF40000E8
:201F3000BB482DE9F84F0025BA4CB849056094F8E200002800F06581012800F02F81B64E67
:201F500002283CD0032840F05C8151F8250CD4F8B8100029A0F5C060C4F8D400B8BF494285
:201F70000028B8BF4042814226DA4FF08057D7F8A4014568B4F8BC0030214FF47F4208234E
:201F900000903046A847D7F8A4014568B4F8C00004214FF4F802122300903046A847D7F854
:201FB000A401B4F8D070456820214FF440620A2330460097A847012584F8D8501CE151F874
:201FD000258C0BF037FE2F4600B901273946934F38680028FCD0B146012609F10409D9F8CF
:201FF0002CA03E6009B10BF02BFECAF30720C4F8BC000BF01FFEAA4600B9B2463B68002BA6
:20201000FCD0D9F800B0BAF1000F3E6001D00BF017FECBF38440C4F8C0000BF00BFEAA4638
:2020300000B9B2463B68002BFCD0D9F81C90BAF1000F3E6001D00BF003FEC9F38120C4F88A
:20205000D000B8F5C061C4F8B81000F09C8094F8D80068B9C4F8D410D4F8C000C4F8C8000D
:20207000D4F8BC70C4F8C470D4F8D030C4F8CC30D4F8D410D4F8BC30002954BF02206FF0BF
:20209000010004F1C802176801EB41014018411000EB917107EBA1001060D4F8C810C4F8CA
:2020B000C43000291CDD1E293CDDD4F8CC0030B93429B4BF15391E21C4F8C81025E02A29D0
:2020D000BABFD4F8C8000B381E20C4F8C800D4F8C4003F28B4BF401C3F20C4F8C4001FE03A
:2020F000D4F8CC00032812D011F10B0FC6BFD4F8C8000B30301CC4F8C800D4F8C400002833
:20211000C4BF401E051CC4F8C450032508E011F1150FC6BFD4F8C8001530301CC4F8C80079
:20213000C4F8CC504FF08057D7F8A401B4F8C43030214FF47F424568374800930823A8475F
:20215000D7F8A40104214FF400321123456832480096A847B4F8C860D7F8A40104214FF4D1
:20217000F802122345682C480096A847D7F8A40120214FF440620A23B4F8CC6045682648C0
:202190000096A84701E084F8D85040F2FF50404502D8801C40452FD2082030E051F8251C61
:2021B0001F4F4BF2F5204843060A3868C0F3814001280CD11B4800680068804709F096FD14
:2021D0000BF044FD3111C010484306EBE03694F8E50030B91448006820F07F40801946083B
:2021F00001E084F8E5501148310C0660012741600F4D8760287808B90B2000E0052084F828
:20221000E40003F0A7F9BDE8F88FC0462D400C402C500C40300E002000A00C4000800C406E
:20223000B43F0050EC010010102009403C600C404DF300002DE9F04FB64D686885B00190BF
:2022500020B905B0BDE8F04F0CF0BAB80178DFF8C882B24EDFF8C892DFF8C8A201291CBF7D
:202270000229042946F2A81741F64C5B05D0402918BF802900F09A8043E10BF017FD0028FE
:20229000FAD00198007803F0F3FE0090446814B900200BF001F99AF80100002860D001F075
:2022B000A5FA0BF039FB02900168009801914F6807F04CFF022827D000990A78012ADBD10F
:2022D000994B19680A7A19F80230337018B90CF073F85844A0602069C17E01F0EF01C1766B
:2022F0002069C17E41F08001C1762069C17E01F0F00141F00201C1768C48B9684118206931
:20231000C16101210098A0E001980178802913D10822874832700178012903D09AF801000E
:20233000012803DD38690121C17213E0D8F828103A690878D0720DE07D49072030700A7832
:202350003869012A02D10123C37203E0D8F828104A78C2720298817901988AF80210CBE028
:202370000098002888D00199009A0078914205D101281CBF00200BF08FF815E0012840F0EC
:20239000C080694801680A7A19F8020030700CF013F83918A0680CF00BF818B90CF00CF86C
:2023B0005844A0600120A8700098A5E09AF8010000287DD001F01AFA0BF0AEFA0446206899
:2023D000029047689AF802000BF0A6FA03900BF073FC10F0070F3DD0A87803F049FE019072
:2023F000416801980091029907F0B0FE022831D001990A78012A2AD14B4B19680A7A19F8A1
:202410000230337028B90BF0D7FF83440098C0F808B000990869C17E01F0EF01C17600985D
:202430000069C17E41F08001C17600980069C17E01F0F00141F00201C176009AB9683B4830
:2024500041181069C16101210198A97054E000200BF022F80398A04228D00298017880290A
:2024700013D10822324832700178012903D09AF80100012803DD38690121C17213E0D8F857
:2024900028103A690878D0720DE02949072030700A783869012A02D10123C37203E0D8F83C
:2024B00028104A78C272A0798AF80200029823E00BF002FC10F0070F29D0A87803F0D8FDB4
:2024D00004462078D4F80480012820D116490A68107A19F8001031700BF06EFF3918D8F8FA
:2024F00008000BF065FF20B90BF066FF5844C8F808000120A870204605B0BDE8F04F05F09B
:20251000A1BB05B0BDE8F04F00200AF0C5BF05B0BDE8F08FE81E0020D4F400006F4F002073
:20253000289A0110684E0020104F0020F0D8FFFF734F00202DE9F04F0C46E00789B00BD514
:202550000BF0A8FA28B100218160A448006800B1804784F001003EE1A00710D50020069051
:202570000021049000230290009005910393019101223C200BF018FF84F002002BE11D253E
:202590006007974E974F40F18A8000200790834695498878FF2804BF00200AF07DFF386840
:2025B00090F8A0000BF0B8F980463868C07A98F82691022818BF032808F5907A06D106F14F
:2025D0000D000BF0EDFE08B906F1070B514648460BF0E2FE88B33868807A002818BF012831
:2025F00004D1314650460BF0D3FE04E05246494630460BF0C9FEFF2834D005FB00F906EBC5
:20261000090506225146E81D0BF078F816F8090040F00209E81D079006223868817E01F0C7
:20263000010188F8261105F1010A386800F1140108F590700BF062F814E0514648460BF0C4
:202650009FFE78B15246494630460BF09DFEFF2808D006F10D01454348190BF0A1FE08B131
:2026700049F0020908F12C004B4601780691418909090591B8F82220079904920122C0883B
:20269000029140080390CDF804B0CDF800A0002098F806100BF088FE84F004009BE020067E
:2026B00010D5002006900021049000230290009005910393019101223B200BF075FE84F057
:2026D000800088E0E0043BD5F11D06F10D000BF053FE38684179012923D1017A012918BFBC
:2026F00004291ED1C17A022918BF032919D1817E00F1140230460BF047FEFF2811D045430F
:20271000354405F10D000BF04BFE50B9E91D05F10D000BF031FE38680622E91D14300AF0A1
:20273000EDFF324932484A6800784FF4805109F079F810B18E2007F041F884F480504AE0EF
:20275000A00505D50BF076FA2A4901200860FEE7610504D506F0F1FF84F480603BE06004A2
:2027700005D5812007F02AF884F4804033E0A00430D5214D286810B100200AF08DFE4FF01E
:20279000FF3028600BF0F4FD1C4D296851F8202F684690471A48016A426A2D68009101923D
:2027B0001849029100F128014A6809781368C06903938DF81010ADF812006B462E68124A8F
:2027D00012491348B0471349086003F01BF984F4005000E0002009B0BDE8F08F204F00203D
:2027F000AC450020104F0020684E0020784E00206E4F0020FC002043044F0020F04E002070
:202810009811002095DA00002C4D00206845002088490020EC4E00202DE9FC41A0F20137A2
:2028300014468846022F40F232819B4E9C493F1F0F2F04D9143F4CD0BF1E1CD011E0DFE813
:2028500017F0CF00C9000D01FA00C100B9002601AF00A700100010009D008F007F0074008B
:202870006600282880F21381B8F1020F40F00F818849238807E1B8F1010F40F00881F078D4
:20289000012800F00481324620781179107189B9002800F0FC805078012800F0B580042857
:2028B00000F0B280062800F0AF80052800F0AC80BDE8FC812078002840F0E98050780328E2
:2028D00000F0AF80072800F0AC80052840F0DF80A7E0B8F1010F40F0DA802078012840F007
:2028F000D68006F1EC000BF0C5F8002840F0CF803446002004F13A0106F0CCFD002840F04F
:20291000C68004F1C8000BF0C7FABDE8FC81B8F1020F40F0BC8020880A28C0F2B880B0F537
:20293000486F00F3B4808E1C17E0B8F1020F40F0AE802088B0F5FA7F80F2A9800E460CE04F
:20295000B8F1020F40F0A38020880628C0F29F80B0F5486F00F39B803E363080BDE8FC8103
:20297000B8F1020F40F0938020880628C0F28F80B0F5486F00F38B803C36EEE7B8F1010F59
:2029900040F085802078062880F28180454E0EE0B8F1010F7BD12078042878DA0A3606E0F7
:2029B000B8F1010F73D12078082870DA09363070BDE8FC81B8F1010F69D12078042866DA00
:2029D0000836F4E7B8F1010F61D1207804285EDCF61DECE7B8F1020F59D120880E36BCE78C
:2029F000B8F1010F53D13079012850D032462078D178D07069B9002849D05078012803D038
:202A1000042818BF052842D101200BF05BF8BDE8FC81207800283AD15078022818BF052811
:202A300035D1107809F09EFF1C490246102002F021FFBDE8FC8106F1830500211F22284602
:202A500006F0F6FF21464246284605F035FF44463078B47109F086FF002311E006F16405AC
:202A700000211F22284606F0E3FF21464246284605F022FF44463078747109F073FF012385
:202A90000094094901950246102002F0F3FEBDE8FC81C046BD840110700500209945011051
:202AB000B0050020AA050020094501102DE9F04F8246DAF800600C465FEA0208ADF11C0D48
:202AD00014BF00214FF0FF3106F1480083460AF086FF002818BF0B2040F00D81002588481F
:202AF000F460B8F1010F057007D06570022009F08FFD062009F08CFD01E0012060702078DF
:202B1000012840F2AB80801E012868D9801E012833D9801E012800F2DF800BF099F9069009
:202B30004FF0805000F5EE77D0F8DC01A378466A009321782846062908BF01200190012049
:202B50000290A068228AE1686368B047814606980BF03AFCB9F1000F40F0C080B8F1000F9D
:202B700002D00AF09BFD02E0504609F09EFE002800F0A4803868806A2AE00BF069F9069011
:202B90004FF0805000F5EE77D0F8DC01012306680093A168A27860682478AC46042C08BF82
:202BB0009C466346B047814606980BF00DFCB9F1000F40F09380B8F1000F02D00AF06EFD2F
:202BD00002E0504609F071FE002877D03868406880474A49C1F8B0510D6081467EE00BF0AD
:202BF00037F906904FF0805000F5EE76D0F8DC01E38A87690093E0680190208B0290A078D4
:202C10000390207D04900121059122782846022A08BF081CE1786268A368B8478146069877
:202C30000BF0D2FBB9F1000F58D1B8F1000F02D00AF034FD02E0504609F037FE00283DD04A
:202C50003068006A80475FEA000947D13068C569A168E28A2369E078A847BEE70BF0F8F893
:202C700006904FF0805000F5EE76D0F8DC01E38AC7680093E0680190208B0290A0780390B1
:202C9000207D2946049001200590257805B9014608466268A368E178B847814606980BF051
:202CB00093FBB9F1000F19D1B8F1000F02D00AF0F5FC02E0504609F0F8FD08B914201AE009
:202CD0003068406980475FEA000907D1306802692169E078904780E74FF0FF39B8F1010F5F
:202CF00005D0022009F01EFB062009F01BFB58460BF0C4F8484607B0BDE8F08F50450240F1
:202D10002A1F00202DE9FE4F05467F48002400680094C0090ED37D48007858B97D497C4823
:202D300051F8112C104040F0817041F8110C202008F056FD012D40F0E280DFF80892D9F8A9
:202D5000DC00012840F0D8800220C9F8DC000AF0CFF9012008F044FD5FEA000805D00120B4
:202D7000C9F8DC000AF0D4F9CBE00BF08BF8A34602906948694DC0F800B0A86A01680120D0
:202D90008847012804D1584607F016FA012000906348644FC0F800B0386811200AF062FF0E
:202DB00000B1012410200AF05DFF08B144F002040F200AF057FF08B144F004040B200AF01B
:202DD00051FF20B12868584E016B308888470A200AF048FF20B12868544E016B3088884738
:202DF0005348012606602868816944F020008847504806600AF030FF00F00101019140080B
:202E100014D2286A81684C4888478246BAF1040FF7D0BAF1010F04D1286A42684648032113
:202E300090474649086820F003000860584600F0E7FD2B683868986B8047019801280CD024
:202E5000BAF1010F04D1286A42683B48314690473A49086840F003000860314806602868C8
:202E70004169204688470B200AF0FCFE20B128682D4BC16A188888470A200AF0F3FE20B1EB
:202E900028682A4BC16A18888847294806600322C9F8DC20274BC3F800B02868416B20464B
:202EB00088470128F9D13868042008F099FC0446194806603868144800688009FBD300988B
:202ED000012802D1304607F077F90AF0B9FE082008F086FC07460298C9F8DC600BF044FA99
:202EF0001748008806F0B0FF0AF012F957EA040018BF4FF0FF3804E06FF0040801E06FF010
:202F100001084046BDE8FE8F14100940180F0020FFFFFCFC150009400C400940B80100107A
:202F3000000222432C2009408EEF00008AEF00002820086080010443004003402422084006
:202F500048F30000300E002010B50B7884074CBF43F0020303F0FD0304064CBF43F08003F4
:202F700003F07F0304074CBF43F0080303F0F70384064CBF43F0200303F0DF0310F0AA0F12
:202F90000B7004D0107840F00C00107010BD18B9117801F0F301117010BD2DE9F8430D4690
:202FB0001646287802281F464FF0000862D1686801784078089C01EB002189B220001CBF14
:202FD000B1F5285F0B205AD14FF42850091A08D0491E1ED0491E2CD0491E22D0491E2ED032
:202FF00048E0DDF82490E8680AF05EFF214680B2421A4A45ACBF4C46041BA4B260181628BD
:2030100004DA3C802246E86801440EE04FF00D0834E0E8680088022139803070000A707075
:203030002CE0062038800622E96830460AF066FB24E001203880E868017831701EE0E868B7
:20305000B0B108213980018831700188090A71704188B1704188090AF1708188317181889B
:20307000090A7171C188B171C088000AF07105E0398003E0A7F800804FF001084046BDE81A
:20309000F2832DE9F0470F4682B039780024022970D1804678680A9E0178DFF8E0A09146A1
:2030B000427801EB022189B24FF42850091A1D4606D0491E29D0491E4ED0491E39D059E057
:2030D000F8680AF0F1FE80B2B04204D3A819162803DB0D244FE007244DE0FB682A464946A5
:2030F00098190AF00BFBAD19F868ADB2C5F11602002140190AF0D6FEDAF8000000281CBF9F
:203110000268002A37D0002123E08EBB022DE0D199F8000099F80110FA6800EB0120108086
:20313000DAF8000000281CBF0268002A23D001210FE0EEB9062DCCD1F868062249460AF08A
:20315000DDFADAF8000000281CBF0268002A12D00321404690470EE056B9012DB9D199F876
:203170000000002813BF0128F9680870802402E00B2400E001242046BDE8F687101F0020B2
:203190007CB5894D144602460026A2F58062182A1AD8DFE812F0FE00F800F100E900E20028
:2031B000DC00D500D0001900C500BE00B700AE00A3001900190080006F00680054004C00B1
:2031D000420039002C002400282880F28580022940F0828021880BF0C3F80646E1E001295A
:2031F00040F0DE80002C00F0DB801135A6E0102940F0D680002C00F0D380284650301022A0
:2032100021460AF07BFACCE0012940F0C980002C00F0C68029468D1D90E0262940F0C080CF
:20323000002C00F0BD8005F160002622E8E7012940F0B680002C00F0B3806D1D7EE0602968
:2032500000D13CB9012940F0AB80002C00F0A8800D3573E005F18600214660220AF04EFA93
:20327000012068739DE0012940F09A8020780BF073F896E0012940F093802078022800F3BB
:203290008F800C3528702078022814BF301C01200BF05EF885E0072940F08280611C6846F1
:2032B00006220AF023F920786946324604F0E0FF04460A2C10DA0BF047F838B9204602F041
:2032D0006BFF09F08DFD07F00FFD6AE02A46012002F12C05285564E0022662E001295FD16A
:2032F000A87B21780028A9735BD12078012858D1E9E7012954D12478072C51DB102C4FDC27
:203310000B3537E001294BD124780A2C48DA093530E0012944D12478022C41DA083529E054
:2033300000293DD10BF010F810B90AF0B6FAC8E701240F351EE0012932D10A35247819E0B9
:2033500001292DD12478022C2ADAED1D12E0102926D12B4603F1400051E7012920D12478A7
:20337000022C1DDA2D1D05E0012919D12478042C16DCED1C2C7014E0012911D12478022CA8
:203390000EDAAD1CF6E702290AD120881435288007E0012904D12478022CD8BF6D1CE9DD5A
:2033B000182630467CBDC046840A00202DE9F04F044678488E46016894461F46BEF1000FC3
:2033D000ADF1440D4AD0BCF1000F47D09EF8002001209040014241D0BCF80000B0F5C15F8D
:2033F0002FD1DCF81400DCF818606B4BDCF81C50DFF8A8A10E904FF003080DF134090F96AB
:2034100018681095C0F3036B59F8046FB6B10021331F05200A4653F8045FAA4506D0401E72
:2034300001F1040102F10102F5D107E0052A05DA705820F4702040EA0B407050B8F1010881
:20345000E2D1C4F804E0C4F808C00AF001FD544D8346287820B158460AF0B6FF002095E0D0
:2034700002F0DCFC4F49086840F0020008600AA80AF0F8FA4FF0050905F1BC000AAA4A49EC
:20349000CDF8309008F06EFC0AA80AF0C2FA00264FF0FF0A05F1600019210AAB8DF8306005
:2034B000424ACDF82CA008F0E3FB0AA80AF0DAFA05F1F0000AAA3E49CDF8309008F052FC9D
:2034D0000AA80AF0A6FA4FF00108CDF82CA005F17C001A210AAB374A8DF8308008F0C8FBE4
:2034F0003549324605F19800134607F06DFF33480AF088FB324A3346042105F14C0009F02F
:20351000F7FB4FF6FF70A5F86001AE702E716E71AE71EE712E726E722E61C5F81C902B78C2
:2035300085F80180581C287058460AF04DFF1FB903AF38460AF0DCF9386820607868E06076
:20355000387C84F811802074788A60821D4DA5616561F86800B1A061B86800B160613146D1
:20357000782204F1200006F063FA04F13800314609F066FA68460AF029FC1349029404F188
:20359000700032466B4607F01FFF204611B0BDE8F08FC046D4210840541300500200F844EA
:2035B000C0140020002009406DD7000041CF000031810000B5950000C5DA0000E970000056
:2035D0005DB200008FAA000025DE0000F0B57348734A0078734C744B74490D2883B03CD844
:2035F000DFE800F0DB07070707D3D358D39292B0B0B7146041F204456D494C88AC421FBFBB
:203610004E8BAE424E8EAE4203D11D806948106072E0022C684D1C804FF4A05635D94FF418
:203630008067E41B1AD0241F012C1DD94FF47F77E41B1BD04FF44067E41B0FD0A41E012C6A
:203650000CD9241F0AD0641E012C0DD940F2F937E41B012C19D9241F08D096E0022814BFB5
:203670001E80564D156047E0554DFBE7554803681C7A012C05D141F2024048804883488662
:20369000F0E74E804E834E86ECE7002009F004FF83207EE04C488178FF2952D0182041434D
:2036B0004A48146040F204450068841C645A1C80641B012C464B70D94FF47F75641B0FD0FC
:2036D0004FF44065641B032C84BF641F012C0BD9A41E012C61D940F2FD35641B06D103E0A7
:2036F000801C41F201444452136005E0002009F0D3FE85200AF024FE03B0BDE8F040354808
:203710000078012104F026B940F204424888188090421CBF41F2084290423ED041F6040205
:20373000904211D12C4C2D4A25682D4800680023CDE9002355F8086F2A4B0222B0472A49A9
:203750000880F7BD48881880002009F0A5FE85201FE04888188002280DD940F20442801ACB
:203770001BD040F6FC72801A05D0083815D04FF47F72801AE8D1887B801CC0B2B528A8BF3A
:203790006620887300204880F7BD002009F084FE8420BDE8FE400AF0D3BDF7BD6F4F0020BE
:2037B000204F00201FDE0000504F0020CC4C0020204A002059550110615A0110B15401104B
:2037D000755B0110104F0020684E0020804E0020313901106E4F0020F04E0020020000807D
:2037F000EC4E002069C30000424F00202DE9FE4FDFF8FC8198F8011011B9002009F04CFEFD
:203810000AF0DAFD0546002405F6C4150027794EDFF8E4910EE038460AF07EF8417939B1CA
:20383000316882790A552946641C0AF085FDE4B27F1CFFB299F800008742ECDB98F8010086
:20385000844205D0002009F027FE82200AF078FD98F80100012840F0A980002701E07F1CB8
:20387000FFB299F80000874280F29A8038460AF053F8054668790028F1D03068A979027895
:2038900091421CBF002009F007FEA87986E0306810F809000AF040F800684268DAF80810EE
:2038B0009068814204BF3D4609F1010900F08D808FE03068047801210FE0D8F80420435CCF
:2038D00002F5AD7209FB03F509FB04FE555B32F80E20954238BF1C46491CFFB2B942ECDBB0
:2038F0004FF6FF700AF024FD834620460AF014F840F6C41500684168CDF800A000204FEAD6
:203910005B076F4382460291CDF804B016E020460AF002F801680A78802A04BFDBF81030F4
:203930005F610978402907D1344A8079136803EB401107F5A062CA610AF1010A0098824536
:2039500054DA306810F80A008442F5D0D8F8043009FB00F2991803F5AD73C9899A5A4B0898
:20397000934203D2009B891A8B42E5DA09F0D4FF0068D0F804B0029A0198DBF808109368F8
:2039900000EBD0704010A1F6C41105FB00300AF00FFD0028BBD0306810F80A00BDE8FE8F6B
:2039B000002009F079FD82200AF0CAFC98F8011030680AF0B9FC3068007809F0ADFF002544
:2039D0000168D1F804A04FF001096F1CA145FFF65EAFEDB2002D1CBFF8B20028A2464FF4A1
:2039F000C0797FF466AF3068047879E72046D5E7684E0020004F00207B4F0020844E00203F
:203A10002DE9F84FDFF8F4B10746ABF13500DFF8E0910068800880F0D98071480068006815
:203A300080477A490831D1F8008000254FEA28725FEA985102F101020AD2C0F13E0110F17D
:203A50000A0F4FEAE101D8BF08218A42B8BF0A1C644BD3F87C11C1F304611629A8BF2039DA
:203A70001B68C3F30443162BA8BF203B9A468918162905DA11F10A0FB8BF6FF0090100E039
:203A90001521594B594E01F01F0242F4F8521A80326812F0030F18BF0125D20828BF45F0C8
:203AB00002050FB145F004054A4692F90730C31A052B04DA9379AB4208BF918866D0DFF8CE
:203AD00034E10F28A0F10F0C25DB0CEB0013A3F1F00C4FEA2C26072E88BF07263446062C64
:203AF00088BF06245EF82470042303EB84037446E358DB1B03F0FF04EF0824BFC3F3072720
:203B10003C44AF0824BFC3F307473C446F0828BF04EB136401E0002426465EF826E0EF086F
:203B30000EF0FF0324BFCEF307273B44AF0824BFCEF307473B446F0828BF03EB1E63A4B2D9
:203B5000ACEB0626AAEB01017443002904F1800403EB1423D8BF0121342408F0FF074C43DF
:203B7000A1B27943B1FBF3F14FF6FF738B4238BF191C802889B2918005DA10F1800FB8BF0C
:203B90006FF07F0000E07F20D07195711A4800681F2910604FF0000008D340F2FF128A42C6
:203BB00006D24908401C8A42FBD301E01F219180134F0F39090940EAC10047EA0001CBF808
:203BD000FB1F0026CBF8FF6FBDE8F88F0D490E4F4A4608200F60921D1070BDE8F88FC046FD
:203BF000EC0100103C1100506E62084024220840081F00209C130050082009403500094040
:203C100000E7A48030100940FDFDA400AC3F00502DE9FE4F0E468246307AC10693461C46FC
:203C30004FF000090CD558460AF07AFB030000F0EA800A223146504698475FEA00094DD159
:203C50003078DDF838800D9D0C9F02281AD170680178407801EB002189B24FF42052891A0C
:203C7000012910D9891E3AD0491E14D0FD397BD0491E00F08280491E6ED0491E74D0491E94
:203C900000F09780ADE0002D2AD1F068017839800278416889E0002D22D101203880F068F1
:203CB0000178217000217089401C80B20AF034FB398860B10278921C511839804189617062
:203CD0004189090AA17002784168E01C6EE0091D398004220021601C0AF0E4F895E0002D5F
:203CF00068D1F0680588042139802570290A617028460DF102010AF00FFB5FEA000821D06A
:203D1000D8F80C50BDF802204FF6FF766B4631460AF0FEFA50B998F80030D8F804203C487B
:203D300002210AF0F1FA08B9ADF80060287802280AD169680222201D09F0E0FC3888801C9D
:203D5000388001E0ADF80050BDF80000A070BDF80000000AE07058E0002D2BD1F0680168CF
:203D7000504609F04EFE02E025BBF0680088022139802070000A607047E0F0680AF094F86B
:203D900080B229468842B8BF4FF007093DDB814208BF002206D008EB01028242B2BF424695
:203DB000451BAAB23A80F0680144204609F0A6FC2BE015B14FF00B0927E0F068072139807B
:203DD00001782170417861704188A1704188090AE17001792171C1886171C088000AA071AE
:203DF00013E058460AF08CFA5FEA00090BD00F980290CDF8048000953B4622463146504668
:203E1000C847814601E04FF00E094846BDE8FE8FCCF00000F8B57E4F04463868C16E002551
:203E3000002940F0F180102009F054FE39680028C86600F0E7808E6E1022214609F05EFCF7
:203E500039680878002840F08E80CA6ED6F8980012F80CCF00F001030CF0010C634518BFCC
:203E70000023400843EA4000C6F89800C0F34003D2F800C0CCF3400C634506BF430803F0CE
:203E90000103002320F0020040EA4300C6F89800C0F38003D2F800C0CCF3800C634506BF9E
:203EB000830803F00103002320F0040040EA8300C6F89800C0F3C003D2F800C0CCF3C00CAB
:203ED000634506BFC30803F00103002320F0080040EAC300C6F89800C0F30023D2F800C0C5
:203EF000CCF3002C634506BF030A03F00103002320F4807040EA0320C6F89800C0F3402376
:203F1000D2F800C0CCF3402C634506BF430A03F00103002320F4007040EA4320C6F89800A1
:203F3000C0F38023D2F800C0CCF3802C634506BF830A03F00103002320F4806040EA832051
:203F5000C6F89800C0F3C0231268C2F3C022934206BFC20A02F00102002220F4006040EA39
:203F7000C220C6F898008A6E92F89500030718D5C86E4368C3F3C00098B1C87840F00800D3
:203F9000C870D6F8981023480140C6F898103868C06EC16821F48071C16049084900C16078
:203FB00003E092F8330001282AD0607800281CBF7178002908D13968CA78130708D5002866
:203FD00004BF7078002803D03A68052111711CE06068C0F3800040B996F8950010F00400CA
:203FF00002D10120087110E00AD00878002819BF30782178317820780AF07EF9054604E0D8
:20401000182502E0132500E011252846F2BD00BF304F0020FEFEFFFF2DE9F0411C461546AA
:204030008C4208BF854282BF00230022E5E0002C08BF002D0AD100290EBF00286FF0000051
:204050006FF0000100F0E1F8BDE8F0815FF000085FF0000E002C08BF8D429CBF2C1C0025D3
:20407000070C47EA01470E0CB44208BFBD429EBF5FEA044444EA15445FEA0545070A47EA84
:2040900001670E0AB44208BFBD429EBF5FEA042444EA15645FEA0525470847EAC1774E08DE
:2040B000B44208BFBD4200F29380870847EA81778E08B44208BFBD427CD8C70847EA417719
:2040D000CE08B44208BFBD4266D8070947EA01770E09B44208BFBD4250D8470947EAC167A3
:2040F0004E09B44208BFBD423AD8870947EA81678E09B44208BFBD4224D8C70947EA4167EA
:20411000CE09B44208BFBD420DD8E60146EA5566EF01B14208BFB84201D3C01BB14158EBBD
:2041300008085EEB0E0EA60146EA95664FEA8517B14208BFB84201D3C01BB14158EB0808AB
:204150004EEB0E0E660146EAD5666F01B14208BFB84201D3C01BB14158EB08084EEB0E0EBB
:20417000260146EA15762F01B14208BFB84201D3C01BB14158EB08085EEB0E0EE60046EAFA
:204190005576EF00B14208BFB84201D3C01BB14158EB08084EEB0E0EA60046EA9576AF00C8
:2041B000B14208BFB84201D3C01BB14158EB08084EEB0E0E660046EAD5766F00B14208BFE8
:2041D000B84201D3C01BB14158EB08085EEB0E0EA14208BFA84201D3401BA14158EB080884
:2041F0005EEB0E0EA34208BFAA423EBF2D0A45EA0465240A89D3734642461E4617460B4609
:20421000024631463846BDE8F08170472DE9F0410446764DA178A869ADF1180D891F00F0AB
:20423000DE80C91E00F0C980491E5FD0491E48D0C91E3CD0481E40F0D580287A697AB8B907
:204250006878002831D0A0880AF052F8071C00F0C980A07A40080FD3787968B1E168890A53
:204270000AD2B91D01AA04F003F80A2804D10321A0880AF039F8B5E0287B022802D1A07A15
:204290000009F4D3A088797904F1080201F02AFAA869002800F0A6804368002B00F0A280D9
:2042B00000210A46A08898479CE00521E0E7002800F098804368002B00F094806278022106
:2042D000F0E709F0EFFB002800F08C80A86950B1076847B1206900906189227B637BE01CFD
:2042F0003C46A0477EE060890121C2E767784FF00008002F52D1A17949084FD3EF69002FA7
:204310004CD101A841460E2209F0CCFDA08809F0EFFF071C66D0606940B97879B91D062235
:204330008DF80A0001A809F0E9F919E06669307C062206F111018DF80A0001A809F0DEF9AD
:2043500007F10C00B91D062209F0D8F9B81D062206F1110109F0D2F9307C40F002007871F0
:20437000A1799DF81120C1F3800010438DF81100080905D39DF8110040F008008DF81100D3
:2043900001A8214600F022F928B92878022103F0E1FA404627E0A8694FF0150810B3436818
:2043B00003B3A088627801219847B8F1000F19D0A86943680321424674E7E078211D002218
:2043D00003F056FF0A280DDA410001EB800004F10C0225300421C0B202F0AEFB02E0A0882B
:2043F00006F0AAFD012006B0BDE8F081840A00202DE9F04F6C4CE2680746880FADF1140D7B
:20441000C0F0CF805068406808B18047E2685168664E886808B9CD6875B13568002DFCD054
:204430000022326010B18047E0684168C86800B180475F4808F048FC4FF00008C6F800802F
:204450005C4846F81C0C5C4809F0DCFB40F60A09A4F82490A378A4F82680BD6894F83000F7
:20447000C34604F1240A00F0F00084F83000012BC4F828B094F83100A5F8028000F0F000F8
:2044900040F0010084F8310001D17B7CABB1B8680088A9F10801814208D0B0F5C15F05D089
:2044B000298B4FF60F400840288304E0298A4FF60F400840288287F81180404801688368A8
:2044D0000193C368406B00911022694620F0784040F0805003903A48029304F0EDF9494615
:2044F00000E01D466B6813B118888142F9D1C5F804A0687B00F0F000687304F1380009F080
:20451000B9FC80680088A9F10701814220D0491C81421DD03B8CEBB197F82C0097F82D30F2
:20453000C7F824B000F0F00087F82C0003F0F00040F0010087F82D0007F12002A2629AF8DD
:204550000D00A7F8228000F0F0008AF80D0001E0C4F8108030680028FCD0C6F80080B96876
:20457000237A0A8A4FF6FF301040088283B91548006801680120884701280FD0687B00F077
:20459000F00040F0010068730F4809F03BFB05E007F08EFA0028FBD009F06AFCB86846F875
:2045B0001C0C05B0BDE8F08FC01400201C1004400100070601010E04B91800004C130050E4
:2045D00018000021E001001095A600002DE9F04F714CDFF8C0A1E56988468146ADF1140D7A
:2045F000002D4AD1B9F1000F00F09280B8F1000F00F08E8008F0D4FA06460A2E23DAD8F8DB
:2046100014702674002F39D0700010216A4600EB86002330C0B208F087FE90B950460778D2
:20463000FF211022684608F0BFFF50B93FB999F80600494600F0010009F052FE01E0012051
:20465000A074E56919E004F1E60B0A2700265846FF21062208F0A8FF68B97F1E0BF10E0B5A
:2046700006F10106F3D1607C002804BF0A2020744ED094F83660267400E0267C0A2E47DA2E
:20469000002D35D170000E214A4600EB86002030C0B202F051FA207C06F024FE6846FF21B6
:2046B000102209F0FFFB207C10216A467030C0B202F042FA217C0E220801A0EB410000194D
:2046D0004946E63009F01AF8D8F814206AB15046007840B9107C02F11101002300F001004F
:2046F00009F0FAFD01E00120A074C4F81C804CE0AA68002A3ED12A69002A2FD16A690ABB80
:20471000EA683AB9A07B08B107F0E2FF08F0FDFD01203BE07000102100EB86002430C0B292
:2047300002F00AFAE769217CFA68480000EB8100103225300421C0B202F0FEF9E1690020EF
:20475000C86022E07000102100EB86002330C0B202F0F2F9E1690020486116E070001C21B5
:2047700000EB86002230C0B202F0E6F9E169002008610AE070001C2100EB86002130C0B285
:2047900002F0DAF9E16900208860002005B0BDE8F08FC0465A4F0020840A002070B56F4C9C
:2047B00001466C3C6068491EADF1280D5DD0491E57D0891E42D0491E3BD0491E04D0491E70
:2047D00034D0491E30D02CE009F058FA6049102001F050F85F49C5B201AB10206A1E01F081
:2047F00049F848B900956068022100223CA308F018FA0DF106000CE006AD40F21530294653
:2048100001F05EFD60680221002239A308F009FA2846646806F030FC032103460022204607
:2048300059E00221002219E034A300E035A3002250E0142005F060FD38A307E004F16C0067
:2048500009F02AFB142005F057FD37A360680221002208F0E6F960680321052209F0CCF91E
:204870003BE0022134A30446D8E74FF4417008A901F026FD9DF821608DF8056000258DF8A7
:2048900008509DF822308DF807509DF824108DF806309DF820008DF80A109DF825208DF8B6
:2048B00004009DF823608DF80B2001AB2A498DF809601A680A6058684860666808A806F047
:2048D000DBFB034601212A46304608F0AAF960681CA32A46022108F0A4F90AB070BDC0466A
:2048F0004E756D20436F6E6E733A20256400C046436F6E6E656374656400C0464572726F3D
:204910007200C046436F6E6E6563746564204164766572746973696E6700C04654696D6547
:2049300064204F757400C046446973636F6E6E656374656400C046C04164766572746973CA
:20495000696E6700496E697469616C697A656400F17F0110097F0110BF08002074020020FC
:2049700066480178002900D170472DE9F043491E032985B004D9891F012940F2BC80B4E08D
:204990005F4CDFF880912168DFF87C8108685F4E00F10805062205F1080102A808F0AEFE87
:2049B0000622A91C684608F0A9FE2878C1091D2700F00F02032AC0F3801537D16079C0F3F5
:2049D000800081421ED12169062202A808F000FC00280AD06946284609F0DEFC002804D057
:2049F0003146684609F0D4FCFF2879D04743D8F80000807AF519002818BF02280AD00128BB
:204A100018BF03286CD1F25D691C484609F060FC102865D06B46EA1D2946484609F054FC25
:204A300006226946E81D08F069FE59E000F00F00052860D16079C0F38000814250D121691B
:204A5000062202A808F0C4FB002849D06946284609F0A2FC002843D03146684609F098FCDB
:204A7000FF283DD04743D8F80000807AF519002818BF01280AD0022818BF032830D1F25D12
:204A9000691C484609F024FC102829D040F2024009F016FC6B46EA1D2946484609F014FC6C
:204AB00006226946E81D08F029FED8F80010F05D88760622D8F80000691C143008F01EFEEB
:204AD0001348144A41F20441418041834186124801801249124808600121107802F03AFF7C
:204AF00021680A680020107105E0002008F0D4FC862009F025FC05B0BDE8F0836F4F0020D2
:204B1000F44B0020CC470020104F0020AC450020204A00206E4F0020504F0020204F0020AE
:204B3000595501102DE9FE4F674D664C674F2868626A066904F1200339460120B04710B1EC
:204B5000286880688047DFF89881DFF8849108F033F95FEA000B03D004F0C0F84FF0FF3BBA
:204B7000002637E00098216910F8062CA0F10C07032A02D171B388472CE0A06A9DF805C085
:204B90000A213246401E10F8013F9C4506D0491E02F10102F7D14FF0FF0A01E05FFA82FAE2
:204BB0002868BAF1FF0F00F1080011D0387907F0ABFAB979012904D0022904BF00998870C6
:204BD00001E0009908700099504608F021FB01E0006880472868C3690DF105016A4601A867
:204BF00098470028BED0D9F8000030F8167027B9761CF6B20A2EF8DB23E00A2E21DAD8F866
:204C100008008047D9F800107700002231F807A0CA53D8F80C1088472E4850F826202670F9
:204C30005146304690470646FF202070D8F808008047D9F800107A5A16437E52D8F80C101C
:204C5000884708F0B9F80746BB451AD007B9224FE069B84238BF071CD8F8080080478246A0
:204C70002868016A206A8847626A286817491B4B521C6262C6683846B047D8F80C10504657
:204C90008847A7682968606914318FB9D9F800000A270026835B33B10969606988472968BA
:204CB000D9F8000014317F1E06F10206F2D103E0096988472968143109684FF0FF308847C7
:204CD00045E7C04658120020AC14002051C10000181F002044F100008EC2F5287812002073
:204CF000440F00207CB56D4D044668680E4628B94FF00040002105F025FD686000213CA378
:204D10000A4607F08EFF20463DA3801E08D0801E61D0401E4CD0401E37D0401E22D00EE007
:204D30006868012E05D000210A4607F07AFF37A357E000210A4607F074FF39A351E06868E5
:204D500000210A4607F06DFF6868022100223AA307F067FF01208DF803009DF803000028B7
:204D7000FBD17CBD686800210A4607F05AFF68680221002236A307F054FF01208DF80200AD
:204D90009DF802000028FBD17CBD686800210A4607F047FF68680221002232A307F041FFA0
:204DB00001208DF801009DF801000028FBD17CBD686800210A4607F034FF686802210022F9
:204DD0002DA307F02EFF01208DF800009DF800000028FBD17CBD686800210A4607F021FF0F
:204DF00029A368680221002207F01BFF7CBDC0463E3E3E535441434B204153534552540050
:204E10002A2A2A4552524F522A2A2A003E3E20494E5445524E414C204552524F522100C078
:204E30003E3E20494E5445524E414C204657204552524F522100C0463E3E204445464155DA
:204E50004C54205350494E4C4F434B2100C046C03E3E2057524F4E47204150492043414C25
:204E70004C2100C03E3E204943414C4C2054494D454F55542100C0463E3E204943414C4C85
:204E90002041424F525421003E3E204F5554204F46204D454D4F52592100C04608020020B6
:204EB0002DE9F04FADF1240D079000F0B7FF6148007807F0E3FF604D0024012808D90A386A
:204ED0000FD0801E04D0401E0ED0401E09D006E008F078FB022804BF01210C1C06D06968CF
:204EF00005E005211F2401E0032107246960534A1068C0F38150012806D152F80C0C012738
:204F1000020E07FA02F0044308F09CFD524AFF230818401E471C28607F1E02F8013BFBD1E0
:204F3000079A1268002702F0FF03FE2B20D0DDF81CC096463B4601260EF0FF02FF2A10D0D5
:204F5000904205D3914203D806FA02F2144201D002206CE017430EF0FF02DFF8FCE00EF84E
:204F700002305CF804EF5B1C0EF0FF02FE2AE5D1092002F0C3FE07980121A86005F1280091
:204F900007F05EFD05F19806A8464FF0010A4FF0040B0025A9460AFA05F0044216D1074212
:204FB00004BF05F0FF0141F4C04104D02A480799405D51F82010224802F05EFAE8B24FF06A
:204FD000FF3108F007FAC6F8009001E0C6F800B0D8F800006D1C361D8542DCD904A808F02F
:204FF00018FD184C184A2078102104AB059008F10C0006F03DFE684608F034FDCDF80C904B
:205010006A4660681149029008F1640006F0AAFE0F4951F80D0C20F4F85040F4005041F84E
:205030000D0C0C4FC1F8FFAF4846C7F800A009B0BDE8F08F291F00201C0D0020B43F0050C7
:20505000007FC76740F4000001D40000C1B900000D30094008000940600D00202DE9F84F4F
:20507000694CE76B08F0BAFA6A4D002F4ED081081BD207F110020CCA002102400B4008BF9E
:20509000002A43D03A693E6A10403043386207F1180696E80C002764194307F1180610432B
:2050B00086E803004FF480412CE039693E6A07F1180341F0020108403043386293E80003FB
:2050D0000022002607F1180340EA080046EA090183E803003E69E2632B46A3F1100000F199
:2050F00008031968B14307F11006196096E8000301684B4699430160394604F1440006F033
:20511000CFF9022104F1BC0008F0C0FEAB46002601254FF002094FF0110AA846F0B208F0C4
:20513000F9FA071C30D0B87C01282DD1ABF11400797C0368113105FA01F223EA0201016039
:20515000797C4268113105FA01F111434160787C08FA00F0C0B208F0D7F9F868002107F0E0
:20517000F3FC812808BF87F8129081280CD0787C94F862110AFA00F0084384F862010021E8
:2051900004F1F00008F082FE761C032EC6D3204808F070FE0746E06B002832D167B36846ED
:2051B00005F04EFE30B1009820B1082004F0FEFBBDE8F88F082008F0A7F914493869A1F1C3
:2051D0000802136807F110061843106096E80C0051F8102C181C104341F8100C00250D60E4
:2051F000B86841F81C0C0F68002FFCD0084808F019FAE063BDE8F88F04F1BC00494608F0AA
:2052100045FEBDE8F88FC046C01400201C100440F81400201C10044060480178042900D8E3
:2052300070472DE9F84F891F2FD0491E012900F2AA805B4CA078FF2827D008F06DFB8246F1
:205250000AF16C06706809F037F80746387903281BD1B868017811F0030904D17068BDE8C4
:20527000F24F09F025B8457800F102080AF20F10B9F1030F00900DD045B1307830B90098EC
:205290003D21417001210098017084E0454801780129FAD09AF894000AF59A7B58B32D1FD5
:2052B0004346EAB24946504608F0FEFF50B900993D204870012000990870BDE8F24F3A484E
:2052D00008F0EEBF39480168884700904FF4C0709AF80620616842438818002180F83911D4
:2052F000DBF800109BF80600490805F0A1F8304900980A6890470020B9F1030FB8602ED0F7
:205310002C4840690078810708D5C0074CBF03200020EDB2401918F8000000E08120307243
:205330002549BBF83E000A78904211D3317A802918BF81290FBF7F21204A1078091A49B273
:2053500000914B46A078EAB2414608F0A5FF11E0A0784B46EAB2414608F09AFF0AE00F48B5
:205370000178082903D04146504608F08DFF404605F0DEFF706808F09BFF39465046BDE883
:20539000F44F08F07DBF002008F086F8BDE8F24F862008F0D5BFBDE8F18F00BF6F4F002016
:2053B000684E0020794F0020AC4500204C0F0020500F0020D4F400006B4F0020704F002093
:2053D0002DE9F04F8346ADF1140D0393BBF1000F02920E9801910F9C049000F0AC80081C44
:2053F00000F0A980101C00F0A680181C00F0A3800498002800F09F80002C00F0A180206A61
:20541000002800F09880524D676A281D0068002F00F09180A16A08F02FFF40B2002808BFED
:205430006FF0020700F0838084F82C002078618800EB80000918143188B2216A88474349E7
:20545000086030B92846406808F012FF4FF0FF376DE08A46628823786088DAF8001026784D
:205470009F1800EB0109781800F1040806EB460002EB430786187F18C018761880184018EA
:2054900000F11005204605F0C3FF2078C01C8010C9F800002078C01C8010C8F800002078B8
:2054B0000837C01C8010386020780C36C01C801030602078C01C801028602278594609F104
:2054D000040003F0F9F92278019908F1040003F0F3F922780299381D03F0EEF9009548463C
:2054F00041463A46334608F0BFFE47B222780398331D194603F0E0F922780498291D03F04F
:20551000DBF921786288DAF8000001EB81015218002104F08DFA616ADAF8000088470C481E
:20553000406808F0A5FEF8B2992808BF002784F82C70384606E01CB16FF0010084F82C006E
:205550006FF0010005B0BDE8F08FC046884F0020F81300202DE9F843614C5A4D5A4EDFF8B6
:2055700070815E4F94F8E4100846401E0B2864D8DFE800F07B2C4306234306234306766489
:20559000042907D001220A2945F8212C14BF0220032004E0202045F8210C0120024684F88C
:2055B000E200002045F8390C0827C5F8FF7FC5F8F37F45F8392CBDE8F883052914BF0920D2
:2055D0000620002784F8E400376075E094F8E170383D0120002FC5F81B0004BF062000219E
:2055F00002D00021F160032084F8E400032045F8010C3160306880085ED294F8E41033488B
:20561000012703290ED00068456800216022052300914046A84794F8E400062814BF0A20C7
:205630000720CFE700684568002160220523022000904046A8470420C4E7FEE72548264FE0
:205650000026012506600E203D6002F041FA022006F068FE84F8E45084F8E360BDE8F88383
:20567000002038600C25786024E04FF08059D9F8A0010168202088472C3D0F2045F8010C71
:2056900041F61D56C5F80360D9F8A401466800214FF4C0720723022540460095B047D9F842
:2056B000A401C66800214FF4C07207234046B0470120386084F8E45004F1780008F0C0FB41
:2056D000BDE8F88339400C4038600C40A401001000A00C402C500C4004800C4034600C40D8
:2056F000300E00202DE9F04F88468246ADF1AC0D299208F0FDFD5C4CE67894F80BB0A57AE1
:2057100094F80C90071C00F0AB8068460021A42208F0C8FB2801279A55498DF8046005F05D
:20573000030300F4807605F00405ADF800A0B9F1020F01EA020143EA01024C4B8DF8A0B0E1
:2057500046EA020100F4C06603EA010246EA020045EA00054FF00000279508BF01208DF82E
:20577000370008F07DFD412809DB207B00280CBF002008209DF8991008438DF89900607BCB
:20579000002804BF00208DF8380017D001208DF8380004F1860120220DF1390007F0AEFFD3
:2057B0000DF1590004F1A601202207F0A7FF0DF1790004F1C601202207F0A0FFA07940B1F2
:2057D0008DF8260004F1500110220DF1270007F095FF66793EB104F16000B91D062205467A
:2057F00007F0F6FC68B92079002804BF00208DF8050015D08DF8050004F140010DF10600B8
:205810000BE08DF805600DF1060005F11601102207F074FF0DF11600A91D102207F06EFF86
:20583000E07930B1B8F1000F03D0279941F002012791002100B10121A7789DF89900002F77
:2058500041EA00018DF899100CBF002004209DF89910084329998DF89900684608F0FCFCC8
:205870002BB0BDE8F08FC046840A0020FBF9FFFFFCFEFFFF0FB42DE9F04106AF8046ADF158
:20589000280D08F049FA3E1D26F00306361D30F0010001D107F0A9FFCDF81A601420ADF811
:2058B00016000025CDF80E50FF248DF818407B68CDF81E3008F0CCFC064608F02DFA30F039
:2058D000010015D007F03CFE4D492A468446062031F80C7F4FB14B681B689E4204D0401EAF
:2058F00002F10102F4D100E0D4B2604607F088FF404606F0E3FC0146FF2905D02046032229
:205910000DF11A0304F0C8FD08F0A2FC06F068FEA8460446CDF8008008F0FEF930F0010024
:2059300063D00098A04260D041F2883001A906F027FE009D002852D108F086FC01990127A6
:2059500046186068019B41464FF00052FAF7D6FE00282BD00DF122000DF1230102AA04F093
:20597000C1FEB0B99DF8220003A906F021FE38B9029A08F0B3F900281CBF029D474615D131
:205990000299684607F004F860684FF0005108F057FC0198B0F1FF3FD3D00028D1D008F03C
:2059B00053FC301A02D00199814216D207F0E8FC009E07F0C5FD083401463EB1324652F8C1
:2059D0000C0C40B9206842F80C0C2660084607F017FF384603E00246F1E70190B1E720B968
:2059F0002DB1284608F001FA01E007F0FEFEDDF81A0000680AB0BDE8F04104B07047C0462C
:205A10008C0F002070B5414C414B2568186855F8183F00224FF0FF3198473E483E4A416BA2
:205A30003E4C88683E4D41791170002608F004FC3C4808F0FDFB08F0F7FB3B48026800218C
:205A50005171A02301680722CB804A720321026811720021036859770268D176036883F814
:205A70005C10012102681177036883F85D100021006880F85E100EE06068F6B24FF4C07102
:205A9000714308444279012A04D1304607F044FF08F0C6FB761C2978F0B28842ECD308F07C
:205AB000BBFB2248224A0178117006F097F908F0AFFB2049204A00200870002111700120FA
:205AD0001E4A10701E4A11701E4A10701B201E4A11701E4A11701E4A11804FF4A4711D4A38
:205AF0001080FB201C4A11801C4A1D49108040F648000880FB211B4A11801B4A108008F093
:205B100083FB1A490020087070BD00BFF04E0020EC4E0020D4F40000714F0020684E0020DA
:205B30007B4F0020CC470020104F00206D4F00207A4F0020734F0020744F0020754F00204B
:205B5000764F0020774F0020784F0020794F0020524F0020444F0020464F0020484F0020BB
:205B70004A4F00204C4F00204E4F00206F4F00202DE9FF4104466668A7680D4608F068F9DD
:205B90003178012903D108F01FFC00208FE00121317008F019FC287870706878B07068688C
:205BB0007060A868B060E868F06028693061287D3075687D7075A87DB075A869B061287FFC
:205BD0003077687F7077A87FB0774FF00008C6F82080C6F83080454675627563B562B56376
:205BF00086F82C50102386F83C3086F82D5086F83D50786802F082F8204602F08BF92046EA
:205C100002F0F4FE60B9386807F052FA786801F05FFF08F01DF9357008F0D6FB2C4645E052
:205C3000684607F0F6FE0094387B224A0190B9686B4606F1800006F01BF8684607F012FF6F
:205C500000941D4938696A46029006F19C0006F089F8B07830B906F1D000294606F0F0FE22
:205C700016483061707830B906F1EC00294606F0E7FE1348F060684608F0A8F801958DF81B
:205C900000501049029406F584700A226B4605F09BFBB969FA6906F1400007F097FE0A4AC2
:205CB00006F16C000421234607F022F820460090BDE8FF812D660000C9BF0000CDDD0000F2
:205CD000C5DD00008192000075DB0000F0B5514C20780D46E90BADF11C0DC90372D1A80808
:205CF00060D2E069216A6A080ED2E80828BF85F0040580F08C80680904D303F0D3FE85F0EA
:205D1000100584E0002083E0868861B904F11600414A00904FF6FF710223012008F070FACC
:205D30000146216221B304A800900027019702230293FF220392E28A30460DF11203FDF761
:205D500067FF58B99DF813009DF81220216A12EB002204D04989304605F0A8FD216AE28AF6
:205D700008463B464FF6FF7108F0D2FA01462162A069002918BF85F001051AD168B14368CE
:205D90005BB1E0698088012100229847A069E7694368B88803210022984707F06FFB85F034
:205DB000010534E000200146FEF710FC18B185F00205012102E0022185F00205207801F0E0
:205DD000C9FD24E002F040FF071C1ED038780126B03811D0401E02D01F3808D011E0387906
:205DF00078B97888F9883A8905F060FD0AE03846FEF70CFA064604E0397907F10800FAF796
:205E100081FC16B1384607F0F3F985F40045A8B207B0F0BD840A0020D4F000002DE9FF4783
:205E3000484C94F8E700002876D13D4801273D4D006884F8E770EE7C84F8E6606B68C4F8AF
:205E50001031C0F3801084F8E800684607F0BEFF002604F10C0001966B468DF80060324919
:205E70000296324605F0B0FA304904F130006B46324605F0A9FA2E4904F154006B468146CC
:205E9000324605F0A1FAA96838468847DFF8B08028482A7D08F104030078284D1868C0F34E
:205EB000815A22B1BAF1030F04D184F8E170BAF1030F17D0BAF1020F14D0BAF1010F0ED0E8
:205ED000022006F0A5FB1C480068016804208847012804D028683221B1FBF0F10DE005F083
:205EF000D7FF12E0022006F093FBBAF1030F0CBF4FF47A7142F210712868B1FBF0F148460E
:205F100007F09CFF484607F09BFF40460068C00802D2304606F07CFB00200090BDE8FF8778
:205F30001410094038F300002FC20000C9830000399F0000291F0020E0010010141F0020F8
:205F5000B03F0050300E00202DE9F84F5FEA00091C46924600917DD0081C7BD0BAF1000FA4
:205F700078D0002C7BD0206A002873D03F4D616A281D006800296DD0A16A08F07DF940B288
:205F9000002808BF6FF002055FD084F82C002078618800EB400009180C3188B2216A884727
:205FB0003149AB46086030B9DBF8040008F060F94FF0FF3549E08846668865882178D8F83F
:205FD00000008F192D183F1806EB41063618204605F01EFA2078C01C8010286020783F1DF4
:205FF000C01C8010386020780836C01C8010306022784946281D02F05FFC28463A46334699
:20601000014608F0F9F845B2227800983B1D194602F052FC22785046311D02F04DFC2178CE
:206030006288D8F8000001EB41015218002103F0FFFC616AD8F800008847DBF8040008F0B6
:2060500017F9E8B2992808BF002584F82C502846BDE8F88F1CB16FF0010084F82C006FF013
:206070000100BDE8F88FC046884F0020F81300202DE9F0410746FF2F1ED107F01DFE10F0F8
:20609000070F16D0042005F0CFFF08B104200AE0012005F0C9FF08B1012004E0022005F093
:2060B000C3FF20B10220BDE8F04105F0D9BF07F0F3F90020BDE8F08105F0D2FF8046012FE3
:2060D000D8F80450334E04D0022F29D0042F3DD0EFE7022005F0A8FF80B1022005F0C0FF32
:2060F000074601207C6805F09FFF28B1A0683118A86808F05DF988B13846DBE7042005F091
:2061100093FF28B1042005F0ABFF0746012026E0012005F089FF08B94FF000084046C9E7F1
:20613000042005F081FF28B1042005F099FF0746022014E0012005F077FF28B1012005F04E
:206150008FFF074602200AE00220E2E7012005F06BFF88B1012005F083FF074604207C68B7
:2061700005F062FF0028C7D0A0683118A86808F01FF90028C0D1D1E7022005F055FF30B1CC
:20619000022005F06DFF074604207C68E8E70420BFE700BF589EFFFF2DE9F047464E05469F
:2061B000307CADF1500DA84209D13078012106F007F93078022106F003F907F05FF96C002C
:2061D00004EB85040E210FAA04F1200004F120075FFA80F9F8B207F0A7F8002867D10FA8F5
:2061F000FF21062207F0E0F9002860D104A81C2207F058FE6846FF21102207F053FE0DF1A1
:206210002C0A04F123001021C0B25246804607F08BF890B929480778FF211022504607F08D
:20623000C3F950B93FB99DF842000FA900F0010008F056F801E00120B0740FA8FF210E229E
:2062500007F030FE48460E210FAA00F075FC04AF06461C2104F121003A46C0B200F06CFC96
:206270001C2106433A4604F12200C0B200F064FC102106433A46404600F05EFC10210643EB
:206290003A4604F12400C0B200F056FC2534042106433A46E0B200F04FFC703510216A4607
:2062B00040EA0604E8B200F047FC204300E0002014B0BDE8F087C046840A00205A4F00200D
:2062D0002DE9F04F0C4645498A7AADF12C0D84460592087B0990CD7800954A7AC88ACB89DD
:2062F000CE7A91F804A091F801800492B1F842E008900A7A888A03928D780790CA79488A3A
:206310000292CF6906908A79088A01924A79E146A9F54079B9F11D0F10D8DFE809F05B5574
:2063300053514F4D4B494643413F3C3A380F3432302D2B2522201E0F1B1A1918BCF1280FE7
:2063500049DA274962461020FFF794FA1FE0099EB246D046CDF814801BE008980790079860
:206370000690DDF818E005E03431086820608888A08030E0704608E0B1F8400007E0C88F6B
:2063900003E0888F01E091F83A00034612E0208021E0059804900498039001E02E31E4E708
:2063B000039802900298009006E0019A83310DE064310BE01846EAE7009D0BE02831D4E709
:2063D000276008E0543100E044311022204602F073FA00E025700BB0BDE8F08F7005002084
:2063F000F58401102DE9FC4705466E68D5F80880B76B002F18BF4FF0FF307BD1316300249A
:20641000F477171C74631BD006F1400907F020FD82466946484605F04AFC00281ED45046C8
:2064300007F0D2FF9DF80000316B0870306B736B7F1E00F10100306303F101007063E5D1C2
:206450007078726B316B0128A1EB0201316303D1F36828469847726B14464AE0B7635046F2
:2064700007F0B2FF07F0F4FC244D0746287820B9022006F0CDF801202870384607F0A4FF98
:206490001D49086840F400700860D8F80010886B40F4FA608863707808BB716806F1EC0750
:2064B000384607F09CFAB8B1B4633846214607F096FA88B107F0CCFC0746287818B1022005
:2064D00005F030FF2C70384607F07EFF1027716B306BF777401A3063706BBDE8FC8796F860
:2064F0002D0030B1706B20B1B46306F19C0007F0CFFC2046BDE8FC8730100040221F0020F7
:206510002DE9FE4305F0E4FDDFF80C81814608F1020000880027011F8CB26FF00301401850
:2065300080B204285ADBFF254FF6FF7620466946042205F0F5FFBDF800309E4237D0002BBF
:2065500035D0D80BC2032FD19D422DD0381FDDB280B2042815DBB0F5805F12DA00F1885233
:20657000126801A90A60BDF804108D4207D0BDF80610401A001F80B20428ECDA01E00123A1
:2065900000E00023BDF802001BBB211A001D8BB282B207F18851184605F0C2FFBDF80200F6
:2065B000C119091D8FB214E0BDF8020011E0BDF8020003466FF30E0363B9011D8C4208DA91
:2065D000002006F069FF484606F04AFF0020BDE8FE83241A241FA4B2042CA7DA05F0DEF8C7
:2065F0003FB10C484FF088513A4607F0A7FB07F0C5F9484606F034FF4246507800281CBF57
:206610000020011C03D1C7F58054391DA0B25180BDE8FE8304E00100A01400202DE9F84320
:206630008146D9F808703868066CD9F8045046646A6CAB6CA86B16F4F06F0146A2EB030811
:206650002ED1F00919D2700961D389B195F83C40641EA14298BF0C1C4846214606F053F93C
:20667000A86B001BA86352D105F19C0007F010FC4846414606F0C8FB49E00029F8D04846A3
:2066900006F041F995F82D10A86311B900283ED101E00020A86305F19C0007F0F9FB36E045
:2066B000F20A19D24FF00008444602E0A86B401EA86340B34846012106F025F938684468B1
:2066D00014F00F04C0F80480F0D0286B401E2863686B401E686316E0386844680022202972
:2066F00004F00F044260CCBF20270F1C4846394606F009F9C7F12007B845C8BFB8464846F0
:20671000414606F081FBEC77484603F029FEB0090BD3A96A49B10F46484606F00BF9A862DA
:2067300018B94846391D04F0F7FCBDE8F8832DE9FE430E46814630887188814201D30100D2
:2067500001D1012074E00021ADF80410029100244FF6FF7827E00294287802283AD1BDF86E
:20677000007001218DF80610BF082878022861D1698904F8011B02226889000A04F8010BE8
:206790002046696806F0BAFFA41CBDF80400401CADF80400B9B2BDF8040088424AD268898A
